{"contracts/CorporateGovernanceUltraSimple.sol":{"CorporateGovernanceUltraSimple":{"abi":[{"inputs":[],"stateMutability":"nonpayable","type":"constructor"},{"inputs":[{"internalType":"address","name":"owner","type":"address"}],"name":"OwnableInvalidOwner","type":"error"},{"inputs":[{"internalType":"address","name":"account","type":"address"}],"name":"OwnableUnauthorizedAccount","type":"error"},{"anonymous":false,"inputs":[{"indexed":false,"internalType":"string","name":"name","type":"string"},{"indexed":false,"internalType":"string","name":"symbol","type":"string"}],"name":"CompanyInitialized","type":"event"},{"anonymous":false,"inputs":[{"indexed":true,"internalType":"address","name":"previousOwner","type":"address"},{"indexed":true,"internalType":"address","name":"newOwner","type":"address"}],"name":"OwnershipTransferred","type":"event"},{"anonymous":false,"inputs":[{"indexed":true,"internalType":"uint256","name":"proposalId","type":"uint256"},{"indexed":true,"internalType":"address","name":"proposer","type":"address"}],"name":"ProposalCreated","type":"event"},{"anonymous":false,"inputs":[{"indexed":true,"internalType":"uint256","name":"proposalId","type":"uint256"},{"indexed":false,"internalType":"bool","name":"passed","type":"bool"}],"name":"ProposalFinalized","type":"event"},{"anonymous":false,"inputs":[{"indexed":true,"internalType":"address","name":"shareholder","type":"address"},{"indexed":false,"internalType":"uint32","name":"shares","type":"uint32"}],"name":"ShareholderRegistered","type":"event"},{"anonymous":false,"inputs":[{"indexed":true,"internalType":"uint256","name":"proposalId","type":"uint256"},{"indexed":true,"internalType":"address","name":"voter","type":"address"}],"name":"VoteCast","type":"event"},{"inputs":[{"internalType":"address","name":"_member","type":"address"}],"name":"addBoardMember","outputs":[],"stateMutability":"nonpayable","type":"function"},{"inputs":[{"internalType":"address","name":"","type":"address"}],"name":"boardMembers","outputs":[{"internalType":"bool","name":"","type":"bool"}],"stateMutability":"view","type":"function"},{"inputs":[{"internalType":"uint256","name":"","type":"uint256"}],"name":"boardMembersList","outputs":[{"internalType":"address","name":"","type":"address"}],"stateMutability":"view","type":"function"},{"inputs":[{"internalType":"uint256","name":"_proposalId","type":"uint256"},{"internalType":"uint8","name":"_choice","type":"uint8"}],"name":"castConfidentialVote","outputs":[],"stateMutability":"nonpayable","type":"function"},{"inputs":[{"internalType":"uint256","name":"_proposalId","type":"uint256"},{"internalType":"uint8","name":"_choice","type":"uint8"}],"name":"castVotePlain","outputs":[],"stateMutability":"nonpayable","type":"function"},{"inputs":[],"name":"companyName","outputs":[{"internalType":"string","name":"","type":"string"}],"stateMutability":"view","type":"function"},{"inputs":[{"internalType":"uint8","name":"_type","type":"uint8"},{"internalType":"string","name":"_title","type":"string"},{"internalType":"string","name":"","type":"string"},{"internalType":"string","name":"","type":"string"},{"internalType":"uint256","name":"_durationDays","type":"uint256"}],"name":"createProposal","outputs":[{"internalType":"uint256","name":"","type":"uint256"}],"stateMutability":"nonpayable","type":"function"},{"inputs":[{"internalType":"uint256","name":"_proposalId","type":"uint256"}],"name":"finalizeProposal","outputs":[],"stateMutability":"nonpayable","type":"function"},{"inputs":[],"name":"getCompanyInfo","outputs":[{"internalType":"string","name":"","type":"string"},{"internalType":"string","name":"","type":"string"},{"internalType":"string","name":"","type":"string"},{"internalType":"uint256","name":"","type":"uint256"},{"internalType":"uint256","name":"","type":"uint256"},{"internalType":"address[]","name":"","type":"address[]"}],"stateMutability":"view","type":"function"},{"inputs":[{"internalType":"uint256","name":"_proposalId","type":"uint256"}],"name":"getDecryptedResults","outputs":[{"internalType":"uint32","name":"","type":"uint32"},{"internalType":"uint32","name":"","type":"uint32"},{"internalType":"uint32","name":"","type":"uint32"},{"internalType":"bool","name":"","type":"bool"}],"stateMutability":"view","type":"function"},{"inputs":[{"internalType":"uint256","name":"_proposalId","type":"uint256"}],"name":"getProposalBasic","outputs":[{"internalType":"uint256","name":"","type":"uint256"},{"internalType":"uint8","name":"","type":"uint8"},{"internalType":"address","name":"","type":"address"},{"internalType":"bool","name":"","type":"bool"},{"internalType":"bool","name":"","type":"bool"}],"stateMutability":"view","type":"function"},{"inputs":[{"internalType":"uint256","name":"_proposalId","type":"uint256"}],"name":"getProposalContent","outputs":[{"internalType":"string","name":"","type":"string"},{"internalType":"string","name":"","type":"string"}],"stateMutability":"view","type":"function"},{"inputs":[{"internalType":"uint256","name":"_proposalId","type":"uint256"}],"name":"getProposalInfo","outputs":[{"internalType":"uint256","name":"","type":"uint256"},{"internalType":"uint8","name":"","type":"uint8"},{"internalType":"string","name":"","type":"string"},{"internalType":"string","name":"","type":"string"},{"internalType":"address","name":"","type":"address"},{"internalType":"uint256","name":"","type":"uint256"},{"internalType":"uint256","name":"","type":"uint256"},{"internalType":"bool","name":"","type":"bool"},{"internalType":"bool","name":"","type":"bool"},{"internalType":"uint256","name":"","type":"uint256"},{"internalType":"uint256","name":"","type":"uint256"}],"stateMutability":"view","type":"function"},{"inputs":[{"internalType":"uint256","name":"_proposalId","type":"uint256"}],"name":"getProposalStats","outputs":[{"internalType":"uint256","name":"","type":"uint256"},{"internalType":"uint256","name":"","type":"uint256"}],"stateMutability":"view","type":"function"},{"inputs":[{"internalType":"uint256","name":"_proposalId","type":"uint256"}],"name":"getProposalTiming","outputs":[{"internalType":"uint256","name":"","type":"uint256"},{"internalType":"uint256","name":"","type":"uint256"}],"stateMutability":"view","type":"function"},{"inputs":[{"internalType":"address","name":"_shareholder","type":"address"}],"name":"getShareholderInfo","outputs":[{"internalType":"bool","name":"","type":"bool"},{"internalType":"uint32","name":"","type":"uint32"},{"internalType":"string","name":"","type":"string"},{"internalType":"string","name":"","type":"string"},{"internalType":"bool","name":"","type":"bool"}],"stateMutability":"view","type":"function"},{"inputs":[],"name":"getTotalProposals","outputs":[{"internalType":"uint256","name":"","type":"uint256"}],"stateMutability":"view","type":"function"},{"inputs":[{"internalType":"uint256","name":"","type":"uint256"},{"internalType":"address","name":"","type":"address"}],"name":"hasVoted","outputs":[{"internalType":"bool","name":"","type":"bool"}],"stateMutability":"view","type":"function"},{"inputs":[{"internalType":"uint256","name":"_proposalId","type":"uint256"},{"internalType":"address","name":"_voter","type":"address"}],"name":"hasVotedOn","outputs":[{"internalType":"bool","name":"","type":"bool"}],"stateMutability":"view","type":"function"},{"inputs":[{"internalType":"string","name":"_name","type":"string"},{"internalType":"string","name":"_symbol","type":"string"},{"internalType":"string","name":"","type":"string"},{"internalType":"uint256","name":"_totalShares","type":"uint256"}],"name":"initializeCompany","outputs":[],"stateMutability":"nonpayable","type":"function"},{"inputs":[{"internalType":"address","name":"_member","type":"address"}],"name":"isBoardMember","outputs":[{"internalType":"bool","name":"","type":"bool"}],"stateMutability":"view","type":"function"},{"inputs":[],"name":"isInitialized","outputs":[{"internalType":"bool","name":"","type":"bool"}],"stateMutability":"view","type":"function"},{"inputs":[],"name":"owner","outputs":[{"internalType":"address","name":"","type":"address"}],"stateMutability":"view","type":"function"},{"inputs":[{"internalType":"uint256","name":"","type":"uint256"}],"name":"proposals","outputs":[{"internalType":"uint256","name":"id","type":"uint256"},{"internalType":"enum CorporateGovernanceUltraSimple.ProposalType","name":"proposalType","type":"uint8"},{"internalType":"string","name":"title","type":"string"},{"internalType":"address","name":"proposer","type":"address"},{"internalType":"uint256","name":"deadline","type":"uint256"},{"internalType":"bool","name":"isActive","type":"bool"},{"internalType":"bool","name":"isFinalized","type":"bool"},{"internalType":"uint32","name":"forVotes","type":"uint32"},{"internalType":"uint32","name":"againstVotes","type":"uint32"},{"internalType":"uint32","name":"abstainVotes","type":"uint32"},{"internalType":"uint32","name":"requiredThreshold","type":"uint32"}],"stateMutability":"view","type":"function"},{"inputs":[{"internalType":"address","name":"_shareholder","type":"address"},{"internalType":"uint32","name":"_shares","type":"uint32"},{"internalType":"string","name":"_companyId","type":"string"},{"internalType":"string","name":"_name","type":"string"}],"name":"registerShareholderPlain","outputs":[],"stateMutability":"nonpayable","type":"function"},{"inputs":[{"internalType":"address","name":"_member","type":"address"}],"name":"removeBoardMember","outputs":[],"stateMutability":"nonpayable","type":"function"},{"inputs":[],"name":"renounceOwnership","outputs":[],"stateMutability":"nonpayable","type":"function"},{"inputs":[{"internalType":"address","name":"","type":"address"}],"name":"shareholders","outputs":[{"internalType":"bool","name":"isRegistered","type":"bool"},{"internalType":"uint32","name":"shares","type":"uint32"},{"internalType":"string","name":"companyId","type":"string"},{"internalType":"string","name":"name","type":"string"}],"stateMutability":"view","type":"function"},{"inputs":[{"internalType":"uint256","name":"","type":"uint256"}],"name":"shareholdersList","outputs":[{"internalType":"address","name":"","type":"address"}],"stateMutability":"view","type":"function"},{"inputs":[],"name":"stockSymbol","outputs":[{"internalType":"string","name":"","type":"string"}],"stateMutability":"view","type":"function"},{"inputs":[{"internalType":"enum CorporateGovernanceUltraSimple.ProposalType","name":"","type":"uint8"}],"name":"thresholds","outputs":[{"internalType":"uint256","name":"","type":"uint256"}],"stateMutability":"view","type":"function"},{"inputs":[],"name":"totalShareholders","outputs":[{"internalType":"uint256","name":"","type":"uint256"}],"stateMutability":"view","type":"function"},{"inputs":[],"name":"totalShares","outputs":[{"internalType":"uint256","name":"","type":"uint256"}],"stateMutability":"view","type":"function"},{"inputs":[{"internalType":"address","name":"newOwner","type":"address"}],"name":"transferOwnership","outputs":[],"stateMutability":"nonpayable","type":"function"}],"evm":{"bytecode":{"linkReferences":{},"object":"60806040908082523461014b573315610135575060008054336001600160a01b03198083168217845592916001600160a01b03167f8be0079c531659141344cd1fd0a4f28419497f9722a3daafe3b4186f6b6457e08380a3808052600960205260328382205560018152603c8382205560028152604b838220556003815260328382205560048152604b8382205560058152603c838220553381526007602052828120600160ff19825416179055600c549068010000000000000000821015610121576001820180600c5582101561010d57600c90527fdf6966c971051c3d54ec59162606531493a51404a002842f56009d7e5cf4a8c701805490911633179055516123bf90816101518239f35b634e487b7160e01b81526032600452602490fd5b634e487b7160e01b81526041600452602490fd5b631e4fbdf760e01b815260006004820152602490fd5b600080fdfe6080604052600436101561001257600080fd5b60003560e01c8063013cf08b14611be75780630f8d403014611bc95780631a5007dd14611bab5780631de20bcf14611b385780631eac03ae14611a3a578063307a064f146119d557806333bac5031461197a578063392e53cd1461195757806339a169f9146118b05780633a98ef391461189257806341d14c221461178157806342f41d2a146104c157806343859632146106975780635652077c146116335780635a50d2f4146116025780635c2930ad1461158b5780635e6056bb146114f45780635ee230b714611499578063691e739814611018578063715018a614610fbf57806371942a01146105225780637b78ad4214610f635780638da5cb5b14610f3a5780639f83c4b214610e9f578063a39af88e14610a59578063a759e629146106e4578063b97d3e4014610697578063bc903cb814610561578063bff1378514610522578063c87cbe5614610506578063d098db5a146104c1578063d7710d62146102f6578063f2fde38b146102685763f5ec2eed1461019257600080fd5b3461026357600036600319011261026357604051600060018054906101b682611d02565b8085529181811690811561023c57506001146101f5575b6101f1846101dd81860382611d58565b604051918291602083526020830190611edc565b0390f35b6000818152925060008051602061236a8339815191525b8284106102245750505081016020016101dd826101cd565b8054602085870181019190915290930192810161020c565b60ff191660208087019190915292151560051b850190920192506101dd91508390506101cd565b600080fd5b3461026357602036600319011261026357610281611f44565b610289611ff0565b6001600160a01b039081169081156102dd57600054826bffffffffffffffffffffffff60a01b821617600055167f8be0079c531659141344cd1fd0a4f28419497f9722a3daafe3b4186f6b6457e0600080a3005b604051631e4fbdf760e01b815260006004820152602490fd5b3461026357600036600319011261026357600354600454604051906000926001938385549161032483611d02565b808352928781169081156104a25750600114610456575b61034b9250959392950384611d58565b610353611d7a565b9360405161036081611d3c565b60008152604051928391600c549788865260208096018099600c6000527fdf6966c971051c3d54ec59162606531493a51404a002842f56009d7e5cf4a8c79060005b81811061043a57505050916103e56103f3926103c3878a9897960387611d58565b6103d86040519b60c08d5260c08d0190611edc565b908b8203888d0152611edc565b9089820360408b0152611edc565b936060880152608087015285830360a0870152519182815201949160005b82811061041e5785870386f35b83516001600160a01b0316875295810195928101928401610411565b82546001600160a01b0316845292890192918a01918a016103a2565b50600086815290918660008051602061236a8339815191525b8284106104885750505090602061034b9282010161033b565b6020929450805483858a010152019101909186869361046f565b6020925061034b94915060ff191682840152151560051b82010161033b565b34610263576040366003190112610263576104f86004356104e0611f70565b90801515806104fa575b6104f39061205d565b61209c565b005b50600a548111156104ea565b34610263576000366003190112610263576101f16101dd611d7a565b34610263576020366003190112610263576001600160a01b03610543611f44565b166000526007602052602060ff604060002054166040519015158152f35b34610263576020366003190112610263576004358015158061068b575b6105879061205d565b60001981019081116106755761059c90611cc7565b50805460ff60018301541691600683101561065f5763ffffffff60018060a01b0360038301541691600481015461061d6105dd600260058501549401611e38565b61060f604051916105ed83611d3c565b60008352604051998a998a5260208a01526101608060408b0152890190611edc565b908782036060890152611edc565b936080860152600060a086015260c085015260ff8116151560e085015260ff8160081c161515610100850152600061012085015260701c166101408301520390f35b634e487b7160e01b600052602160045260246000fd5b634e487b7160e01b600052601160045260246000fd5b50600a5481111561057e565b34610263576040366003190112610263576106b0611f5a565b600435600052600860205260406000209060018060a01b0316600052602052602060ff604060002054166040519015158152f35b346102635760803660031901126102635767ffffffffffffffff60043581811161026357610716903690600401611f99565b6024358281116102635761072e903690600401611f99565b9060443583811161026357610747903690600401611f99565b50610750611ff0565b600560ff815416610a1e578151848111610941576001906107718254611d02565b90601f918281116109ce575b5080602083821160011461096257600091610957575b50600019600383901b1c191690831b1782555b8451958611610941576107ba600254611d02565b8181116108de575b50602090861160011461083d5794807f9f2b0152a49dba19e307c8e31a1c32a54f6dbd3318d3165028e7b602a85eedcf96600091610832575b50600019600383901b1c191690821b176002555b60643560035560ff1982541617905561082d60405192839283611f1c565b0390a1005b9050850151876107fb565b601f1986169060026000527f405787fa12a823e0f2b7631cc41b3ba8828b3321ca811111fa75cd3aa3bb5ace9160005b8181106108c857509187917f9f2b0152a49dba19e307c8e31a1c32a54f6dbd3318d3165028e7b602a85eedcf988594106108af575b5050811b0160025561080f565b87015160001960f88460031b161c1916905587806108a2565b878301518455928401926020928301920161086d565b60026000527f405787fa12a823e0f2b7631cc41b3ba8828b3321ca811111fa75cd3aa3bb5ace82808901861c82019260208a10610938575b01851c019083905b82811061092c5750506107c2565b6000815501839061091e565b92508192610916565b634e487b7160e01b600052604160045260246000fd5b905085015188610793565b849250601f198216908360005260008051602061236a8339815191529160005b8181106109b65750831161099d575b5050811b0182556107a6565b87015160001960f88460031b161c191690558880610991565b89830151845587959093019260209283019201610982565b8360005260008051602061236a83398151915283808401871c82019260208510610a15575b01861c019084905b828110610a0957505061077d565b600081550184906109fb565b925081926109f3565b60405162461bcd60e51b8152602060048201526013602482015272105b1c9958591e481a5b9a5d1a585b1a5e9959606a1b6044820152606490fd5b346102635760a03660031901126102635760043560ff81168091036102635760243567ffffffffffffffff811161026357610a98903690600401611f99565b60443567ffffffffffffffff811161026357610ab8903690600401611f99565b5060643567ffffffffffffffff811161026357610ad9903690600401611f99565b5060843590336000526007602052610af860ff6040600020541661201c565b600583111580610e95575b15610e6057600a549160018301831161067557600684101561065f5762015180908181029181830414901517156106755742018042116106755763ffffffff610b4b85611f80565b54169160405194610160860186811067ffffffffffffffff82111761094157604052600185018652602086015260408501523360608501526080840152600160a0840152600060c0840152600060e084015260006101008401526000610120840152610140830152600160401b8110156109415760018101600a55610bcf81611cc7565b929092610e4a5780518355600183016020820151600681101561065f5760ff80198354169116179055604081015192835167ffffffffffffffff811161094157610c1c6002830154611d02565b94601f8611610e03575b602095508590601f8311600114610d915791806101409492600594600092610d86575b50508160011b916000199060031b1c19161760028201555b6003810160018060a01b036060860151166bffffffffffffffffffffffff60a01b825416179055608084015160048201550191610cb060a08201511515849060ff801983541691151516179055565b60c0810151835460e083015165ffffffffff001990911691151560081b61ff00169190911760109190911b65ffffffff000016178355610100810151835469ffffffff000000000000191660309190911b63ffffffff60301b16178355610120810151835463ffffffff60501b191660509190911b63ffffffff60501b161783550151815463ffffffff60701b191660709190911b63ffffffff60701b1617905560405190600190338183017fcd423cc1203c0af96b9b3d68d73b3064a69de2d14450bb7181c5e5df2132b358600080a3018152f35b015190508880610c49565b90601f1983169160028501600052876000209260005b818110610dec5750926001928592600596610140989610610dd3575b505050811b016002820155610c61565b015160001960f88460031b161c19169055888080610dc3565b929389600181928786015181550195019301610da7565b600283016000526020600020601f830160051c810160208410610e43575b601f880160051c82018110610e37575050610c26565b60008155600101610e21565b5080610e21565b634e487b7160e01b600052600060045260246000fd5b60405162461bcd60e51b815260206004820152600d60248201526c125b9d985b1a59081a5b9c1d5d609a1b6044820152606490fd5b5080511515610b03565b346102635760203660031901126102635760043580151580610f2e575b610ec59061205d565b600019810190811161067557610eda90611cc7565b50805460ff60018301541691600683101561065f5760a09260ff916005600180871b0360038301541691015491604051948552602085015260408401528181161515606084015260081c1615156080820152f35b50600a54811115610ebc565b34610263576000366003190112610263576000546040516001600160a01b039091168152602090f35b346102635760203660031901126102635760043580151580610fb3575b610f899061205d565b6000198101908111610675576004610fa2604092611cc7565b500154815190600082526020820152f35b50600a54811115610f80565b3461026357600036600319011261026357610fd8611ff0565b600080546001600160a01b0319811682556001600160a01b03167f8be0079c531659141344cd1fd0a4f28419497f9722a3daafe3b4186f6b6457e08280a3005b3461026357608036600319011261026357611031611f44565b60249081359063ffffffff82168092036102635767ffffffffffffffff9160443583811161026357611067903690600401611f99565b6064358481116102635761107f903690600401611f99565b336000526020936007855261109b60ff6040600020541661201c565b6001600160a01b0316600081815260068652604090205490959060ff166114605760405191608083018381108382111761144b5760405260019384845286840191868352604085019182526060850152876000526006875260406000209161111285511515849060ff801983541691151516179055565b51825464ffffffff00191660089190911b64ffffffff001617825551805185830191848211611436576111458354611d02565b601f81116113ed575b508890601f831160011461137f5791806002949260609694600092611374575b5050600019600383901b1c191690881b1790555b01920151805191821161135f57819061119b8454611d02565b601f811161130c575b508690601f83116001146112a95760009261129e575b5050600019600383901b1c191690831b1790555b600b54600160401b8110156112895781810180600b5581101561127457600b6000527f0175b7a638427703f0dbe7bb9bbf987a2551717b34e79f33b5b1008d1fa01db90180546001600160a01b03191685179055600454600019811461125f577fde21d560f37149b87d711f68dd9f1ed9a63123ae2df83cdac230e105a09895e694955001600455604051908152a2005b85634e487b7160e01b60005260116004526000fd5b85634e487b7160e01b60005260326004526000fd5b85634e487b7160e01b60005260416004526000fd5b0151905088806111ba565b90859350601f1983169185600052886000209260005b8a8282106112f657505084116112dd575b505050811b0190556111ce565b015160001960f88460031b161c191690558880806112d0565b83850151865589979095019493840193016112bf565b9091508360005286600020601f840160051c810191888510611355575b84939291601f88920160051c01915b8281106113465750506111a4565b60008155859450879101611338565b9091508190611329565b87634e487b7160e01b60005260416004526000fd5b015190508d8061116e565b879291601f19831691856000528b6000209260005b8d8282106113d757505091606097959391856002989694106113be575b505050811b019055611182565b015160001960f88460031b161c191690558d80806113b1565b8385015186558c97909501949384019301611394565b8360005289600020601f840160051c8101918b851061142c575b601f0160051c019088905b82811061142057505061114e565b60008155018890611412565b9091508190611407565b8a634e487b7160e01b60005260416004526000fd5b88634e487b7160e01b60005260416004526000fd5b60405162461bcd60e51b81526004810186905260128189015271105b1c9958591e481c9959da5cdd195c995960721b6044820152606490fd5b3461026357602036600319011261026357600435600c5481101561026357600c6000527fdf6966c971051c3d54ec59162606531493a51404a002842f56009d7e5cf4a8c701546040516001600160a01b039091168152602090f35b34610263576020366003190112610263576001600160a01b03611515611f44565b16600052600660205263ffffffff6040600020611580815491611572611549600261154260018501611e38565b9301611e38565b91604051958560ff8897161515875260081c16602086015260a0604086015260a0850190611edc565b908382036060850152611edc565b600160808301520390f35b34610263576020366003190112610263576001600160a01b036115ac611f44565b16600052600660205263ffffffff60406000206101f18154916115726115d9600261154260018501611e38565b91604051958560ff8897161515875260081c166020860152608060408601526080850190611edc565b346102635760203660031901126102635760043560068110156102635761162a602091611f80565b54604051908152f35b346102635760203660031901126102635760043580151580611775575b6116599061205d565b33600052600760205261167360ff6040600020541661201c565b60001981018181116106755761168890611cc7565b50600581019081549060ff82169081611767575b5015611730577fb5ac567fcf1b069e0235e4f16734625c6cf54c1b40517fd9eb85517f6e1265a79161010060209261ffff19161780915563ffffffff90818160101c1691806116f0818460301c1685612319565b16801515938461170a575b505050506040519015158152a2005b829394509161171b61172193612331565b16612349565b9160701c1610848080806116fb565b60405162461bcd60e51b815260206004820152600f60248201526e43616e6e6f742066696e616c697a6560881b6044820152606490fd5b60049150015442118461169c565b50600a54811115611650565b346102635760203660031901126102635760043580151580611886575b6117a79061205d565b3360005260076020526117c160ff6040600020541661201c565b6000198101908111610675576117d8600591611cc7565b50015460ff8160081c16156118515760809063ffffffff90818160101c1691808260301c1691816118098486612319565b16928315159384611833575b50604051948552602085015260501c16604083015215156060820152f35b6118439194508361171b87612331565b828260701c16109286611815565b60405162461bcd60e51b815260206004820152600d60248201526c139bdd08199a5b985b1a5e9959609a1b6044820152606490fd5b50600a5481111561179e565b34610263576000366003190112610263576020600354604051908152f35b34610263576020366003190112610263576118c9611f44565b6118d1611ff0565b60018060a01b038091169081600052600760205260ff604060002054169081611948575b5015611913576000908152600760205260409020805460ff19169055005b60405162461bcd60e51b815260206004820152600d60248201526c43616e6e6f742072656d6f766560981b6044820152606490fd5b905060005416811415826118f5565b3461026357600036600319011261026357602060ff600554166040519015158152f35b3461026357602036600319011261026357600435600b5481101561026357600b6000527f0175b7a638427703f0dbe7bb9bbf987a2551717b34e79f33b5b1008d1fa01db901546040516001600160a01b039091168152602090f35b346102635760203660031901126102635760043580151580611a2e575b6119fb9061205d565b60001981019081116106755763ffffffff6005611a19604093611cc7565b50015460701c16815190600082526020820152f35b50600a548111156119f2565b3461026357602036600319011261026357611a53611f44565b611a5b611ff0565b6001600160a01b031660008181526007602052604090205460ff16611afc578060005260076020526040600020600160ff19825416179055600c54600160401b811015610941576001810180600c55811015611ae6577fdf6966c971051c3d54ec59162606531493a51404a002842f56009d7e5cf4a8c70180546001600160a01b0319169091179055005b634e487b7160e01b600052603260045260246000fd5b60405162461bcd60e51b815260206004820152601460248201527320b63932b0b23c903137b0b9321036b2b6b132b960611b6044820152606490fd5b346102635760203660031901126102635760043580151580611b9f575b611b5e9061205d565b6000198101908111610675576002611b78611b7f92611cc7565b5001611e38565b60405190611b8c82611d3c565b600082526101f160405192839283611f1c565b50600a54811115611b55565b34610263576000366003190112610263576020600a54604051908152f35b34610263576000366003190112610263576020600454604051908152f35b3461026357602036600319011261026357600435600a5481101561026357611c0e90611cc7565b5080549060ff60018201541690611c2760028201611e38565b9160018060a01b03600383015416916005600482015491015491604051958652600681101561065f578594611c6c916020870152610160806040880152860190611edc565b926060850152608084015260ff8116151560a084015260ff8160081c16151560c084015263ffffffff90818160101c1660e0850152818160301c16610100850152818160501c1661012085015260701c166101408301520390f35b600a54811015611ae657600690600a600052027fc65a7bb8d6351c1cf70c95a316cc6a92839c986682d98bc35f958f4883f9d2a80190600090565b90600182811c92168015611d32575b6020831014611d1c57565b634e487b7160e01b600052602260045260246000fd5b91607f1691611d11565b6020810190811067ffffffffffffffff82111761094157604052565b90601f8019910116810190811067ffffffffffffffff82111761094157604052565b6040519060008260025491611d8e83611d02565b80835292600190818116908115611e165750600114611db7575b50611db592500383611d58565b565b6002600090815291507f405787fa12a823e0f2b7631cc41b3ba8828b3321ca811111fa75cd3aa3bb5ace5b848310611dfb5750611db5935050810160200138611da8565b81935090816020925483858a01015201910190918592611de2565b905060209250611db594915060ff191682840152151560051b82010138611da8565b9060405191826000825492611e4c84611d02565b908184526001948581169081600014611eb95750600114611e76575b5050611db592500383611d58565b9093915060005260209081600020936000915b818310611ea1575050611db593508201013880611e68565b85548884018501529485019487945091830191611e89565b915050611db594506020925060ff191682840152151560051b8201013880611e68565b919082519283825260005b848110611f08575050826000602080949584010152601f8019910116010190565b602081830181015184830182015201611ee7565b9091611f33611f4193604084526040840190611edc565b916020818403910152611edc565b90565b600435906001600160a01b038216820361026357565b602435906001600160a01b038216820361026357565b6024359060ff8216820361026357565b600681101561065f576000526009602052604060002090565b81601f820112156102635780359067ffffffffffffffff82116109415760405192611fce601f8401601f191660200185611d58565b8284526020838301011161026357816000926020809301838601378301015290565b6000546001600160a01b0316330361200457565b60405163118cdaa760e01b8152336004820152602490fd5b1561202357565b60405162461bcd60e51b81526020600482015260126024820152714f6e6c7920626f617264206d656d6265727360701b6044820152606490fd5b1561206457565b60405162461bcd60e51b815260206004820152601060248201526f125b9d985b1a59081c1c9bdc1bdcd85b60821b6044820152606490fd5b6000913383526020906006825260409060ff8286205416156122d55760ff16916002831115806122b8575b15612287576000198401848111806122735760ff60056120e684611cc7565b500154168061225a575b1561222857858752600883528387203388528352838720805460ff1916600117905561221457612121600691611cc7565b50913387525263ffffffff809286205460081c1692801560001461219e5750612177926005612157920192835460501c16612319565b815463ffffffff60501b191660509190911b63ffffffff60501b16179055565b7ff1003b73c437642c0460aee9cd9628b0b8c447b66e6c7c905531b9c644214a11339280a3565b6001036121de576121d99260056121bc920192835460101c16612319565b65ffffffff000082549160101b169065ffffffff00001916179055565b612177565b6121d99260056121f5920192835460301c16612319565b63ffffffff60301b82549160301b169063ffffffff60301b1916179055565b634e487b7160e01b86526011600452602486fd5b835162461bcd60e51b815260048101849052600b60248201526a43616e6e6f7420766f746560a81b6044820152606490fd5b505085600461226883611cc7565b5001544211156120f0565b634e487b7160e01b87526011600452602487fd5b606491519062461bcd60e51b82526004820152600c60248201526b496e76616c696420766f746560a01b6044820152fd5b5083855260088152818520338652815260ff8286205416156120c7565b815162461bcd60e51b815260048101849052601a60248201527f4f6e6c79207665726966696564207368617265686f6c646572730000000000006044820152606490fd5b91909163ffffffff8080941691160191821161067557565b90606463ffffffff8093160291821691820361067557565b8115612353570490565b634e487b7160e01b600052601260045260246000fdfeb10e2d527612073b26eecdfd717e6a320cf44b4afac2b0732d9fcbe2b7fa0cf6a264697066735822122015886f5b9375a97a6eff7d718d3853f0c7fa29bccdb48e6126a3117391fe8c8c64736f6c63430008140033","opcodes":"PUSH1 0x80 PUSH1 0x40 SWAP1 DUP1 DUP3 MSTORE CALLVALUE PUSH2 0x14B JUMPI CALLER ISZERO PUSH2 0x135 JUMPI POP PUSH1 0x0 DUP1 SLOAD CALLER PUSH1 0x1 PUSH1 0x1 PUSH1 0xA0 SHL SUB NOT DUP1 DUP4 AND DUP3 OR DUP5 SSTORE SWAP3 SWAP2 PUSH1 0x1 PUSH1 0x1 PUSH1 0xA0 SHL SUB AND PUSH32 0x8BE0079C531659141344CD1FD0A4F28419497F9722A3DAAFE3B4186F6B6457E0 DUP4 DUP1 LOG3 DUP1 DUP1 MSTORE PUSH1 0x9 PUSH1 0x20 MSTORE PUSH1 0x32 DUP4 DUP3 KECCAK256 SSTORE PUSH1 0x1 DUP2 MSTORE PUSH1 0x3C DUP4 DUP3 KECCAK256 SSTORE PUSH1 0x2 DUP2 MSTORE PUSH1 0x4B DUP4 DUP3 KECCAK256 SSTORE PUSH1 0x3 DUP2 MSTORE PUSH1 0x32 DUP4 DUP3 KECCAK256 SSTORE PUSH1 0x4 DUP2 MSTORE PUSH1 0x4B DUP4 DUP3 KECCAK256 SSTORE PUSH1 0x5 DUP2 MSTORE PUSH1 0x3C DUP4 DUP3 KECCAK256 SSTORE CALLER DUP2 MSTORE PUSH1 0x7 PUSH1 0x20 MSTORE DUP3 DUP2 KECCAK256 PUSH1 0x1 PUSH1 0xFF NOT DUP3 SLOAD AND OR SWAP1 SSTORE PUSH1 0xC SLOAD SWAP1 PUSH9 0x10000000000000000 DUP3 LT ISZERO PUSH2 0x121 JUMPI PUSH1 0x1 DUP3 ADD DUP1 PUSH1 0xC SSTORE DUP3 LT ISZERO PUSH2 0x10D JUMPI PUSH1 0xC SWAP1 MSTORE PUSH32 0xDF6966C971051C3D54EC59162606531493A51404A002842F56009D7E5CF4A8C7 ADD DUP1 SLOAD SWAP1 SWAP2 AND CALLER OR SWAP1 SSTORE MLOAD PUSH2 0x23BF SWAP1 DUP2 PUSH2 0x151 DUP3 CODECOPY RETURN JUMPDEST PUSH4 0x4E487B71 PUSH1 0xE0 SHL DUP2 MSTORE PUSH1 0x32 PUSH1 0x4 MSTORE PUSH1 0x24 SWAP1 REVERT JUMPDEST PUSH4 0x4E487B71 PUSH1 0xE0 SHL DUP2 MSTORE PUSH1 0x41 PUSH1 0x4 MSTORE PUSH1 0x24 SWAP1 REVERT JUMPDEST PUSH4 0x1E4FBDF7 PUSH1 0xE0 SHL DUP2 MSTORE PUSH1 0x0 PUSH1 0x4 DUP3 ADD MSTORE PUSH1 0x24 SWAP1 REVERT JUMPDEST PUSH1 0x0 DUP1 REVERT INVALID PUSH1 0x80 PUSH1 0x40 MSTORE PUSH1 0x4 CALLDATASIZE LT ISZERO PUSH2 0x12 JUMPI PUSH1 0x0 DUP1 REVERT JUMPDEST PUSH1 0x0 CALLDATALOAD PUSH1 0xE0 SHR DUP1 PUSH4 0x13CF08B EQ PUSH2 0x1BE7 JUMPI DUP1 PUSH4 0xF8D4030 EQ PUSH2 0x1BC9 JUMPI DUP1 PUSH4 0x1A5007DD EQ PUSH2 0x1BAB JUMPI DUP1 PUSH4 0x1DE20BCF EQ PUSH2 0x1B38 JUMPI DUP1 PUSH4 0x1EAC03AE EQ PUSH2 0x1A3A JUMPI DUP1 PUSH4 0x307A064F EQ PUSH2 0x19D5 JUMPI DUP1 PUSH4 0x33BAC503 EQ PUSH2 0x197A JUMPI DUP1 PUSH4 0x392E53CD EQ PUSH2 0x1957 JUMPI DUP1 PUSH4 0x39A169F9 EQ PUSH2 0x18B0 JUMPI DUP1 PUSH4 0x3A98EF39 EQ PUSH2 0x1892 JUMPI DUP1 PUSH4 0x41D14C22 EQ PUSH2 0x1781 JUMPI DUP1 PUSH4 0x42F41D2A EQ PUSH2 0x4C1 JUMPI DUP1 PUSH4 0x43859632 EQ PUSH2 0x697 JUMPI DUP1 PUSH4 0x5652077C EQ PUSH2 0x1633 JUMPI DUP1 PUSH4 0x5A50D2F4 EQ PUSH2 0x1602 JUMPI DUP1 PUSH4 0x5C2930AD EQ PUSH2 0x158B JUMPI DUP1 PUSH4 0x5E6056BB EQ PUSH2 0x14F4 JUMPI DUP1 PUSH4 0x5EE230B7 EQ PUSH2 0x1499 JUMPI DUP1 PUSH4 0x691E7398 EQ PUSH2 0x1018 JUMPI DUP1 PUSH4 0x715018A6 EQ PUSH2 0xFBF JUMPI DUP1 PUSH4 0x71942A01 EQ PUSH2 0x522 JUMPI DUP1 PUSH4 0x7B78AD42 EQ PUSH2 0xF63 JUMPI DUP1 PUSH4 0x8DA5CB5B EQ PUSH2 0xF3A JUMPI DUP1 PUSH4 0x9F83C4B2 EQ PUSH2 0xE9F JUMPI DUP1 PUSH4 0xA39AF88E EQ PUSH2 0xA59 JUMPI DUP1 PUSH4 0xA759E629 EQ PUSH2 0x6E4 JUMPI DUP1 PUSH4 0xB97D3E40 EQ PUSH2 0x697 JUMPI DUP1 PUSH4 0xBC903CB8 EQ PUSH2 0x561 JUMPI DUP1 PUSH4 0xBFF13785 EQ PUSH2 0x522 JUMPI DUP1 PUSH4 0xC87CBE56 EQ PUSH2 0x506 JUMPI DUP1 PUSH4 0xD098DB5A EQ PUSH2 0x4C1 JUMPI DUP1 PUSH4 0xD7710D62 EQ PUSH2 0x2F6 JUMPI DUP1 PUSH4 0xF2FDE38B EQ PUSH2 0x268 JUMPI PUSH4 0xF5EC2EED EQ PUSH2 0x192 JUMPI PUSH1 0x0 DUP1 REVERT JUMPDEST CALLVALUE PUSH2 0x263 JUMPI PUSH1 0x0 CALLDATASIZE PUSH1 0x3 NOT ADD SLT PUSH2 0x263 JUMPI PUSH1 0x40 MLOAD PUSH1 0x0 PUSH1 0x1 DUP1 SLOAD SWAP1 PUSH2 0x1B6 DUP3 PUSH2 0x1D02 JUMP JUMPDEST DUP1 DUP6 MSTORE SWAP2 DUP2 DUP2 AND SWAP1 DUP2 ISZERO PUSH2 0x23C JUMPI POP PUSH1 0x1 EQ PUSH2 0x1F5 JUMPI JUMPDEST PUSH2 0x1F1 DUP5 PUSH2 0x1DD DUP2 DUP7 SUB DUP3 PUSH2 0x1D58 JUMP JUMPDEST PUSH1 0x40 MLOAD SWAP2 DUP3 SWAP2 PUSH1 0x20 DUP4 MSTORE PUSH1 0x20 DUP4 ADD SWAP1 PUSH2 0x1EDC JUMP JUMPDEST SUB SWAP1 RETURN JUMPDEST PUSH1 0x0 DUP2 DUP2 MSTORE SWAP3 POP PUSH1 0x0 DUP1 MLOAD PUSH1 0x20 PUSH2 0x236A DUP4 CODECOPY DUP2 MLOAD SWAP2 MSTORE JUMPDEST DUP3 DUP5 LT PUSH2 0x224 JUMPI POP POP POP DUP2 ADD PUSH1 0x20 ADD PUSH2 0x1DD DUP3 PUSH2 0x1CD JUMP JUMPDEST DUP1 SLOAD PUSH1 0x20 DUP6 DUP8 ADD DUP2 ADD SWAP2 SWAP1 SWAP2 MSTORE SWAP1 SWAP4 ADD SWAP3 DUP2 ADD PUSH2 0x20C JUMP JUMPDEST PUSH1 0xFF NOT AND PUSH1 0x20 DUP1 DUP8 ADD SWAP2 SWAP1 SWAP2 MSTORE SWAP3 ISZERO ISZERO PUSH1 0x5 SHL DUP6 ADD SWAP1 SWAP3 ADD SWAP3 POP PUSH2 0x1DD SWAP2 POP DUP4 SWAP1 POP PUSH2 0x1CD JUMP JUMPDEST PUSH1 0x0 DUP1 REVERT JUMPDEST CALLVALUE PUSH2 0x263 JUMPI PUSH1 0x20 CALLDATASIZE PUSH1 0x3 NOT ADD SLT PUSH2 0x263 JUMPI PUSH2 0x281 PUSH2 0x1F44 JUMP JUMPDEST PUSH2 0x289 PUSH2 0x1FF0 JUMP JUMPDEST PUSH1 0x1 PUSH1 0x1 PUSH1 0xA0 SHL SUB SWAP1 DUP2 AND SWAP1 DUP2 ISZERO PUSH2 0x2DD JUMPI PUSH1 0x0 SLOAD DUP3 PUSH12 0xFFFFFFFFFFFFFFFFFFFFFFFF PUSH1 0xA0 SHL DUP3 AND OR PUSH1 0x0 SSTORE AND PUSH32 0x8BE0079C531659141344CD1FD0A4F28419497F9722A3DAAFE3B4186F6B6457E0 PUSH1 0x0 DUP1 LOG3 STOP JUMPDEST PUSH1 0x40 MLOAD PUSH4 0x1E4FBDF7 PUSH1 0xE0 SHL DUP2 MSTORE PUSH1 0x0 PUSH1 0x4 DUP3 ADD MSTORE PUSH1 0x24 SWAP1 REVERT JUMPDEST CALLVALUE PUSH2 0x263 JUMPI PUSH1 0x0 CALLDATASIZE PUSH1 0x3 NOT ADD SLT PUSH2 0x263 JUMPI PUSH1 0x3 SLOAD PUSH1 0x4 SLOAD PUSH1 0x40 MLOAD SWAP1 PUSH1 0x0 SWAP3 PUSH1 0x1 SWAP4 DUP4 DUP6 SLOAD SWAP2 PUSH2 0x324 DUP4 PUSH2 0x1D02 JUMP JUMPDEST DUP1 DUP4 MSTORE SWAP3 DUP8 DUP2 AND SWAP1 DUP2 ISZERO PUSH2 0x4A2 JUMPI POP PUSH1 0x1 EQ PUSH2 0x456 JUMPI JUMPDEST PUSH2 0x34B SWAP3 POP SWAP6 SWAP4 SWAP3 SWAP6 SUB DUP5 PUSH2 0x1D58 JUMP JUMPDEST PUSH2 0x353 PUSH2 0x1D7A JUMP JUMPDEST SWAP4 PUSH1 0x40 MLOAD PUSH2 0x360 DUP2 PUSH2 0x1D3C JUMP JUMPDEST PUSH1 0x0 DUP2 MSTORE PUSH1 0x40 MLOAD SWAP3 DUP4 SWAP2 PUSH1 0xC SLOAD SWAP8 DUP9 DUP7 MSTORE PUSH1 0x20 DUP1 SWAP7 ADD DUP1 SWAP10 PUSH1 0xC PUSH1 0x0 MSTORE PUSH32 0xDF6966C971051C3D54EC59162606531493A51404A002842F56009D7E5CF4A8C7 SWAP1 PUSH1 0x0 JUMPDEST DUP2 DUP2 LT PUSH2 0x43A JUMPI POP POP POP SWAP2 PUSH2 0x3E5 PUSH2 0x3F3 SWAP3 PUSH2 0x3C3 DUP8 DUP11 SWAP9 SWAP8 SWAP7 SUB DUP8 PUSH2 0x1D58 JUMP JUMPDEST PUSH2 0x3D8 PUSH1 0x40 MLOAD SWAP12 PUSH1 0xC0 DUP14 MSTORE PUSH1 0xC0 DUP14 ADD SWAP1 PUSH2 0x1EDC JUMP JUMPDEST SWAP1 DUP12 DUP3 SUB DUP9 DUP14 ADD MSTORE PUSH2 0x1EDC JUMP JUMPDEST SWAP1 DUP10 DUP3 SUB PUSH1 0x40 DUP12 ADD MSTORE PUSH2 0x1EDC JUMP JUMPDEST SWAP4 PUSH1 0x60 DUP9 ADD MSTORE PUSH1 0x80 DUP8 ADD MSTORE DUP6 DUP4 SUB PUSH1 0xA0 DUP8 ADD MSTORE MLOAD SWAP2 DUP3 DUP2 MSTORE ADD SWAP5 SWAP2 PUSH1 0x0 JUMPDEST DUP3 DUP2 LT PUSH2 0x41E JUMPI DUP6 DUP8 SUB DUP7 RETURN JUMPDEST DUP4 MLOAD PUSH1 0x1 PUSH1 0x1 PUSH1 0xA0 SHL SUB AND DUP8 MSTORE SWAP6 DUP2 ADD SWAP6 SWAP3 DUP2 ADD SWAP3 DUP5 ADD PUSH2 0x411 JUMP JUMPDEST DUP3 SLOAD PUSH1 0x1 PUSH1 0x1 PUSH1 0xA0 SHL SUB AND DUP5 MSTORE SWAP3 DUP10 ADD SWAP3 SWAP2 DUP11 ADD SWAP2 DUP11 ADD PUSH2 0x3A2 JUMP JUMPDEST POP PUSH1 0x0 DUP7 DUP2 MSTORE SWAP1 SWAP2 DUP7 PUSH1 0x0 DUP1 MLOAD PUSH1 0x20 PUSH2 0x236A DUP4 CODECOPY DUP2 MLOAD SWAP2 MSTORE JUMPDEST DUP3 DUP5 LT PUSH2 0x488 JUMPI POP POP POP SWAP1 PUSH1 0x20 PUSH2 0x34B SWAP3 DUP3 ADD ADD PUSH2 0x33B JUMP JUMPDEST PUSH1 0x20 SWAP3 SWAP5 POP DUP1 SLOAD DUP4 DUP6 DUP11 ADD ADD MSTORE ADD SWAP2 ADD SWAP1 SWAP2 DUP7 DUP7 SWAP4 PUSH2 0x46F JUMP JUMPDEST PUSH1 0x20 SWAP3 POP PUSH2 0x34B SWAP5 SWAP2 POP PUSH1 0xFF NOT AND DUP3 DUP5 ADD MSTORE ISZERO ISZERO PUSH1 0x5 SHL DUP3 ADD ADD PUSH2 0x33B JUMP JUMPDEST CALLVALUE PUSH2 0x263 JUMPI PUSH1 0x40 CALLDATASIZE PUSH1 0x3 NOT ADD SLT PUSH2 0x263 JUMPI PUSH2 0x4F8 PUSH1 0x4 CALLDATALOAD PUSH2 0x4E0 PUSH2 0x1F70 JUMP JUMPDEST SWAP1 DUP1 ISZERO ISZERO DUP1 PUSH2 0x4FA JUMPI JUMPDEST PUSH2 0x4F3 SWAP1 PUSH2 0x205D JUMP JUMPDEST PUSH2 0x209C JUMP JUMPDEST STOP JUMPDEST POP PUSH1 0xA SLOAD DUP2 GT ISZERO PUSH2 0x4EA JUMP JUMPDEST CALLVALUE PUSH2 0x263 JUMPI PUSH1 0x0 CALLDATASIZE PUSH1 0x3 NOT ADD SLT PUSH2 0x263 JUMPI PUSH2 0x1F1 PUSH2 0x1DD PUSH2 0x1D7A JUMP JUMPDEST CALLVALUE PUSH2 0x263 JUMPI PUSH1 0x20 CALLDATASIZE PUSH1 0x3 NOT ADD SLT PUSH2 0x263 JUMPI PUSH1 0x1 PUSH1 0x1 PUSH1 0xA0 SHL SUB PUSH2 0x543 PUSH2 0x1F44 JUMP JUMPDEST AND PUSH1 0x0 MSTORE PUSH1 0x7 PUSH1 0x20 MSTORE PUSH1 0x20 PUSH1 0xFF PUSH1 0x40 PUSH1 0x0 KECCAK256 SLOAD AND PUSH1 0x40 MLOAD SWAP1 ISZERO ISZERO DUP2 MSTORE RETURN JUMPDEST CALLVALUE PUSH2 0x263 JUMPI PUSH1 0x20 CALLDATASIZE PUSH1 0x3 NOT ADD SLT PUSH2 0x263 JUMPI PUSH1 0x4 CALLDATALOAD DUP1 ISZERO ISZERO DUP1 PUSH2 0x68B JUMPI JUMPDEST PUSH2 0x587 SWAP1 PUSH2 0x205D JUMP JUMPDEST PUSH1 0x0 NOT DUP2 ADD SWAP1 DUP2 GT PUSH2 0x675 JUMPI PUSH2 0x59C SWAP1 PUSH2 0x1CC7 JUMP JUMPDEST POP DUP1 SLOAD PUSH1 0xFF PUSH1 0x1 DUP4 ADD SLOAD AND SWAP2 PUSH1 0x6 DUP4 LT ISZERO PUSH2 0x65F JUMPI PUSH4 0xFFFFFFFF PUSH1 0x1 DUP1 PUSH1 0xA0 SHL SUB PUSH1 0x3 DUP4 ADD SLOAD AND SWAP2 PUSH1 0x4 DUP2 ADD SLOAD PUSH2 0x61D PUSH2 0x5DD PUSH1 0x2 PUSH1 0x5 DUP6 ADD SLOAD SWAP5 ADD PUSH2 0x1E38 JUMP JUMPDEST PUSH2 0x60F PUSH1 0x40 MLOAD SWAP2 PUSH2 0x5ED DUP4 PUSH2 0x1D3C JUMP JUMPDEST PUSH1 0x0 DUP4 MSTORE PUSH1 0x40 MLOAD SWAP10 DUP11 SWAP10 DUP11 MSTORE PUSH1 0x20 DUP11 ADD MSTORE PUSH2 0x160 DUP1 PUSH1 0x40 DUP12 ADD MSTORE DUP10 ADD SWAP1 PUSH2 0x1EDC JUMP JUMPDEST SWAP1 DUP8 DUP3 SUB PUSH1 0x60 DUP10 ADD MSTORE PUSH2 0x1EDC JUMP JUMPDEST SWAP4 PUSH1 0x80 DUP7 ADD MSTORE PUSH1 0x0 PUSH1 0xA0 DUP7 ADD MSTORE PUSH1 0xC0 DUP6 ADD MSTORE PUSH1 0xFF DUP2 AND ISZERO ISZERO PUSH1 0xE0 DUP6 ADD MSTORE PUSH1 0xFF DUP2 PUSH1 0x8 SHR AND ISZERO ISZERO PUSH2 0x100 DUP6 ADD MSTORE PUSH1 0x0 PUSH2 0x120 DUP6 ADD MSTORE PUSH1 0x70 SHR AND PUSH2 0x140 DUP4 ADD MSTORE SUB SWAP1 RETURN JUMPDEST PUSH4 0x4E487B71 PUSH1 0xE0 SHL PUSH1 0x0 MSTORE PUSH1 0x21 PUSH1 0x4 MSTORE PUSH1 0x24 PUSH1 0x0 REVERT JUMPDEST PUSH4 0x4E487B71 PUSH1 0xE0 SHL PUSH1 0x0 MSTORE PUSH1 0x11 PUSH1 0x4 MSTORE PUSH1 0x24 PUSH1 0x0 REVERT JUMPDEST POP PUSH1 0xA SLOAD DUP2 GT ISZERO PUSH2 0x57E JUMP JUMPDEST CALLVALUE PUSH2 0x263 JUMPI PUSH1 0x40 CALLDATASIZE PUSH1 0x3 NOT ADD SLT PUSH2 0x263 JUMPI PUSH2 0x6B0 PUSH2 0x1F5A JUMP JUMPDEST PUSH1 0x4 CALLDATALOAD PUSH1 0x0 MSTORE PUSH1 0x8 PUSH1 0x20 MSTORE PUSH1 0x40 PUSH1 0x0 KECCAK256 SWAP1 PUSH1 0x1 DUP1 PUSH1 0xA0 SHL SUB AND PUSH1 0x0 MSTORE PUSH1 0x20 MSTORE PUSH1 0x20 PUSH1 0xFF PUSH1 0x40 PUSH1 0x0 KECCAK256 SLOAD AND PUSH1 0x40 MLOAD SWAP1 ISZERO ISZERO DUP2 MSTORE RETURN JUMPDEST CALLVALUE PUSH2 0x263 JUMPI PUSH1 0x80 CALLDATASIZE PUSH1 0x3 NOT ADD SLT PUSH2 0x263 JUMPI PUSH8 0xFFFFFFFFFFFFFFFF PUSH1 0x4 CALLDATALOAD DUP2 DUP2 GT PUSH2 0x263 JUMPI PUSH2 0x716 SWAP1 CALLDATASIZE SWAP1 PUSH1 0x4 ADD PUSH2 0x1F99 JUMP JUMPDEST PUSH1 0x24 CALLDATALOAD DUP3 DUP2 GT PUSH2 0x263 JUMPI PUSH2 0x72E SWAP1 CALLDATASIZE SWAP1 PUSH1 0x4 ADD PUSH2 0x1F99 JUMP JUMPDEST SWAP1 PUSH1 0x44 CALLDATALOAD DUP4 DUP2 GT PUSH2 0x263 JUMPI PUSH2 0x747 SWAP1 CALLDATASIZE SWAP1 PUSH1 0x4 ADD PUSH2 0x1F99 JUMP JUMPDEST POP PUSH2 0x750 PUSH2 0x1FF0 JUMP JUMPDEST PUSH1 0x5 PUSH1 0xFF DUP2 SLOAD AND PUSH2 0xA1E JUMPI DUP2 MLOAD DUP5 DUP2 GT PUSH2 0x941 JUMPI PUSH1 0x1 SWAP1 PUSH2 0x771 DUP3 SLOAD PUSH2 0x1D02 JUMP JUMPDEST SWAP1 PUSH1 0x1F SWAP2 DUP3 DUP2 GT PUSH2 0x9CE JUMPI JUMPDEST POP DUP1 PUSH1 0x20 DUP4 DUP3 GT PUSH1 0x1 EQ PUSH2 0x962 JUMPI PUSH1 0x0 SWAP2 PUSH2 0x957 JUMPI JUMPDEST POP PUSH1 0x0 NOT PUSH1 0x3 DUP4 SWAP1 SHL SHR NOT AND SWAP1 DUP4 SHL OR DUP3 SSTORE JUMPDEST DUP5 MLOAD SWAP6 DUP7 GT PUSH2 0x941 JUMPI PUSH2 0x7BA PUSH1 0x2 SLOAD PUSH2 0x1D02 JUMP JUMPDEST DUP2 DUP2 GT PUSH2 0x8DE JUMPI JUMPDEST POP PUSH1 0x20 SWAP1 DUP7 GT PUSH1 0x1 EQ PUSH2 0x83D JUMPI SWAP5 DUP1 PUSH32 0x9F2B0152A49DBA19E307C8E31A1C32A54F6DBD3318D3165028E7B602A85EEDCF SWAP7 PUSH1 0x0 SWAP2 PUSH2 0x832 JUMPI JUMPDEST POP PUSH1 0x0 NOT PUSH1 0x3 DUP4 SWAP1 SHL SHR NOT AND SWAP1 DUP3 SHL OR PUSH1 0x2 SSTORE JUMPDEST PUSH1 0x64 CALLDATALOAD PUSH1 0x3 SSTORE PUSH1 0xFF NOT DUP3 SLOAD AND OR SWAP1 SSTORE PUSH2 0x82D PUSH1 0x40 MLOAD SWAP3 DUP4 SWAP3 DUP4 PUSH2 0x1F1C JUMP JUMPDEST SUB SWAP1 LOG1 STOP JUMPDEST SWAP1 POP DUP6 ADD MLOAD DUP8 PUSH2 0x7FB JUMP JUMPDEST PUSH1 0x1F NOT DUP7 AND SWAP1 PUSH1 0x2 PUSH1 0x0 MSTORE PUSH32 0x405787FA12A823E0F2B7631CC41B3BA8828B3321CA811111FA75CD3AA3BB5ACE SWAP2 PUSH1 0x0 JUMPDEST DUP2 DUP2 LT PUSH2 0x8C8 JUMPI POP SWAP2 DUP8 SWAP2 PUSH32 0x9F2B0152A49DBA19E307C8E31A1C32A54F6DBD3318D3165028E7B602A85EEDCF SWAP9 DUP6 SWAP5 LT PUSH2 0x8AF JUMPI JUMPDEST POP POP DUP2 SHL ADD PUSH1 0x2 SSTORE PUSH2 0x80F JUMP JUMPDEST DUP8 ADD MLOAD PUSH1 0x0 NOT PUSH1 0xF8 DUP5 PUSH1 0x3 SHL AND SHR NOT AND SWAP1 SSTORE DUP8 DUP1 PUSH2 0x8A2 JUMP JUMPDEST DUP8 DUP4 ADD MLOAD DUP5 SSTORE SWAP3 DUP5 ADD SWAP3 PUSH1 0x20 SWAP3 DUP4 ADD SWAP3 ADD PUSH2 0x86D JUMP JUMPDEST PUSH1 0x2 PUSH1 0x0 MSTORE PUSH32 0x405787FA12A823E0F2B7631CC41B3BA8828B3321CA811111FA75CD3AA3BB5ACE DUP3 DUP1 DUP10 ADD DUP7 SHR DUP3 ADD SWAP3 PUSH1 0x20 DUP11 LT PUSH2 0x938 JUMPI JUMPDEST ADD DUP6 SHR ADD SWAP1 DUP4 SWAP1 JUMPDEST DUP3 DUP2 LT PUSH2 0x92C JUMPI POP POP PUSH2 0x7C2 JUMP JUMPDEST PUSH1 0x0 DUP2 SSTORE ADD DUP4 SWAP1 PUSH2 0x91E JUMP JUMPDEST SWAP3 POP DUP2 SWAP3 PUSH2 0x916 JUMP JUMPDEST PUSH4 0x4E487B71 PUSH1 0xE0 SHL PUSH1 0x0 MSTORE PUSH1 0x41 PUSH1 0x4 MSTORE PUSH1 0x24 PUSH1 0x0 REVERT JUMPDEST SWAP1 POP DUP6 ADD MLOAD DUP9 PUSH2 0x793 JUMP JUMPDEST DUP5 SWAP3 POP PUSH1 0x1F NOT DUP3 AND SWAP1 DUP4 PUSH1 0x0 MSTORE PUSH1 0x0 DUP1 MLOAD PUSH1 0x20 PUSH2 0x236A DUP4 CODECOPY DUP2 MLOAD SWAP2 MSTORE SWAP2 PUSH1 0x0 JUMPDEST DUP2 DUP2 LT PUSH2 0x9B6 JUMPI POP DUP4 GT PUSH2 0x99D JUMPI JUMPDEST POP POP DUP2 SHL ADD DUP3 SSTORE PUSH2 0x7A6 JUMP JUMPDEST DUP8 ADD MLOAD PUSH1 0x0 NOT PUSH1 0xF8 DUP5 PUSH1 0x3 SHL AND SHR NOT AND SWAP1 SSTORE DUP9 DUP1 PUSH2 0x991 JUMP JUMPDEST DUP10 DUP4 ADD MLOAD DUP5 SSTORE DUP8 SWAP6 SWAP1 SWAP4 ADD SWAP3 PUSH1 0x20 SWAP3 DUP4 ADD SWAP3 ADD PUSH2 0x982 JUMP JUMPDEST DUP4 PUSH1 0x0 MSTORE PUSH1 0x0 DUP1 MLOAD PUSH1 0x20 PUSH2 0x236A DUP4 CODECOPY DUP2 MLOAD SWAP2 MSTORE DUP4 DUP1 DUP5 ADD DUP8 SHR DUP3 ADD SWAP3 PUSH1 0x20 DUP6 LT PUSH2 0xA15 JUMPI JUMPDEST ADD DUP7 SHR ADD SWAP1 DUP5 SWAP1 JUMPDEST DUP3 DUP2 LT PUSH2 0xA09 JUMPI POP POP PUSH2 0x77D JUMP JUMPDEST PUSH1 0x0 DUP2 SSTORE ADD DUP5 SWAP1 PUSH2 0x9FB JUMP JUMPDEST SWAP3 POP DUP2 SWAP3 PUSH2 0x9F3 JUMP JUMPDEST PUSH1 0x40 MLOAD PUSH3 0x461BCD PUSH1 0xE5 SHL DUP2 MSTORE PUSH1 0x20 PUSH1 0x4 DUP3 ADD MSTORE PUSH1 0x13 PUSH1 0x24 DUP3 ADD MSTORE PUSH19 0x105B1C9958591E481A5B9A5D1A585B1A5E9959 PUSH1 0x6A SHL PUSH1 0x44 DUP3 ADD MSTORE PUSH1 0x64 SWAP1 REVERT JUMPDEST CALLVALUE PUSH2 0x263 JUMPI PUSH1 0xA0 CALLDATASIZE PUSH1 0x3 NOT ADD SLT PUSH2 0x263 JUMPI PUSH1 0x4 CALLDATALOAD PUSH1 0xFF DUP2 AND DUP1 SWAP2 SUB PUSH2 0x263 JUMPI PUSH1 0x24 CALLDATALOAD PUSH8 0xFFFFFFFFFFFFFFFF DUP2 GT PUSH2 0x263 JUMPI PUSH2 0xA98 SWAP1 CALLDATASIZE SWAP1 PUSH1 0x4 ADD PUSH2 0x1F99 JUMP JUMPDEST PUSH1 0x44 CALLDATALOAD PUSH8 0xFFFFFFFFFFFFFFFF DUP2 GT PUSH2 0x263 JUMPI PUSH2 0xAB8 SWAP1 CALLDATASIZE SWAP1 PUSH1 0x4 ADD PUSH2 0x1F99 JUMP JUMPDEST POP PUSH1 0x64 CALLDATALOAD PUSH8 0xFFFFFFFFFFFFFFFF DUP2 GT PUSH2 0x263 JUMPI PUSH2 0xAD9 SWAP1 CALLDATASIZE SWAP1 PUSH1 0x4 ADD PUSH2 0x1F99 JUMP JUMPDEST POP PUSH1 0x84 CALLDATALOAD SWAP1 CALLER PUSH1 0x0 MSTORE PUSH1 0x7 PUSH1 0x20 MSTORE PUSH2 0xAF8 PUSH1 0xFF PUSH1 0x40 PUSH1 0x0 KECCAK256 SLOAD AND PUSH2 0x201C JUMP JUMPDEST PUSH1 0x5 DUP4 GT ISZERO DUP1 PUSH2 0xE95 JUMPI JUMPDEST ISZERO PUSH2 0xE60 JUMPI PUSH1 0xA SLOAD SWAP2 PUSH1 0x1 DUP4 ADD DUP4 GT PUSH2 0x675 JUMPI PUSH1 0x6 DUP5 LT ISZERO PUSH2 0x65F JUMPI PUSH3 0x15180 SWAP1 DUP2 DUP2 MUL SWAP2 DUP2 DUP4 DIV EQ SWAP1 ISZERO OR ISZERO PUSH2 0x675 JUMPI TIMESTAMP ADD DUP1 TIMESTAMP GT PUSH2 0x675 JUMPI PUSH4 0xFFFFFFFF PUSH2 0xB4B DUP6 PUSH2 0x1F80 JUMP JUMPDEST SLOAD AND SWAP2 PUSH1 0x40 MLOAD SWAP5 PUSH2 0x160 DUP7 ADD DUP7 DUP2 LT PUSH8 0xFFFFFFFFFFFFFFFF DUP3 GT OR PUSH2 0x941 JUMPI PUSH1 0x40 MSTORE PUSH1 0x1 DUP6 ADD DUP7 MSTORE PUSH1 0x20 DUP7 ADD MSTORE PUSH1 0x40 DUP6 ADD MSTORE CALLER PUSH1 0x60 DUP6 ADD MSTORE PUSH1 0x80 DUP5 ADD MSTORE PUSH1 0x1 PUSH1 0xA0 DUP5 ADD MSTORE PUSH1 0x0 PUSH1 0xC0 DUP5 ADD MSTORE PUSH1 0x0 PUSH1 0xE0 DUP5 ADD MSTORE PUSH1 0x0 PUSH2 0x100 DUP5 ADD MSTORE PUSH1 0x0 PUSH2 0x120 DUP5 ADD MSTORE PUSH2 0x140 DUP4 ADD MSTORE PUSH1 0x1 PUSH1 0x40 SHL DUP2 LT ISZERO PUSH2 0x941 JUMPI PUSH1 0x1 DUP2 ADD PUSH1 0xA SSTORE PUSH2 0xBCF DUP2 PUSH2 0x1CC7 JUMP JUMPDEST SWAP3 SWAP1 SWAP3 PUSH2 0xE4A JUMPI DUP1 MLOAD DUP4 SSTORE PUSH1 0x1 DUP4 ADD PUSH1 0x20 DUP3 ADD MLOAD PUSH1 0x6 DUP2 LT ISZERO PUSH2 0x65F JUMPI PUSH1 0xFF DUP1 NOT DUP4 SLOAD AND SWAP2 AND OR SWAP1 SSTORE PUSH1 0x40 DUP2 ADD MLOAD SWAP3 DUP4 MLOAD PUSH8 0xFFFFFFFFFFFFFFFF DUP2 GT PUSH2 0x941 JUMPI PUSH2 0xC1C PUSH1 0x2 DUP4 ADD SLOAD PUSH2 0x1D02 JUMP JUMPDEST SWAP5 PUSH1 0x1F DUP7 GT PUSH2 0xE03 JUMPI JUMPDEST PUSH1 0x20 SWAP6 POP DUP6 SWAP1 PUSH1 0x1F DUP4 GT PUSH1 0x1 EQ PUSH2 0xD91 JUMPI SWAP2 DUP1 PUSH2 0x140 SWAP5 SWAP3 PUSH1 0x5 SWAP5 PUSH1 0x0 SWAP3 PUSH2 0xD86 JUMPI JUMPDEST POP POP DUP2 PUSH1 0x1 SHL SWAP2 PUSH1 0x0 NOT SWAP1 PUSH1 0x3 SHL SHR NOT AND OR PUSH1 0x2 DUP3 ADD SSTORE JUMPDEST PUSH1 0x3 DUP2 ADD PUSH1 0x1 DUP1 PUSH1 0xA0 SHL SUB PUSH1 0x60 DUP7 ADD MLOAD AND PUSH12 0xFFFFFFFFFFFFFFFFFFFFFFFF PUSH1 0xA0 SHL DUP3 SLOAD AND OR SWAP1 SSTORE PUSH1 0x80 DUP5 ADD MLOAD PUSH1 0x4 DUP3 ADD SSTORE ADD SWAP2 PUSH2 0xCB0 PUSH1 0xA0 DUP3 ADD MLOAD ISZERO ISZERO DUP5 SWAP1 PUSH1 0xFF DUP1 NOT DUP4 SLOAD AND SWAP2 ISZERO ISZERO AND OR SWAP1 SSTORE JUMP JUMPDEST PUSH1 0xC0 DUP2 ADD MLOAD DUP4 SLOAD PUSH1 0xE0 DUP4 ADD MLOAD PUSH6 0xFFFFFFFFFF00 NOT SWAP1 SWAP2 AND SWAP2 ISZERO ISZERO PUSH1 0x8 SHL PUSH2 0xFF00 AND SWAP2 SWAP1 SWAP2 OR PUSH1 0x10 SWAP2 SWAP1 SWAP2 SHL PUSH6 0xFFFFFFFF0000 AND OR DUP4 SSTORE PUSH2 0x100 DUP2 ADD MLOAD DUP4 SLOAD PUSH10 0xFFFFFFFF000000000000 NOT AND PUSH1 0x30 SWAP2 SWAP1 SWAP2 SHL PUSH4 0xFFFFFFFF PUSH1 0x30 SHL AND OR DUP4 SSTORE PUSH2 0x120 DUP2 ADD MLOAD DUP4 SLOAD PUSH4 0xFFFFFFFF PUSH1 0x50 SHL NOT AND PUSH1 0x50 SWAP2 SWAP1 SWAP2 SHL PUSH4 0xFFFFFFFF PUSH1 0x50 SHL AND OR DUP4 SSTORE ADD MLOAD DUP2 SLOAD PUSH4 0xFFFFFFFF PUSH1 0x70 SHL NOT AND PUSH1 0x70 SWAP2 SWAP1 SWAP2 SHL PUSH4 0xFFFFFFFF PUSH1 0x70 SHL AND OR SWAP1 SSTORE PUSH1 0x40 MLOAD SWAP1 PUSH1 0x1 SWAP1 CALLER DUP2 DUP4 ADD PUSH32 0xCD423CC1203C0AF96B9B3D68D73B3064A69DE2D14450BB7181C5E5DF2132B358 PUSH1 0x0 DUP1 LOG3 ADD DUP2 MSTORE RETURN JUMPDEST ADD MLOAD SWAP1 POP DUP9 DUP1 PUSH2 0xC49 JUMP JUMPDEST SWAP1 PUSH1 0x1F NOT DUP4 AND SWAP2 PUSH1 0x2 DUP6 ADD PUSH1 0x0 MSTORE DUP8 PUSH1 0x0 KECCAK256 SWAP3 PUSH1 0x0 JUMPDEST DUP2 DUP2 LT PUSH2 0xDEC JUMPI POP SWAP3 PUSH1 0x1 SWAP3 DUP6 SWAP3 PUSH1 0x5 SWAP7 PUSH2 0x140 SWAP9 SWAP7 LT PUSH2 0xDD3 JUMPI JUMPDEST POP POP POP DUP2 SHL ADD PUSH1 0x2 DUP3 ADD SSTORE PUSH2 0xC61 JUMP JUMPDEST ADD MLOAD PUSH1 0x0 NOT PUSH1 0xF8 DUP5 PUSH1 0x3 SHL AND SHR NOT AND SWAP1 SSTORE DUP9 DUP1 DUP1 PUSH2 0xDC3 JUMP JUMPDEST SWAP3 SWAP4 DUP10 PUSH1 0x1 DUP2 SWAP3 DUP8 DUP7 ADD MLOAD DUP2 SSTORE ADD SWAP6 ADD SWAP4 ADD PUSH2 0xDA7 JUMP JUMPDEST PUSH1 0x2 DUP4 ADD PUSH1 0x0 MSTORE PUSH1 0x20 PUSH1 0x0 KECCAK256 PUSH1 0x1F DUP4 ADD PUSH1 0x5 SHR DUP2 ADD PUSH1 0x20 DUP5 LT PUSH2 0xE43 JUMPI JUMPDEST PUSH1 0x1F DUP9 ADD PUSH1 0x5 SHR DUP3 ADD DUP2 LT PUSH2 0xE37 JUMPI POP POP PUSH2 0xC26 JUMP JUMPDEST PUSH1 0x0 DUP2 SSTORE PUSH1 0x1 ADD PUSH2 0xE21 JUMP JUMPDEST POP DUP1 PUSH2 0xE21 JUMP JUMPDEST PUSH4 0x4E487B71 PUSH1 0xE0 SHL PUSH1 0x0 MSTORE PUSH1 0x0 PUSH1 0x4 MSTORE PUSH1 0x24 PUSH1 0x0 REVERT JUMPDEST PUSH1 0x40 MLOAD PUSH3 0x461BCD PUSH1 0xE5 SHL DUP2 MSTORE PUSH1 0x20 PUSH1 0x4 DUP3 ADD MSTORE PUSH1 0xD PUSH1 0x24 DUP3 ADD MSTORE PUSH13 0x125B9D985B1A59081A5B9C1D5D PUSH1 0x9A SHL PUSH1 0x44 DUP3 ADD MSTORE PUSH1 0x64 SWAP1 REVERT JUMPDEST POP DUP1 MLOAD ISZERO ISZERO PUSH2 0xB03 JUMP JUMPDEST CALLVALUE PUSH2 0x263 JUMPI PUSH1 0x20 CALLDATASIZE PUSH1 0x3 NOT ADD SLT PUSH2 0x263 JUMPI PUSH1 0x4 CALLDATALOAD DUP1 ISZERO ISZERO DUP1 PUSH2 0xF2E JUMPI JUMPDEST PUSH2 0xEC5 SWAP1 PUSH2 0x205D JUMP JUMPDEST PUSH1 0x0 NOT DUP2 ADD SWAP1 DUP2 GT PUSH2 0x675 JUMPI PUSH2 0xEDA SWAP1 PUSH2 0x1CC7 JUMP JUMPDEST POP DUP1 SLOAD PUSH1 0xFF PUSH1 0x1 DUP4 ADD SLOAD AND SWAP2 PUSH1 0x6 DUP4 LT ISZERO PUSH2 0x65F JUMPI PUSH1 0xA0 SWAP3 PUSH1 0xFF SWAP2 PUSH1 0x5 PUSH1 0x1 DUP1 DUP8 SHL SUB PUSH1 0x3 DUP4 ADD SLOAD AND SWAP2 ADD SLOAD SWAP2 PUSH1 0x40 MLOAD SWAP5 DUP6 MSTORE PUSH1 0x20 DUP6 ADD MSTORE PUSH1 0x40 DUP5 ADD MSTORE DUP2 DUP2 AND ISZERO ISZERO PUSH1 0x60 DUP5 ADD MSTORE PUSH1 0x8 SHR AND ISZERO ISZERO PUSH1 0x80 DUP3 ADD MSTORE RETURN JUMPDEST POP PUSH1 0xA SLOAD DUP2 GT ISZERO PUSH2 0xEBC JUMP JUMPDEST CALLVALUE PUSH2 0x263 JUMPI PUSH1 0x0 CALLDATASIZE PUSH1 0x3 NOT ADD SLT PUSH2 0x263 JUMPI PUSH1 0x0 SLOAD PUSH1 0x40 MLOAD PUSH1 0x1 PUSH1 0x1 PUSH1 0xA0 SHL SUB SWAP1 SWAP2 AND DUP2 MSTORE PUSH1 0x20 SWAP1 RETURN JUMPDEST CALLVALUE PUSH2 0x263 JUMPI PUSH1 0x20 CALLDATASIZE PUSH1 0x3 NOT ADD SLT PUSH2 0x263 JUMPI PUSH1 0x4 CALLDATALOAD DUP1 ISZERO ISZERO DUP1 PUSH2 0xFB3 JUMPI JUMPDEST PUSH2 0xF89 SWAP1 PUSH2 0x205D JUMP JUMPDEST PUSH1 0x0 NOT DUP2 ADD SWAP1 DUP2 GT PUSH2 0x675 JUMPI PUSH1 0x4 PUSH2 0xFA2 PUSH1 0x40 SWAP3 PUSH2 0x1CC7 JUMP JUMPDEST POP ADD SLOAD DUP2 MLOAD SWAP1 PUSH1 0x0 DUP3 MSTORE PUSH1 0x20 DUP3 ADD MSTORE RETURN JUMPDEST POP PUSH1 0xA SLOAD DUP2 GT ISZERO PUSH2 0xF80 JUMP JUMPDEST CALLVALUE PUSH2 0x263 JUMPI PUSH1 0x0 CALLDATASIZE PUSH1 0x3 NOT ADD SLT PUSH2 0x263 JUMPI PUSH2 0xFD8 PUSH2 0x1FF0 JUMP JUMPDEST PUSH1 0x0 DUP1 SLOAD PUSH1 0x1 PUSH1 0x1 PUSH1 0xA0 SHL SUB NOT DUP2 AND DUP3 SSTORE PUSH1 0x1 PUSH1 0x1 PUSH1 0xA0 SHL SUB AND PUSH32 0x8BE0079C531659141344CD1FD0A4F28419497F9722A3DAAFE3B4186F6B6457E0 DUP3 DUP1 LOG3 STOP JUMPDEST CALLVALUE PUSH2 0x263 JUMPI PUSH1 0x80 CALLDATASIZE PUSH1 0x3 NOT ADD SLT PUSH2 0x263 JUMPI PUSH2 0x1031 PUSH2 0x1F44 JUMP JUMPDEST PUSH1 0x24 SWAP1 DUP2 CALLDATALOAD SWAP1 PUSH4 0xFFFFFFFF DUP3 AND DUP1 SWAP3 SUB PUSH2 0x263 JUMPI PUSH8 0xFFFFFFFFFFFFFFFF SWAP2 PUSH1 0x44 CALLDATALOAD DUP4 DUP2 GT PUSH2 0x263 JUMPI PUSH2 0x1067 SWAP1 CALLDATASIZE SWAP1 PUSH1 0x4 ADD PUSH2 0x1F99 JUMP JUMPDEST PUSH1 0x64 CALLDATALOAD DUP5 DUP2 GT PUSH2 0x263 JUMPI PUSH2 0x107F SWAP1 CALLDATASIZE SWAP1 PUSH1 0x4 ADD PUSH2 0x1F99 JUMP JUMPDEST CALLER PUSH1 0x0 MSTORE PUSH1 0x20 SWAP4 PUSH1 0x7 DUP6 MSTORE PUSH2 0x109B PUSH1 0xFF PUSH1 0x40 PUSH1 0x0 KECCAK256 SLOAD AND PUSH2 0x201C JUMP JUMPDEST PUSH1 0x1 PUSH1 0x1 PUSH1 0xA0 SHL SUB AND PUSH1 0x0 DUP2 DUP2 MSTORE PUSH1 0x6 DUP7 MSTORE PUSH1 0x40 SWAP1 KECCAK256 SLOAD SWAP1 SWAP6 SWAP1 PUSH1 0xFF AND PUSH2 0x1460 JUMPI PUSH1 0x40 MLOAD SWAP2 PUSH1 0x80 DUP4 ADD DUP4 DUP2 LT DUP4 DUP3 GT OR PUSH2 0x144B JUMPI PUSH1 0x40 MSTORE PUSH1 0x1 SWAP4 DUP5 DUP5 MSTORE DUP7 DUP5 ADD SWAP2 DUP7 DUP4 MSTORE PUSH1 0x40 DUP6 ADD SWAP2 DUP3 MSTORE PUSH1 0x60 DUP6 ADD MSTORE DUP8 PUSH1 0x0 MSTORE PUSH1 0x6 DUP8 MSTORE PUSH1 0x40 PUSH1 0x0 KECCAK256 SWAP2 PUSH2 0x1112 DUP6 MLOAD ISZERO ISZERO DUP5 SWAP1 PUSH1 0xFF DUP1 NOT DUP4 SLOAD AND SWAP2 ISZERO ISZERO AND OR SWAP1 SSTORE JUMP JUMPDEST MLOAD DUP3 SLOAD PUSH5 0xFFFFFFFF00 NOT AND PUSH1 0x8 SWAP2 SWAP1 SWAP2 SHL PUSH5 0xFFFFFFFF00 AND OR DUP3 SSTORE MLOAD DUP1 MLOAD DUP6 DUP4 ADD SWAP2 DUP5 DUP3 GT PUSH2 0x1436 JUMPI PUSH2 0x1145 DUP4 SLOAD PUSH2 0x1D02 JUMP JUMPDEST PUSH1 0x1F DUP2 GT PUSH2 0x13ED JUMPI JUMPDEST POP DUP9 SWAP1 PUSH1 0x1F DUP4 GT PUSH1 0x1 EQ PUSH2 0x137F JUMPI SWAP2 DUP1 PUSH1 0x2 SWAP5 SWAP3 PUSH1 0x60 SWAP7 SWAP5 PUSH1 0x0 SWAP3 PUSH2 0x1374 JUMPI JUMPDEST POP POP PUSH1 0x0 NOT PUSH1 0x3 DUP4 SWAP1 SHL SHR NOT AND SWAP1 DUP9 SHL OR SWAP1 SSTORE JUMPDEST ADD SWAP3 ADD MLOAD DUP1 MLOAD SWAP2 DUP3 GT PUSH2 0x135F JUMPI DUP2 SWAP1 PUSH2 0x119B DUP5 SLOAD PUSH2 0x1D02 JUMP JUMPDEST PUSH1 0x1F DUP2 GT PUSH2 0x130C JUMPI JUMPDEST POP DUP7 SWAP1 PUSH1 0x1F DUP4 GT PUSH1 0x1 EQ PUSH2 0x12A9 JUMPI PUSH1 0x0 SWAP3 PUSH2 0x129E JUMPI JUMPDEST POP POP PUSH1 0x0 NOT PUSH1 0x3 DUP4 SWAP1 SHL SHR NOT AND SWAP1 DUP4 SHL OR SWAP1 SSTORE JUMPDEST PUSH1 0xB SLOAD PUSH1 0x1 PUSH1 0x40 SHL DUP2 LT ISZERO PUSH2 0x1289 JUMPI DUP2 DUP2 ADD DUP1 PUSH1 0xB SSTORE DUP2 LT ISZERO PUSH2 0x1274 JUMPI PUSH1 0xB PUSH1 0x0 MSTORE PUSH32 0x175B7A638427703F0DBE7BB9BBF987A2551717B34E79F33B5B1008D1FA01DB9 ADD DUP1 SLOAD PUSH1 0x1 PUSH1 0x1 PUSH1 0xA0 SHL SUB NOT AND DUP6 OR SWAP1 SSTORE PUSH1 0x4 SLOAD PUSH1 0x0 NOT DUP2 EQ PUSH2 0x125F JUMPI PUSH32 0xDE21D560F37149B87D711F68DD9F1ED9A63123AE2DF83CDAC230E105A09895E6 SWAP5 SWAP6 POP ADD PUSH1 0x4 SSTORE PUSH1 0x40 MLOAD SWAP1 DUP2 MSTORE LOG2 STOP JUMPDEST DUP6 PUSH4 0x4E487B71 PUSH1 0xE0 SHL PUSH1 0x0 MSTORE PUSH1 0x11 PUSH1 0x4 MSTORE PUSH1 0x0 REVERT JUMPDEST DUP6 PUSH4 0x4E487B71 PUSH1 0xE0 SHL PUSH1 0x0 MSTORE PUSH1 0x32 PUSH1 0x4 MSTORE PUSH1 0x0 REVERT JUMPDEST DUP6 PUSH4 0x4E487B71 PUSH1 0xE0 SHL PUSH1 0x0 MSTORE PUSH1 0x41 PUSH1 0x4 MSTORE PUSH1 0x0 REVERT JUMPDEST ADD MLOAD SWAP1 POP DUP9 DUP1 PUSH2 0x11BA JUMP JUMPDEST SWAP1 DUP6 SWAP4 POP PUSH1 0x1F NOT DUP4 AND SWAP2 DUP6 PUSH1 0x0 MSTORE DUP9 PUSH1 0x0 KECCAK256 SWAP3 PUSH1 0x0 JUMPDEST DUP11 DUP3 DUP3 LT PUSH2 0x12F6 JUMPI POP POP DUP5 GT PUSH2 0x12DD JUMPI JUMPDEST POP POP POP DUP2 SHL ADD SWAP1 SSTORE PUSH2 0x11CE JUMP JUMPDEST ADD MLOAD PUSH1 0x0 NOT PUSH1 0xF8 DUP5 PUSH1 0x3 SHL AND SHR NOT AND SWAP1 SSTORE DUP9 DUP1 DUP1 PUSH2 0x12D0 JUMP JUMPDEST DUP4 DUP6 ADD MLOAD DUP7 SSTORE DUP10 SWAP8 SWAP1 SWAP6 ADD SWAP5 SWAP4 DUP5 ADD SWAP4 ADD PUSH2 0x12BF JUMP JUMPDEST SWAP1 SWAP2 POP DUP4 PUSH1 0x0 MSTORE DUP7 PUSH1 0x0 KECCAK256 PUSH1 0x1F DUP5 ADD PUSH1 0x5 SHR DUP2 ADD SWAP2 DUP9 DUP6 LT PUSH2 0x1355 JUMPI JUMPDEST DUP5 SWAP4 SWAP3 SWAP2 PUSH1 0x1F DUP9 SWAP3 ADD PUSH1 0x5 SHR ADD SWAP2 JUMPDEST DUP3 DUP2 LT PUSH2 0x1346 JUMPI POP POP PUSH2 0x11A4 JUMP JUMPDEST PUSH1 0x0 DUP2 SSTORE DUP6 SWAP5 POP DUP8 SWAP2 ADD PUSH2 0x1338 JUMP JUMPDEST SWAP1 SWAP2 POP DUP2 SWAP1 PUSH2 0x1329 JUMP JUMPDEST DUP8 PUSH4 0x4E487B71 PUSH1 0xE0 SHL PUSH1 0x0 MSTORE PUSH1 0x41 PUSH1 0x4 MSTORE PUSH1 0x0 REVERT JUMPDEST ADD MLOAD SWAP1 POP DUP14 DUP1 PUSH2 0x116E JUMP JUMPDEST DUP8 SWAP3 SWAP2 PUSH1 0x1F NOT DUP4 AND SWAP2 DUP6 PUSH1 0x0 MSTORE DUP12 PUSH1 0x0 KECCAK256 SWAP3 PUSH1 0x0 JUMPDEST DUP14 DUP3 DUP3 LT PUSH2 0x13D7 JUMPI POP POP SWAP2 PUSH1 0x60 SWAP8 SWAP6 SWAP4 SWAP2 DUP6 PUSH1 0x2 SWAP9 SWAP7 SWAP5 LT PUSH2 0x13BE JUMPI JUMPDEST POP POP POP DUP2 SHL ADD SWAP1 SSTORE PUSH2 0x1182 JUMP JUMPDEST ADD MLOAD PUSH1 0x0 NOT PUSH1 0xF8 DUP5 PUSH1 0x3 SHL AND SHR NOT AND SWAP1 SSTORE DUP14 DUP1 DUP1 PUSH2 0x13B1 JUMP JUMPDEST DUP4 DUP6 ADD MLOAD DUP7 SSTORE DUP13 SWAP8 SWAP1 SWAP6 ADD SWAP5 SWAP4 DUP5 ADD SWAP4 ADD PUSH2 0x1394 JUMP JUMPDEST DUP4 PUSH1 0x0 MSTORE DUP10 PUSH1 0x0 KECCAK256 PUSH1 0x1F DUP5 ADD PUSH1 0x5 SHR DUP2 ADD SWAP2 DUP12 DUP6 LT PUSH2 0x142C JUMPI JUMPDEST PUSH1 0x1F ADD PUSH1 0x5 SHR ADD SWAP1 DUP9 SWAP1 JUMPDEST DUP3 DUP2 LT PUSH2 0x1420 JUMPI POP POP PUSH2 0x114E JUMP JUMPDEST PUSH1 0x0 DUP2 SSTORE ADD DUP9 SWAP1 PUSH2 0x1412 JUMP JUMPDEST SWAP1 SWAP2 POP DUP2 SWAP1 PUSH2 0x1407 JUMP JUMPDEST DUP11 PUSH4 0x4E487B71 PUSH1 0xE0 SHL PUSH1 0x0 MSTORE PUSH1 0x41 PUSH1 0x4 MSTORE PUSH1 0x0 REVERT JUMPDEST DUP9 PUSH4 0x4E487B71 PUSH1 0xE0 SHL PUSH1 0x0 MSTORE PUSH1 0x41 PUSH1 0x4 MSTORE PUSH1 0x0 REVERT JUMPDEST PUSH1 0x40 MLOAD PUSH3 0x461BCD PUSH1 0xE5 SHL DUP2 MSTORE PUSH1 0x4 DUP2 ADD DUP7 SWAP1 MSTORE PUSH1 0x12 DUP2 DUP10 ADD MSTORE PUSH18 0x105B1C9958591E481C9959DA5CDD195C9959 PUSH1 0x72 SHL PUSH1 0x44 DUP3 ADD MSTORE PUSH1 0x64 SWAP1 REVERT JUMPDEST CALLVALUE PUSH2 0x263 JUMPI PUSH1 0x20 CALLDATASIZE PUSH1 0x3 NOT ADD SLT PUSH2 0x263 JUMPI PUSH1 0x4 CALLDATALOAD PUSH1 0xC SLOAD DUP2 LT ISZERO PUSH2 0x263 JUMPI PUSH1 0xC PUSH1 0x0 MSTORE PUSH32 0xDF6966C971051C3D54EC59162606531493A51404A002842F56009D7E5CF4A8C7 ADD SLOAD PUSH1 0x40 MLOAD PUSH1 0x1 PUSH1 0x1 PUSH1 0xA0 SHL SUB SWAP1 SWAP2 AND DUP2 MSTORE PUSH1 0x20 SWAP1 RETURN JUMPDEST CALLVALUE PUSH2 0x263 JUMPI PUSH1 0x20 CALLDATASIZE PUSH1 0x3 NOT ADD SLT PUSH2 0x263 JUMPI PUSH1 0x1 PUSH1 0x1 PUSH1 0xA0 SHL SUB PUSH2 0x1515 PUSH2 0x1F44 JUMP JUMPDEST AND PUSH1 0x0 MSTORE PUSH1 0x6 PUSH1 0x20 MSTORE PUSH4 0xFFFFFFFF PUSH1 0x40 PUSH1 0x0 KECCAK256 PUSH2 0x1580 DUP2 SLOAD SWAP2 PUSH2 0x1572 PUSH2 0x1549 PUSH1 0x2 PUSH2 0x1542 PUSH1 0x1 DUP6 ADD PUSH2 0x1E38 JUMP JUMPDEST SWAP4 ADD PUSH2 0x1E38 JUMP JUMPDEST SWAP2 PUSH1 0x40 MLOAD SWAP6 DUP6 PUSH1 0xFF DUP9 SWAP8 AND ISZERO ISZERO DUP8 MSTORE PUSH1 0x8 SHR AND PUSH1 0x20 DUP7 ADD MSTORE PUSH1 0xA0 PUSH1 0x40 DUP7 ADD MSTORE PUSH1 0xA0 DUP6 ADD SWAP1 PUSH2 0x1EDC JUMP JUMPDEST SWAP1 DUP4 DUP3 SUB PUSH1 0x60 DUP6 ADD MSTORE PUSH2 0x1EDC JUMP JUMPDEST PUSH1 0x1 PUSH1 0x80 DUP4 ADD MSTORE SUB SWAP1 RETURN JUMPDEST CALLVALUE PUSH2 0x263 JUMPI PUSH1 0x20 CALLDATASIZE PUSH1 0x3 NOT ADD SLT PUSH2 0x263 JUMPI PUSH1 0x1 PUSH1 0x1 PUSH1 0xA0 SHL SUB PUSH2 0x15AC PUSH2 0x1F44 JUMP JUMPDEST AND PUSH1 0x0 MSTORE PUSH1 0x6 PUSH1 0x20 MSTORE PUSH4 0xFFFFFFFF PUSH1 0x40 PUSH1 0x0 KECCAK256 PUSH2 0x1F1 DUP2 SLOAD SWAP2 PUSH2 0x1572 PUSH2 0x15D9 PUSH1 0x2 PUSH2 0x1542 PUSH1 0x1 DUP6 ADD PUSH2 0x1E38 JUMP JUMPDEST SWAP2 PUSH1 0x40 MLOAD SWAP6 DUP6 PUSH1 0xFF DUP9 SWAP8 AND ISZERO ISZERO DUP8 MSTORE PUSH1 0x8 SHR AND PUSH1 0x20 DUP7 ADD MSTORE PUSH1 0x80 PUSH1 0x40 DUP7 ADD MSTORE PUSH1 0x80 DUP6 ADD SWAP1 PUSH2 0x1EDC JUMP JUMPDEST CALLVALUE PUSH2 0x263 JUMPI PUSH1 0x20 CALLDATASIZE PUSH1 0x3 NOT ADD SLT PUSH2 0x263 JUMPI PUSH1 0x4 CALLDATALOAD PUSH1 0x6 DUP2 LT ISZERO PUSH2 0x263 JUMPI PUSH2 0x162A PUSH1 0x20 SWAP2 PUSH2 0x1F80 JUMP JUMPDEST SLOAD PUSH1 0x40 MLOAD SWAP1 DUP2 MSTORE RETURN JUMPDEST CALLVALUE PUSH2 0x263 JUMPI PUSH1 0x20 CALLDATASIZE PUSH1 0x3 NOT ADD SLT PUSH2 0x263 JUMPI PUSH1 0x4 CALLDATALOAD DUP1 ISZERO ISZERO DUP1 PUSH2 0x1775 JUMPI JUMPDEST PUSH2 0x1659 SWAP1 PUSH2 0x205D JUMP JUMPDEST CALLER PUSH1 0x0 MSTORE PUSH1 0x7 PUSH1 0x20 MSTORE PUSH2 0x1673 PUSH1 0xFF PUSH1 0x40 PUSH1 0x0 KECCAK256 SLOAD AND PUSH2 0x201C JUMP JUMPDEST PUSH1 0x0 NOT DUP2 ADD DUP2 DUP2 GT PUSH2 0x675 JUMPI PUSH2 0x1688 SWAP1 PUSH2 0x1CC7 JUMP JUMPDEST POP PUSH1 0x5 DUP2 ADD SWAP1 DUP2 SLOAD SWAP1 PUSH1 0xFF DUP3 AND SWAP1 DUP2 PUSH2 0x1767 JUMPI JUMPDEST POP ISZERO PUSH2 0x1730 JUMPI PUSH32 0xB5AC567FCF1B069E0235E4F16734625C6CF54C1B40517FD9EB85517F6E1265A7 SWAP2 PUSH2 0x100 PUSH1 0x20 SWAP3 PUSH2 0xFFFF NOT AND OR DUP1 SWAP2 SSTORE PUSH4 0xFFFFFFFF SWAP1 DUP2 DUP2 PUSH1 0x10 SHR AND SWAP2 DUP1 PUSH2 0x16F0 DUP2 DUP5 PUSH1 0x30 SHR AND DUP6 PUSH2 0x2319 JUMP JUMPDEST AND DUP1 ISZERO ISZERO SWAP4 DUP5 PUSH2 0x170A JUMPI JUMPDEST POP POP POP POP PUSH1 0x40 MLOAD SWAP1 ISZERO ISZERO DUP2 MSTORE LOG2 STOP JUMPDEST DUP3 SWAP4 SWAP5 POP SWAP2 PUSH2 0x171B PUSH2 0x1721 SWAP4 PUSH2 0x2331 JUMP JUMPDEST AND PUSH2 0x2349 JUMP JUMPDEST SWAP2 PUSH1 0x70 SHR AND LT DUP5 DUP1 DUP1 DUP1 PUSH2 0x16FB JUMP JUMPDEST PUSH1 0x40 MLOAD PUSH3 0x461BCD PUSH1 0xE5 SHL DUP2 MSTORE PUSH1 0x20 PUSH1 0x4 DUP3 ADD MSTORE PUSH1 0xF PUSH1 0x24 DUP3 ADD MSTORE PUSH15 0x43616E6E6F742066696E616C697A65 PUSH1 0x88 SHL PUSH1 0x44 DUP3 ADD MSTORE PUSH1 0x64 SWAP1 REVERT JUMPDEST PUSH1 0x4 SWAP2 POP ADD SLOAD TIMESTAMP GT DUP5 PUSH2 0x169C JUMP JUMPDEST POP PUSH1 0xA SLOAD DUP2 GT ISZERO PUSH2 0x1650 JUMP JUMPDEST CALLVALUE PUSH2 0x263 JUMPI PUSH1 0x20 CALLDATASIZE PUSH1 0x3 NOT ADD SLT PUSH2 0x263 JUMPI PUSH1 0x4 CALLDATALOAD DUP1 ISZERO ISZERO DUP1 PUSH2 0x1886 JUMPI JUMPDEST PUSH2 0x17A7 SWAP1 PUSH2 0x205D JUMP JUMPDEST CALLER PUSH1 0x0 MSTORE PUSH1 0x7 PUSH1 0x20 MSTORE PUSH2 0x17C1 PUSH1 0xFF PUSH1 0x40 PUSH1 0x0 KECCAK256 SLOAD AND PUSH2 0x201C JUMP JUMPDEST PUSH1 0x0 NOT DUP2 ADD SWAP1 DUP2 GT PUSH2 0x675 JUMPI PUSH2 0x17D8 PUSH1 0x5 SWAP2 PUSH2 0x1CC7 JUMP JUMPDEST POP ADD SLOAD PUSH1 0xFF DUP2 PUSH1 0x8 SHR AND ISZERO PUSH2 0x1851 JUMPI PUSH1 0x80 SWAP1 PUSH4 0xFFFFFFFF SWAP1 DUP2 DUP2 PUSH1 0x10 SHR AND SWAP2 DUP1 DUP3 PUSH1 0x30 SHR AND SWAP2 DUP2 PUSH2 0x1809 DUP5 DUP7 PUSH2 0x2319 JUMP JUMPDEST AND SWAP3 DUP4 ISZERO ISZERO SWAP4 DUP5 PUSH2 0x1833 JUMPI JUMPDEST POP PUSH1 0x40 MLOAD SWAP5 DUP6 MSTORE PUSH1 0x20 DUP6 ADD MSTORE PUSH1 0x50 SHR AND PUSH1 0x40 DUP4 ADD MSTORE ISZERO ISZERO PUSH1 0x60 DUP3 ADD MSTORE RETURN JUMPDEST PUSH2 0x1843 SWAP2 SWAP5 POP DUP4 PUSH2 0x171B DUP8 PUSH2 0x2331 JUMP JUMPDEST DUP3 DUP3 PUSH1 0x70 SHR AND LT SWAP3 DUP7 PUSH2 0x1815 JUMP JUMPDEST PUSH1 0x40 MLOAD PUSH3 0x461BCD PUSH1 0xE5 SHL DUP2 MSTORE PUSH1 0x20 PUSH1 0x4 DUP3 ADD MSTORE PUSH1 0xD PUSH1 0x24 DUP3 ADD MSTORE PUSH13 0x139BDD08199A5B985B1A5E9959 PUSH1 0x9A SHL PUSH1 0x44 DUP3 ADD MSTORE PUSH1 0x64 SWAP1 REVERT JUMPDEST POP PUSH1 0xA SLOAD DUP2 GT ISZERO PUSH2 0x179E JUMP JUMPDEST CALLVALUE PUSH2 0x263 JUMPI PUSH1 0x0 CALLDATASIZE PUSH1 0x3 NOT ADD SLT PUSH2 0x263 JUMPI PUSH1 0x20 PUSH1 0x3 SLOAD PUSH1 0x40 MLOAD SWAP1 DUP2 MSTORE RETURN JUMPDEST CALLVALUE PUSH2 0x263 JUMPI PUSH1 0x20 CALLDATASIZE PUSH1 0x3 NOT ADD SLT PUSH2 0x263 JUMPI PUSH2 0x18C9 PUSH2 0x1F44 JUMP JUMPDEST PUSH2 0x18D1 PUSH2 0x1FF0 JUMP JUMPDEST PUSH1 0x1 DUP1 PUSH1 0xA0 SHL SUB DUP1 SWAP2 AND SWAP1 DUP2 PUSH1 0x0 MSTORE PUSH1 0x7 PUSH1 0x20 MSTORE PUSH1 0xFF PUSH1 0x40 PUSH1 0x0 KECCAK256 SLOAD AND SWAP1 DUP2 PUSH2 0x1948 JUMPI JUMPDEST POP ISZERO PUSH2 0x1913 JUMPI PUSH1 0x0 SWAP1 DUP2 MSTORE PUSH1 0x7 PUSH1 0x20 MSTORE PUSH1 0x40 SWAP1 KECCAK256 DUP1 SLOAD PUSH1 0xFF NOT AND SWAP1 SSTORE STOP JUMPDEST PUSH1 0x40 MLOAD PUSH3 0x461BCD PUSH1 0xE5 SHL DUP2 MSTORE PUSH1 0x20 PUSH1 0x4 DUP3 ADD MSTORE PUSH1 0xD PUSH1 0x24 DUP3 ADD MSTORE PUSH13 0x43616E6E6F742072656D6F7665 PUSH1 0x98 SHL PUSH1 0x44 DUP3 ADD MSTORE PUSH1 0x64 SWAP1 REVERT JUMPDEST SWAP1 POP PUSH1 0x0 SLOAD AND DUP2 EQ ISZERO DUP3 PUSH2 0x18F5 JUMP JUMPDEST CALLVALUE PUSH2 0x263 JUMPI PUSH1 0x0 CALLDATASIZE PUSH1 0x3 NOT ADD SLT PUSH2 0x263 JUMPI PUSH1 0x20 PUSH1 0xFF PUSH1 0x5 SLOAD AND PUSH1 0x40 MLOAD SWAP1 ISZERO ISZERO DUP2 MSTORE RETURN JUMPDEST CALLVALUE PUSH2 0x263 JUMPI PUSH1 0x20 CALLDATASIZE PUSH1 0x3 NOT ADD SLT PUSH2 0x263 JUMPI PUSH1 0x4 CALLDATALOAD PUSH1 0xB SLOAD DUP2 LT ISZERO PUSH2 0x263 JUMPI PUSH1 0xB PUSH1 0x0 MSTORE PUSH32 0x175B7A638427703F0DBE7BB9BBF987A2551717B34E79F33B5B1008D1FA01DB9 ADD SLOAD PUSH1 0x40 MLOAD PUSH1 0x1 PUSH1 0x1 PUSH1 0xA0 SHL SUB SWAP1 SWAP2 AND DUP2 MSTORE PUSH1 0x20 SWAP1 RETURN JUMPDEST CALLVALUE PUSH2 0x263 JUMPI PUSH1 0x20 CALLDATASIZE PUSH1 0x3 NOT ADD SLT PUSH2 0x263 JUMPI PUSH1 0x4 CALLDATALOAD DUP1 ISZERO ISZERO DUP1 PUSH2 0x1A2E JUMPI JUMPDEST PUSH2 0x19FB SWAP1 PUSH2 0x205D JUMP JUMPDEST PUSH1 0x0 NOT DUP2 ADD SWAP1 DUP2 GT PUSH2 0x675 JUMPI PUSH4 0xFFFFFFFF PUSH1 0x5 PUSH2 0x1A19 PUSH1 0x40 SWAP4 PUSH2 0x1CC7 JUMP JUMPDEST POP ADD SLOAD PUSH1 0x70 SHR AND DUP2 MLOAD SWAP1 PUSH1 0x0 DUP3 MSTORE PUSH1 0x20 DUP3 ADD MSTORE RETURN JUMPDEST POP PUSH1 0xA SLOAD DUP2 GT ISZERO PUSH2 0x19F2 JUMP JUMPDEST CALLVALUE PUSH2 0x263 JUMPI PUSH1 0x20 CALLDATASIZE PUSH1 0x3 NOT ADD SLT PUSH2 0x263 JUMPI PUSH2 0x1A53 PUSH2 0x1F44 JUMP JUMPDEST PUSH2 0x1A5B PUSH2 0x1FF0 JUMP JUMPDEST PUSH1 0x1 PUSH1 0x1 PUSH1 0xA0 SHL SUB AND PUSH1 0x0 DUP2 DUP2 MSTORE PUSH1 0x7 PUSH1 0x20 MSTORE PUSH1 0x40 SWAP1 KECCAK256 SLOAD PUSH1 0xFF AND PUSH2 0x1AFC JUMPI DUP1 PUSH1 0x0 MSTORE PUSH1 0x7 PUSH1 0x20 MSTORE PUSH1 0x40 PUSH1 0x0 KECCAK256 PUSH1 0x1 PUSH1 0xFF NOT DUP3 SLOAD AND OR SWAP1 SSTORE PUSH1 0xC SLOAD PUSH1 0x1 PUSH1 0x40 SHL DUP2 LT ISZERO PUSH2 0x941 JUMPI PUSH1 0x1 DUP2 ADD DUP1 PUSH1 0xC SSTORE DUP2 LT ISZERO PUSH2 0x1AE6 JUMPI PUSH32 0xDF6966C971051C3D54EC59162606531493A51404A002842F56009D7E5CF4A8C7 ADD DUP1 SLOAD PUSH1 0x1 PUSH1 0x1 PUSH1 0xA0 SHL SUB NOT AND SWAP1 SWAP2 OR SWAP1 SSTORE STOP JUMPDEST PUSH4 0x4E487B71 PUSH1 0xE0 SHL PUSH1 0x0 MSTORE PUSH1 0x32 PUSH1 0x4 MSTORE PUSH1 0x24 PUSH1 0x0 REVERT JUMPDEST PUSH1 0x40 MLOAD PUSH3 0x461BCD PUSH1 0xE5 SHL DUP2 MSTORE PUSH1 0x20 PUSH1 0x4 DUP3 ADD MSTORE PUSH1 0x14 PUSH1 0x24 DUP3 ADD MSTORE PUSH20 0x20B63932B0B23C903137B0B9321036B2B6B132B9 PUSH1 0x61 SHL PUSH1 0x44 DUP3 ADD MSTORE PUSH1 0x64 SWAP1 REVERT JUMPDEST CALLVALUE PUSH2 0x263 JUMPI PUSH1 0x20 CALLDATASIZE PUSH1 0x3 NOT ADD SLT PUSH2 0x263 JUMPI PUSH1 0x4 CALLDATALOAD DUP1 ISZERO ISZERO DUP1 PUSH2 0x1B9F JUMPI JUMPDEST PUSH2 0x1B5E SWAP1 PUSH2 0x205D JUMP JUMPDEST PUSH1 0x0 NOT DUP2 ADD SWAP1 DUP2 GT PUSH2 0x675 JUMPI PUSH1 0x2 PUSH2 0x1B78 PUSH2 0x1B7F SWAP3 PUSH2 0x1CC7 JUMP JUMPDEST POP ADD PUSH2 0x1E38 JUMP JUMPDEST PUSH1 0x40 MLOAD SWAP1 PUSH2 0x1B8C DUP3 PUSH2 0x1D3C JUMP JUMPDEST PUSH1 0x0 DUP3 MSTORE PUSH2 0x1F1 PUSH1 0x40 MLOAD SWAP3 DUP4 SWAP3 DUP4 PUSH2 0x1F1C JUMP JUMPDEST POP PUSH1 0xA SLOAD DUP2 GT ISZERO PUSH2 0x1B55 JUMP JUMPDEST CALLVALUE PUSH2 0x263 JUMPI PUSH1 0x0 CALLDATASIZE PUSH1 0x3 NOT ADD SLT PUSH2 0x263 JUMPI PUSH1 0x20 PUSH1 0xA SLOAD PUSH1 0x40 MLOAD SWAP1 DUP2 MSTORE RETURN JUMPDEST CALLVALUE PUSH2 0x263 JUMPI PUSH1 0x0 CALLDATASIZE PUSH1 0x3 NOT ADD SLT PUSH2 0x263 JUMPI PUSH1 0x20 PUSH1 0x4 SLOAD PUSH1 0x40 MLOAD SWAP1 DUP2 MSTORE RETURN JUMPDEST CALLVALUE PUSH2 0x263 JUMPI PUSH1 0x20 CALLDATASIZE PUSH1 0x3 NOT ADD SLT PUSH2 0x263 JUMPI PUSH1 0x4 CALLDATALOAD PUSH1 0xA SLOAD DUP2 LT ISZERO PUSH2 0x263 JUMPI PUSH2 0x1C0E SWAP1 PUSH2 0x1CC7 JUMP JUMPDEST POP DUP1 SLOAD SWAP1 PUSH1 0xFF PUSH1 0x1 DUP3 ADD SLOAD AND SWAP1 PUSH2 0x1C27 PUSH1 0x2 DUP3 ADD PUSH2 0x1E38 JUMP JUMPDEST SWAP2 PUSH1 0x1 DUP1 PUSH1 0xA0 SHL SUB PUSH1 0x3 DUP4 ADD SLOAD AND SWAP2 PUSH1 0x5 PUSH1 0x4 DUP3 ADD SLOAD SWAP2 ADD SLOAD SWAP2 PUSH1 0x40 MLOAD SWAP6 DUP7 MSTORE PUSH1 0x6 DUP2 LT ISZERO PUSH2 0x65F JUMPI DUP6 SWAP5 PUSH2 0x1C6C SWAP2 PUSH1 0x20 DUP8 ADD MSTORE PUSH2 0x160 DUP1 PUSH1 0x40 DUP9 ADD MSTORE DUP7 ADD SWAP1 PUSH2 0x1EDC JUMP JUMPDEST SWAP3 PUSH1 0x60 DUP6 ADD MSTORE PUSH1 0x80 DUP5 ADD MSTORE PUSH1 0xFF DUP2 AND ISZERO ISZERO PUSH1 0xA0 DUP5 ADD MSTORE PUSH1 0xFF DUP2 PUSH1 0x8 SHR AND ISZERO ISZERO PUSH1 0xC0 DUP5 ADD MSTORE PUSH4 0xFFFFFFFF SWAP1 DUP2 DUP2 PUSH1 0x10 SHR AND PUSH1 0xE0 DUP6 ADD MSTORE DUP2 DUP2 PUSH1 0x30 SHR AND PUSH2 0x100 DUP6 ADD MSTORE DUP2 DUP2 PUSH1 0x50 SHR AND PUSH2 0x120 DUP6 ADD MSTORE PUSH1 0x70 SHR AND PUSH2 0x140 DUP4 ADD MSTORE SUB SWAP1 RETURN JUMPDEST PUSH1 0xA SLOAD DUP2 LT ISZERO PUSH2 0x1AE6 JUMPI PUSH1 0x6 SWAP1 PUSH1 0xA PUSH1 0x0 MSTORE MUL PUSH32 0xC65A7BB8D6351C1CF70C95A316CC6A92839C986682D98BC35F958F4883F9D2A8 ADD SWAP1 PUSH1 0x0 SWAP1 JUMP JUMPDEST SWAP1 PUSH1 0x1 DUP3 DUP2 SHR SWAP3 AND DUP1 ISZERO PUSH2 0x1D32 JUMPI JUMPDEST PUSH1 0x20 DUP4 LT EQ PUSH2 0x1D1C JUMPI JUMP JUMPDEST PUSH4 0x4E487B71 PUSH1 0xE0 SHL PUSH1 0x0 MSTORE PUSH1 0x22 PUSH1 0x4 MSTORE PUSH1 0x24 PUSH1 0x0 REVERT JUMPDEST SWAP2 PUSH1 0x7F AND SWAP2 PUSH2 0x1D11 JUMP JUMPDEST PUSH1 0x20 DUP2 ADD SWAP1 DUP2 LT PUSH8 0xFFFFFFFFFFFFFFFF DUP3 GT OR PUSH2 0x941 JUMPI PUSH1 0x40 MSTORE JUMP JUMPDEST SWAP1 PUSH1 0x1F DUP1 NOT SWAP2 ADD AND DUP2 ADD SWAP1 DUP2 LT PUSH8 0xFFFFFFFFFFFFFFFF DUP3 GT OR PUSH2 0x941 JUMPI PUSH1 0x40 MSTORE JUMP JUMPDEST PUSH1 0x40 MLOAD SWAP1 PUSH1 0x0 DUP3 PUSH1 0x2 SLOAD SWAP2 PUSH2 0x1D8E DUP4 PUSH2 0x1D02 JUMP JUMPDEST DUP1 DUP4 MSTORE SWAP3 PUSH1 0x1 SWAP1 DUP2 DUP2 AND SWAP1 DUP2 ISZERO PUSH2 0x1E16 JUMPI POP PUSH1 0x1 EQ PUSH2 0x1DB7 JUMPI JUMPDEST POP PUSH2 0x1DB5 SWAP3 POP SUB DUP4 PUSH2 0x1D58 JUMP JUMPDEST JUMP JUMPDEST PUSH1 0x2 PUSH1 0x0 SWAP1 DUP2 MSTORE SWAP2 POP PUSH32 0x405787FA12A823E0F2B7631CC41B3BA8828B3321CA811111FA75CD3AA3BB5ACE JUMPDEST DUP5 DUP4 LT PUSH2 0x1DFB JUMPI POP PUSH2 0x1DB5 SWAP4 POP POP DUP2 ADD PUSH1 0x20 ADD CODESIZE PUSH2 0x1DA8 JUMP JUMPDEST DUP2 SWAP4 POP SWAP1 DUP2 PUSH1 0x20 SWAP3 SLOAD DUP4 DUP6 DUP11 ADD ADD MSTORE ADD SWAP2 ADD SWAP1 SWAP2 DUP6 SWAP3 PUSH2 0x1DE2 JUMP JUMPDEST SWAP1 POP PUSH1 0x20 SWAP3 POP PUSH2 0x1DB5 SWAP5 SWAP2 POP PUSH1 0xFF NOT AND DUP3 DUP5 ADD MSTORE ISZERO ISZERO PUSH1 0x5 SHL DUP3 ADD ADD CODESIZE PUSH2 0x1DA8 JUMP JUMPDEST SWAP1 PUSH1 0x40 MLOAD SWAP2 DUP3 PUSH1 0x0 DUP3 SLOAD SWAP3 PUSH2 0x1E4C DUP5 PUSH2 0x1D02 JUMP JUMPDEST SWAP1 DUP2 DUP5 MSTORE PUSH1 0x1 SWAP5 DUP6 DUP2 AND SWAP1 DUP2 PUSH1 0x0 EQ PUSH2 0x1EB9 JUMPI POP PUSH1 0x1 EQ PUSH2 0x1E76 JUMPI JUMPDEST POP POP PUSH2 0x1DB5 SWAP3 POP SUB DUP4 PUSH2 0x1D58 JUMP JUMPDEST SWAP1 SWAP4 SWAP2 POP PUSH1 0x0 MSTORE PUSH1 0x20 SWAP1 DUP2 PUSH1 0x0 KECCAK256 SWAP4 PUSH1 0x0 SWAP2 JUMPDEST DUP2 DUP4 LT PUSH2 0x1EA1 JUMPI POP POP PUSH2 0x1DB5 SWAP4 POP DUP3 ADD ADD CODESIZE DUP1 PUSH2 0x1E68 JUMP JUMPDEST DUP6 SLOAD DUP9 DUP5 ADD DUP6 ADD MSTORE SWAP5 DUP6 ADD SWAP5 DUP8 SWAP5 POP SWAP2 DUP4 ADD SWAP2 PUSH2 0x1E89 JUMP JUMPDEST SWAP2 POP POP PUSH2 0x1DB5 SWAP5 POP PUSH1 0x20 SWAP3 POP PUSH1 0xFF NOT AND DUP3 DUP5 ADD MSTORE ISZERO ISZERO PUSH1 0x5 SHL DUP3 ADD ADD CODESIZE DUP1 PUSH2 0x1E68 JUMP JUMPDEST SWAP2 SWAP1 DUP3 MLOAD SWAP3 DUP4 DUP3 MSTORE PUSH1 0x0 JUMPDEST DUP5 DUP2 LT PUSH2 0x1F08 JUMPI POP POP DUP3 PUSH1 0x0 PUSH1 0x20 DUP1 SWAP5 SWAP6 DUP5 ADD ADD MSTORE PUSH1 0x1F DUP1 NOT SWAP2 ADD AND ADD ADD SWAP1 JUMP JUMPDEST PUSH1 0x20 DUP2 DUP4 ADD DUP2 ADD MLOAD DUP5 DUP4 ADD DUP3 ADD MSTORE ADD PUSH2 0x1EE7 JUMP JUMPDEST SWAP1 SWAP2 PUSH2 0x1F33 PUSH2 0x1F41 SWAP4 PUSH1 0x40 DUP5 MSTORE PUSH1 0x40 DUP5 ADD SWAP1 PUSH2 0x1EDC JUMP JUMPDEST SWAP2 PUSH1 0x20 DUP2 DUP5 SUB SWAP2 ADD MSTORE PUSH2 0x1EDC JUMP JUMPDEST SWAP1 JUMP JUMPDEST PUSH1 0x4 CALLDATALOAD SWAP1 PUSH1 0x1 PUSH1 0x1 PUSH1 0xA0 SHL SUB DUP3 AND DUP3 SUB PUSH2 0x263 JUMPI JUMP JUMPDEST PUSH1 0x24 CALLDATALOAD SWAP1 PUSH1 0x1 PUSH1 0x1 PUSH1 0xA0 SHL SUB DUP3 AND DUP3 SUB PUSH2 0x263 JUMPI JUMP JUMPDEST PUSH1 0x24 CALLDATALOAD SWAP1 PUSH1 0xFF DUP3 AND DUP3 SUB PUSH2 0x263 JUMPI JUMP JUMPDEST PUSH1 0x6 DUP2 LT ISZERO PUSH2 0x65F JUMPI PUSH1 0x0 MSTORE PUSH1 0x9 PUSH1 0x20 MSTORE PUSH1 0x40 PUSH1 0x0 KECCAK256 SWAP1 JUMP JUMPDEST DUP2 PUSH1 0x1F DUP3 ADD SLT ISZERO PUSH2 0x263 JUMPI DUP1 CALLDATALOAD SWAP1 PUSH8 0xFFFFFFFFFFFFFFFF DUP3 GT PUSH2 0x941 JUMPI PUSH1 0x40 MLOAD SWAP3 PUSH2 0x1FCE PUSH1 0x1F DUP5 ADD PUSH1 0x1F NOT AND PUSH1 0x20 ADD DUP6 PUSH2 0x1D58 JUMP JUMPDEST DUP3 DUP5 MSTORE PUSH1 0x20 DUP4 DUP4 ADD ADD GT PUSH2 0x263 JUMPI DUP2 PUSH1 0x0 SWAP3 PUSH1 0x20 DUP1 SWAP4 ADD DUP4 DUP7 ADD CALLDATACOPY DUP4 ADD ADD MSTORE SWAP1 JUMP JUMPDEST PUSH1 0x0 SLOAD PUSH1 0x1 PUSH1 0x1 PUSH1 0xA0 SHL SUB AND CALLER SUB PUSH2 0x2004 JUMPI JUMP JUMPDEST PUSH1 0x40 MLOAD PUSH4 0x118CDAA7 PUSH1 0xE0 SHL DUP2 MSTORE CALLER PUSH1 0x4 DUP3 ADD MSTORE PUSH1 0x24 SWAP1 REVERT JUMPDEST ISZERO PUSH2 0x2023 JUMPI JUMP JUMPDEST PUSH1 0x40 MLOAD PUSH3 0x461BCD PUSH1 0xE5 SHL DUP2 MSTORE PUSH1 0x20 PUSH1 0x4 DUP3 ADD MSTORE PUSH1 0x12 PUSH1 0x24 DUP3 ADD MSTORE PUSH18 0x4F6E6C7920626F617264206D656D62657273 PUSH1 0x70 SHL PUSH1 0x44 DUP3 ADD MSTORE PUSH1 0x64 SWAP1 REVERT JUMPDEST ISZERO PUSH2 0x2064 JUMPI JUMP JUMPDEST PUSH1 0x40 MLOAD PUSH3 0x461BCD PUSH1 0xE5 SHL DUP2 MSTORE PUSH1 0x20 PUSH1 0x4 DUP3 ADD MSTORE PUSH1 0x10 PUSH1 0x24 DUP3 ADD MSTORE PUSH16 0x125B9D985B1A59081C1C9BDC1BDCD85B PUSH1 0x82 SHL PUSH1 0x44 DUP3 ADD MSTORE PUSH1 0x64 SWAP1 REVERT JUMPDEST PUSH1 0x0 SWAP2 CALLER DUP4 MSTORE PUSH1 0x20 SWAP1 PUSH1 0x6 DUP3 MSTORE PUSH1 0x40 SWAP1 PUSH1 0xFF DUP3 DUP7 KECCAK256 SLOAD AND ISZERO PUSH2 0x22D5 JUMPI PUSH1 0xFF AND SWAP2 PUSH1 0x2 DUP4 GT ISZERO DUP1 PUSH2 0x22B8 JUMPI JUMPDEST ISZERO PUSH2 0x2287 JUMPI PUSH1 0x0 NOT DUP5 ADD DUP5 DUP2 GT DUP1 PUSH2 0x2273 JUMPI PUSH1 0xFF PUSH1 0x5 PUSH2 0x20E6 DUP5 PUSH2 0x1CC7 JUMP JUMPDEST POP ADD SLOAD AND DUP1 PUSH2 0x225A JUMPI JUMPDEST ISZERO PUSH2 0x2228 JUMPI DUP6 DUP8 MSTORE PUSH1 0x8 DUP4 MSTORE DUP4 DUP8 KECCAK256 CALLER DUP9 MSTORE DUP4 MSTORE DUP4 DUP8 KECCAK256 DUP1 SLOAD PUSH1 0xFF NOT AND PUSH1 0x1 OR SWAP1 SSTORE PUSH2 0x2214 JUMPI PUSH2 0x2121 PUSH1 0x6 SWAP2 PUSH2 0x1CC7 JUMP JUMPDEST POP SWAP2 CALLER DUP8 MSTORE MSTORE PUSH4 0xFFFFFFFF DUP1 SWAP3 DUP7 KECCAK256 SLOAD PUSH1 0x8 SHR AND SWAP3 DUP1 ISZERO PUSH1 0x0 EQ PUSH2 0x219E JUMPI POP PUSH2 0x2177 SWAP3 PUSH1 0x5 PUSH2 0x2157 SWAP3 ADD SWAP3 DUP4 SLOAD PUSH1 0x50 SHR AND PUSH2 0x2319 JUMP JUMPDEST DUP2 SLOAD PUSH4 0xFFFFFFFF PUSH1 0x50 SHL NOT AND PUSH1 0x50 SWAP2 SWAP1 SWAP2 SHL PUSH4 0xFFFFFFFF PUSH1 0x50 SHL AND OR SWAP1 SSTORE JUMP JUMPDEST PUSH32 0xF1003B73C437642C0460AEE9CD9628B0B8C447B66E6C7C905531B9C644214A11 CALLER SWAP3 DUP1 LOG3 JUMP JUMPDEST PUSH1 0x1 SUB PUSH2 0x21DE JUMPI PUSH2 0x21D9 SWAP3 PUSH1 0x5 PUSH2 0x21BC SWAP3 ADD SWAP3 DUP4 SLOAD PUSH1 0x10 SHR AND PUSH2 0x2319 JUMP JUMPDEST PUSH6 0xFFFFFFFF0000 DUP3 SLOAD SWAP2 PUSH1 0x10 SHL AND SWAP1 PUSH6 0xFFFFFFFF0000 NOT AND OR SWAP1 SSTORE JUMP JUMPDEST PUSH2 0x2177 JUMP JUMPDEST PUSH2 0x21D9 SWAP3 PUSH1 0x5 PUSH2 0x21F5 SWAP3 ADD SWAP3 DUP4 SLOAD PUSH1 0x30 SHR AND PUSH2 0x2319 JUMP JUMPDEST PUSH4 0xFFFFFFFF PUSH1 0x30 SHL DUP3 SLOAD SWAP2 PUSH1 0x30 SHL AND SWAP1 PUSH4 0xFFFFFFFF PUSH1 0x30 SHL NOT AND OR SWAP1 SSTORE JUMP JUMPDEST PUSH4 0x4E487B71 PUSH1 0xE0 SHL DUP7 MSTORE PUSH1 0x11 PUSH1 0x4 MSTORE PUSH1 0x24 DUP7 REVERT JUMPDEST DUP4 MLOAD PUSH3 0x461BCD PUSH1 0xE5 SHL DUP2 MSTORE PUSH1 0x4 DUP2 ADD DUP5 SWAP1 MSTORE PUSH1 0xB PUSH1 0x24 DUP3 ADD MSTORE PUSH11 0x43616E6E6F7420766F7465 PUSH1 0xA8 SHL PUSH1 0x44 DUP3 ADD MSTORE PUSH1 0x64 SWAP1 REVERT JUMPDEST POP POP DUP6 PUSH1 0x4 PUSH2 0x2268 DUP4 PUSH2 0x1CC7 JUMP JUMPDEST POP ADD SLOAD TIMESTAMP GT ISZERO PUSH2 0x20F0 JUMP JUMPDEST PUSH4 0x4E487B71 PUSH1 0xE0 SHL DUP8 MSTORE PUSH1 0x11 PUSH1 0x4 MSTORE PUSH1 0x24 DUP8 REVERT JUMPDEST PUSH1 0x64 SWAP2 MLOAD SWAP1 PUSH3 0x461BCD PUSH1 0xE5 SHL DUP3 MSTORE PUSH1 0x4 DUP3 ADD MSTORE PUSH1 0xC PUSH1 0x24 DUP3 ADD MSTORE PUSH12 0x496E76616C696420766F7465 PUSH1 0xA0 SHL PUSH1 0x44 DUP3 ADD MSTORE REVERT JUMPDEST POP DUP4 DUP6 MSTORE PUSH1 0x8 DUP2 MSTORE DUP2 DUP6 KECCAK256 CALLER DUP7 MSTORE DUP2 MSTORE PUSH1 0xFF DUP3 DUP7 KECCAK256 SLOAD AND ISZERO PUSH2 0x20C7 JUMP JUMPDEST DUP2 MLOAD PUSH3 0x461BCD PUSH1 0xE5 SHL DUP2 MSTORE PUSH1 0x4 DUP2 ADD DUP5 SWAP1 MSTORE PUSH1 0x1A PUSH1 0x24 DUP3 ADD MSTORE PUSH32 0x4F6E6C79207665726966696564207368617265686F6C64657273000000000000 PUSH1 0x44 DUP3 ADD MSTORE PUSH1 0x64 SWAP1 REVERT JUMPDEST SWAP2 SWAP1 SWAP2 PUSH4 0xFFFFFFFF DUP1 DUP1 SWAP5 AND SWAP2 AND ADD SWAP2 DUP3 GT PUSH2 0x675 JUMPI JUMP JUMPDEST SWAP1 PUSH1 0x64 PUSH4 0xFFFFFFFF DUP1 SWAP4 AND MUL SWAP2 DUP3 AND SWAP2 DUP3 SUB PUSH2 0x675 JUMPI JUMP JUMPDEST DUP2 ISZERO PUSH2 0x2353 JUMPI DIV SWAP1 JUMP JUMPDEST PUSH4 0x4E487B71 PUSH1 0xE0 SHL PUSH1 0x0 MSTORE PUSH1 0x12 PUSH1 0x4 MSTORE PUSH1 0x24 PUSH1 0x0 REVERT INVALID 0xB1 0xE 0x2D MSTORE PUSH23 0x12073B26EECDFD717E6A320CF44B4AFAC2B0732D9FCBE2 0xB7 STATICCALL 0xC 0xF6 LOG2 PUSH5 0x6970667358 0x22 SLT KECCAK256 ISZERO DUP9 PUSH16 0x5B9375A97A6EFF7D718D3853F0C7FA29 0xBC 0xCD 0xB4 DUP15 PUSH2 0x26A3 GT PUSH20 0x91FE8C8C64736F6C634300081400330000000000 "},"methodIdentifiers":{"addBoardMember(address)":"1eac03ae","boardMembers(address)":"bff13785","boardMembersList(uint256)":"5ee230b7","castConfidentialVote(uint256,uint8)":"42f41d2a","castVotePlain(uint256,uint8)":"d098db5a","companyName()":"f5ec2eed","createProposal(uint8,string,string,string,uint256)":"a39af88e","finalizeProposal(uint256)":"5652077c","getCompanyInfo()":"d7710d62","getDecryptedResults(uint256)":"41d14c22","getProposalBasic(uint256)":"9f83c4b2","getProposalContent(uint256)":"1de20bcf","getProposalInfo(uint256)":"bc903cb8","getProposalStats(uint256)":"307a064f","getProposalTiming(uint256)":"7b78ad42","getShareholderInfo(address)":"5e6056bb","getTotalProposals()":"1a5007dd","hasVoted(uint256,address)":"43859632","hasVotedOn(uint256,address)":"b97d3e40","initializeCompany(string,string,string,uint256)":"a759e629","isBoardMember(address)":"71942a01","isInitialized()":"392e53cd","owner()":"8da5cb5b","proposals(uint256)":"013cf08b","registerShareholderPlain(address,uint32,string,string)":"691e7398","removeBoardMember(address)":"39a169f9","renounceOwnership()":"715018a6","shareholders(address)":"5c2930ad","shareholdersList(uint256)":"33bac503","stockSymbol()":"c87cbe56","thresholds(uint8)":"5a50d2f4","totalShareholders()":"0f8d4030","totalShares()":"3a98ef39","transferOwnership(address)":"f2fde38b"}}}}}