{"contracts/SimpleVoting.sol":{"SimpleVoting":{"abi":[{"inputs":[],"stateMutability":"nonpayable","type":"constructor"},{"anonymous":false,"inputs":[{"indexed":true,"internalType":"uint256","name":"proposalId","type":"uint256"},{"indexed":false,"internalType":"string","name":"title","type":"string"},{"indexed":false,"internalType":"address","name":"proposer","type":"address"}],"name":"ProposalCreated","type":"event"},{"anonymous":false,"inputs":[{"indexed":true,"internalType":"uint256","name":"proposalId","type":"uint256"},{"indexed":false,"internalType":"address","name":"voter","type":"address"},{"indexed":false,"internalType":"uint8","name":"choice","type":"uint8"}],"name":"VoteCast","type":"event"},{"inputs":[{"internalType":"address","name":"user","type":"address"}],"name":"authorize","outputs":[],"stateMutability":"nonpayable","type":"function"},{"inputs":[{"internalType":"address","name":"","type":"address"}],"name":"authorized","outputs":[{"internalType":"bool","name":"","type":"bool"}],"stateMutability":"view","type":"function"},{"inputs":[{"internalType":"string","name":"_title","type":"string"},{"internalType":"string","name":"_description","type":"string"},{"internalType":"uint256","name":"_durationDays","type":"uint256"}],"name":"createProposal","outputs":[{"internalType":"uint256","name":"","type":"uint256"}],"stateMutability":"nonpayable","type":"function"},{"inputs":[{"internalType":"uint256","name":"_proposalId","type":"uint256"}],"name":"getProposal","outputs":[{"internalType":"uint256","name":"id","type":"uint256"},{"internalType":"string","name":"title","type":"string"},{"internalType":"string","name":"description","type":"string"},{"internalType":"uint256","name":"forVotes","type":"uint256"},{"internalType":"uint256","name":"againstVotes","type":"uint256"},{"internalType":"uint256","name":"abstainVotes","type":"uint256"},{"internalType":"uint256","name":"deadline","type":"uint256"},{"internalType":"bool","name":"active","type":"bool"},{"internalType":"address","name":"proposer","type":"address"}],"stateMutability":"view","type":"function"},{"inputs":[],"name":"getTotalProposals","outputs":[{"internalType":"uint256","name":"","type":"uint256"}],"stateMutability":"view","type":"function"},{"inputs":[{"internalType":"uint256","name":"","type":"uint256"},{"internalType":"address","name":"","type":"address"}],"name":"hasVoted","outputs":[{"internalType":"bool","name":"","type":"bool"}],"stateMutability":"view","type":"function"},{"inputs":[],"name":"owner","outputs":[{"internalType":"address","name":"","type":"address"}],"stateMutability":"view","type":"function"},{"inputs":[],"name":"proposalCount","outputs":[{"internalType":"uint256","name":"","type":"uint256"}],"stateMutability":"view","type":"function"},{"inputs":[{"internalType":"uint256","name":"","type":"uint256"}],"name":"proposals","outputs":[{"internalType":"uint256","name":"id","type":"uint256"},{"internalType":"string","name":"title","type":"string"},{"internalType":"string","name":"description","type":"string"},{"internalType":"uint256","name":"forVotes","type":"uint256"},{"internalType":"uint256","name":"againstVotes","type":"uint256"},{"internalType":"uint256","name":"abstainVotes","type":"uint256"},{"internalType":"uint256","name":"deadline","type":"uint256"},{"internalType":"bool","name":"active","type":"bool"},{"internalType":"address","name":"proposer","type":"address"}],"stateMutability":"view","type":"function"},{"inputs":[{"internalType":"uint256","name":"_proposalId","type":"uint256"},{"internalType":"uint8","name":"_choice","type":"uint8"}],"name":"vote","outputs":[],"stateMutability":"nonpayable","type":"function"}],"evm":{"bytecode":{"linkReferences":{},"object":"6080806040523461004457600480546001600160a01b031916339081179091556000908152600260205260409020805460ff19166001179055610c84908161004a8239f35b600080fdfe6080604052600436101561001257600080fd5b60003560e01c8063013cf08b146109595780630ce0ebf4146104f35780631a5007dd1461008a57806343859632146104a15780638da5cb5b14610478578063943e82161461024a578063b6a5d7de146101ce578063b91816111461018f578063c7f758a8146100ad5763da35c6641461008a57600080fd5b346100a85760003660031901126100a8576020600354604051908152f35b600080fd5b346100a85760203660031901126100a85760043580151580610183575b6100d390610c0f565b600052600060205260406000206040516100ec81610a0d565b8154815261017f6100ff60018401610a4c565b916020810192835261011360028501610a4c565b9384604083015260038101549081606084015260048101548060808501526005820154908160a086015260076006840154938460c088015201549360ff85161515948560e088015260018060a01b039060081c16958661010082015251975198604051998a998a610b32565b0390f35b506003548111156100ca565b346100a85760203660031901126100a8576001600160a01b036101b0610bea565b166000526002602052602060ff604060002054166040519015158152f35b346100a85760203660031901126100a8576101e7610bea565b6004546001600160a01b0391908216330361021857166000908152600260205260409020805460ff19166001179055005b60405162461bcd60e51b815260206004820152600a60248201526927b7363c9037bbb732b960b11b6044820152606490fd5b346100a85760403660031901126100a85760043560243560ff81168091036100a8578115158061046c575b61027e90610c0f565b8160005260209060018252604060002033600052825260ff6040600020541661043757826000526000825260ff60076040600020015416156103fc5782600052600082526006604060002001544210156103c85760028111610392577feba4866100b822f0f391e610e7edfab790b9e8766c0012733c26b2f1858e8dd79160409184600052600182528260002033600052825282600020600160ff198254161790558015600014610351578460005260008252600583600020016103428154610c00565b90555b825191338352820152a2005b60018103610379578460005260008252600383600020016103728154610c00565b9055610345565b8460005260008252600483600020016103728154610c00565b60405162461bcd60e51b815260048101839052600e60248201526d496e76616c69642063686f69636560901b6044820152606490fd5b60405162461bcd60e51b815260048101839052600c60248201526b159bdd1a5b99c8195b99195960a21b6044820152606490fd5b60405162461bcd60e51b815260048101839052601360248201527250726f706f73616c206e6f742061637469766560681b6044820152606490fd5b60405162461bcd60e51b815260048101839052600d60248201526c105b1c9958591e481d9bdd1959609a1b6044820152606490fd5b50600354821115610275565b346100a85760003660031901126100a8576004546040516001600160a01b039091168152602090f35b346100a85760403660031901126100a8576024356001600160a01b038116908190036100a8576004356000526001602052604060002090600052602052602060ff604060002054166040519015158152f35b346100a85760603660031901126100a85760043567ffffffffffffffff81116100a857610524903690600401610b93565b60243567ffffffffffffffff81116100a857610544903690600401610b93565b60443533600052600260205260ff604060002054168015610945575b1561090f57610570600354610c00565b908160035562015180908181029181830414901517156108f95780420142116108f957604051926105a084610a0d565b82845284602085015260408401526000606084015260006080840152600060a0840152420160c0830152600160e0830152336101008301526000526000602052604060002081518155602082015192835167ffffffffffffffff81116108225761060d60018401546109d3565b601f81116108b2575b506020601f8211600114610843578192939495600092610838575b50508160011b916000199060031b1c19161760018301555b604083015192835167ffffffffffffffff81116108225761066d60028501546109d3565b94601f86116107db575b602095508590601f831160011461076757918061074c969260079460009261075c575b50508160011b916000199060031b1c19161760028201555b606083015160038201556080830151600482015560a0830151600582015560c08301516006820155019060e081015115159060ff83549161010080600160a81b0391015160081b169216906affffffffffffffffffffff60a81b16171790557fc8c078bfee58e5822588f08b4509ed1eb5058e03f666cca84dd2d44bf5c288a8600354928392604051918291604083526040830190610af2565b33878301520390a2604051908152f35b01519050888061069a565b9060028601600052866000209160005b601f19851681106107c457509261074c969260019260079583601f198116106107ab575b505050811b0160028201556106b2565b015160001960f88460031b161c1916905588808061079b565b919288600181928685015181550194019201610777565b600285016000526020600020601f830160051c81016020841061081b575b601f880160051c8201811061080f575050610677565b600081556001016107f9565b50806107f9565b634e487b7160e01b600052604160045260246000fd5b015190508580610631565b6001840160005260206000209060005b601f198416811061089a575060019394959683601f19811610610881575b505050811b016001830155610649565b015160001960f88460031b161c19169055858080610871565b9091602060018192858b015181550193019101610853565b600184016000526020600020601f830160051c8101602084106108f2575b601f830160051c820181106108e6575050610616565b600081556001016108d0565b50806108d0565b634e487b7160e01b600052601160045260246000fd5b60405162461bcd60e51b815260206004820152600e60248201526d139bdd08185d5d1a1bdc9a5e995960921b6044820152606490fd5b506004546001600160a01b03163314610560565b346100a85760203660031901126100a8576004356000526000602052604060002080549061017f61098c60018301610a4c565b9161099960028201610a4c565b936003820154916004810154600582015490600760068401549301549460405198899860ff60018060a01b038960081c169816968a610b32565b90600182811c92168015610a03575b60208310146109ed57565b634e487b7160e01b600052602260045260246000fd5b91607f16916109e2565b610120810190811067ffffffffffffffff82111761082257604052565b90601f8019910116810190811067ffffffffffffffff82111761082257604052565b9060405191826000825492610a60846109d3565b908184526001948581169081600014610acf5750600114610a8c575b5050610a8a92500383610a2a565b565b9093915060005260209081600020936000915b818310610ab7575050610a8a93508201013880610a7c565b85548884018501529485019487945091830191610a9f565b915050610a8a94506020925060ff191682840152151560051b8201013880610a7c565b919082519283825260005b848110610b1e575050826000602080949584010152601f8019910116010190565b602081830181015184830182015201610afd565b97949192610b5961010098959b9a9794610b67938b526101208060208d01528b0190610af2565b9089820360408b0152610af2565b6060880199909952608087015260a086015260c0850152151560e08401526001600160a01b0316910152565b81601f820112156100a85780359067ffffffffffffffff82116108225760405192610bc8601f8401601f191660200185610a2a565b828452602083830101116100a857816000926020809301838601378301015290565b600435906001600160a01b03821682036100a857565b60001981146108f95760010190565b15610c1657565b60405162461bcd60e51b815260206004820152601060248201526f125b9d985b1a59081c1c9bdc1bdcd85b60821b6044820152606490fdfea26469706673582212203352354b01b17264d478f84ae6fea816496193d90fa5da91f3ceb048d0e05eaa64736f6c63430008140033","opcodes":"PUSH1 0x80 DUP1 PUSH1 0x40 MSTORE CALLVALUE PUSH2 0x44 JUMPI PUSH1 0x4 DUP1 SLOAD PUSH1 0x1 PUSH1 0x1 PUSH1 0xA0 SHL SUB NOT AND CALLER SWAP1 DUP2 OR SWAP1 SWAP2 SSTORE PUSH1 0x0 SWAP1 DUP2 MSTORE PUSH1 0x2 PUSH1 0x20 MSTORE PUSH1 0x40 SWAP1 KECCAK256 DUP1 SLOAD PUSH1 0xFF NOT AND PUSH1 0x1 OR SWAP1 SSTORE PUSH2 0xC84 SWAP1 DUP2 PUSH2 0x4A DUP3 CODECOPY RETURN JUMPDEST PUSH1 0x0 DUP1 REVERT INVALID PUSH1 0x80 PUSH1 0x40 MSTORE PUSH1 0x4 CALLDATASIZE LT ISZERO PUSH2 0x12 JUMPI PUSH1 0x0 DUP1 REVERT JUMPDEST PUSH1 0x0 CALLDATALOAD PUSH1 0xE0 SHR DUP1 PUSH4 0x13CF08B EQ PUSH2 0x959 JUMPI DUP1 PUSH4 0xCE0EBF4 EQ PUSH2 0x4F3 JUMPI DUP1 PUSH4 0x1A5007DD EQ PUSH2 0x8A JUMPI DUP1 PUSH4 0x43859632 EQ PUSH2 0x4A1 JUMPI DUP1 PUSH4 0x8DA5CB5B EQ PUSH2 0x478 JUMPI DUP1 PUSH4 0x943E8216 EQ PUSH2 0x24A JUMPI DUP1 PUSH4 0xB6A5D7DE EQ PUSH2 0x1CE JUMPI DUP1 PUSH4 0xB9181611 EQ PUSH2 0x18F JUMPI DUP1 PUSH4 0xC7F758A8 EQ PUSH2 0xAD JUMPI PUSH4 0xDA35C664 EQ PUSH2 0x8A JUMPI PUSH1 0x0 DUP1 REVERT JUMPDEST CALLVALUE PUSH2 0xA8 JUMPI PUSH1 0x0 CALLDATASIZE PUSH1 0x3 NOT ADD SLT PUSH2 0xA8 JUMPI PUSH1 0x20 PUSH1 0x3 SLOAD PUSH1 0x40 MLOAD SWAP1 DUP2 MSTORE RETURN JUMPDEST PUSH1 0x0 DUP1 REVERT JUMPDEST CALLVALUE PUSH2 0xA8 JUMPI PUSH1 0x20 CALLDATASIZE PUSH1 0x3 NOT ADD SLT PUSH2 0xA8 JUMPI PUSH1 0x4 CALLDATALOAD DUP1 ISZERO ISZERO DUP1 PUSH2 0x183 JUMPI JUMPDEST PUSH2 0xD3 SWAP1 PUSH2 0xC0F JUMP JUMPDEST PUSH1 0x0 MSTORE PUSH1 0x0 PUSH1 0x20 MSTORE PUSH1 0x40 PUSH1 0x0 KECCAK256 PUSH1 0x40 MLOAD PUSH2 0xEC DUP2 PUSH2 0xA0D JUMP JUMPDEST DUP2 SLOAD DUP2 MSTORE PUSH2 0x17F PUSH2 0xFF PUSH1 0x1 DUP5 ADD PUSH2 0xA4C JUMP JUMPDEST SWAP2 PUSH1 0x20 DUP2 ADD SWAP3 DUP4 MSTORE PUSH2 0x113 PUSH1 0x2 DUP6 ADD PUSH2 0xA4C JUMP JUMPDEST SWAP4 DUP5 PUSH1 0x40 DUP4 ADD MSTORE PUSH1 0x3 DUP2 ADD SLOAD SWAP1 DUP2 PUSH1 0x60 DUP5 ADD MSTORE PUSH1 0x4 DUP2 ADD SLOAD DUP1 PUSH1 0x80 DUP6 ADD MSTORE PUSH1 0x5 DUP3 ADD SLOAD SWAP1 DUP2 PUSH1 0xA0 DUP7 ADD MSTORE PUSH1 0x7 PUSH1 0x6 DUP5 ADD SLOAD SWAP4 DUP5 PUSH1 0xC0 DUP9 ADD MSTORE ADD SLOAD SWAP4 PUSH1 0xFF DUP6 AND ISZERO ISZERO SWAP5 DUP6 PUSH1 0xE0 DUP9 ADD MSTORE PUSH1 0x1 DUP1 PUSH1 0xA0 SHL SUB SWAP1 PUSH1 0x8 SHR AND SWAP6 DUP7 PUSH2 0x100 DUP3 ADD MSTORE MLOAD SWAP8 MLOAD SWAP9 PUSH1 0x40 MLOAD SWAP10 DUP11 SWAP10 DUP11 PUSH2 0xB32 JUMP JUMPDEST SUB SWAP1 RETURN JUMPDEST POP PUSH1 0x3 SLOAD DUP2 GT ISZERO PUSH2 0xCA JUMP JUMPDEST CALLVALUE PUSH2 0xA8 JUMPI PUSH1 0x20 CALLDATASIZE PUSH1 0x3 NOT ADD SLT PUSH2 0xA8 JUMPI PUSH1 0x1 PUSH1 0x1 PUSH1 0xA0 SHL SUB PUSH2 0x1B0 PUSH2 0xBEA JUMP JUMPDEST AND PUSH1 0x0 MSTORE PUSH1 0x2 PUSH1 0x20 MSTORE PUSH1 0x20 PUSH1 0xFF PUSH1 0x40 PUSH1 0x0 KECCAK256 SLOAD AND PUSH1 0x40 MLOAD SWAP1 ISZERO ISZERO DUP2 MSTORE RETURN JUMPDEST CALLVALUE PUSH2 0xA8 JUMPI PUSH1 0x20 CALLDATASIZE PUSH1 0x3 NOT ADD SLT PUSH2 0xA8 JUMPI PUSH2 0x1E7 PUSH2 0xBEA JUMP JUMPDEST PUSH1 0x4 SLOAD PUSH1 0x1 PUSH1 0x1 PUSH1 0xA0 SHL SUB SWAP2 SWAP1 DUP3 AND CALLER SUB PUSH2 0x218 JUMPI AND PUSH1 0x0 SWAP1 DUP2 MSTORE PUSH1 0x2 PUSH1 0x20 MSTORE PUSH1 0x40 SWAP1 KECCAK256 DUP1 SLOAD PUSH1 0xFF NOT AND PUSH1 0x1 OR SWAP1 SSTORE STOP JUMPDEST PUSH1 0x40 MLOAD PUSH3 0x461BCD PUSH1 0xE5 SHL DUP2 MSTORE PUSH1 0x20 PUSH1 0x4 DUP3 ADD MSTORE PUSH1 0xA PUSH1 0x24 DUP3 ADD MSTORE PUSH10 0x27B7363C9037BBB732B9 PUSH1 0xB1 SHL PUSH1 0x44 DUP3 ADD MSTORE PUSH1 0x64 SWAP1 REVERT JUMPDEST CALLVALUE PUSH2 0xA8 JUMPI PUSH1 0x40 CALLDATASIZE PUSH1 0x3 NOT ADD SLT PUSH2 0xA8 JUMPI PUSH1 0x4 CALLDATALOAD PUSH1 0x24 CALLDATALOAD PUSH1 0xFF DUP2 AND DUP1 SWAP2 SUB PUSH2 0xA8 JUMPI DUP2 ISZERO ISZERO DUP1 PUSH2 0x46C JUMPI JUMPDEST PUSH2 0x27E SWAP1 PUSH2 0xC0F JUMP JUMPDEST DUP2 PUSH1 0x0 MSTORE PUSH1 0x20 SWAP1 PUSH1 0x1 DUP3 MSTORE PUSH1 0x40 PUSH1 0x0 KECCAK256 CALLER PUSH1 0x0 MSTORE DUP3 MSTORE PUSH1 0xFF PUSH1 0x40 PUSH1 0x0 KECCAK256 SLOAD AND PUSH2 0x437 JUMPI DUP3 PUSH1 0x0 MSTORE PUSH1 0x0 DUP3 MSTORE PUSH1 0xFF PUSH1 0x7 PUSH1 0x40 PUSH1 0x0 KECCAK256 ADD SLOAD AND ISZERO PUSH2 0x3FC JUMPI DUP3 PUSH1 0x0 MSTORE PUSH1 0x0 DUP3 MSTORE PUSH1 0x6 PUSH1 0x40 PUSH1 0x0 KECCAK256 ADD SLOAD TIMESTAMP LT ISZERO PUSH2 0x3C8 JUMPI PUSH1 0x2 DUP2 GT PUSH2 0x392 JUMPI PUSH32 0xEBA4866100B822F0F391E610E7EDFAB790B9E8766C0012733C26B2F1858E8DD7 SWAP2 PUSH1 0x40 SWAP2 DUP5 PUSH1 0x0 MSTORE PUSH1 0x1 DUP3 MSTORE DUP3 PUSH1 0x0 KECCAK256 CALLER PUSH1 0x0 MSTORE DUP3 MSTORE DUP3 PUSH1 0x0 KECCAK256 PUSH1 0x1 PUSH1 0xFF NOT DUP3 SLOAD AND OR SWAP1 SSTORE DUP1 ISZERO PUSH1 0x0 EQ PUSH2 0x351 JUMPI DUP5 PUSH1 0x0 MSTORE PUSH1 0x0 DUP3 MSTORE PUSH1 0x5 DUP4 PUSH1 0x0 KECCAK256 ADD PUSH2 0x342 DUP2 SLOAD PUSH2 0xC00 JUMP JUMPDEST SWAP1 SSTORE JUMPDEST DUP3 MLOAD SWAP2 CALLER DUP4 MSTORE DUP3 ADD MSTORE LOG2 STOP JUMPDEST PUSH1 0x1 DUP2 SUB PUSH2 0x379 JUMPI DUP5 PUSH1 0x0 MSTORE PUSH1 0x0 DUP3 MSTORE PUSH1 0x3 DUP4 PUSH1 0x0 KECCAK256 ADD PUSH2 0x372 DUP2 SLOAD PUSH2 0xC00 JUMP JUMPDEST SWAP1 SSTORE PUSH2 0x345 JUMP JUMPDEST DUP5 PUSH1 0x0 MSTORE PUSH1 0x0 DUP3 MSTORE PUSH1 0x4 DUP4 PUSH1 0x0 KECCAK256 ADD PUSH2 0x372 DUP2 SLOAD PUSH2 0xC00 JUMP JUMPDEST PUSH1 0x40 MLOAD PUSH3 0x461BCD PUSH1 0xE5 SHL DUP2 MSTORE PUSH1 0x4 DUP2 ADD DUP4 SWAP1 MSTORE PUSH1 0xE PUSH1 0x24 DUP3 ADD MSTORE PUSH14 0x496E76616C69642063686F696365 PUSH1 0x90 SHL PUSH1 0x44 DUP3 ADD MSTORE PUSH1 0x64 SWAP1 REVERT JUMPDEST PUSH1 0x40 MLOAD PUSH3 0x461BCD PUSH1 0xE5 SHL DUP2 MSTORE PUSH1 0x4 DUP2 ADD DUP4 SWAP1 MSTORE PUSH1 0xC PUSH1 0x24 DUP3 ADD MSTORE PUSH12 0x159BDD1A5B99C8195B991959 PUSH1 0xA2 SHL PUSH1 0x44 DUP3 ADD MSTORE PUSH1 0x64 SWAP1 REVERT JUMPDEST PUSH1 0x40 MLOAD PUSH3 0x461BCD PUSH1 0xE5 SHL DUP2 MSTORE PUSH1 0x4 DUP2 ADD DUP4 SWAP1 MSTORE PUSH1 0x13 PUSH1 0x24 DUP3 ADD MSTORE PUSH19 0x50726F706F73616C206E6F7420616374697665 PUSH1 0x68 SHL PUSH1 0x44 DUP3 ADD MSTORE PUSH1 0x64 SWAP1 REVERT JUMPDEST PUSH1 0x40 MLOAD PUSH3 0x461BCD PUSH1 0xE5 SHL DUP2 MSTORE PUSH1 0x4 DUP2 ADD DUP4 SWAP1 MSTORE PUSH1 0xD PUSH1 0x24 DUP3 ADD MSTORE PUSH13 0x105B1C9958591E481D9BDD1959 PUSH1 0x9A SHL PUSH1 0x44 DUP3 ADD MSTORE PUSH1 0x64 SWAP1 REVERT JUMPDEST POP PUSH1 0x3 SLOAD DUP3 GT ISZERO PUSH2 0x275 JUMP JUMPDEST CALLVALUE PUSH2 0xA8 JUMPI PUSH1 0x0 CALLDATASIZE PUSH1 0x3 NOT ADD SLT PUSH2 0xA8 JUMPI PUSH1 0x4 SLOAD PUSH1 0x40 MLOAD PUSH1 0x1 PUSH1 0x1 PUSH1 0xA0 SHL SUB SWAP1 SWAP2 AND DUP2 MSTORE PUSH1 0x20 SWAP1 RETURN JUMPDEST CALLVALUE PUSH2 0xA8 JUMPI PUSH1 0x40 CALLDATASIZE PUSH1 0x3 NOT ADD SLT PUSH2 0xA8 JUMPI PUSH1 0x24 CALLDATALOAD PUSH1 0x1 PUSH1 0x1 PUSH1 0xA0 SHL SUB DUP2 AND SWAP1 DUP2 SWAP1 SUB PUSH2 0xA8 JUMPI PUSH1 0x4 CALLDATALOAD PUSH1 0x0 MSTORE PUSH1 0x1 PUSH1 0x20 MSTORE PUSH1 0x40 PUSH1 0x0 KECCAK256 SWAP1 PUSH1 0x0 MSTORE PUSH1 0x20 MSTORE PUSH1 0x20 PUSH1 0xFF PUSH1 0x40 PUSH1 0x0 KECCAK256 SLOAD AND PUSH1 0x40 MLOAD SWAP1 ISZERO ISZERO DUP2 MSTORE RETURN JUMPDEST CALLVALUE PUSH2 0xA8 JUMPI PUSH1 0x60 CALLDATASIZE PUSH1 0x3 NOT ADD SLT PUSH2 0xA8 JUMPI PUSH1 0x4 CALLDATALOAD PUSH8 0xFFFFFFFFFFFFFFFF DUP2 GT PUSH2 0xA8 JUMPI PUSH2 0x524 SWAP1 CALLDATASIZE SWAP1 PUSH1 0x4 ADD PUSH2 0xB93 JUMP JUMPDEST PUSH1 0x24 CALLDATALOAD PUSH8 0xFFFFFFFFFFFFFFFF DUP2 GT PUSH2 0xA8 JUMPI PUSH2 0x544 SWAP1 CALLDATASIZE SWAP1 PUSH1 0x4 ADD PUSH2 0xB93 JUMP JUMPDEST PUSH1 0x44 CALLDATALOAD CALLER PUSH1 0x0 MSTORE PUSH1 0x2 PUSH1 0x20 MSTORE PUSH1 0xFF PUSH1 0x40 PUSH1 0x0 KECCAK256 SLOAD AND DUP1 ISZERO PUSH2 0x945 JUMPI JUMPDEST ISZERO PUSH2 0x90F JUMPI PUSH2 0x570 PUSH1 0x3 SLOAD PUSH2 0xC00 JUMP JUMPDEST SWAP1 DUP2 PUSH1 0x3 SSTORE PUSH3 0x15180 SWAP1 DUP2 DUP2 MUL SWAP2 DUP2 DUP4 DIV EQ SWAP1 ISZERO OR ISZERO PUSH2 0x8F9 JUMPI DUP1 TIMESTAMP ADD TIMESTAMP GT PUSH2 0x8F9 JUMPI PUSH1 0x40 MLOAD SWAP3 PUSH2 0x5A0 DUP5 PUSH2 0xA0D JUMP JUMPDEST DUP3 DUP5 MSTORE DUP5 PUSH1 0x20 DUP6 ADD MSTORE PUSH1 0x40 DUP5 ADD MSTORE PUSH1 0x0 PUSH1 0x60 DUP5 ADD MSTORE PUSH1 0x0 PUSH1 0x80 DUP5 ADD MSTORE PUSH1 0x0 PUSH1 0xA0 DUP5 ADD MSTORE TIMESTAMP ADD PUSH1 0xC0 DUP4 ADD MSTORE PUSH1 0x1 PUSH1 0xE0 DUP4 ADD MSTORE CALLER PUSH2 0x100 DUP4 ADD MSTORE PUSH1 0x0 MSTORE PUSH1 0x0 PUSH1 0x20 MSTORE PUSH1 0x40 PUSH1 0x0 KECCAK256 DUP2 MLOAD DUP2 SSTORE PUSH1 0x20 DUP3 ADD MLOAD SWAP3 DUP4 MLOAD PUSH8 0xFFFFFFFFFFFFFFFF DUP2 GT PUSH2 0x822 JUMPI PUSH2 0x60D PUSH1 0x1 DUP5 ADD SLOAD PUSH2 0x9D3 JUMP JUMPDEST PUSH1 0x1F DUP2 GT PUSH2 0x8B2 JUMPI JUMPDEST POP PUSH1 0x20 PUSH1 0x1F DUP3 GT PUSH1 0x1 EQ PUSH2 0x843 JUMPI DUP2 SWAP3 SWAP4 SWAP5 SWAP6 PUSH1 0x0 SWAP3 PUSH2 0x838 JUMPI JUMPDEST POP POP DUP2 PUSH1 0x1 SHL SWAP2 PUSH1 0x0 NOT SWAP1 PUSH1 0x3 SHL SHR NOT AND OR PUSH1 0x1 DUP4 ADD SSTORE JUMPDEST PUSH1 0x40 DUP4 ADD MLOAD SWAP3 DUP4 MLOAD PUSH8 0xFFFFFFFFFFFFFFFF DUP2 GT PUSH2 0x822 JUMPI PUSH2 0x66D PUSH1 0x2 DUP6 ADD SLOAD PUSH2 0x9D3 JUMP JUMPDEST SWAP5 PUSH1 0x1F DUP7 GT PUSH2 0x7DB JUMPI JUMPDEST PUSH1 0x20 SWAP6 POP DUP6 SWAP1 PUSH1 0x1F DUP4 GT PUSH1 0x1 EQ PUSH2 0x767 JUMPI SWAP2 DUP1 PUSH2 0x74C SWAP7 SWAP3 PUSH1 0x7 SWAP5 PUSH1 0x0 SWAP3 PUSH2 0x75C JUMPI JUMPDEST POP POP DUP2 PUSH1 0x1 SHL SWAP2 PUSH1 0x0 NOT SWAP1 PUSH1 0x3 SHL SHR NOT AND OR PUSH1 0x2 DUP3 ADD SSTORE JUMPDEST PUSH1 0x60 DUP4 ADD MLOAD PUSH1 0x3 DUP3 ADD SSTORE PUSH1 0x80 DUP4 ADD MLOAD PUSH1 0x4 DUP3 ADD SSTORE PUSH1 0xA0 DUP4 ADD MLOAD PUSH1 0x5 DUP3 ADD SSTORE PUSH1 0xC0 DUP4 ADD MLOAD PUSH1 0x6 DUP3 ADD SSTORE ADD SWAP1 PUSH1 0xE0 DUP2 ADD MLOAD ISZERO ISZERO SWAP1 PUSH1 0xFF DUP4 SLOAD SWAP2 PUSH2 0x100 DUP1 PUSH1 0x1 PUSH1 0xA8 SHL SUB SWAP2 ADD MLOAD PUSH1 0x8 SHL AND SWAP3 AND SWAP1 PUSH11 0xFFFFFFFFFFFFFFFFFFFFFF PUSH1 0xA8 SHL AND OR OR SWAP1 SSTORE PUSH32 0xC8C078BFEE58E5822588F08B4509ED1EB5058E03F666CCA84DD2D44BF5C288A8 PUSH1 0x3 SLOAD SWAP3 DUP4 SWAP3 PUSH1 0x40 MLOAD SWAP2 DUP3 SWAP2 PUSH1 0x40 DUP4 MSTORE PUSH1 0x40 DUP4 ADD SWAP1 PUSH2 0xAF2 JUMP JUMPDEST CALLER DUP8 DUP4 ADD MSTORE SUB SWAP1 LOG2 PUSH1 0x40 MLOAD SWAP1 DUP2 MSTORE RETURN JUMPDEST ADD MLOAD SWAP1 POP DUP9 DUP1 PUSH2 0x69A JUMP JUMPDEST SWAP1 PUSH1 0x2 DUP7 ADD PUSH1 0x0 MSTORE DUP7 PUSH1 0x0 KECCAK256 SWAP2 PUSH1 0x0 JUMPDEST PUSH1 0x1F NOT DUP6 AND DUP2 LT PUSH2 0x7C4 JUMPI POP SWAP3 PUSH2 0x74C SWAP7 SWAP3 PUSH1 0x1 SWAP3 PUSH1 0x7 SWAP6 DUP4 PUSH1 0x1F NOT DUP2 AND LT PUSH2 0x7AB JUMPI JUMPDEST POP POP POP DUP2 SHL ADD PUSH1 0x2 DUP3 ADD SSTORE PUSH2 0x6B2 JUMP JUMPDEST ADD MLOAD PUSH1 0x0 NOT PUSH1 0xF8 DUP5 PUSH1 0x3 SHL AND SHR NOT AND SWAP1 SSTORE DUP9 DUP1 DUP1 PUSH2 0x79B JUMP JUMPDEST SWAP2 SWAP3 DUP9 PUSH1 0x1 DUP2 SWAP3 DUP7 DUP6 ADD MLOAD DUP2 SSTORE ADD SWAP5 ADD SWAP3 ADD PUSH2 0x777 JUMP JUMPDEST PUSH1 0x2 DUP6 ADD PUSH1 0x0 MSTORE PUSH1 0x20 PUSH1 0x0 KECCAK256 PUSH1 0x1F DUP4 ADD PUSH1 0x5 SHR DUP2 ADD PUSH1 0x20 DUP5 LT PUSH2 0x81B JUMPI JUMPDEST PUSH1 0x1F DUP9 ADD PUSH1 0x5 SHR DUP3 ADD DUP2 LT PUSH2 0x80F JUMPI POP POP PUSH2 0x677 JUMP JUMPDEST PUSH1 0x0 DUP2 SSTORE PUSH1 0x1 ADD PUSH2 0x7F9 JUMP JUMPDEST POP DUP1 PUSH2 0x7F9 JUMP JUMPDEST PUSH4 0x4E487B71 PUSH1 0xE0 SHL PUSH1 0x0 MSTORE PUSH1 0x41 PUSH1 0x4 MSTORE PUSH1 0x24 PUSH1 0x0 REVERT JUMPDEST ADD MLOAD SWAP1 POP DUP6 DUP1 PUSH2 0x631 JUMP JUMPDEST PUSH1 0x1 DUP5 ADD PUSH1 0x0 MSTORE PUSH1 0x20 PUSH1 0x0 KECCAK256 SWAP1 PUSH1 0x0 JUMPDEST PUSH1 0x1F NOT DUP5 AND DUP2 LT PUSH2 0x89A JUMPI POP PUSH1 0x1 SWAP4 SWAP5 SWAP6 SWAP7 DUP4 PUSH1 0x1F NOT DUP2 AND LT PUSH2 0x881 JUMPI JUMPDEST POP POP POP DUP2 SHL ADD PUSH1 0x1 DUP4 ADD SSTORE PUSH2 0x649 JUMP JUMPDEST ADD MLOAD PUSH1 0x0 NOT PUSH1 0xF8 DUP5 PUSH1 0x3 SHL AND SHR NOT AND SWAP1 SSTORE DUP6 DUP1 DUP1 PUSH2 0x871 JUMP JUMPDEST SWAP1 SWAP2 PUSH1 0x20 PUSH1 0x1 DUP2 SWAP3 DUP6 DUP12 ADD MLOAD DUP2 SSTORE ADD SWAP4 ADD SWAP2 ADD PUSH2 0x853 JUMP JUMPDEST PUSH1 0x1 DUP5 ADD PUSH1 0x0 MSTORE PUSH1 0x20 PUSH1 0x0 KECCAK256 PUSH1 0x1F DUP4 ADD PUSH1 0x5 SHR DUP2 ADD PUSH1 0x20 DUP5 LT PUSH2 0x8F2 JUMPI JUMPDEST PUSH1 0x1F DUP4 ADD PUSH1 0x5 SHR DUP3 ADD DUP2 LT PUSH2 0x8E6 JUMPI POP POP PUSH2 0x616 JUMP JUMPDEST PUSH1 0x0 DUP2 SSTORE PUSH1 0x1 ADD PUSH2 0x8D0 JUMP JUMPDEST POP DUP1 PUSH2 0x8D0 JUMP JUMPDEST PUSH4 0x4E487B71 PUSH1 0xE0 SHL PUSH1 0x0 MSTORE PUSH1 0x11 PUSH1 0x4 MSTORE PUSH1 0x24 PUSH1 0x0 REVERT JUMPDEST PUSH1 0x40 MLOAD PUSH3 0x461BCD PUSH1 0xE5 SHL DUP2 MSTORE PUSH1 0x20 PUSH1 0x4 DUP3 ADD MSTORE PUSH1 0xE PUSH1 0x24 DUP3 ADD MSTORE PUSH14 0x139BDD08185D5D1A1BDC9A5E9959 PUSH1 0x92 SHL PUSH1 0x44 DUP3 ADD MSTORE PUSH1 0x64 SWAP1 REVERT JUMPDEST POP PUSH1 0x4 SLOAD PUSH1 0x1 PUSH1 0x1 PUSH1 0xA0 SHL SUB AND CALLER EQ PUSH2 0x560 JUMP JUMPDEST CALLVALUE PUSH2 0xA8 JUMPI PUSH1 0x20 CALLDATASIZE PUSH1 0x3 NOT ADD SLT PUSH2 0xA8 JUMPI PUSH1 0x4 CALLDATALOAD PUSH1 0x0 MSTORE PUSH1 0x0 PUSH1 0x20 MSTORE PUSH1 0x40 PUSH1 0x0 KECCAK256 DUP1 SLOAD SWAP1 PUSH2 0x17F PUSH2 0x98C PUSH1 0x1 DUP4 ADD PUSH2 0xA4C JUMP JUMPDEST SWAP2 PUSH2 0x999 PUSH1 0x2 DUP3 ADD PUSH2 0xA4C JUMP JUMPDEST SWAP4 PUSH1 0x3 DUP3 ADD SLOAD SWAP2 PUSH1 0x4 DUP2 ADD SLOAD PUSH1 0x5 DUP3 ADD SLOAD SWAP1 PUSH1 0x7 PUSH1 0x6 DUP5 ADD SLOAD SWAP4 ADD SLOAD SWAP5 PUSH1 0x40 MLOAD SWAP9 DUP10 SWAP9 PUSH1 0xFF PUSH1 0x1 DUP1 PUSH1 0xA0 SHL SUB DUP10 PUSH1 0x8 SHR AND SWAP9 AND SWAP7 DUP11 PUSH2 0xB32 JUMP JUMPDEST SWAP1 PUSH1 0x1 DUP3 DUP2 SHR SWAP3 AND DUP1 ISZERO PUSH2 0xA03 JUMPI JUMPDEST PUSH1 0x20 DUP4 LT EQ PUSH2 0x9ED JUMPI JUMP JUMPDEST PUSH4 0x4E487B71 PUSH1 0xE0 SHL PUSH1 0x0 MSTORE PUSH1 0x22 PUSH1 0x4 MSTORE PUSH1 0x24 PUSH1 0x0 REVERT JUMPDEST SWAP2 PUSH1 0x7F AND SWAP2 PUSH2 0x9E2 JUMP JUMPDEST PUSH2 0x120 DUP2 ADD SWAP1 DUP2 LT PUSH8 0xFFFFFFFFFFFFFFFF DUP3 GT OR PUSH2 0x822 JUMPI PUSH1 0x40 MSTORE JUMP JUMPDEST SWAP1 PUSH1 0x1F DUP1 NOT SWAP2 ADD AND DUP2 ADD SWAP1 DUP2 LT PUSH8 0xFFFFFFFFFFFFFFFF DUP3 GT OR PUSH2 0x822 JUMPI PUSH1 0x40 MSTORE JUMP JUMPDEST SWAP1 PUSH1 0x40 MLOAD SWAP2 DUP3 PUSH1 0x0 DUP3 SLOAD SWAP3 PUSH2 0xA60 DUP5 PUSH2 0x9D3 JUMP JUMPDEST SWAP1 DUP2 DUP5 MSTORE PUSH1 0x1 SWAP5 DUP6 DUP2 AND SWAP1 DUP2 PUSH1 0x0 EQ PUSH2 0xACF JUMPI POP PUSH1 0x1 EQ PUSH2 0xA8C JUMPI JUMPDEST POP POP PUSH2 0xA8A SWAP3 POP SUB DUP4 PUSH2 0xA2A JUMP JUMPDEST JUMP JUMPDEST SWAP1 SWAP4 SWAP2 POP PUSH1 0x0 MSTORE PUSH1 0x20 SWAP1 DUP2 PUSH1 0x0 KECCAK256 SWAP4 PUSH1 0x0 SWAP2 JUMPDEST DUP2 DUP4 LT PUSH2 0xAB7 JUMPI POP POP PUSH2 0xA8A SWAP4 POP DUP3 ADD ADD CODESIZE DUP1 PUSH2 0xA7C JUMP JUMPDEST DUP6 SLOAD DUP9 DUP5 ADD DUP6 ADD MSTORE SWAP5 DUP6 ADD SWAP5 DUP8 SWAP5 POP SWAP2 DUP4 ADD SWAP2 PUSH2 0xA9F JUMP JUMPDEST SWAP2 POP POP PUSH2 0xA8A SWAP5 POP PUSH1 0x20 SWAP3 POP PUSH1 0xFF NOT AND DUP3 DUP5 ADD MSTORE ISZERO ISZERO PUSH1 0x5 SHL DUP3 ADD ADD CODESIZE DUP1 PUSH2 0xA7C JUMP JUMPDEST SWAP2 SWAP1 DUP3 MLOAD SWAP3 DUP4 DUP3 MSTORE PUSH1 0x0 JUMPDEST DUP5 DUP2 LT PUSH2 0xB1E JUMPI POP POP DUP3 PUSH1 0x0 PUSH1 0x20 DUP1 SWAP5 SWAP6 DUP5 ADD ADD MSTORE PUSH1 0x1F DUP1 NOT SWAP2 ADD AND ADD ADD SWAP1 JUMP JUMPDEST PUSH1 0x20 DUP2 DUP4 ADD DUP2 ADD MLOAD DUP5 DUP4 ADD DUP3 ADD MSTORE ADD PUSH2 0xAFD JUMP JUMPDEST SWAP8 SWAP5 SWAP2 SWAP3 PUSH2 0xB59 PUSH2 0x100 SWAP9 SWAP6 SWAP12 SWAP11 SWAP8 SWAP5 PUSH2 0xB67 SWAP4 DUP12 MSTORE PUSH2 0x120 DUP1 PUSH1 0x20 DUP14 ADD MSTORE DUP12 ADD SWAP1 PUSH2 0xAF2 JUMP JUMPDEST SWAP1 DUP10 DUP3 SUB PUSH1 0x40 DUP12 ADD MSTORE PUSH2 0xAF2 JUMP JUMPDEST PUSH1 0x60 DUP9 ADD SWAP10 SWAP1 SWAP10 MSTORE PUSH1 0x80 DUP8 ADD MSTORE PUSH1 0xA0 DUP7 ADD MSTORE PUSH1 0xC0 DUP6 ADD MSTORE ISZERO ISZERO PUSH1 0xE0 DUP5 ADD MSTORE PUSH1 0x1 PUSH1 0x1 PUSH1 0xA0 SHL SUB AND SWAP2 ADD MSTORE JUMP JUMPDEST DUP2 PUSH1 0x1F DUP3 ADD SLT ISZERO PUSH2 0xA8 JUMPI DUP1 CALLDATALOAD SWAP1 PUSH8 0xFFFFFFFFFFFFFFFF DUP3 GT PUSH2 0x822 JUMPI PUSH1 0x40 MLOAD SWAP3 PUSH2 0xBC8 PUSH1 0x1F DUP5 ADD PUSH1 0x1F NOT AND PUSH1 0x20 ADD DUP6 PUSH2 0xA2A JUMP JUMPDEST DUP3 DUP5 MSTORE PUSH1 0x20 DUP4 DUP4 ADD ADD GT PUSH2 0xA8 JUMPI DUP2 PUSH1 0x0 SWAP3 PUSH1 0x20 DUP1 SWAP4 ADD DUP4 DUP7 ADD CALLDATACOPY DUP4 ADD ADD MSTORE SWAP1 JUMP JUMPDEST PUSH1 0x4 CALLDATALOAD SWAP1 PUSH1 0x1 PUSH1 0x1 PUSH1 0xA0 SHL SUB DUP3 AND DUP3 SUB PUSH2 0xA8 JUMPI JUMP JUMPDEST PUSH1 0x0 NOT DUP2 EQ PUSH2 0x8F9 JUMPI PUSH1 0x1 ADD SWAP1 JUMP JUMPDEST ISZERO PUSH2 0xC16 JUMPI JUMP JUMPDEST PUSH1 0x40 MLOAD PUSH3 0x461BCD PUSH1 0xE5 SHL DUP2 MSTORE PUSH1 0x20 PUSH1 0x4 DUP3 ADD MSTORE PUSH1 0x10 PUSH1 0x24 DUP3 ADD MSTORE PUSH16 0x125B9D985B1A59081C1C9BDC1BDCD85B PUSH1 0x82 SHL PUSH1 0x44 DUP3 ADD MSTORE PUSH1 0x64 SWAP1 REVERT INVALID LOG2 PUSH5 0x6970667358 0x22 SLT KECCAK256 CALLER MSTORE CALLDATALOAD 0x4B ADD 0xB1 PUSH19 0x64D478F84AE6FEA816496193D90FA5DA91F3CE 0xB0 BASEFEE 0xD0 0xE0 0x5E 0xAA PUSH5 0x736F6C6343 STOP ADDMOD EQ STOP CALLER "},"methodIdentifiers":{"authorize(address)":"b6a5d7de","authorized(address)":"b9181611","createProposal(string,string,uint256)":"0ce0ebf4","getProposal(uint256)":"c7f758a8","getTotalProposals()":"1a5007dd","hasVoted(uint256,address)":"43859632","owner()":"8da5cb5b","proposalCount()":"da35c664","proposals(uint256)":"013cf08b","vote(uint256,uint8)":"943e8216"}}}}}