{"contracts/CorporateGovernanceOptimized.sol":{"CorporateGovernanceOptimized":{"abi":[{"inputs":[],"stateMutability":"nonpayable","type":"constructor"},{"inputs":[{"internalType":"address","name":"owner","type":"address"}],"name":"OwnableInvalidOwner","type":"error"},{"inputs":[{"internalType":"address","name":"account","type":"address"}],"name":"OwnableUnauthorizedAccount","type":"error"},{"anonymous":false,"inputs":[{"indexed":true,"internalType":"address","name":"member","type":"address"}],"name":"BoardMemberAdded","type":"event"},{"anonymous":false,"inputs":[{"indexed":false,"internalType":"string","name":"name","type":"string"},{"indexed":false,"internalType":"string","name":"symbol","type":"string"}],"name":"CompanyInitialized","type":"event"},{"anonymous":false,"inputs":[{"indexed":true,"internalType":"address","name":"previousOwner","type":"address"},{"indexed":true,"internalType":"address","name":"newOwner","type":"address"}],"name":"OwnershipTransferred","type":"event"},{"anonymous":false,"inputs":[{"indexed":true,"internalType":"uint256","name":"proposalId","type":"uint256"},{"indexed":false,"internalType":"enum CorporateGovernanceOptimized.ProposalType","name":"proposalType","type":"uint8"},{"indexed":true,"internalType":"address","name":"proposer","type":"address"}],"name":"ProposalCreated","type":"event"},{"anonymous":false,"inputs":[{"indexed":true,"internalType":"uint256","name":"proposalId","type":"uint256"},{"indexed":false,"internalType":"bool","name":"passed","type":"bool"}],"name":"ProposalFinalized","type":"event"},{"anonymous":false,"inputs":[{"indexed":true,"internalType":"address","name":"shareholder","type":"address"},{"indexed":false,"internalType":"string","name":"companyId","type":"string"},{"indexed":false,"internalType":"uint32","name":"shares","type":"uint32"}],"name":"ShareholderRegistered","type":"event"},{"anonymous":false,"inputs":[{"indexed":true,"internalType":"uint256","name":"proposalId","type":"uint256"},{"indexed":true,"internalType":"address","name":"voter","type":"address"},{"indexed":false,"internalType":"enum CorporateGovernanceOptimized.VoteChoice","name":"choice","type":"uint8"}],"name":"VoteCast","type":"event"},{"inputs":[{"internalType":"address","name":"_member","type":"address"}],"name":"addBoardMember","outputs":[],"stateMutability":"nonpayable","type":"function"},{"inputs":[{"internalType":"address","name":"","type":"address"}],"name":"boardMembers","outputs":[{"internalType":"bool","name":"","type":"bool"}],"stateMutability":"view","type":"function"},{"inputs":[{"internalType":"uint256","name":"","type":"uint256"}],"name":"boardMembersList","outputs":[{"internalType":"address","name":"","type":"address"}],"stateMutability":"view","type":"function"},{"inputs":[{"internalType":"uint256","name":"_proposalId","type":"uint256"},{"internalType":"uint8","name":"_choice","type":"uint8"}],"name":"castVotePlain","outputs":[],"stateMutability":"nonpayable","type":"function"},{"inputs":[],"name":"companyName","outputs":[{"internalType":"string","name":"","type":"string"}],"stateMutability":"view","type":"function"},{"inputs":[{"internalType":"uint8","name":"_type","type":"uint8"},{"internalType":"string","name":"_title","type":"string"},{"internalType":"string","name":"_description","type":"string"},{"internalType":"string","name":"_attachmentHash","type":"string"},{"internalType":"uint256","name":"_durationDays","type":"uint256"}],"name":"createProposal","outputs":[{"internalType":"uint256","name":"","type":"uint256"}],"stateMutability":"nonpayable","type":"function"},{"inputs":[{"internalType":"uint256","name":"_proposalId","type":"uint256"}],"name":"finalizeProposal","outputs":[],"stateMutability":"nonpayable","type":"function"},{"inputs":[],"name":"getCompanyInfo","outputs":[{"internalType":"string","name":"","type":"string"},{"internalType":"string","name":"","type":"string"},{"internalType":"string","name":"","type":"string"},{"internalType":"uint256","name":"","type":"uint256"},{"internalType":"uint256","name":"","type":"uint256"},{"internalType":"address[]","name":"","type":"address[]"}],"stateMutability":"view","type":"function"},{"inputs":[{"internalType":"uint256","name":"_proposalId","type":"uint256"}],"name":"getDecryptedResults","outputs":[{"internalType":"uint32","name":"","type":"uint32"},{"internalType":"uint32","name":"","type":"uint32"},{"internalType":"uint32","name":"","type":"uint32"},{"internalType":"bool","name":"","type":"bool"}],"stateMutability":"view","type":"function"},{"inputs":[{"internalType":"uint256","name":"_proposalId","type":"uint256"}],"name":"getProposalBasic","outputs":[{"internalType":"uint256","name":"","type":"uint256"},{"internalType":"uint8","name":"","type":"uint8"},{"internalType":"address","name":"","type":"address"},{"internalType":"uint256","name":"","type":"uint256"},{"internalType":"uint256","name":"","type":"uint256"},{"internalType":"bool","name":"","type":"bool"},{"internalType":"bool","name":"","type":"bool"}],"stateMutability":"view","type":"function"},{"inputs":[{"internalType":"uint256","name":"_proposalId","type":"uint256"}],"name":"getProposalContent","outputs":[{"internalType":"string","name":"","type":"string"},{"internalType":"string","name":"","type":"string"},{"internalType":"string","name":"","type":"string"}],"stateMutability":"view","type":"function"},{"inputs":[{"internalType":"uint256","name":"_proposalId","type":"uint256"}],"name":"getProposalInfo","outputs":[{"internalType":"uint256","name":"id","type":"uint256"},{"internalType":"uint8","name":"proposalType","type":"uint8"},{"internalType":"string","name":"title","type":"string"},{"internalType":"string","name":"description","type":"string"},{"internalType":"address","name":"proposer","type":"address"},{"internalType":"uint256","name":"creationTime","type":"uint256"},{"internalType":"uint256","name":"deadline","type":"uint256"},{"internalType":"bool","name":"isActive","type":"bool"},{"internalType":"bool","name":"isFinalized","type":"bool"},{"internalType":"uint256","name":"participationCount","type":"uint256"},{"internalType":"uint256","name":"requiredThreshold","type":"uint256"}],"stateMutability":"view","type":"function"},{"inputs":[{"internalType":"uint256","name":"_proposalId","type":"uint256"}],"name":"getProposalVotes","outputs":[{"internalType":"uint256","name":"","type":"uint256"},{"internalType":"uint256","name":"","type":"uint256"},{"internalType":"uint256","name":"","type":"uint256"},{"internalType":"uint256","name":"","type":"uint256"},{"internalType":"uint256","name":"","type":"uint256"}],"stateMutability":"view","type":"function"},{"inputs":[{"internalType":"address","name":"_shareholder","type":"address"}],"name":"getShareholderInfo","outputs":[{"internalType":"bool","name":"","type":"bool"},{"internalType":"uint32","name":"","type":"uint32"},{"internalType":"string","name":"","type":"string"},{"internalType":"string","name":"","type":"string"}],"stateMutability":"view","type":"function"},{"inputs":[],"name":"getTotalProposals","outputs":[{"internalType":"uint256","name":"","type":"uint256"}],"stateMutability":"view","type":"function"},{"inputs":[{"internalType":"uint256","name":"","type":"uint256"},{"internalType":"address","name":"","type":"address"}],"name":"hasVoted","outputs":[{"internalType":"bool","name":"","type":"bool"}],"stateMutability":"view","type":"function"},{"inputs":[{"internalType":"uint256","name":"_proposalId","type":"uint256"},{"internalType":"address","name":"_voter","type":"address"}],"name":"hasVotedOn","outputs":[{"internalType":"bool","name":"","type":"bool"}],"stateMutability":"view","type":"function"},{"inputs":[{"internalType":"string","name":"_name","type":"string"},{"internalType":"string","name":"_symbol","type":"string"},{"internalType":"string","name":"_regNumber","type":"string"},{"internalType":"uint256","name":"_totalShares","type":"uint256"}],"name":"initializeCompany","outputs":[],"stateMutability":"nonpayable","type":"function"},{"inputs":[{"internalType":"address","name":"_member","type":"address"}],"name":"isBoardMember","outputs":[{"internalType":"bool","name":"","type":"bool"}],"stateMutability":"view","type":"function"},{"inputs":[],"name":"isInitialized","outputs":[{"internalType":"bool","name":"","type":"bool"}],"stateMutability":"view","type":"function"},{"inputs":[],"name":"owner","outputs":[{"internalType":"address","name":"","type":"address"}],"stateMutability":"view","type":"function"},{"inputs":[{"internalType":"uint256","name":"","type":"uint256"}],"name":"proposalBasics","outputs":[{"internalType":"uint256","name":"id","type":"uint256"},{"internalType":"enum CorporateGovernanceOptimized.ProposalType","name":"proposalType","type":"uint8"},{"internalType":"address","name":"proposer","type":"address"},{"internalType":"uint256","name":"creationTime","type":"uint256"},{"internalType":"uint256","name":"deadline","type":"uint256"},{"internalType":"bool","name":"isActive","type":"bool"},{"internalType":"bool","name":"isFinalized","type":"bool"}],"stateMutability":"view","type":"function"},{"inputs":[{"internalType":"uint256","name":"","type":"uint256"}],"name":"proposalContents","outputs":[{"internalType":"string","name":"title","type":"string"},{"internalType":"string","name":"description","type":"string"},{"internalType":"string","name":"attachmentHash","type":"string"}],"stateMutability":"view","type":"function"},{"inputs":[{"internalType":"uint256","name":"","type":"uint256"}],"name":"proposalVotes","outputs":[{"internalType":"uint256","name":"forVotes","type":"uint256"},{"internalType":"uint256","name":"againstVotes","type":"uint256"},{"internalType":"uint256","name":"abstainVotes","type":"uint256"},{"internalType":"uint256","name":"participationCount","type":"uint256"},{"internalType":"uint256","name":"requiredThreshold","type":"uint256"}],"stateMutability":"view","type":"function"},{"inputs":[{"internalType":"address","name":"_shareholder","type":"address"},{"internalType":"uint32","name":"_shares","type":"uint32"},{"internalType":"string","name":"_companyId","type":"string"},{"internalType":"string","name":"_name","type":"string"}],"name":"registerShareholderPlain","outputs":[],"stateMutability":"nonpayable","type":"function"},{"inputs":[],"name":"registrationNumber","outputs":[{"internalType":"string","name":"","type":"string"}],"stateMutability":"view","type":"function"},{"inputs":[{"internalType":"address","name":"_member","type":"address"}],"name":"removeBoardMember","outputs":[],"stateMutability":"nonpayable","type":"function"},{"inputs":[],"name":"renounceOwnership","outputs":[],"stateMutability":"nonpayable","type":"function"},{"inputs":[{"internalType":"address","name":"","type":"address"}],"name":"shareholders","outputs":[{"internalType":"bool","name":"isRegistered","type":"bool"},{"internalType":"uint32","name":"shares","type":"uint32"},{"internalType":"string","name":"companyId","type":"string"},{"internalType":"string","name":"name","type":"string"}],"stateMutability":"view","type":"function"},{"inputs":[{"internalType":"uint256","name":"","type":"uint256"}],"name":"shareholdersList","outputs":[{"internalType":"address","name":"","type":"address"}],"stateMutability":"view","type":"function"},{"inputs":[],"name":"stockSymbol","outputs":[{"internalType":"string","name":"","type":"string"}],"stateMutability":"view","type":"function"},{"inputs":[{"internalType":"enum CorporateGovernanceOptimized.ProposalType","name":"","type":"uint8"}],"name":"thresholds","outputs":[{"internalType":"uint256","name":"","type":"uint256"}],"stateMutability":"view","type":"function"},{"inputs":[],"name":"totalShareholders","outputs":[{"internalType":"uint256","name":"","type":"uint256"}],"stateMutability":"view","type":"function"},{"inputs":[],"name":"totalShares","outputs":[{"internalType":"uint256","name":"","type":"uint256"}],"stateMutability":"view","type":"function"},{"inputs":[{"internalType":"address","name":"newOwner","type":"address"}],"name":"transferOwnership","outputs":[],"stateMutability":"nonpayable","type":"function"},{"inputs":[{"internalType":"uint256","name":"","type":"uint256"},{"internalType":"address","name":"","type":"address"}],"name":"votes","outputs":[{"internalType":"enum CorporateGovernanceOptimized.VoteChoice","name":"","type":"uint8"}],"stateMutability":"view","type":"function"}],"evm":{"bytecode":{"linkReferences":{},"object":"60806040908082523461014b573315610135575060008054336001600160a01b03198083168217845592916001600160a01b03167f8be0079c531659141344cd1fd0a4f28419497f9722a3daafe3b4186f6b6457e08380a3808052601060205260328382205560018152603c8382205560028152604b838220556003815260328382205560048152604b8382205560058152603c838220553381526008602052828120600160ff19825416179055600a549068010000000000000000821015610121576001820180600a5582101561010d57600a90527fc65a7bb8d6351c1cf70c95a316cc6a92839c986682d98bc35f958f4883f9d2a80180549091163317905551612a0890816101518239f35b634e487b7160e01b81526032600452602490fd5b634e487b7160e01b81526041600452602490fd5b631e4fbdf760e01b815260006004820152602490fd5b600080fdfe608080604052600436101561001357600080fd5b60003560e01c9081630f8d4030146123ee575080631a5007dd146123d05780631de20bcf146123885780631eac03ae146122a557806333bac5031461224a578063392e53cd1461222757806339a169f9146120895780633a98ef391461206b57806341d14c2214611f3d5780634385963214611ef057806347c6614014611e6a5780634ed2703414611e20578063544ffc9c14611db85780635652077c14611c1c5780635a50d2f414611beb5780635c2930ad14611b855780635e6056bb14611b855780635ee230b714611b43578063691e739814611689578063715018a61461163057806371942a01146106fc5780637ec8f005146115a45780638da5cb5b1461157b5780639f83c4b2146114cb578063a39af88e14610e0d578063a759e62914610911578063b2a1a40a146108f5578063b97d3e4014610889578063bc903cb81461073b578063bff13785146106fc578063c87cbe56146106e0578063d098db5a146103f1578063d23254b4146103a1578063d7710d6214610272578063f2fde38b146101e45763f5ec2eed146101ab57600080fd5b346101df5760003660031901126101df576101db6101c76126ae565b604051918291602083526020830190612409565b0390f35b600080fd5b346101df5760203660031901126101df576101fd612483565b6102056128ea565b6001600160a01b0390811690811561025957600054826bffffffffffffffffffffffff60a01b821617600055167f8be0079c531659141344cd1fd0a4f28419497f9722a3daafe3b4186f6b6457e0600080a3005b604051631e4fbdf760e01b815260006004820152602490fd5b346101df5760003660031901126101df57600454600554906102926126ae565b9061029b612615565b926102a4612557565b91604051918290600a54948585526020809501978896600a6000527fc65a7bb8d6351c1cf70c95a316cc6a92839c986682d98bc35f958f4883f9d2a89060005b8181106103845750505083929161032961033792610308899761031c9d0387612536565b6040519b8c9b60c08d5260c08d0190612409565b908b8203888d0152612409565b9089820360408b0152612409565b936060880152608087015285830360a0870152519182815201929160005b82811061036457505050500390f35b83516001600160a01b031685528695509381019392810192600101610355565b82546001600160a01b03168c529a88019a600192830192016102e4565b346101df5760403660031901126101df576103ba612499565b600435600052600f60205260406000209060018060a01b03166000526020526101db60ff60406000205416604051918291826128d7565b346101df5760403660031901126101df5760043560249081359160ff83168093036101df57811515806106d4575b61042890612973565b60001982018281116106bf5761043d9061288f565b5060ff600482015416156106855760030154421161065257336000526020906007825260ff604060002054161561060f57600284116105db5782600052600e8252604060002033600052825260ff604060002054166105a8576003841015610594575060039082600052600e81526040600020336000528152604060002060ff199060018282541617905583600052600f825260406000203360005282528460406000209182541617905582600052600d81526007604060002091336000525263ffffffff60406000205460081c166001851460001461056757610522908254612966565b81555b016105308154612957565b90557feba4866100b822f0f391e610e7edfab790b9e8766c0012733c26b2f1858e8dd7604051806105623395826128d7565b0390a3005b600285036105855761057e60018301918254612966565b9055610525565b61057e60028301918254612966565b634e487b7160e01b60009081526021600452fd5b90600d6064926040519262461bcd60e51b845260048401528201526c105b1c9958591e481d9bdd1959609a1b6044820152fd5b90600e6064926040519262461bcd60e51b845260048401528201526d496e76616c69642063686f69636560901b6044820152fd5b90601a6064926040519262461bcd60e51b845260048401528201527f4f6e6c79207665726966696564207368617265686f6c646572730000000000006044820152fd5b606490600c6040519162461bcd60e51b8352602060048401528201526b159bdd1a5b99c8195b99195960a21b6044820152fd5b60405162461bcd60e51b8152602060048201526013818401527250726f706f73616c206e6f742061637469766560681b6044820152606490fd5b50634e487b7160e01b60009081526011600452fd5b50600b5482111561041f565b346101df5760003660031901126101df576101db6101c7612615565b346101df5760203660031901126101df576001600160a01b0361071d612483565b166000526008602052602060ff604060002054166040519015158152f35b346101df5760203660031901126101df576004358015158061087d575b61076190612973565b6000198101818111610867576107769061288f565b5090600052600c6020526040600020600d602052604060002082549160018401549160ff83169460068610156108515780600260ff92015490600460038201549101549161080f60046003870154960154966108016107e060016107d984612744565b9301612744565b916040519c8d9c8d5260208d015260408c61016091829101528c0190612409565b908a820360608c0152612409565b9660018060a01b039060081c16608089015260a088015260c0870152818116151560e087015260081c1615156101008501526101208401526101408301520390f35b634e487b7160e01b600052602160045260246000fd5b634e487b7160e01b600052601160045260246000fd5b50600b54811115610758565b346101df5760403660031901126101df576004356108a5612499565b90801515806108e9575b6108b890612973565b600052600e60205260406000209060018060a01b0316600052602052602060ff604060002054166040519015158152f35b50600b548111156108af565b346101df5760003660031901126101df576101db6101c7612557565b346101df5760803660031901126101df576001600160401b036004358181116101df57610942903690600401612839565b906024358181116101df5761095b903690600401612839565b906044358181116101df57610974903690600401612839565b61097c6128ea565b60ff60065416610dd257835191808311610bde5760019261099d84546124fc565b90601f91828111610d6e575b50806020838211600114610cef57600091610ce4575b50600019600383901b1c191690851b1784555b8451828111610bde576109e66002546124fc565b828111610c7f575b50806020838211600114610bff57600091610bf4575b50600019600383901b1c191690851b176002555b8251918211610bde57600392610a2e84546124fc565b828111610b7a575b506020918311600114610acf579282610ab196937f9f2b0152a49dba19e307c8e31a1c32a54f6dbd3318d3165028e7b602a85eedcf989693610abf96600092610ac4575b505060001982841b1c191690831b1790555b60643560045560ff196006541617600655604051938493604085526040850190612409565b908382036020850152612409565b0390a1005b015190508980610a7a565b90601f19831691846000527fc2575a0e9e593c00f959f8c92f12db2869c3395a3b0502d05e2516446f71f85b9260005b818110610b645750938693610abf96937f9f2b0152a49dba19e307c8e31a1c32a54f6dbd3318d3165028e7b602a85eedcf9a989383610ab19b9810610b4c575b505050811b019055610a8c565b015160001983861b60f8161c19169055898080610b3f565b8284015185559387019360209384019301610aff565b846000527fc2575a0e9e593c00f959f8c92f12db2869c3395a3b0502d05e2516446f71f85b8380860160051c82019260208710610bd5575b0160051c019086905b828110610bc9575050610a36565b60008155018690610bbb565b92508192610bb2565b634e487b7160e01b600052604160045260246000fd5b905086015188610a04565b869250601f1982169060026000527f405787fa12a823e0f2b7631cc41b3ba8828b3321ca811111fa75cd3aa3bb5ace9160005b818110610c6757508311610c4e575b5050811b01600255610a18565b88015160001960f88460031b161c191690558880610c41565b8a830151845589959093019260209283019201610c32565b60026000527f405787fa12a823e0f2b7631cc41b3ba8828b3321ca811111fa75cd3aa3bb5ace8380840160051c82019260208510610cdb575b0160051c019086905b828110610ccf5750506109ee565b60008155018690610cc1565b92508192610cb8565b9050870151886109bf565b869250601f19821690836000527fb10e2d527612073b26eecdfd717e6a320cf44b4afac2b0732d9fcbe2b7fa0cf69160005b8b828210610d575750508311610d3e575b5050811b0184556109d2565b89015160001960f88460031b161c191690558880610d32565b830151845589959093019260209283019201610d21565b856000527fb10e2d527612073b26eecdfd717e6a320cf44b4afac2b0732d9fcbe2b7fa0cf68380840160051c82019260208510610dc9575b0160051c019086905b828110610dbd5750506109a9565b60008155018690610daf565b92508192610da6565b60405162461bcd60e51b8152602060048201526013602482015272105b1c9958591e481a5b9a5d1a585b1a5e9959606a1b6044820152606490fd5b346101df5760a03660031901126101df5760043560ff811681036101df576024356001600160401b0381116101df57610e4a903690600401612839565b6044356001600160401b0381116101df57610e69903690600401612839565b906064356001600160401b0381116101df57610e89903690600401612839565b60843592336000526008602052610ea760ff60406000205416612916565b600560ff8616116114975782511561146457600b549360018501851161086757600660ff8716101561085157620151809081810291818304149015171561086757610ef29042612966565b604051908160e08101106001600160401b0360e084011117610bde5760e0820160405260018601825260ff871660208301523360408301524260608301526080820152600160a0820152600060c0820152600160401b851015610bde5760018501600b55610f5f8561288f565b61144e5781518155602082015160018201916006821015610851578260049260c0945460ff610100600160a81b03604089015160081b169216906affffffffffffffffffffff60a81b161717905560608401516002820155608084015160038201550191610fdf60a08201511515849060ff801983541691151516179055565b0151815461ff00191690151560081b61ff001617905560405192606084016001600160401b03811185821017610bde5760405283526020830152604082015260018201600052600c60205260406000209080518051906001600160401b038211610bde57819061104f85546124fc565b601f81116113fe575b50602090601f83116001146113985760009261138d575b50508160011b916000199060031b1c19161782555b60208101518051906001600160401b038211610bde576110a760018501546124fc565b601f8111611346575b50602090601f83116001146112d5576040939291600091836112ca575b50508160011b916000199060031b1c19161760018401555b01518051906001600160401b038211610bde5761110560028401546124fc565b601f811161127f575b50602090601f8311600114611211576002929160009183611206575b50508160011b916000199060031b1c1916179101555b61114c60ff83166127e8565b54916040519260a08401918483106001600160401b03841117610bde5760209460046111d19360ff95604052600083528783016000815260408401600081526060850191600083526080860193845260018a01600052600d8b5260406000209551865551600186015551600285015551600384015551910155604051928391166128ca565b33907f3263432a41f78a4701cc9465f62411ed717ade32290c084135a3dd6b29f4bf28846001850192a3600160405191018152f35b01519050868061112a565b90601f198316916002850160005260206000209260005b8181106112675750916001939185600296941061124e575b505050811b01910155611140565b015160001960f88460031b161c19169055868080611240565b92936020600181928786015181550195019301611228565b600284016000526020600020601f840160051c810191602085106112c0575b601f0160051c01905b8181106112b4575061110e565b600081556001016112a7565b909150819061129e565b0151905087806110cd565b90601f198316916001860160005260206000209260005b81811061132e5750916001939185604097969410611315575b505050811b0160018401556110e5565b015160001960f88460031b161c19169055878080611305565b929360206001819287860151815501950193016112ec565b600185016000526020600020601f840160051c810160208510611386575b601f830160051c8201811061137a5750506110b0565b60008155600101611364565b5080611364565b01519050868061106f565b6000868152602081209350601f198516905b8181106113e657509084600195949392106113cd575b505050811b018255611084565b015160001960f88460031b161c191690558680806113c0565b929360206001819287860151815501950193016113aa565b909150846000526020600020601f840160051c810160208510611447575b90849392915b601f830160051c82018110611438575050611058565b60008155859450600101611422565b508061141c565b634e487b7160e01b600052600060045260246000fd5b60405162461bcd60e51b815260206004820152600b60248201526a456d707479207469746c6560a81b6044820152606490fd5b60405162461bcd60e51b815260206004820152600c60248201526b496e76616c6964207479706560a01b6044820152606490fd5b346101df5760203660031901126101df576004358015158061156f575b6114f190612973565b6000198101908111610867576115069061288f565b508054600182015460ff81166006811015610851578360ff92600260e0960154906004600384015493015493604051968752602087015260018060a01b039060081c16604086015260608501526080840152818116151560a084015260081c16151560c0820152f35b50600b548111156114e8565b346101df5760003660031901126101df576000546040516001600160a01b039091168152602090f35b346101df5760203660031901126101df57600435600b548110156101df576115cd60e09161288f565b5060ff815491600181015490600281015460046003830154920154926040519586526115fe602087018683166128ca565b60018060a01b039060081c16604086015260608501526080840152818116151560a084015260081c16151560c0820152f35b346101df5760003660031901126101df576116496128ea565b600080546001600160a01b0319811682556001600160a01b03167f8be0079c531659141344cd1fd0a4f28419497f9722a3daafe3b4186f6b6457e08280a3005b346101df5760803660031901126101df576116a2612483565b602480359163ffffffff831683036101df576044356001600160401b0381116101df576116d3903690600401612839565b916064356001600160401b0381116101df576116f3903690600401612839565b33600052600860205261170d60ff60406000205416612916565b6001600160a01b03831660009081526007602052604090205460ff16611b0a5760405190608082018281106001600160401b03821117611a1b5760405260018252602082019063ffffffff871682526040830190868252606084015260018060a01b038516600052600760205260406000209161179984511515849060ff801983541691151516179055565b5164ffffffff0083549160081b169064ffffffff001916178255518051906001600160401b038211611af5576117d260018401546124fc565b601f8111611aae575b50602090601f8311600114611a3b57918060609492600294600092611a30575b50508160011b916000199060031b1c19161760018201555b019101518051906001600160401b038211611a1b57819061183484546124fc565b601f81116119c8575b50602090601f831160011461196257600092611957575b50508160011b916000199060031b1c19161790555b60095490600160401b82101561194357600182018060095582101561192f575060096000527f6e1540171b6c0c960b71a7020d9f60077f6af931a8bbf590da0223dacf75c7af0180546001600160a01b0319166001600160a01b0383161790556005547f5e54c52a11762ea9e0832cafb00c2ace0c9171b00ae4d1b17cc7f8175fbbe754926119199290916118fd90612957565b60055563ffffffff604051938493604085526040850190612409565b951660208301526001600160a01b0316930390a2005b634e487b7160e01b60009081526032600452fd5b634e487b7160e01b60009081526041600452fd5b015190508780611854565b6000858152602081209350601f198516905b8181106119b05750908460019594939210611997575b505050811b019055611869565b015160001960f88460031b161c1916905587808061198a565b92936020600181928786015181550195019301611974565b909150836000526020600020601f840160051c81019160208510611a11575b90601f859493920160051c01905b818110611a02575061183d565b600081558493506001016119f5565b90915081906119e7565b83634e487b7160e01b60005260416004526000fd5b015190508a806117fb565b90601f198316916001850160005260206000209260005b818110611a9657509260019285926002966060989610611a7d575b505050811b016001820155611813565b015160001960f88460031b161c191690558a8080611a6d565b92936020600181928786015181550195019301611a52565b600184016000526020600020601f840160051c810160208510611aee575b601f830160051c82018110611ae25750506117db565b60008155600101611acc565b5080611acc565b84634e487b7160e01b60005260416004526000fd5b60405162461bcd60e51b81526020600482015260128184015271105b1c9958591e481c9959da5cdd195c995960721b6044820152606490fd5b346101df5760203660031901126101df57600435600a548110156101df57611b6c6020916124af565b905460405160039290921b1c6001600160a01b03168152f35b346101df5760203660031901126101df576001600160a01b03611ba6612483565b166000526007602052604060002080546101db611bd16002611bca60018601612744565b9401612744565b604051938360ff63ffffffff879660081c16911685612801565b346101df5760203660031901126101df5760043560068110156101df57611c136020916127e8565b54604051908152f35b346101df576020806003193601126101df576004359081151580611dac575b611c4490612973565b3360005260088152611c5d60ff60406000205416612916565b600019820182811161086757611c729061288f565b50600481019081549060ff821615611d735760030154421115611d42576101009061ffff191617905581600052600d8152604060002090815491611cba600182015484612966565b9060009180611cf4575b50507fb5ac567fcf1b069e0235e4f16734625c6cf54c1b40517fd9eb85517f6e1265a792506040519015158152a2005b90915060648402938085046064149015171561086757611d376004917fb5ac567fcf1b069e0235e4f16734625c6cf54c1b40517fd9eb85517f6e1265a7956129b2565b910154108480611cc4565b60405162461bcd60e51b8152600481018490526009602482015268139bdd08195b99195960ba1b6044820152606490fd5b60405162461bcd60e51b8152600481018590526011602482015270105b1c9958591e48199a5b985b1a5e9959607a1b6044820152606490fd5b50600b54821115611c3b565b346101df5760203660031901126101df57600435600052600d602052604060002080546101db6001830154926002810154906004600382015491015491604051958695869192608093969594919660a084019784526020840152604083015260608201520152565b346101df5760203660031901126101df57600435600052600c6020526040600020611e4a81612744565b6101db611e5e6002611bca60018601612744565b60405193849384612449565b346101df5760203660031901126101df5760043580151580611ee4575b611e9090612973565b600052600d602052604060002080546101db6001830154926002810154906004600382015491015491604051958695869192608093969594919660a084019784526020840152604083015260608201520152565b50600b54811115611e87565b346101df5760403660031901126101df57611f09612499565b600435600052600e60205260406000209060018060a01b0316600052602052602060ff604060002054166040519015158152f35b346101df5760203660031901126101df576004358015158061205f575b611f6390612973565b336000526008602052611f7d60ff60406000205416612916565b6000198101818111610867576004611f9660ff9261288f565b50015460081c161561202a57600052600d602052604060002080546001820154611fc08183612966565b9060009180611ff8575b50600260809463ffffffff918291015416918160405195168552166020840152604083015215156060820152f35b9391506064830293838504606414841517156108675761201c6002916080966129b2565b600484015410929450611fca565b60405162461bcd60e51b815260206004820152600d60248201526c139bdd08199a5b985b1a5e9959609a1b6044820152606490fd5b50600b54811115611f5a565b346101df5760003660031901126101df576020600454604051908152f35b346101df5760203660031901126101df576120a2612483565b6120aa6128ea565b6001600160a01b0390811660008181526008602052604090205460ff16156121ef57816000541681146121b4576000818152600860205260408120805460ff19169055905b600a91825492838210156121b257849383612109846124af565b979054600398891b1c161461212c57505061212691929350612957565b906120ef565b90939250600019918282019182116108675761215b8461214e61217a946124af565b905490891b1c16916124af565b90919082549060031b9160018060a01b03809116831b921b1916179055565b8254801561219c57019261218d846124af565b8154921b9290921b1916905555005b634e487b7160e01b600052603160045260246000fd5b005b60405162461bcd60e51b815260206004820152601360248201527221b0b73737ba103932b6b7bb329037bbb732b960691b6044820152606490fd5b60405162461bcd60e51b815260206004820152601060248201526f2737ba103137b0b9321036b2b6b132b960811b6044820152606490fd5b346101df5760003660031901126101df57602060ff600654166040519015158152f35b346101df5760203660031901126101df576004356009548110156101df5760096000527f6e1540171b6c0c960b71a7020d9f60077f6af931a8bbf590da0223dacf75c7af01546040516001600160a01b039091168152602090f35b346101df5760203660031901126101df576122be612483565b6122c66128ea565b6001600160a01b03811660008181526008602052604090205490919060ff1661234c578160005260086020526040600020600160ff19825416179055600a5490600160401b821015610bde5761215b8260016123259401600a556124af565b7f956f4b06f20eda3aa4f6be9e72e8fc77beb3f95f4f2a95a796b2af742583d743600080a2005b60405162461bcd60e51b815260206004820152601460248201527320b63932b0b23c903137b0b9321036b2b6b132b960611b6044820152606490fd5b346101df5760203660031901126101df57600435801515806123c4575b6123ae90612973565b600052600c6020526040600020611e4a81612744565b50600b548111156123a5565b346101df5760003660031901126101df576020600b54604051908152f35b346101df5760003660031901126101df576020906005548152f35b919082519283825260005b848110612435575050826000602080949584010152601f8019910116010190565b602081830181015184830182015201612414565b91612472906124646124809593606086526060860190612409565b908482036020860152612409565b916040818403910152612409565b90565b600435906001600160a01b03821682036101df57565b602435906001600160a01b03821682036101df57565b600a548110156124e657600a6000527fc65a7bb8d6351c1cf70c95a316cc6a92839c986682d98bc35f958f4883f9d2a80190600090565b634e487b7160e01b600052603260045260246000fd5b90600182811c9216801561252c575b602083101461251657565b634e487b7160e01b600052602260045260246000fd5b91607f169161250b565b90601f801991011681019081106001600160401b03821117610bde57604052565b604051906000826003549161256b836124fc565b808352926001908181169081156125f35750600114612594575b5061259292500383612536565b565b6003600090815291507fc2575a0e9e593c00f959f8c92f12db2869c3395a3b0502d05e2516446f71f85b5b8483106125d85750612592935050810160200138612585565b81935090816020925483858a010152019101909185926125bf565b90506020925061259294915060ff191682840152151560051b82010138612585565b6040519060008260025491612629836124fc565b808352926001908181169081156125f3575060011461264f575061259292500383612536565b6002600090815291507f405787fa12a823e0f2b7631cc41b3ba8828b3321ca811111fa75cd3aa3bb5ace5b8483106126935750612592935050810160200138612585565b81935090816020925483858a0101520191019091859261267a565b604051906000826001918254926126c4846124fc565b808452938181169081156125f357506001146126e7575061259292500383612536565b600081815291507fb10e2d527612073b26eecdfd717e6a320cf44b4afac2b0732d9fcbe2b7fa0cf65b8483106127295750612592935050810160200138612585565b81935090816020925483858a01015201910190918592612710565b9060405191826000825492612758846124fc565b9081845260019485811690816000146127c55750600114612782575b505061259292500383612536565b9093915060005260209081600020936000915b8183106127ad57505061259293508201013880612774565b85548884018501529485019487945091830191612795565b91505061259294506020925060ff191682840152151560051b8201013880612774565b6006811015610851576000526010602052604060002090565b9263ffffffff612480959361282b9315158652166020850152608060408501526080840190612409565b916060818403910152612409565b81601f820112156101df578035906001600160401b038211610bde576040519261286d601f8401601f191660200185612536565b828452602083830101116101df57816000926020809301838601378301015290565b600b548110156124e657600590600b600052027f0175b7a638427703f0dbe7bb9bbf987a2551717b34e79f33b5b1008d1fa01db90190600090565b9060068210156108515752565b9190602083019260038210156108515752565b6000546001600160a01b031633036128fe57565b60405163118cdaa760e01b8152336004820152602490fd5b1561291d57565b60405162461bcd60e51b81526020600482015260126024820152714f6e6c7920626f617264206d656d6265727360701b6044820152606490fd5b60001981146108675760010190565b9190820180921161086757565b1561297a57565b60405162461bcd60e51b815260206004820152601060248201526f125b9d985b1a59081c1c9bdc1bdcd85b60821b6044820152606490fd5b81156129bc570490565b634e487b7160e01b600052601260045260246000fdfea2646970667358221220fdba52f266ff86d2d8c434d6038615cab78a796bf22ac05da8acbcf634be2ffc64736f6c63430008140033","opcodes":"PUSH1 0x80 PUSH1 0x40 SWAP1 DUP1 DUP3 MSTORE CALLVALUE PUSH2 0x14B JUMPI CALLER ISZERO PUSH2 0x135 JUMPI POP PUSH1 0x0 DUP1 SLOAD CALLER PUSH1 0x1 PUSH1 0x1 PUSH1 0xA0 SHL SUB NOT DUP1 DUP4 AND DUP3 OR DUP5 SSTORE SWAP3 SWAP2 PUSH1 0x1 PUSH1 0x1 PUSH1 0xA0 SHL SUB AND PUSH32 0x8BE0079C531659141344CD1FD0A4F28419497F9722A3DAAFE3B4186F6B6457E0 DUP4 DUP1 LOG3 DUP1 DUP1 MSTORE PUSH1 0x10 PUSH1 0x20 MSTORE PUSH1 0x32 DUP4 DUP3 KECCAK256 SSTORE PUSH1 0x1 DUP2 MSTORE PUSH1 0x3C DUP4 DUP3 KECCAK256 SSTORE PUSH1 0x2 DUP2 MSTORE PUSH1 0x4B DUP4 DUP3 KECCAK256 SSTORE PUSH1 0x3 DUP2 MSTORE PUSH1 0x32 DUP4 DUP3 KECCAK256 SSTORE PUSH1 0x4 DUP2 MSTORE PUSH1 0x4B DUP4 DUP3 KECCAK256 SSTORE PUSH1 0x5 DUP2 MSTORE PUSH1 0x3C DUP4 DUP3 KECCAK256 SSTORE CALLER DUP2 MSTORE PUSH1 0x8 PUSH1 0x20 MSTORE DUP3 DUP2 KECCAK256 PUSH1 0x1 PUSH1 0xFF NOT DUP3 SLOAD AND OR SWAP1 SSTORE PUSH1 0xA SLOAD SWAP1 PUSH9 0x10000000000000000 DUP3 LT ISZERO PUSH2 0x121 JUMPI PUSH1 0x1 DUP3 ADD DUP1 PUSH1 0xA SSTORE DUP3 LT ISZERO PUSH2 0x10D JUMPI PUSH1 0xA SWAP1 MSTORE PUSH32 0xC65A7BB8D6351C1CF70C95A316CC6A92839C986682D98BC35F958F4883F9D2A8 ADD DUP1 SLOAD SWAP1 SWAP2 AND CALLER OR SWAP1 SSTORE MLOAD PUSH2 0x2A08 SWAP1 DUP2 PUSH2 0x151 DUP3 CODECOPY RETURN JUMPDEST PUSH4 0x4E487B71 PUSH1 0xE0 SHL DUP2 MSTORE PUSH1 0x32 PUSH1 0x4 MSTORE PUSH1 0x24 SWAP1 REVERT JUMPDEST PUSH4 0x4E487B71 PUSH1 0xE0 SHL DUP2 MSTORE PUSH1 0x41 PUSH1 0x4 MSTORE PUSH1 0x24 SWAP1 REVERT JUMPDEST PUSH4 0x1E4FBDF7 PUSH1 0xE0 SHL DUP2 MSTORE PUSH1 0x0 PUSH1 0x4 DUP3 ADD MSTORE PUSH1 0x24 SWAP1 REVERT JUMPDEST PUSH1 0x0 DUP1 REVERT INVALID PUSH1 0x80 DUP1 PUSH1 0x40 MSTORE PUSH1 0x4 CALLDATASIZE LT ISZERO PUSH2 0x13 JUMPI PUSH1 0x0 DUP1 REVERT JUMPDEST PUSH1 0x0 CALLDATALOAD PUSH1 0xE0 SHR SWAP1 DUP2 PUSH4 0xF8D4030 EQ PUSH2 0x23EE JUMPI POP DUP1 PUSH4 0x1A5007DD EQ PUSH2 0x23D0 JUMPI DUP1 PUSH4 0x1DE20BCF EQ PUSH2 0x2388 JUMPI DUP1 PUSH4 0x1EAC03AE EQ PUSH2 0x22A5 JUMPI DUP1 PUSH4 0x33BAC503 EQ PUSH2 0x224A JUMPI DUP1 PUSH4 0x392E53CD EQ PUSH2 0x2227 JUMPI DUP1 PUSH4 0x39A169F9 EQ PUSH2 0x2089 JUMPI DUP1 PUSH4 0x3A98EF39 EQ PUSH2 0x206B JUMPI DUP1 PUSH4 0x41D14C22 EQ PUSH2 0x1F3D JUMPI DUP1 PUSH4 0x43859632 EQ PUSH2 0x1EF0 JUMPI DUP1 PUSH4 0x47C66140 EQ PUSH2 0x1E6A JUMPI DUP1 PUSH4 0x4ED27034 EQ PUSH2 0x1E20 JUMPI DUP1 PUSH4 0x544FFC9C EQ PUSH2 0x1DB8 JUMPI DUP1 PUSH4 0x5652077C EQ PUSH2 0x1C1C JUMPI DUP1 PUSH4 0x5A50D2F4 EQ PUSH2 0x1BEB JUMPI DUP1 PUSH4 0x5C2930AD EQ PUSH2 0x1B85 JUMPI DUP1 PUSH4 0x5E6056BB EQ PUSH2 0x1B85 JUMPI DUP1 PUSH4 0x5EE230B7 EQ PUSH2 0x1B43 JUMPI DUP1 PUSH4 0x691E7398 EQ PUSH2 0x1689 JUMPI DUP1 PUSH4 0x715018A6 EQ PUSH2 0x1630 JUMPI DUP1 PUSH4 0x71942A01 EQ PUSH2 0x6FC JUMPI DUP1 PUSH4 0x7EC8F005 EQ PUSH2 0x15A4 JUMPI DUP1 PUSH4 0x8DA5CB5B EQ PUSH2 0x157B JUMPI DUP1 PUSH4 0x9F83C4B2 EQ PUSH2 0x14CB JUMPI DUP1 PUSH4 0xA39AF88E EQ PUSH2 0xE0D JUMPI DUP1 PUSH4 0xA759E629 EQ PUSH2 0x911 JUMPI DUP1 PUSH4 0xB2A1A40A EQ PUSH2 0x8F5 JUMPI DUP1 PUSH4 0xB97D3E40 EQ PUSH2 0x889 JUMPI DUP1 PUSH4 0xBC903CB8 EQ PUSH2 0x73B JUMPI DUP1 PUSH4 0xBFF13785 EQ PUSH2 0x6FC JUMPI DUP1 PUSH4 0xC87CBE56 EQ PUSH2 0x6E0 JUMPI DUP1 PUSH4 0xD098DB5A EQ PUSH2 0x3F1 JUMPI DUP1 PUSH4 0xD23254B4 EQ PUSH2 0x3A1 JUMPI DUP1 PUSH4 0xD7710D62 EQ PUSH2 0x272 JUMPI DUP1 PUSH4 0xF2FDE38B EQ PUSH2 0x1E4 JUMPI PUSH4 0xF5EC2EED EQ PUSH2 0x1AB JUMPI PUSH1 0x0 DUP1 REVERT JUMPDEST CALLVALUE PUSH2 0x1DF JUMPI PUSH1 0x0 CALLDATASIZE PUSH1 0x3 NOT ADD SLT PUSH2 0x1DF JUMPI PUSH2 0x1DB PUSH2 0x1C7 PUSH2 0x26AE JUMP JUMPDEST PUSH1 0x40 MLOAD SWAP2 DUP3 SWAP2 PUSH1 0x20 DUP4 MSTORE PUSH1 0x20 DUP4 ADD SWAP1 PUSH2 0x2409 JUMP JUMPDEST SUB SWAP1 RETURN JUMPDEST PUSH1 0x0 DUP1 REVERT JUMPDEST CALLVALUE PUSH2 0x1DF JUMPI PUSH1 0x20 CALLDATASIZE PUSH1 0x3 NOT ADD SLT PUSH2 0x1DF JUMPI PUSH2 0x1FD PUSH2 0x2483 JUMP JUMPDEST PUSH2 0x205 PUSH2 0x28EA JUMP JUMPDEST PUSH1 0x1 PUSH1 0x1 PUSH1 0xA0 SHL SUB SWAP1 DUP2 AND SWAP1 DUP2 ISZERO PUSH2 0x259 JUMPI PUSH1 0x0 SLOAD DUP3 PUSH12 0xFFFFFFFFFFFFFFFFFFFFFFFF PUSH1 0xA0 SHL DUP3 AND OR PUSH1 0x0 SSTORE AND PUSH32 0x8BE0079C531659141344CD1FD0A4F28419497F9722A3DAAFE3B4186F6B6457E0 PUSH1 0x0 DUP1 LOG3 STOP JUMPDEST PUSH1 0x40 MLOAD PUSH4 0x1E4FBDF7 PUSH1 0xE0 SHL DUP2 MSTORE PUSH1 0x0 PUSH1 0x4 DUP3 ADD MSTORE PUSH1 0x24 SWAP1 REVERT JUMPDEST CALLVALUE PUSH2 0x1DF JUMPI PUSH1 0x0 CALLDATASIZE PUSH1 0x3 NOT ADD SLT PUSH2 0x1DF JUMPI PUSH1 0x4 SLOAD PUSH1 0x5 SLOAD SWAP1 PUSH2 0x292 PUSH2 0x26AE JUMP JUMPDEST SWAP1 PUSH2 0x29B PUSH2 0x2615 JUMP JUMPDEST SWAP3 PUSH2 0x2A4 PUSH2 0x2557 JUMP JUMPDEST SWAP2 PUSH1 0x40 MLOAD SWAP2 DUP3 SWAP1 PUSH1 0xA SLOAD SWAP5 DUP6 DUP6 MSTORE PUSH1 0x20 DUP1 SWAP6 ADD SWAP8 DUP9 SWAP7 PUSH1 0xA PUSH1 0x0 MSTORE PUSH32 0xC65A7BB8D6351C1CF70C95A316CC6A92839C986682D98BC35F958F4883F9D2A8 SWAP1 PUSH1 0x0 JUMPDEST DUP2 DUP2 LT PUSH2 0x384 JUMPI POP POP POP DUP4 SWAP3 SWAP2 PUSH2 0x329 PUSH2 0x337 SWAP3 PUSH2 0x308 DUP10 SWAP8 PUSH2 0x31C SWAP14 SUB DUP8 PUSH2 0x2536 JUMP JUMPDEST PUSH1 0x40 MLOAD SWAP12 DUP13 SWAP12 PUSH1 0xC0 DUP14 MSTORE PUSH1 0xC0 DUP14 ADD SWAP1 PUSH2 0x2409 JUMP JUMPDEST SWAP1 DUP12 DUP3 SUB DUP9 DUP14 ADD MSTORE PUSH2 0x2409 JUMP JUMPDEST SWAP1 DUP10 DUP3 SUB PUSH1 0x40 DUP12 ADD MSTORE PUSH2 0x2409 JUMP JUMPDEST SWAP4 PUSH1 0x60 DUP9 ADD MSTORE PUSH1 0x80 DUP8 ADD MSTORE DUP6 DUP4 SUB PUSH1 0xA0 DUP8 ADD MSTORE MLOAD SWAP2 DUP3 DUP2 MSTORE ADD SWAP3 SWAP2 PUSH1 0x0 JUMPDEST DUP3 DUP2 LT PUSH2 0x364 JUMPI POP POP POP POP SUB SWAP1 RETURN JUMPDEST DUP4 MLOAD PUSH1 0x1 PUSH1 0x1 PUSH1 0xA0 SHL SUB AND DUP6 MSTORE DUP7 SWAP6 POP SWAP4 DUP2 ADD SWAP4 SWAP3 DUP2 ADD SWAP3 PUSH1 0x1 ADD PUSH2 0x355 JUMP JUMPDEST DUP3 SLOAD PUSH1 0x1 PUSH1 0x1 PUSH1 0xA0 SHL SUB AND DUP13 MSTORE SWAP11 DUP9 ADD SWAP11 PUSH1 0x1 SWAP3 DUP4 ADD SWAP3 ADD PUSH2 0x2E4 JUMP JUMPDEST CALLVALUE PUSH2 0x1DF JUMPI PUSH1 0x40 CALLDATASIZE PUSH1 0x3 NOT ADD SLT PUSH2 0x1DF JUMPI PUSH2 0x3BA PUSH2 0x2499 JUMP JUMPDEST PUSH1 0x4 CALLDATALOAD PUSH1 0x0 MSTORE PUSH1 0xF PUSH1 0x20 MSTORE PUSH1 0x40 PUSH1 0x0 KECCAK256 SWAP1 PUSH1 0x1 DUP1 PUSH1 0xA0 SHL SUB AND PUSH1 0x0 MSTORE PUSH1 0x20 MSTORE PUSH2 0x1DB PUSH1 0xFF PUSH1 0x40 PUSH1 0x0 KECCAK256 SLOAD AND PUSH1 0x40 MLOAD SWAP2 DUP3 SWAP2 DUP3 PUSH2 0x28D7 JUMP JUMPDEST CALLVALUE PUSH2 0x1DF JUMPI PUSH1 0x40 CALLDATASIZE PUSH1 0x3 NOT ADD SLT PUSH2 0x1DF JUMPI PUSH1 0x4 CALLDATALOAD PUSH1 0x24 SWAP1 DUP2 CALLDATALOAD SWAP2 PUSH1 0xFF DUP4 AND DUP1 SWAP4 SUB PUSH2 0x1DF JUMPI DUP2 ISZERO ISZERO DUP1 PUSH2 0x6D4 JUMPI JUMPDEST PUSH2 0x428 SWAP1 PUSH2 0x2973 JUMP JUMPDEST PUSH1 0x0 NOT DUP3 ADD DUP3 DUP2 GT PUSH2 0x6BF JUMPI PUSH2 0x43D SWAP1 PUSH2 0x288F JUMP JUMPDEST POP PUSH1 0xFF PUSH1 0x4 DUP3 ADD SLOAD AND ISZERO PUSH2 0x685 JUMPI PUSH1 0x3 ADD SLOAD TIMESTAMP GT PUSH2 0x652 JUMPI CALLER PUSH1 0x0 MSTORE PUSH1 0x20 SWAP1 PUSH1 0x7 DUP3 MSTORE PUSH1 0xFF PUSH1 0x40 PUSH1 0x0 KECCAK256 SLOAD AND ISZERO PUSH2 0x60F JUMPI PUSH1 0x2 DUP5 GT PUSH2 0x5DB JUMPI DUP3 PUSH1 0x0 MSTORE PUSH1 0xE DUP3 MSTORE PUSH1 0x40 PUSH1 0x0 KECCAK256 CALLER PUSH1 0x0 MSTORE DUP3 MSTORE PUSH1 0xFF PUSH1 0x40 PUSH1 0x0 KECCAK256 SLOAD AND PUSH2 0x5A8 JUMPI PUSH1 0x3 DUP5 LT ISZERO PUSH2 0x594 JUMPI POP PUSH1 0x3 SWAP1 DUP3 PUSH1 0x0 MSTORE PUSH1 0xE DUP2 MSTORE PUSH1 0x40 PUSH1 0x0 KECCAK256 CALLER PUSH1 0x0 MSTORE DUP2 MSTORE PUSH1 0x40 PUSH1 0x0 KECCAK256 PUSH1 0xFF NOT SWAP1 PUSH1 0x1 DUP3 DUP3 SLOAD AND OR SWAP1 SSTORE DUP4 PUSH1 0x0 MSTORE PUSH1 0xF DUP3 MSTORE PUSH1 0x40 PUSH1 0x0 KECCAK256 CALLER PUSH1 0x0 MSTORE DUP3 MSTORE DUP5 PUSH1 0x40 PUSH1 0x0 KECCAK256 SWAP2 DUP3 SLOAD AND OR SWAP1 SSTORE DUP3 PUSH1 0x0 MSTORE PUSH1 0xD DUP2 MSTORE PUSH1 0x7 PUSH1 0x40 PUSH1 0x0 KECCAK256 SWAP2 CALLER PUSH1 0x0 MSTORE MSTORE PUSH4 0xFFFFFFFF PUSH1 0x40 PUSH1 0x0 KECCAK256 SLOAD PUSH1 0x8 SHR AND PUSH1 0x1 DUP6 EQ PUSH1 0x0 EQ PUSH2 0x567 JUMPI PUSH2 0x522 SWAP1 DUP3 SLOAD PUSH2 0x2966 JUMP JUMPDEST DUP2 SSTORE JUMPDEST ADD PUSH2 0x530 DUP2 SLOAD PUSH2 0x2957 JUMP JUMPDEST SWAP1 SSTORE PUSH32 0xEBA4866100B822F0F391E610E7EDFAB790B9E8766C0012733C26B2F1858E8DD7 PUSH1 0x40 MLOAD DUP1 PUSH2 0x562 CALLER SWAP6 DUP3 PUSH2 0x28D7 JUMP JUMPDEST SUB SWAP1 LOG3 STOP JUMPDEST PUSH1 0x2 DUP6 SUB PUSH2 0x585 JUMPI PUSH2 0x57E PUSH1 0x1 DUP4 ADD SWAP2 DUP3 SLOAD PUSH2 0x2966 JUMP JUMPDEST SWAP1 SSTORE PUSH2 0x525 JUMP JUMPDEST PUSH2 0x57E PUSH1 0x2 DUP4 ADD SWAP2 DUP3 SLOAD PUSH2 0x2966 JUMP JUMPDEST PUSH4 0x4E487B71 PUSH1 0xE0 SHL PUSH1 0x0 SWAP1 DUP2 MSTORE PUSH1 0x21 PUSH1 0x4 MSTORE REVERT JUMPDEST SWAP1 PUSH1 0xD PUSH1 0x64 SWAP3 PUSH1 0x40 MLOAD SWAP3 PUSH3 0x461BCD PUSH1 0xE5 SHL DUP5 MSTORE PUSH1 0x4 DUP5 ADD MSTORE DUP3 ADD MSTORE PUSH13 0x105B1C9958591E481D9BDD1959 PUSH1 0x9A SHL PUSH1 0x44 DUP3 ADD MSTORE REVERT JUMPDEST SWAP1 PUSH1 0xE PUSH1 0x64 SWAP3 PUSH1 0x40 MLOAD SWAP3 PUSH3 0x461BCD PUSH1 0xE5 SHL DUP5 MSTORE PUSH1 0x4 DUP5 ADD MSTORE DUP3 ADD MSTORE PUSH14 0x496E76616C69642063686F696365 PUSH1 0x90 SHL PUSH1 0x44 DUP3 ADD MSTORE REVERT JUMPDEST SWAP1 PUSH1 0x1A PUSH1 0x64 SWAP3 PUSH1 0x40 MLOAD SWAP3 PUSH3 0x461BCD PUSH1 0xE5 SHL DUP5 MSTORE PUSH1 0x4 DUP5 ADD MSTORE DUP3 ADD MSTORE PUSH32 0x4F6E6C79207665726966696564207368617265686F6C64657273000000000000 PUSH1 0x44 DUP3 ADD MSTORE REVERT JUMPDEST PUSH1 0x64 SWAP1 PUSH1 0xC PUSH1 0x40 MLOAD SWAP2 PUSH3 0x461BCD PUSH1 0xE5 SHL DUP4 MSTORE PUSH1 0x20 PUSH1 0x4 DUP5 ADD MSTORE DUP3 ADD MSTORE PUSH12 0x159BDD1A5B99C8195B991959 PUSH1 0xA2 SHL PUSH1 0x44 DUP3 ADD MSTORE REVERT JUMPDEST PUSH1 0x40 MLOAD PUSH3 0x461BCD PUSH1 0xE5 SHL DUP2 MSTORE PUSH1 0x20 PUSH1 0x4 DUP3 ADD MSTORE PUSH1 0x13 DUP2 DUP5 ADD MSTORE PUSH19 0x50726F706F73616C206E6F7420616374697665 PUSH1 0x68 SHL PUSH1 0x44 DUP3 ADD MSTORE PUSH1 0x64 SWAP1 REVERT JUMPDEST POP PUSH4 0x4E487B71 PUSH1 0xE0 SHL PUSH1 0x0 SWAP1 DUP2 MSTORE PUSH1 0x11 PUSH1 0x4 MSTORE REVERT JUMPDEST POP PUSH1 0xB SLOAD DUP3 GT ISZERO PUSH2 0x41F JUMP JUMPDEST CALLVALUE PUSH2 0x1DF JUMPI PUSH1 0x0 CALLDATASIZE PUSH1 0x3 NOT ADD SLT PUSH2 0x1DF JUMPI PUSH2 0x1DB PUSH2 0x1C7 PUSH2 0x2615 JUMP JUMPDEST CALLVALUE PUSH2 0x1DF JUMPI PUSH1 0x20 CALLDATASIZE PUSH1 0x3 NOT ADD SLT PUSH2 0x1DF JUMPI PUSH1 0x1 PUSH1 0x1 PUSH1 0xA0 SHL SUB PUSH2 0x71D PUSH2 0x2483 JUMP JUMPDEST AND PUSH1 0x0 MSTORE PUSH1 0x8 PUSH1 0x20 MSTORE PUSH1 0x20 PUSH1 0xFF PUSH1 0x40 PUSH1 0x0 KECCAK256 SLOAD AND PUSH1 0x40 MLOAD SWAP1 ISZERO ISZERO DUP2 MSTORE RETURN JUMPDEST CALLVALUE PUSH2 0x1DF JUMPI PUSH1 0x20 CALLDATASIZE PUSH1 0x3 NOT ADD SLT PUSH2 0x1DF JUMPI PUSH1 0x4 CALLDATALOAD DUP1 ISZERO ISZERO DUP1 PUSH2 0x87D JUMPI JUMPDEST PUSH2 0x761 SWAP1 PUSH2 0x2973 JUMP JUMPDEST PUSH1 0x0 NOT DUP2 ADD DUP2 DUP2 GT PUSH2 0x867 JUMPI PUSH2 0x776 SWAP1 PUSH2 0x288F JUMP JUMPDEST POP SWAP1 PUSH1 0x0 MSTORE PUSH1 0xC PUSH1 0x20 MSTORE PUSH1 0x40 PUSH1 0x0 KECCAK256 PUSH1 0xD PUSH1 0x20 MSTORE PUSH1 0x40 PUSH1 0x0 KECCAK256 DUP3 SLOAD SWAP2 PUSH1 0x1 DUP5 ADD SLOAD SWAP2 PUSH1 0xFF DUP4 AND SWAP5 PUSH1 0x6 DUP7 LT ISZERO PUSH2 0x851 JUMPI DUP1 PUSH1 0x2 PUSH1 0xFF SWAP3 ADD SLOAD SWAP1 PUSH1 0x4 PUSH1 0x3 DUP3 ADD SLOAD SWAP2 ADD SLOAD SWAP2 PUSH2 0x80F PUSH1 0x4 PUSH1 0x3 DUP8 ADD SLOAD SWAP7 ADD SLOAD SWAP7 PUSH2 0x801 PUSH2 0x7E0 PUSH1 0x1 PUSH2 0x7D9 DUP5 PUSH2 0x2744 JUMP JUMPDEST SWAP4 ADD PUSH2 0x2744 JUMP JUMPDEST SWAP2 PUSH1 0x40 MLOAD SWAP13 DUP14 SWAP13 DUP14 MSTORE PUSH1 0x20 DUP14 ADD MSTORE PUSH1 0x40 DUP13 PUSH2 0x160 SWAP2 DUP3 SWAP2 ADD MSTORE DUP13 ADD SWAP1 PUSH2 0x2409 JUMP JUMPDEST SWAP1 DUP11 DUP3 SUB PUSH1 0x60 DUP13 ADD MSTORE PUSH2 0x2409 JUMP JUMPDEST SWAP7 PUSH1 0x1 DUP1 PUSH1 0xA0 SHL SUB SWAP1 PUSH1 0x8 SHR AND PUSH1 0x80 DUP10 ADD MSTORE PUSH1 0xA0 DUP9 ADD MSTORE PUSH1 0xC0 DUP8 ADD MSTORE DUP2 DUP2 AND ISZERO ISZERO PUSH1 0xE0 DUP8 ADD MSTORE PUSH1 0x8 SHR AND ISZERO ISZERO PUSH2 0x100 DUP6 ADD MSTORE PUSH2 0x120 DUP5 ADD MSTORE PUSH2 0x140 DUP4 ADD MSTORE SUB SWAP1 RETURN JUMPDEST PUSH4 0x4E487B71 PUSH1 0xE0 SHL PUSH1 0x0 MSTORE PUSH1 0x21 PUSH1 0x4 MSTORE PUSH1 0x24 PUSH1 0x0 REVERT JUMPDEST PUSH4 0x4E487B71 PUSH1 0xE0 SHL PUSH1 0x0 MSTORE PUSH1 0x11 PUSH1 0x4 MSTORE PUSH1 0x24 PUSH1 0x0 REVERT JUMPDEST POP PUSH1 0xB SLOAD DUP2 GT ISZERO PUSH2 0x758 JUMP JUMPDEST CALLVALUE PUSH2 0x1DF JUMPI PUSH1 0x40 CALLDATASIZE PUSH1 0x3 NOT ADD SLT PUSH2 0x1DF JUMPI PUSH1 0x4 CALLDATALOAD PUSH2 0x8A5 PUSH2 0x2499 JUMP JUMPDEST SWAP1 DUP1 ISZERO ISZERO DUP1 PUSH2 0x8E9 JUMPI JUMPDEST PUSH2 0x8B8 SWAP1 PUSH2 0x2973 JUMP JUMPDEST PUSH1 0x0 MSTORE PUSH1 0xE PUSH1 0x20 MSTORE PUSH1 0x40 PUSH1 0x0 KECCAK256 SWAP1 PUSH1 0x1 DUP1 PUSH1 0xA0 SHL SUB AND PUSH1 0x0 MSTORE PUSH1 0x20 MSTORE PUSH1 0x20 PUSH1 0xFF PUSH1 0x40 PUSH1 0x0 KECCAK256 SLOAD AND PUSH1 0x40 MLOAD SWAP1 ISZERO ISZERO DUP2 MSTORE RETURN JUMPDEST POP PUSH1 0xB SLOAD DUP2 GT ISZERO PUSH2 0x8AF JUMP JUMPDEST CALLVALUE PUSH2 0x1DF JUMPI PUSH1 0x0 CALLDATASIZE PUSH1 0x3 NOT ADD SLT PUSH2 0x1DF JUMPI PUSH2 0x1DB PUSH2 0x1C7 PUSH2 0x2557 JUMP JUMPDEST CALLVALUE PUSH2 0x1DF JUMPI PUSH1 0x80 CALLDATASIZE PUSH1 0x3 NOT ADD SLT PUSH2 0x1DF JUMPI PUSH1 0x1 PUSH1 0x1 PUSH1 0x40 SHL SUB PUSH1 0x4 CALLDATALOAD DUP2 DUP2 GT PUSH2 0x1DF JUMPI PUSH2 0x942 SWAP1 CALLDATASIZE SWAP1 PUSH1 0x4 ADD PUSH2 0x2839 JUMP JUMPDEST SWAP1 PUSH1 0x24 CALLDATALOAD DUP2 DUP2 GT PUSH2 0x1DF JUMPI PUSH2 0x95B SWAP1 CALLDATASIZE SWAP1 PUSH1 0x4 ADD PUSH2 0x2839 JUMP JUMPDEST SWAP1 PUSH1 0x44 CALLDATALOAD DUP2 DUP2 GT PUSH2 0x1DF JUMPI PUSH2 0x974 SWAP1 CALLDATASIZE SWAP1 PUSH1 0x4 ADD PUSH2 0x2839 JUMP JUMPDEST PUSH2 0x97C PUSH2 0x28EA JUMP JUMPDEST PUSH1 0xFF PUSH1 0x6 SLOAD AND PUSH2 0xDD2 JUMPI DUP4 MLOAD SWAP2 DUP1 DUP4 GT PUSH2 0xBDE JUMPI PUSH1 0x1 SWAP3 PUSH2 0x99D DUP5 SLOAD PUSH2 0x24FC JUMP JUMPDEST SWAP1 PUSH1 0x1F SWAP2 DUP3 DUP2 GT PUSH2 0xD6E JUMPI JUMPDEST POP DUP1 PUSH1 0x20 DUP4 DUP3 GT PUSH1 0x1 EQ PUSH2 0xCEF JUMPI PUSH1 0x0 SWAP2 PUSH2 0xCE4 JUMPI JUMPDEST POP PUSH1 0x0 NOT PUSH1 0x3 DUP4 SWAP1 SHL SHR NOT AND SWAP1 DUP6 SHL OR DUP5 SSTORE JUMPDEST DUP5 MLOAD DUP3 DUP2 GT PUSH2 0xBDE JUMPI PUSH2 0x9E6 PUSH1 0x2 SLOAD PUSH2 0x24FC JUMP JUMPDEST DUP3 DUP2 GT PUSH2 0xC7F JUMPI JUMPDEST POP DUP1 PUSH1 0x20 DUP4 DUP3 GT PUSH1 0x1 EQ PUSH2 0xBFF JUMPI PUSH1 0x0 SWAP2 PUSH2 0xBF4 JUMPI JUMPDEST POP PUSH1 0x0 NOT PUSH1 0x3 DUP4 SWAP1 SHL SHR NOT AND SWAP1 DUP6 SHL OR PUSH1 0x2 SSTORE JUMPDEST DUP3 MLOAD SWAP2 DUP3 GT PUSH2 0xBDE JUMPI PUSH1 0x3 SWAP3 PUSH2 0xA2E DUP5 SLOAD PUSH2 0x24FC JUMP JUMPDEST DUP3 DUP2 GT PUSH2 0xB7A JUMPI JUMPDEST POP PUSH1 0x20 SWAP2 DUP4 GT PUSH1 0x1 EQ PUSH2 0xACF JUMPI SWAP3 DUP3 PUSH2 0xAB1 SWAP7 SWAP4 PUSH32 0x9F2B0152A49DBA19E307C8E31A1C32A54F6DBD3318D3165028E7B602A85EEDCF SWAP9 SWAP7 SWAP4 PUSH2 0xABF SWAP7 PUSH1 0x0 SWAP3 PUSH2 0xAC4 JUMPI JUMPDEST POP POP PUSH1 0x0 NOT DUP3 DUP5 SHL SHR NOT AND SWAP1 DUP4 SHL OR SWAP1 SSTORE JUMPDEST PUSH1 0x64 CALLDATALOAD PUSH1 0x4 SSTORE PUSH1 0xFF NOT PUSH1 0x6 SLOAD AND OR PUSH1 0x6 SSTORE PUSH1 0x40 MLOAD SWAP4 DUP5 SWAP4 PUSH1 0x40 DUP6 MSTORE PUSH1 0x40 DUP6 ADD SWAP1 PUSH2 0x2409 JUMP JUMPDEST SWAP1 DUP4 DUP3 SUB PUSH1 0x20 DUP6 ADD MSTORE PUSH2 0x2409 JUMP JUMPDEST SUB SWAP1 LOG1 STOP JUMPDEST ADD MLOAD SWAP1 POP DUP10 DUP1 PUSH2 0xA7A JUMP JUMPDEST SWAP1 PUSH1 0x1F NOT DUP4 AND SWAP2 DUP5 PUSH1 0x0 MSTORE PUSH32 0xC2575A0E9E593C00F959F8C92F12DB2869C3395A3B0502D05E2516446F71F85B SWAP3 PUSH1 0x0 JUMPDEST DUP2 DUP2 LT PUSH2 0xB64 JUMPI POP SWAP4 DUP7 SWAP4 PUSH2 0xABF SWAP7 SWAP4 PUSH32 0x9F2B0152A49DBA19E307C8E31A1C32A54F6DBD3318D3165028E7B602A85EEDCF SWAP11 SWAP9 SWAP4 DUP4 PUSH2 0xAB1 SWAP12 SWAP9 LT PUSH2 0xB4C JUMPI JUMPDEST POP POP POP DUP2 SHL ADD SWAP1 SSTORE PUSH2 0xA8C JUMP JUMPDEST ADD MLOAD PUSH1 0x0 NOT DUP4 DUP7 SHL PUSH1 0xF8 AND SHR NOT AND SWAP1 SSTORE DUP10 DUP1 DUP1 PUSH2 0xB3F JUMP JUMPDEST DUP3 DUP5 ADD MLOAD DUP6 SSTORE SWAP4 DUP8 ADD SWAP4 PUSH1 0x20 SWAP4 DUP5 ADD SWAP4 ADD PUSH2 0xAFF JUMP JUMPDEST DUP5 PUSH1 0x0 MSTORE PUSH32 0xC2575A0E9E593C00F959F8C92F12DB2869C3395A3B0502D05E2516446F71F85B DUP4 DUP1 DUP7 ADD PUSH1 0x5 SHR DUP3 ADD SWAP3 PUSH1 0x20 DUP8 LT PUSH2 0xBD5 JUMPI JUMPDEST ADD PUSH1 0x5 SHR ADD SWAP1 DUP7 SWAP1 JUMPDEST DUP3 DUP2 LT PUSH2 0xBC9 JUMPI POP POP PUSH2 0xA36 JUMP JUMPDEST PUSH1 0x0 DUP2 SSTORE ADD DUP7 SWAP1 PUSH2 0xBBB JUMP JUMPDEST SWAP3 POP DUP2 SWAP3 PUSH2 0xBB2 JUMP JUMPDEST PUSH4 0x4E487B71 PUSH1 0xE0 SHL PUSH1 0x0 MSTORE PUSH1 0x41 PUSH1 0x4 MSTORE PUSH1 0x24 PUSH1 0x0 REVERT JUMPDEST SWAP1 POP DUP7 ADD MLOAD DUP9 PUSH2 0xA04 JUMP JUMPDEST DUP7 SWAP3 POP PUSH1 0x1F NOT DUP3 AND SWAP1 PUSH1 0x2 PUSH1 0x0 MSTORE PUSH32 0x405787FA12A823E0F2B7631CC41B3BA8828B3321CA811111FA75CD3AA3BB5ACE SWAP2 PUSH1 0x0 JUMPDEST DUP2 DUP2 LT PUSH2 0xC67 JUMPI POP DUP4 GT PUSH2 0xC4E JUMPI JUMPDEST POP POP DUP2 SHL ADD PUSH1 0x2 SSTORE PUSH2 0xA18 JUMP JUMPDEST DUP9 ADD MLOAD PUSH1 0x0 NOT PUSH1 0xF8 DUP5 PUSH1 0x3 SHL AND SHR NOT AND SWAP1 SSTORE DUP9 DUP1 PUSH2 0xC41 JUMP JUMPDEST DUP11 DUP4 ADD MLOAD DUP5 SSTORE DUP10 SWAP6 SWAP1 SWAP4 ADD SWAP3 PUSH1 0x20 SWAP3 DUP4 ADD SWAP3 ADD PUSH2 0xC32 JUMP JUMPDEST PUSH1 0x2 PUSH1 0x0 MSTORE PUSH32 0x405787FA12A823E0F2B7631CC41B3BA8828B3321CA811111FA75CD3AA3BB5ACE DUP4 DUP1 DUP5 ADD PUSH1 0x5 SHR DUP3 ADD SWAP3 PUSH1 0x20 DUP6 LT PUSH2 0xCDB JUMPI JUMPDEST ADD PUSH1 0x5 SHR ADD SWAP1 DUP7 SWAP1 JUMPDEST DUP3 DUP2 LT PUSH2 0xCCF JUMPI POP POP PUSH2 0x9EE JUMP JUMPDEST PUSH1 0x0 DUP2 SSTORE ADD DUP7 SWAP1 PUSH2 0xCC1 JUMP JUMPDEST SWAP3 POP DUP2 SWAP3 PUSH2 0xCB8 JUMP JUMPDEST SWAP1 POP DUP8 ADD MLOAD DUP9 PUSH2 0x9BF JUMP JUMPDEST DUP7 SWAP3 POP PUSH1 0x1F NOT DUP3 AND SWAP1 DUP4 PUSH1 0x0 MSTORE PUSH32 0xB10E2D527612073B26EECDFD717E6A320CF44B4AFAC2B0732D9FCBE2B7FA0CF6 SWAP2 PUSH1 0x0 JUMPDEST DUP12 DUP3 DUP3 LT PUSH2 0xD57 JUMPI POP POP DUP4 GT PUSH2 0xD3E JUMPI JUMPDEST POP POP DUP2 SHL ADD DUP5 SSTORE PUSH2 0x9D2 JUMP JUMPDEST DUP10 ADD MLOAD PUSH1 0x0 NOT PUSH1 0xF8 DUP5 PUSH1 0x3 SHL AND SHR NOT AND SWAP1 SSTORE DUP9 DUP1 PUSH2 0xD32 JUMP JUMPDEST DUP4 ADD MLOAD DUP5 SSTORE DUP10 SWAP6 SWAP1 SWAP4 ADD SWAP3 PUSH1 0x20 SWAP3 DUP4 ADD SWAP3 ADD PUSH2 0xD21 JUMP JUMPDEST DUP6 PUSH1 0x0 MSTORE PUSH32 0xB10E2D527612073B26EECDFD717E6A320CF44B4AFAC2B0732D9FCBE2B7FA0CF6 DUP4 DUP1 DUP5 ADD PUSH1 0x5 SHR DUP3 ADD SWAP3 PUSH1 0x20 DUP6 LT PUSH2 0xDC9 JUMPI JUMPDEST ADD PUSH1 0x5 SHR ADD SWAP1 DUP7 SWAP1 JUMPDEST DUP3 DUP2 LT PUSH2 0xDBD JUMPI POP POP PUSH2 0x9A9 JUMP JUMPDEST PUSH1 0x0 DUP2 SSTORE ADD DUP7 SWAP1 PUSH2 0xDAF JUMP JUMPDEST SWAP3 POP DUP2 SWAP3 PUSH2 0xDA6 JUMP JUMPDEST PUSH1 0x40 MLOAD PUSH3 0x461BCD PUSH1 0xE5 SHL DUP2 MSTORE PUSH1 0x20 PUSH1 0x4 DUP3 ADD MSTORE PUSH1 0x13 PUSH1 0x24 DUP3 ADD MSTORE PUSH19 0x105B1C9958591E481A5B9A5D1A585B1A5E9959 PUSH1 0x6A SHL PUSH1 0x44 DUP3 ADD MSTORE PUSH1 0x64 SWAP1 REVERT JUMPDEST CALLVALUE PUSH2 0x1DF JUMPI PUSH1 0xA0 CALLDATASIZE PUSH1 0x3 NOT ADD SLT PUSH2 0x1DF JUMPI PUSH1 0x4 CALLDATALOAD PUSH1 0xFF DUP2 AND DUP2 SUB PUSH2 0x1DF JUMPI PUSH1 0x24 CALLDATALOAD PUSH1 0x1 PUSH1 0x1 PUSH1 0x40 SHL SUB DUP2 GT PUSH2 0x1DF JUMPI PUSH2 0xE4A SWAP1 CALLDATASIZE SWAP1 PUSH1 0x4 ADD PUSH2 0x2839 JUMP JUMPDEST PUSH1 0x44 CALLDATALOAD PUSH1 0x1 PUSH1 0x1 PUSH1 0x40 SHL SUB DUP2 GT PUSH2 0x1DF JUMPI PUSH2 0xE69 SWAP1 CALLDATASIZE SWAP1 PUSH1 0x4 ADD PUSH2 0x2839 JUMP JUMPDEST SWAP1 PUSH1 0x64 CALLDATALOAD PUSH1 0x1 PUSH1 0x1 PUSH1 0x40 SHL SUB DUP2 GT PUSH2 0x1DF JUMPI PUSH2 0xE89 SWAP1 CALLDATASIZE SWAP1 PUSH1 0x4 ADD PUSH2 0x2839 JUMP JUMPDEST PUSH1 0x84 CALLDATALOAD SWAP3 CALLER PUSH1 0x0 MSTORE PUSH1 0x8 PUSH1 0x20 MSTORE PUSH2 0xEA7 PUSH1 0xFF PUSH1 0x40 PUSH1 0x0 KECCAK256 SLOAD AND PUSH2 0x2916 JUMP JUMPDEST PUSH1 0x5 PUSH1 0xFF DUP7 AND GT PUSH2 0x1497 JUMPI DUP3 MLOAD ISZERO PUSH2 0x1464 JUMPI PUSH1 0xB SLOAD SWAP4 PUSH1 0x1 DUP6 ADD DUP6 GT PUSH2 0x867 JUMPI PUSH1 0x6 PUSH1 0xFF DUP8 AND LT ISZERO PUSH2 0x851 JUMPI PUSH3 0x15180 SWAP1 DUP2 DUP2 MUL SWAP2 DUP2 DUP4 DIV EQ SWAP1 ISZERO OR ISZERO PUSH2 0x867 JUMPI PUSH2 0xEF2 SWAP1 TIMESTAMP PUSH2 0x2966 JUMP JUMPDEST PUSH1 0x40 MLOAD SWAP1 DUP2 PUSH1 0xE0 DUP2 ADD LT PUSH1 0x1 PUSH1 0x1 PUSH1 0x40 SHL SUB PUSH1 0xE0 DUP5 ADD GT OR PUSH2 0xBDE JUMPI PUSH1 0xE0 DUP3 ADD PUSH1 0x40 MSTORE PUSH1 0x1 DUP7 ADD DUP3 MSTORE PUSH1 0xFF DUP8 AND PUSH1 0x20 DUP4 ADD MSTORE CALLER PUSH1 0x40 DUP4 ADD MSTORE TIMESTAMP PUSH1 0x60 DUP4 ADD MSTORE PUSH1 0x80 DUP3 ADD MSTORE PUSH1 0x1 PUSH1 0xA0 DUP3 ADD MSTORE PUSH1 0x0 PUSH1 0xC0 DUP3 ADD MSTORE PUSH1 0x1 PUSH1 0x40 SHL DUP6 LT ISZERO PUSH2 0xBDE JUMPI PUSH1 0x1 DUP6 ADD PUSH1 0xB SSTORE PUSH2 0xF5F DUP6 PUSH2 0x288F JUMP JUMPDEST PUSH2 0x144E JUMPI DUP2 MLOAD DUP2 SSTORE PUSH1 0x20 DUP3 ADD MLOAD PUSH1 0x1 DUP3 ADD SWAP2 PUSH1 0x6 DUP3 LT ISZERO PUSH2 0x851 JUMPI DUP3 PUSH1 0x4 SWAP3 PUSH1 0xC0 SWAP5 SLOAD PUSH1 0xFF PUSH2 0x100 PUSH1 0x1 PUSH1 0xA8 SHL SUB PUSH1 0x40 DUP10 ADD MLOAD PUSH1 0x8 SHL AND SWAP3 AND SWAP1 PUSH11 0xFFFFFFFFFFFFFFFFFFFFFF PUSH1 0xA8 SHL AND OR OR SWAP1 SSTORE PUSH1 0x60 DUP5 ADD MLOAD PUSH1 0x2 DUP3 ADD SSTORE PUSH1 0x80 DUP5 ADD MLOAD PUSH1 0x3 DUP3 ADD SSTORE ADD SWAP2 PUSH2 0xFDF PUSH1 0xA0 DUP3 ADD MLOAD ISZERO ISZERO DUP5 SWAP1 PUSH1 0xFF DUP1 NOT DUP4 SLOAD AND SWAP2 ISZERO ISZERO AND OR SWAP1 SSTORE JUMP JUMPDEST ADD MLOAD DUP2 SLOAD PUSH2 0xFF00 NOT AND SWAP1 ISZERO ISZERO PUSH1 0x8 SHL PUSH2 0xFF00 AND OR SWAP1 SSTORE PUSH1 0x40 MLOAD SWAP3 PUSH1 0x60 DUP5 ADD PUSH1 0x1 PUSH1 0x1 PUSH1 0x40 SHL SUB DUP2 GT DUP6 DUP3 LT OR PUSH2 0xBDE JUMPI PUSH1 0x40 MSTORE DUP4 MSTORE PUSH1 0x20 DUP4 ADD MSTORE PUSH1 0x40 DUP3 ADD MSTORE PUSH1 0x1 DUP3 ADD PUSH1 0x0 MSTORE PUSH1 0xC PUSH1 0x20 MSTORE PUSH1 0x40 PUSH1 0x0 KECCAK256 SWAP1 DUP1 MLOAD DUP1 MLOAD SWAP1 PUSH1 0x1 PUSH1 0x1 PUSH1 0x40 SHL SUB DUP3 GT PUSH2 0xBDE JUMPI DUP2 SWAP1 PUSH2 0x104F DUP6 SLOAD PUSH2 0x24FC JUMP JUMPDEST PUSH1 0x1F DUP2 GT PUSH2 0x13FE JUMPI JUMPDEST POP PUSH1 0x20 SWAP1 PUSH1 0x1F DUP4 GT PUSH1 0x1 EQ PUSH2 0x1398 JUMPI PUSH1 0x0 SWAP3 PUSH2 0x138D JUMPI JUMPDEST POP POP DUP2 PUSH1 0x1 SHL SWAP2 PUSH1 0x0 NOT SWAP1 PUSH1 0x3 SHL SHR NOT AND OR DUP3 SSTORE JUMPDEST PUSH1 0x20 DUP2 ADD MLOAD DUP1 MLOAD SWAP1 PUSH1 0x1 PUSH1 0x1 PUSH1 0x40 SHL SUB DUP3 GT PUSH2 0xBDE JUMPI PUSH2 0x10A7 PUSH1 0x1 DUP6 ADD SLOAD PUSH2 0x24FC JUMP JUMPDEST PUSH1 0x1F DUP2 GT PUSH2 0x1346 JUMPI JUMPDEST POP PUSH1 0x20 SWAP1 PUSH1 0x1F DUP4 GT PUSH1 0x1 EQ PUSH2 0x12D5 JUMPI PUSH1 0x40 SWAP4 SWAP3 SWAP2 PUSH1 0x0 SWAP2 DUP4 PUSH2 0x12CA JUMPI JUMPDEST POP POP DUP2 PUSH1 0x1 SHL SWAP2 PUSH1 0x0 NOT SWAP1 PUSH1 0x3 SHL SHR NOT AND OR PUSH1 0x1 DUP5 ADD SSTORE JUMPDEST ADD MLOAD DUP1 MLOAD SWAP1 PUSH1 0x1 PUSH1 0x1 PUSH1 0x40 SHL SUB DUP3 GT PUSH2 0xBDE JUMPI PUSH2 0x1105 PUSH1 0x2 DUP5 ADD SLOAD PUSH2 0x24FC JUMP JUMPDEST PUSH1 0x1F DUP2 GT PUSH2 0x127F JUMPI JUMPDEST POP PUSH1 0x20 SWAP1 PUSH1 0x1F DUP4 GT PUSH1 0x1 EQ PUSH2 0x1211 JUMPI PUSH1 0x2 SWAP3 SWAP2 PUSH1 0x0 SWAP2 DUP4 PUSH2 0x1206 JUMPI JUMPDEST POP POP DUP2 PUSH1 0x1 SHL SWAP2 PUSH1 0x0 NOT SWAP1 PUSH1 0x3 SHL SHR NOT AND OR SWAP2 ADD SSTORE JUMPDEST PUSH2 0x114C PUSH1 0xFF DUP4 AND PUSH2 0x27E8 JUMP JUMPDEST SLOAD SWAP2 PUSH1 0x40 MLOAD SWAP3 PUSH1 0xA0 DUP5 ADD SWAP2 DUP5 DUP4 LT PUSH1 0x1 PUSH1 0x1 PUSH1 0x40 SHL SUB DUP5 GT OR PUSH2 0xBDE JUMPI PUSH1 0x20 SWAP5 PUSH1 0x4 PUSH2 0x11D1 SWAP4 PUSH1 0xFF SWAP6 PUSH1 0x40 MSTORE PUSH1 0x0 DUP4 MSTORE DUP8 DUP4 ADD PUSH1 0x0 DUP2 MSTORE PUSH1 0x40 DUP5 ADD PUSH1 0x0 DUP2 MSTORE PUSH1 0x60 DUP6 ADD SWAP2 PUSH1 0x0 DUP4 MSTORE PUSH1 0x80 DUP7 ADD SWAP4 DUP5 MSTORE PUSH1 0x1 DUP11 ADD PUSH1 0x0 MSTORE PUSH1 0xD DUP12 MSTORE PUSH1 0x40 PUSH1 0x0 KECCAK256 SWAP6 MLOAD DUP7 SSTORE MLOAD PUSH1 0x1 DUP7 ADD SSTORE MLOAD PUSH1 0x2 DUP6 ADD SSTORE MLOAD PUSH1 0x3 DUP5 ADD SSTORE MLOAD SWAP2 ADD SSTORE PUSH1 0x40 MLOAD SWAP3 DUP4 SWAP2 AND PUSH2 0x28CA JUMP JUMPDEST CALLER SWAP1 PUSH32 0x3263432A41F78A4701CC9465F62411ED717ADE32290C084135A3DD6B29F4BF28 DUP5 PUSH1 0x1 DUP6 ADD SWAP3 LOG3 PUSH1 0x1 PUSH1 0x40 MLOAD SWAP2 ADD DUP2 MSTORE RETURN JUMPDEST ADD MLOAD SWAP1 POP DUP7 DUP1 PUSH2 0x112A JUMP JUMPDEST SWAP1 PUSH1 0x1F NOT DUP4 AND SWAP2 PUSH1 0x2 DUP6 ADD PUSH1 0x0 MSTORE PUSH1 0x20 PUSH1 0x0 KECCAK256 SWAP3 PUSH1 0x0 JUMPDEST DUP2 DUP2 LT PUSH2 0x1267 JUMPI POP SWAP2 PUSH1 0x1 SWAP4 SWAP2 DUP6 PUSH1 0x2 SWAP7 SWAP5 LT PUSH2 0x124E JUMPI JUMPDEST POP POP POP DUP2 SHL ADD SWAP2 ADD SSTORE PUSH2 0x1140 JUMP JUMPDEST ADD MLOAD PUSH1 0x0 NOT PUSH1 0xF8 DUP5 PUSH1 0x3 SHL AND SHR NOT AND SWAP1 SSTORE DUP7 DUP1 DUP1 PUSH2 0x1240 JUMP JUMPDEST SWAP3 SWAP4 PUSH1 0x20 PUSH1 0x1 DUP2 SWAP3 DUP8 DUP7 ADD MLOAD DUP2 SSTORE ADD SWAP6 ADD SWAP4 ADD PUSH2 0x1228 JUMP JUMPDEST PUSH1 0x2 DUP5 ADD PUSH1 0x0 MSTORE PUSH1 0x20 PUSH1 0x0 KECCAK256 PUSH1 0x1F DUP5 ADD PUSH1 0x5 SHR DUP2 ADD SWAP2 PUSH1 0x20 DUP6 LT PUSH2 0x12C0 JUMPI JUMPDEST PUSH1 0x1F ADD PUSH1 0x5 SHR ADD SWAP1 JUMPDEST DUP2 DUP2 LT PUSH2 0x12B4 JUMPI POP PUSH2 0x110E JUMP JUMPDEST PUSH1 0x0 DUP2 SSTORE PUSH1 0x1 ADD PUSH2 0x12A7 JUMP JUMPDEST SWAP1 SWAP2 POP DUP2 SWAP1 PUSH2 0x129E JUMP JUMPDEST ADD MLOAD SWAP1 POP DUP8 DUP1 PUSH2 0x10CD JUMP JUMPDEST SWAP1 PUSH1 0x1F NOT DUP4 AND SWAP2 PUSH1 0x1 DUP7 ADD PUSH1 0x0 MSTORE PUSH1 0x20 PUSH1 0x0 KECCAK256 SWAP3 PUSH1 0x0 JUMPDEST DUP2 DUP2 LT PUSH2 0x132E JUMPI POP SWAP2 PUSH1 0x1 SWAP4 SWAP2 DUP6 PUSH1 0x40 SWAP8 SWAP7 SWAP5 LT PUSH2 0x1315 JUMPI JUMPDEST POP POP POP DUP2 SHL ADD PUSH1 0x1 DUP5 ADD SSTORE PUSH2 0x10E5 JUMP JUMPDEST ADD MLOAD PUSH1 0x0 NOT PUSH1 0xF8 DUP5 PUSH1 0x3 SHL AND SHR NOT AND SWAP1 SSTORE DUP8 DUP1 DUP1 PUSH2 0x1305 JUMP JUMPDEST SWAP3 SWAP4 PUSH1 0x20 PUSH1 0x1 DUP2 SWAP3 DUP8 DUP7 ADD MLOAD DUP2 SSTORE ADD SWAP6 ADD SWAP4 ADD PUSH2 0x12EC JUMP JUMPDEST PUSH1 0x1 DUP6 ADD PUSH1 0x0 MSTORE PUSH1 0x20 PUSH1 0x0 KECCAK256 PUSH1 0x1F DUP5 ADD PUSH1 0x5 SHR DUP2 ADD PUSH1 0x20 DUP6 LT PUSH2 0x1386 JUMPI JUMPDEST PUSH1 0x1F DUP4 ADD PUSH1 0x5 SHR DUP3 ADD DUP2 LT PUSH2 0x137A JUMPI POP POP PUSH2 0x10B0 JUMP JUMPDEST PUSH1 0x0 DUP2 SSTORE PUSH1 0x1 ADD PUSH2 0x1364 JUMP JUMPDEST POP DUP1 PUSH2 0x1364 JUMP JUMPDEST ADD MLOAD SWAP1 POP DUP7 DUP1 PUSH2 0x106F JUMP JUMPDEST PUSH1 0x0 DUP7 DUP2 MSTORE PUSH1 0x20 DUP2 KECCAK256 SWAP4 POP PUSH1 0x1F NOT DUP6 AND SWAP1 JUMPDEST DUP2 DUP2 LT PUSH2 0x13E6 JUMPI POP SWAP1 DUP5 PUSH1 0x1 SWAP6 SWAP5 SWAP4 SWAP3 LT PUSH2 0x13CD JUMPI JUMPDEST POP POP POP DUP2 SHL ADD DUP3 SSTORE PUSH2 0x1084 JUMP JUMPDEST ADD MLOAD PUSH1 0x0 NOT PUSH1 0xF8 DUP5 PUSH1 0x3 SHL AND SHR NOT AND SWAP1 SSTORE DUP7 DUP1 DUP1 PUSH2 0x13C0 JUMP JUMPDEST SWAP3 SWAP4 PUSH1 0x20 PUSH1 0x1 DUP2 SWAP3 DUP8 DUP7 ADD MLOAD DUP2 SSTORE ADD SWAP6 ADD SWAP4 ADD PUSH2 0x13AA JUMP JUMPDEST SWAP1 SWAP2 POP DUP5 PUSH1 0x0 MSTORE PUSH1 0x20 PUSH1 0x0 KECCAK256 PUSH1 0x1F DUP5 ADD PUSH1 0x5 SHR DUP2 ADD PUSH1 0x20 DUP6 LT PUSH2 0x1447 JUMPI JUMPDEST SWAP1 DUP5 SWAP4 SWAP3 SWAP2 JUMPDEST PUSH1 0x1F DUP4 ADD PUSH1 0x5 SHR DUP3 ADD DUP2 LT PUSH2 0x1438 JUMPI POP POP PUSH2 0x1058 JUMP JUMPDEST PUSH1 0x0 DUP2 SSTORE DUP6 SWAP5 POP PUSH1 0x1 ADD PUSH2 0x1422 JUMP JUMPDEST POP DUP1 PUSH2 0x141C JUMP JUMPDEST PUSH4 0x4E487B71 PUSH1 0xE0 SHL PUSH1 0x0 MSTORE PUSH1 0x0 PUSH1 0x4 MSTORE PUSH1 0x24 PUSH1 0x0 REVERT JUMPDEST PUSH1 0x40 MLOAD PUSH3 0x461BCD PUSH1 0xE5 SHL DUP2 MSTORE PUSH1 0x20 PUSH1 0x4 DUP3 ADD MSTORE PUSH1 0xB PUSH1 0x24 DUP3 ADD MSTORE PUSH11 0x456D707479207469746C65 PUSH1 0xA8 SHL PUSH1 0x44 DUP3 ADD MSTORE PUSH1 0x64 SWAP1 REVERT JUMPDEST PUSH1 0x40 MLOAD PUSH3 0x461BCD PUSH1 0xE5 SHL DUP2 MSTORE PUSH1 0x20 PUSH1 0x4 DUP3 ADD MSTORE PUSH1 0xC PUSH1 0x24 DUP3 ADD MSTORE PUSH12 0x496E76616C69642074797065 PUSH1 0xA0 SHL PUSH1 0x44 DUP3 ADD MSTORE PUSH1 0x64 SWAP1 REVERT JUMPDEST CALLVALUE PUSH2 0x1DF JUMPI PUSH1 0x20 CALLDATASIZE PUSH1 0x3 NOT ADD SLT PUSH2 0x1DF JUMPI PUSH1 0x4 CALLDATALOAD DUP1 ISZERO ISZERO DUP1 PUSH2 0x156F JUMPI JUMPDEST PUSH2 0x14F1 SWAP1 PUSH2 0x2973 JUMP JUMPDEST PUSH1 0x0 NOT DUP2 ADD SWAP1 DUP2 GT PUSH2 0x867 JUMPI PUSH2 0x1506 SWAP1 PUSH2 0x288F JUMP JUMPDEST POP DUP1 SLOAD PUSH1 0x1 DUP3 ADD SLOAD PUSH1 0xFF DUP2 AND PUSH1 0x6 DUP2 LT ISZERO PUSH2 0x851 JUMPI DUP4 PUSH1 0xFF SWAP3 PUSH1 0x2 PUSH1 0xE0 SWAP7 ADD SLOAD SWAP1 PUSH1 0x4 PUSH1 0x3 DUP5 ADD SLOAD SWAP4 ADD SLOAD SWAP4 PUSH1 0x40 MLOAD SWAP7 DUP8 MSTORE PUSH1 0x20 DUP8 ADD MSTORE PUSH1 0x1 DUP1 PUSH1 0xA0 SHL SUB SWAP1 PUSH1 0x8 SHR AND PUSH1 0x40 DUP7 ADD MSTORE PUSH1 0x60 DUP6 ADD MSTORE PUSH1 0x80 DUP5 ADD MSTORE DUP2 DUP2 AND ISZERO ISZERO PUSH1 0xA0 DUP5 ADD MSTORE PUSH1 0x8 SHR AND ISZERO ISZERO PUSH1 0xC0 DUP3 ADD MSTORE RETURN JUMPDEST POP PUSH1 0xB SLOAD DUP2 GT ISZERO PUSH2 0x14E8 JUMP JUMPDEST CALLVALUE PUSH2 0x1DF JUMPI PUSH1 0x0 CALLDATASIZE PUSH1 0x3 NOT ADD SLT PUSH2 0x1DF JUMPI PUSH1 0x0 SLOAD PUSH1 0x40 MLOAD PUSH1 0x1 PUSH1 0x1 PUSH1 0xA0 SHL SUB SWAP1 SWAP2 AND DUP2 MSTORE PUSH1 0x20 SWAP1 RETURN JUMPDEST CALLVALUE PUSH2 0x1DF JUMPI PUSH1 0x20 CALLDATASIZE PUSH1 0x3 NOT ADD SLT PUSH2 0x1DF JUMPI PUSH1 0x4 CALLDATALOAD PUSH1 0xB SLOAD DUP2 LT ISZERO PUSH2 0x1DF JUMPI PUSH2 0x15CD PUSH1 0xE0 SWAP2 PUSH2 0x288F JUMP JUMPDEST POP PUSH1 0xFF DUP2 SLOAD SWAP2 PUSH1 0x1 DUP2 ADD SLOAD SWAP1 PUSH1 0x2 DUP2 ADD SLOAD PUSH1 0x4 PUSH1 0x3 DUP4 ADD SLOAD SWAP3 ADD SLOAD SWAP3 PUSH1 0x40 MLOAD SWAP6 DUP7 MSTORE PUSH2 0x15FE PUSH1 0x20 DUP8 ADD DUP7 DUP4 AND PUSH2 0x28CA JUMP JUMPDEST PUSH1 0x1 DUP1 PUSH1 0xA0 SHL SUB SWAP1 PUSH1 0x8 SHR AND PUSH1 0x40 DUP7 ADD MSTORE PUSH1 0x60 DUP6 ADD MSTORE PUSH1 0x80 DUP5 ADD MSTORE DUP2 DUP2 AND ISZERO ISZERO PUSH1 0xA0 DUP5 ADD MSTORE PUSH1 0x8 SHR AND ISZERO ISZERO PUSH1 0xC0 DUP3 ADD MSTORE RETURN JUMPDEST CALLVALUE PUSH2 0x1DF JUMPI PUSH1 0x0 CALLDATASIZE PUSH1 0x3 NOT ADD SLT PUSH2 0x1DF JUMPI PUSH2 0x1649 PUSH2 0x28EA JUMP JUMPDEST PUSH1 0x0 DUP1 SLOAD PUSH1 0x1 PUSH1 0x1 PUSH1 0xA0 SHL SUB NOT DUP2 AND DUP3 SSTORE PUSH1 0x1 PUSH1 0x1 PUSH1 0xA0 SHL SUB AND PUSH32 0x8BE0079C531659141344CD1FD0A4F28419497F9722A3DAAFE3B4186F6B6457E0 DUP3 DUP1 LOG3 STOP JUMPDEST CALLVALUE PUSH2 0x1DF JUMPI PUSH1 0x80 CALLDATASIZE PUSH1 0x3 NOT ADD SLT PUSH2 0x1DF JUMPI PUSH2 0x16A2 PUSH2 0x2483 JUMP JUMPDEST PUSH1 0x24 DUP1 CALLDATALOAD SWAP2 PUSH4 0xFFFFFFFF DUP4 AND DUP4 SUB PUSH2 0x1DF JUMPI PUSH1 0x44 CALLDATALOAD PUSH1 0x1 PUSH1 0x1 PUSH1 0x40 SHL SUB DUP2 GT PUSH2 0x1DF JUMPI PUSH2 0x16D3 SWAP1 CALLDATASIZE SWAP1 PUSH1 0x4 ADD PUSH2 0x2839 JUMP JUMPDEST SWAP2 PUSH1 0x64 CALLDATALOAD PUSH1 0x1 PUSH1 0x1 PUSH1 0x40 SHL SUB DUP2 GT PUSH2 0x1DF JUMPI PUSH2 0x16F3 SWAP1 CALLDATASIZE SWAP1 PUSH1 0x4 ADD PUSH2 0x2839 JUMP JUMPDEST CALLER PUSH1 0x0 MSTORE PUSH1 0x8 PUSH1 0x20 MSTORE PUSH2 0x170D PUSH1 0xFF PUSH1 0x40 PUSH1 0x0 KECCAK256 SLOAD AND PUSH2 0x2916 JUMP JUMPDEST PUSH1 0x1 PUSH1 0x1 PUSH1 0xA0 SHL SUB DUP4 AND PUSH1 0x0 SWAP1 DUP2 MSTORE PUSH1 0x7 PUSH1 0x20 MSTORE PUSH1 0x40 SWAP1 KECCAK256 SLOAD PUSH1 0xFF AND PUSH2 0x1B0A JUMPI PUSH1 0x40 MLOAD SWAP1 PUSH1 0x80 DUP3 ADD DUP3 DUP2 LT PUSH1 0x1 PUSH1 0x1 PUSH1 0x40 SHL SUB DUP3 GT OR PUSH2 0x1A1B JUMPI PUSH1 0x40 MSTORE PUSH1 0x1 DUP3 MSTORE PUSH1 0x20 DUP3 ADD SWAP1 PUSH4 0xFFFFFFFF DUP8 AND DUP3 MSTORE PUSH1 0x40 DUP4 ADD SWAP1 DUP7 DUP3 MSTORE PUSH1 0x60 DUP5 ADD MSTORE PUSH1 0x1 DUP1 PUSH1 0xA0 SHL SUB DUP6 AND PUSH1 0x0 MSTORE PUSH1 0x7 PUSH1 0x20 MSTORE PUSH1 0x40 PUSH1 0x0 KECCAK256 SWAP2 PUSH2 0x1799 DUP5 MLOAD ISZERO ISZERO DUP5 SWAP1 PUSH1 0xFF DUP1 NOT DUP4 SLOAD AND SWAP2 ISZERO ISZERO AND OR SWAP1 SSTORE JUMP JUMPDEST MLOAD PUSH5 0xFFFFFFFF00 DUP4 SLOAD SWAP2 PUSH1 0x8 SHL AND SWAP1 PUSH5 0xFFFFFFFF00 NOT AND OR DUP3 SSTORE MLOAD DUP1 MLOAD SWAP1 PUSH1 0x1 PUSH1 0x1 PUSH1 0x40 SHL SUB DUP3 GT PUSH2 0x1AF5 JUMPI PUSH2 0x17D2 PUSH1 0x1 DUP5 ADD SLOAD PUSH2 0x24FC JUMP JUMPDEST PUSH1 0x1F DUP2 GT PUSH2 0x1AAE JUMPI JUMPDEST POP PUSH1 0x20 SWAP1 PUSH1 0x1F DUP4 GT PUSH1 0x1 EQ PUSH2 0x1A3B JUMPI SWAP2 DUP1 PUSH1 0x60 SWAP5 SWAP3 PUSH1 0x2 SWAP5 PUSH1 0x0 SWAP3 PUSH2 0x1A30 JUMPI JUMPDEST POP POP DUP2 PUSH1 0x1 SHL SWAP2 PUSH1 0x0 NOT SWAP1 PUSH1 0x3 SHL SHR NOT AND OR PUSH1 0x1 DUP3 ADD SSTORE JUMPDEST ADD SWAP2 ADD MLOAD DUP1 MLOAD SWAP1 PUSH1 0x1 PUSH1 0x1 PUSH1 0x40 SHL SUB DUP3 GT PUSH2 0x1A1B JUMPI DUP2 SWAP1 PUSH2 0x1834 DUP5 SLOAD PUSH2 0x24FC JUMP JUMPDEST PUSH1 0x1F DUP2 GT PUSH2 0x19C8 JUMPI JUMPDEST POP PUSH1 0x20 SWAP1 PUSH1 0x1F DUP4 GT PUSH1 0x1 EQ PUSH2 0x1962 JUMPI PUSH1 0x0 SWAP3 PUSH2 0x1957 JUMPI JUMPDEST POP POP DUP2 PUSH1 0x1 SHL SWAP2 PUSH1 0x0 NOT SWAP1 PUSH1 0x3 SHL SHR NOT AND OR SWAP1 SSTORE JUMPDEST PUSH1 0x9 SLOAD SWAP1 PUSH1 0x1 PUSH1 0x40 SHL DUP3 LT ISZERO PUSH2 0x1943 JUMPI PUSH1 0x1 DUP3 ADD DUP1 PUSH1 0x9 SSTORE DUP3 LT ISZERO PUSH2 0x192F JUMPI POP PUSH1 0x9 PUSH1 0x0 MSTORE PUSH32 0x6E1540171B6C0C960B71A7020D9F60077F6AF931A8BBF590DA0223DACF75C7AF ADD DUP1 SLOAD PUSH1 0x1 PUSH1 0x1 PUSH1 0xA0 SHL SUB NOT AND PUSH1 0x1 PUSH1 0x1 PUSH1 0xA0 SHL SUB DUP4 AND OR SWAP1 SSTORE PUSH1 0x5 SLOAD PUSH32 0x5E54C52A11762EA9E0832CAFB00C2ACE0C9171B00AE4D1B17CC7F8175FBBE754 SWAP3 PUSH2 0x1919 SWAP3 SWAP1 SWAP2 PUSH2 0x18FD SWAP1 PUSH2 0x2957 JUMP JUMPDEST PUSH1 0x5 SSTORE PUSH4 0xFFFFFFFF PUSH1 0x40 MLOAD SWAP4 DUP5 SWAP4 PUSH1 0x40 DUP6 MSTORE PUSH1 0x40 DUP6 ADD SWAP1 PUSH2 0x2409 JUMP JUMPDEST SWAP6 AND PUSH1 0x20 DUP4 ADD MSTORE PUSH1 0x1 PUSH1 0x1 PUSH1 0xA0 SHL SUB AND SWAP4 SUB SWAP1 LOG2 STOP JUMPDEST PUSH4 0x4E487B71 PUSH1 0xE0 SHL PUSH1 0x0 SWAP1 DUP2 MSTORE PUSH1 0x32 PUSH1 0x4 MSTORE REVERT JUMPDEST PUSH4 0x4E487B71 PUSH1 0xE0 SHL PUSH1 0x0 SWAP1 DUP2 MSTORE PUSH1 0x41 PUSH1 0x4 MSTORE REVERT JUMPDEST ADD MLOAD SWAP1 POP DUP8 DUP1 PUSH2 0x1854 JUMP JUMPDEST PUSH1 0x0 DUP6 DUP2 MSTORE PUSH1 0x20 DUP2 KECCAK256 SWAP4 POP PUSH1 0x1F NOT DUP6 AND SWAP1 JUMPDEST DUP2 DUP2 LT PUSH2 0x19B0 JUMPI POP SWAP1 DUP5 PUSH1 0x1 SWAP6 SWAP5 SWAP4 SWAP3 LT PUSH2 0x1997 JUMPI JUMPDEST POP POP POP DUP2 SHL ADD SWAP1 SSTORE PUSH2 0x1869 JUMP JUMPDEST ADD MLOAD PUSH1 0x0 NOT PUSH1 0xF8 DUP5 PUSH1 0x3 SHL AND SHR NOT AND SWAP1 SSTORE DUP8 DUP1 DUP1 PUSH2 0x198A JUMP JUMPDEST SWAP3 SWAP4 PUSH1 0x20 PUSH1 0x1 DUP2 SWAP3 DUP8 DUP7 ADD MLOAD DUP2 SSTORE ADD SWAP6 ADD SWAP4 ADD PUSH2 0x1974 JUMP JUMPDEST SWAP1 SWAP2 POP DUP4 PUSH1 0x0 MSTORE PUSH1 0x20 PUSH1 0x0 KECCAK256 PUSH1 0x1F DUP5 ADD PUSH1 0x5 SHR DUP2 ADD SWAP2 PUSH1 0x20 DUP6 LT PUSH2 0x1A11 JUMPI JUMPDEST SWAP1 PUSH1 0x1F DUP6 SWAP5 SWAP4 SWAP3 ADD PUSH1 0x5 SHR ADD SWAP1 JUMPDEST DUP2 DUP2 LT PUSH2 0x1A02 JUMPI POP PUSH2 0x183D JUMP JUMPDEST PUSH1 0x0 DUP2 SSTORE DUP5 SWAP4 POP PUSH1 0x1 ADD PUSH2 0x19F5 JUMP JUMPDEST SWAP1 SWAP2 POP DUP2 SWAP1 PUSH2 0x19E7 JUMP JUMPDEST DUP4 PUSH4 0x4E487B71 PUSH1 0xE0 SHL PUSH1 0x0 MSTORE PUSH1 0x41 PUSH1 0x4 MSTORE PUSH1 0x0 REVERT JUMPDEST ADD MLOAD SWAP1 POP DUP11 DUP1 PUSH2 0x17FB JUMP JUMPDEST SWAP1 PUSH1 0x1F NOT DUP4 AND SWAP2 PUSH1 0x1 DUP6 ADD PUSH1 0x0 MSTORE PUSH1 0x20 PUSH1 0x0 KECCAK256 SWAP3 PUSH1 0x0 JUMPDEST DUP2 DUP2 LT PUSH2 0x1A96 JUMPI POP SWAP3 PUSH1 0x1 SWAP3 DUP6 SWAP3 PUSH1 0x2 SWAP7 PUSH1 0x60 SWAP9 SWAP7 LT PUSH2 0x1A7D JUMPI JUMPDEST POP POP POP DUP2 SHL ADD PUSH1 0x1 DUP3 ADD SSTORE PUSH2 0x1813 JUMP JUMPDEST ADD MLOAD PUSH1 0x0 NOT PUSH1 0xF8 DUP5 PUSH1 0x3 SHL AND SHR NOT AND SWAP1 SSTORE DUP11 DUP1 DUP1 PUSH2 0x1A6D JUMP JUMPDEST SWAP3 SWAP4 PUSH1 0x20 PUSH1 0x1 DUP2 SWAP3 DUP8 DUP7 ADD MLOAD DUP2 SSTORE ADD SWAP6 ADD SWAP4 ADD PUSH2 0x1A52 JUMP JUMPDEST PUSH1 0x1 DUP5 ADD PUSH1 0x0 MSTORE PUSH1 0x20 PUSH1 0x0 KECCAK256 PUSH1 0x1F DUP5 ADD PUSH1 0x5 SHR DUP2 ADD PUSH1 0x20 DUP6 LT PUSH2 0x1AEE JUMPI JUMPDEST PUSH1 0x1F DUP4 ADD PUSH1 0x5 SHR DUP3 ADD DUP2 LT PUSH2 0x1AE2 JUMPI POP POP PUSH2 0x17DB JUMP JUMPDEST PUSH1 0x0 DUP2 SSTORE PUSH1 0x1 ADD PUSH2 0x1ACC JUMP JUMPDEST POP DUP1 PUSH2 0x1ACC JUMP JUMPDEST DUP5 PUSH4 0x4E487B71 PUSH1 0xE0 SHL PUSH1 0x0 MSTORE PUSH1 0x41 PUSH1 0x4 MSTORE PUSH1 0x0 REVERT JUMPDEST PUSH1 0x40 MLOAD PUSH3 0x461BCD PUSH1 0xE5 SHL DUP2 MSTORE PUSH1 0x20 PUSH1 0x4 DUP3 ADD MSTORE PUSH1 0x12 DUP2 DUP5 ADD MSTORE PUSH18 0x105B1C9958591E481C9959DA5CDD195C9959 PUSH1 0x72 SHL PUSH1 0x44 DUP3 ADD MSTORE PUSH1 0x64 SWAP1 REVERT JUMPDEST CALLVALUE PUSH2 0x1DF JUMPI PUSH1 0x20 CALLDATASIZE PUSH1 0x3 NOT ADD SLT PUSH2 0x1DF JUMPI PUSH1 0x4 CALLDATALOAD PUSH1 0xA SLOAD DUP2 LT ISZERO PUSH2 0x1DF JUMPI PUSH2 0x1B6C PUSH1 0x20 SWAP2 PUSH2 0x24AF JUMP JUMPDEST SWAP1 SLOAD PUSH1 0x40 MLOAD PUSH1 0x3 SWAP3 SWAP1 SWAP3 SHL SHR PUSH1 0x1 PUSH1 0x1 PUSH1 0xA0 SHL SUB AND DUP2 MSTORE RETURN JUMPDEST CALLVALUE PUSH2 0x1DF JUMPI PUSH1 0x20 CALLDATASIZE PUSH1 0x3 NOT ADD SLT PUSH2 0x1DF JUMPI PUSH1 0x1 PUSH1 0x1 PUSH1 0xA0 SHL SUB PUSH2 0x1BA6 PUSH2 0x2483 JUMP JUMPDEST AND PUSH1 0x0 MSTORE PUSH1 0x7 PUSH1 0x20 MSTORE PUSH1 0x40 PUSH1 0x0 KECCAK256 DUP1 SLOAD PUSH2 0x1DB PUSH2 0x1BD1 PUSH1 0x2 PUSH2 0x1BCA PUSH1 0x1 DUP7 ADD PUSH2 0x2744 JUMP JUMPDEST SWAP5 ADD PUSH2 0x2744 JUMP JUMPDEST PUSH1 0x40 MLOAD SWAP4 DUP4 PUSH1 0xFF PUSH4 0xFFFFFFFF DUP8 SWAP7 PUSH1 0x8 SHR AND SWAP2 AND DUP6 PUSH2 0x2801 JUMP JUMPDEST CALLVALUE PUSH2 0x1DF JUMPI PUSH1 0x20 CALLDATASIZE PUSH1 0x3 NOT ADD SLT PUSH2 0x1DF JUMPI PUSH1 0x4 CALLDATALOAD PUSH1 0x6 DUP2 LT ISZERO PUSH2 0x1DF JUMPI PUSH2 0x1C13 PUSH1 0x20 SWAP2 PUSH2 0x27E8 JUMP JUMPDEST SLOAD PUSH1 0x40 MLOAD SWAP1 DUP2 MSTORE RETURN JUMPDEST CALLVALUE PUSH2 0x1DF JUMPI PUSH1 0x20 DUP1 PUSH1 0x3 NOT CALLDATASIZE ADD SLT PUSH2 0x1DF JUMPI PUSH1 0x4 CALLDATALOAD SWAP1 DUP2 ISZERO ISZERO DUP1 PUSH2 0x1DAC JUMPI JUMPDEST PUSH2 0x1C44 SWAP1 PUSH2 0x2973 JUMP JUMPDEST CALLER PUSH1 0x0 MSTORE PUSH1 0x8 DUP2 MSTORE PUSH2 0x1C5D PUSH1 0xFF PUSH1 0x40 PUSH1 0x0 KECCAK256 SLOAD AND PUSH2 0x2916 JUMP JUMPDEST PUSH1 0x0 NOT DUP3 ADD DUP3 DUP2 GT PUSH2 0x867 JUMPI PUSH2 0x1C72 SWAP1 PUSH2 0x288F JUMP JUMPDEST POP PUSH1 0x4 DUP2 ADD SWAP1 DUP2 SLOAD SWAP1 PUSH1 0xFF DUP3 AND ISZERO PUSH2 0x1D73 JUMPI PUSH1 0x3 ADD SLOAD TIMESTAMP GT ISZERO PUSH2 0x1D42 JUMPI PUSH2 0x100 SWAP1 PUSH2 0xFFFF NOT AND OR SWAP1 SSTORE DUP2 PUSH1 0x0 MSTORE PUSH1 0xD DUP2 MSTORE PUSH1 0x40 PUSH1 0x0 KECCAK256 SWAP1 DUP2 SLOAD SWAP2 PUSH2 0x1CBA PUSH1 0x1 DUP3 ADD SLOAD DUP5 PUSH2 0x2966 JUMP JUMPDEST SWAP1 PUSH1 0x0 SWAP2 DUP1 PUSH2 0x1CF4 JUMPI JUMPDEST POP POP PUSH32 0xB5AC567FCF1B069E0235E4F16734625C6CF54C1B40517FD9EB85517F6E1265A7 SWAP3 POP PUSH1 0x40 MLOAD SWAP1 ISZERO ISZERO DUP2 MSTORE LOG2 STOP JUMPDEST SWAP1 SWAP2 POP PUSH1 0x64 DUP5 MUL SWAP4 DUP1 DUP6 DIV PUSH1 0x64 EQ SWAP1 ISZERO OR ISZERO PUSH2 0x867 JUMPI PUSH2 0x1D37 PUSH1 0x4 SWAP2 PUSH32 0xB5AC567FCF1B069E0235E4F16734625C6CF54C1B40517FD9EB85517F6E1265A7 SWAP6 PUSH2 0x29B2 JUMP JUMPDEST SWAP2 ADD SLOAD LT DUP5 DUP1 PUSH2 0x1CC4 JUMP JUMPDEST PUSH1 0x40 MLOAD PUSH3 0x461BCD PUSH1 0xE5 SHL DUP2 MSTORE PUSH1 0x4 DUP2 ADD DUP5 SWAP1 MSTORE PUSH1 0x9 PUSH1 0x24 DUP3 ADD MSTORE PUSH9 0x139BDD08195B991959 PUSH1 0xBA SHL PUSH1 0x44 DUP3 ADD MSTORE PUSH1 0x64 SWAP1 REVERT JUMPDEST PUSH1 0x40 MLOAD PUSH3 0x461BCD PUSH1 0xE5 SHL DUP2 MSTORE PUSH1 0x4 DUP2 ADD DUP6 SWAP1 MSTORE PUSH1 0x11 PUSH1 0x24 DUP3 ADD MSTORE PUSH17 0x105B1C9958591E48199A5B985B1A5E9959 PUSH1 0x7A SHL PUSH1 0x44 DUP3 ADD MSTORE PUSH1 0x64 SWAP1 REVERT JUMPDEST POP PUSH1 0xB SLOAD DUP3 GT ISZERO PUSH2 0x1C3B JUMP JUMPDEST CALLVALUE PUSH2 0x1DF JUMPI PUSH1 0x20 CALLDATASIZE PUSH1 0x3 NOT ADD SLT PUSH2 0x1DF JUMPI PUSH1 0x4 CALLDATALOAD PUSH1 0x0 MSTORE PUSH1 0xD PUSH1 0x20 MSTORE PUSH1 0x40 PUSH1 0x0 KECCAK256 DUP1 SLOAD PUSH2 0x1DB PUSH1 0x1 DUP4 ADD SLOAD SWAP3 PUSH1 0x2 DUP2 ADD SLOAD SWAP1 PUSH1 0x4 PUSH1 0x3 DUP3 ADD SLOAD SWAP2 ADD SLOAD SWAP2 PUSH1 0x40 MLOAD SWAP6 DUP7 SWAP6 DUP7 SWAP2 SWAP3 PUSH1 0x80 SWAP4 SWAP7 SWAP6 SWAP5 SWAP2 SWAP7 PUSH1 0xA0 DUP5 ADD SWAP8 DUP5 MSTORE PUSH1 0x20 DUP5 ADD MSTORE PUSH1 0x40 DUP4 ADD MSTORE PUSH1 0x60 DUP3 ADD MSTORE ADD MSTORE JUMP JUMPDEST CALLVALUE PUSH2 0x1DF JUMPI PUSH1 0x20 CALLDATASIZE PUSH1 0x3 NOT ADD SLT PUSH2 0x1DF JUMPI PUSH1 0x4 CALLDATALOAD PUSH1 0x0 MSTORE PUSH1 0xC PUSH1 0x20 MSTORE PUSH1 0x40 PUSH1 0x0 KECCAK256 PUSH2 0x1E4A DUP2 PUSH2 0x2744 JUMP JUMPDEST PUSH2 0x1DB PUSH2 0x1E5E PUSH1 0x2 PUSH2 0x1BCA PUSH1 0x1 DUP7 ADD PUSH2 0x2744 JUMP JUMPDEST PUSH1 0x40 MLOAD SWAP4 DUP5 SWAP4 DUP5 PUSH2 0x2449 JUMP JUMPDEST CALLVALUE PUSH2 0x1DF JUMPI PUSH1 0x20 CALLDATASIZE PUSH1 0x3 NOT ADD SLT PUSH2 0x1DF JUMPI PUSH1 0x4 CALLDATALOAD DUP1 ISZERO ISZERO DUP1 PUSH2 0x1EE4 JUMPI JUMPDEST PUSH2 0x1E90 SWAP1 PUSH2 0x2973 JUMP JUMPDEST PUSH1 0x0 MSTORE PUSH1 0xD PUSH1 0x20 MSTORE PUSH1 0x40 PUSH1 0x0 KECCAK256 DUP1 SLOAD PUSH2 0x1DB PUSH1 0x1 DUP4 ADD SLOAD SWAP3 PUSH1 0x2 DUP2 ADD SLOAD SWAP1 PUSH1 0x4 PUSH1 0x3 DUP3 ADD SLOAD SWAP2 ADD SLOAD SWAP2 PUSH1 0x40 MLOAD SWAP6 DUP7 SWAP6 DUP7 SWAP2 SWAP3 PUSH1 0x80 SWAP4 SWAP7 SWAP6 SWAP5 SWAP2 SWAP7 PUSH1 0xA0 DUP5 ADD SWAP8 DUP5 MSTORE PUSH1 0x20 DUP5 ADD MSTORE PUSH1 0x40 DUP4 ADD MSTORE PUSH1 0x60 DUP3 ADD MSTORE ADD MSTORE JUMP JUMPDEST POP PUSH1 0xB SLOAD DUP2 GT ISZERO PUSH2 0x1E87 JUMP JUMPDEST CALLVALUE PUSH2 0x1DF JUMPI PUSH1 0x40 CALLDATASIZE PUSH1 0x3 NOT ADD SLT PUSH2 0x1DF JUMPI PUSH2 0x1F09 PUSH2 0x2499 JUMP JUMPDEST PUSH1 0x4 CALLDATALOAD PUSH1 0x0 MSTORE PUSH1 0xE PUSH1 0x20 MSTORE PUSH1 0x40 PUSH1 0x0 KECCAK256 SWAP1 PUSH1 0x1 DUP1 PUSH1 0xA0 SHL SUB AND PUSH1 0x0 MSTORE PUSH1 0x20 MSTORE PUSH1 0x20 PUSH1 0xFF PUSH1 0x40 PUSH1 0x0 KECCAK256 SLOAD AND PUSH1 0x40 MLOAD SWAP1 ISZERO ISZERO DUP2 MSTORE RETURN JUMPDEST CALLVALUE PUSH2 0x1DF JUMPI PUSH1 0x20 CALLDATASIZE PUSH1 0x3 NOT ADD SLT PUSH2 0x1DF JUMPI PUSH1 0x4 CALLDATALOAD DUP1 ISZERO ISZERO DUP1 PUSH2 0x205F JUMPI JUMPDEST PUSH2 0x1F63 SWAP1 PUSH2 0x2973 JUMP JUMPDEST CALLER PUSH1 0x0 MSTORE PUSH1 0x8 PUSH1 0x20 MSTORE PUSH2 0x1F7D PUSH1 0xFF PUSH1 0x40 PUSH1 0x0 KECCAK256 SLOAD AND PUSH2 0x2916 JUMP JUMPDEST PUSH1 0x0 NOT DUP2 ADD DUP2 DUP2 GT PUSH2 0x867 JUMPI PUSH1 0x4 PUSH2 0x1F96 PUSH1 0xFF SWAP3 PUSH2 0x288F JUMP JUMPDEST POP ADD SLOAD PUSH1 0x8 SHR AND ISZERO PUSH2 0x202A JUMPI PUSH1 0x0 MSTORE PUSH1 0xD PUSH1 0x20 MSTORE PUSH1 0x40 PUSH1 0x0 KECCAK256 DUP1 SLOAD PUSH1 0x1 DUP3 ADD SLOAD PUSH2 0x1FC0 DUP2 DUP4 PUSH2 0x2966 JUMP JUMPDEST SWAP1 PUSH1 0x0 SWAP2 DUP1 PUSH2 0x1FF8 JUMPI JUMPDEST POP PUSH1 0x2 PUSH1 0x80 SWAP5 PUSH4 0xFFFFFFFF SWAP2 DUP3 SWAP2 ADD SLOAD AND SWAP2 DUP2 PUSH1 0x40 MLOAD SWAP6 AND DUP6 MSTORE AND PUSH1 0x20 DUP5 ADD MSTORE PUSH1 0x40 DUP4 ADD MSTORE ISZERO ISZERO PUSH1 0x60 DUP3 ADD MSTORE RETURN JUMPDEST SWAP4 SWAP2 POP PUSH1 0x64 DUP4 MUL SWAP4 DUP4 DUP6 DIV PUSH1 0x64 EQ DUP5 ISZERO OR ISZERO PUSH2 0x867 JUMPI PUSH2 0x201C PUSH1 0x2 SWAP2 PUSH1 0x80 SWAP7 PUSH2 0x29B2 JUMP JUMPDEST PUSH1 0x4 DUP5 ADD SLOAD LT SWAP3 SWAP5 POP PUSH2 0x1FCA JUMP JUMPDEST PUSH1 0x40 MLOAD PUSH3 0x461BCD PUSH1 0xE5 SHL DUP2 MSTORE PUSH1 0x20 PUSH1 0x4 DUP3 ADD MSTORE PUSH1 0xD PUSH1 0x24 DUP3 ADD MSTORE PUSH13 0x139BDD08199A5B985B1A5E9959 PUSH1 0x9A SHL PUSH1 0x44 DUP3 ADD MSTORE PUSH1 0x64 SWAP1 REVERT JUMPDEST POP PUSH1 0xB SLOAD DUP2 GT ISZERO PUSH2 0x1F5A JUMP JUMPDEST CALLVALUE PUSH2 0x1DF JUMPI PUSH1 0x0 CALLDATASIZE PUSH1 0x3 NOT ADD SLT PUSH2 0x1DF JUMPI PUSH1 0x20 PUSH1 0x4 SLOAD PUSH1 0x40 MLOAD SWAP1 DUP2 MSTORE RETURN JUMPDEST CALLVALUE PUSH2 0x1DF JUMPI PUSH1 0x20 CALLDATASIZE PUSH1 0x3 NOT ADD SLT PUSH2 0x1DF JUMPI PUSH2 0x20A2 PUSH2 0x2483 JUMP JUMPDEST PUSH2 0x20AA PUSH2 0x28EA JUMP JUMPDEST PUSH1 0x1 PUSH1 0x1 PUSH1 0xA0 SHL SUB SWAP1 DUP2 AND PUSH1 0x0 DUP2 DUP2 MSTORE PUSH1 0x8 PUSH1 0x20 MSTORE PUSH1 0x40 SWAP1 KECCAK256 SLOAD PUSH1 0xFF AND ISZERO PUSH2 0x21EF JUMPI DUP2 PUSH1 0x0 SLOAD AND DUP2 EQ PUSH2 0x21B4 JUMPI PUSH1 0x0 DUP2 DUP2 MSTORE PUSH1 0x8 PUSH1 0x20 MSTORE PUSH1 0x40 DUP2 KECCAK256 DUP1 SLOAD PUSH1 0xFF NOT AND SWAP1 SSTORE SWAP1 JUMPDEST PUSH1 0xA SWAP2 DUP3 SLOAD SWAP3 DUP4 DUP3 LT ISZERO PUSH2 0x21B2 JUMPI DUP5 SWAP4 DUP4 PUSH2 0x2109 DUP5 PUSH2 0x24AF JUMP JUMPDEST SWAP8 SWAP1 SLOAD PUSH1 0x3 SWAP9 DUP10 SHL SHR AND EQ PUSH2 0x212C JUMPI POP POP PUSH2 0x2126 SWAP2 SWAP3 SWAP4 POP PUSH2 0x2957 JUMP JUMPDEST SWAP1 PUSH2 0x20EF JUMP JUMPDEST SWAP1 SWAP4 SWAP3 POP PUSH1 0x0 NOT SWAP2 DUP3 DUP3 ADD SWAP2 DUP3 GT PUSH2 0x867 JUMPI PUSH2 0x215B DUP5 PUSH2 0x214E PUSH2 0x217A SWAP5 PUSH2 0x24AF JUMP JUMPDEST SWAP1 SLOAD SWAP1 DUP10 SHL SHR AND SWAP2 PUSH2 0x24AF JUMP JUMPDEST SWAP1 SWAP2 SWAP1 DUP3 SLOAD SWAP1 PUSH1 0x3 SHL SWAP2 PUSH1 0x1 DUP1 PUSH1 0xA0 SHL SUB DUP1 SWAP2 AND DUP4 SHL SWAP3 SHL NOT AND OR SWAP1 SSTORE JUMP JUMPDEST DUP3 SLOAD DUP1 ISZERO PUSH2 0x219C JUMPI ADD SWAP3 PUSH2 0x218D DUP5 PUSH2 0x24AF JUMP JUMPDEST DUP2 SLOAD SWAP3 SHL SWAP3 SWAP1 SWAP3 SHL NOT AND SWAP1 SSTORE SSTORE STOP JUMPDEST PUSH4 0x4E487B71 PUSH1 0xE0 SHL PUSH1 0x0 MSTORE PUSH1 0x31 PUSH1 0x4 MSTORE PUSH1 0x24 PUSH1 0x0 REVERT JUMPDEST STOP JUMPDEST PUSH1 0x40 MLOAD PUSH3 0x461BCD PUSH1 0xE5 SHL DUP2 MSTORE PUSH1 0x20 PUSH1 0x4 DUP3 ADD MSTORE PUSH1 0x13 PUSH1 0x24 DUP3 ADD MSTORE PUSH19 0x21B0B73737BA103932B6B7BB329037BBB732B9 PUSH1 0x69 SHL PUSH1 0x44 DUP3 ADD MSTORE PUSH1 0x64 SWAP1 REVERT JUMPDEST PUSH1 0x40 MLOAD PUSH3 0x461BCD PUSH1 0xE5 SHL DUP2 MSTORE PUSH1 0x20 PUSH1 0x4 DUP3 ADD MSTORE PUSH1 0x10 PUSH1 0x24 DUP3 ADD MSTORE PUSH16 0x2737BA103137B0B9321036B2B6B132B9 PUSH1 0x81 SHL PUSH1 0x44 DUP3 ADD MSTORE PUSH1 0x64 SWAP1 REVERT JUMPDEST CALLVALUE PUSH2 0x1DF JUMPI PUSH1 0x0 CALLDATASIZE PUSH1 0x3 NOT ADD SLT PUSH2 0x1DF JUMPI PUSH1 0x20 PUSH1 0xFF PUSH1 0x6 SLOAD AND PUSH1 0x40 MLOAD SWAP1 ISZERO ISZERO DUP2 MSTORE RETURN JUMPDEST CALLVALUE PUSH2 0x1DF JUMPI PUSH1 0x20 CALLDATASIZE PUSH1 0x3 NOT ADD SLT PUSH2 0x1DF JUMPI PUSH1 0x4 CALLDATALOAD PUSH1 0x9 SLOAD DUP2 LT ISZERO PUSH2 0x1DF JUMPI PUSH1 0x9 PUSH1 0x0 MSTORE PUSH32 0x6E1540171B6C0C960B71A7020D9F60077F6AF931A8BBF590DA0223DACF75C7AF ADD SLOAD PUSH1 0x40 MLOAD PUSH1 0x1 PUSH1 0x1 PUSH1 0xA0 SHL SUB SWAP1 SWAP2 AND DUP2 MSTORE PUSH1 0x20 SWAP1 RETURN JUMPDEST CALLVALUE PUSH2 0x1DF JUMPI PUSH1 0x20 CALLDATASIZE PUSH1 0x3 NOT ADD SLT PUSH2 0x1DF JUMPI PUSH2 0x22BE PUSH2 0x2483 JUMP JUMPDEST PUSH2 0x22C6 PUSH2 0x28EA JUMP JUMPDEST PUSH1 0x1 PUSH1 0x1 PUSH1 0xA0 SHL SUB DUP2 AND PUSH1 0x0 DUP2 DUP2 MSTORE PUSH1 0x8 PUSH1 0x20 MSTORE PUSH1 0x40 SWAP1 KECCAK256 SLOAD SWAP1 SWAP2 SWAP1 PUSH1 0xFF AND PUSH2 0x234C JUMPI DUP2 PUSH1 0x0 MSTORE PUSH1 0x8 PUSH1 0x20 MSTORE PUSH1 0x40 PUSH1 0x0 KECCAK256 PUSH1 0x1 PUSH1 0xFF NOT DUP3 SLOAD AND OR SWAP1 SSTORE PUSH1 0xA SLOAD SWAP1 PUSH1 0x1 PUSH1 0x40 SHL DUP3 LT ISZERO PUSH2 0xBDE JUMPI PUSH2 0x215B DUP3 PUSH1 0x1 PUSH2 0x2325 SWAP5 ADD PUSH1 0xA SSTORE PUSH2 0x24AF JUMP JUMPDEST PUSH32 0x956F4B06F20EDA3AA4F6BE9E72E8FC77BEB3F95F4F2A95A796B2AF742583D743 PUSH1 0x0 DUP1 LOG2 STOP JUMPDEST PUSH1 0x40 MLOAD PUSH3 0x461BCD PUSH1 0xE5 SHL DUP2 MSTORE PUSH1 0x20 PUSH1 0x4 DUP3 ADD MSTORE PUSH1 0x14 PUSH1 0x24 DUP3 ADD MSTORE PUSH20 0x20B63932B0B23C903137B0B9321036B2B6B132B9 PUSH1 0x61 SHL PUSH1 0x44 DUP3 ADD MSTORE PUSH1 0x64 SWAP1 REVERT JUMPDEST CALLVALUE PUSH2 0x1DF JUMPI PUSH1 0x20 CALLDATASIZE PUSH1 0x3 NOT ADD SLT PUSH2 0x1DF JUMPI PUSH1 0x4 CALLDATALOAD DUP1 ISZERO ISZERO DUP1 PUSH2 0x23C4 JUMPI JUMPDEST PUSH2 0x23AE SWAP1 PUSH2 0x2973 JUMP JUMPDEST PUSH1 0x0 MSTORE PUSH1 0xC PUSH1 0x20 MSTORE PUSH1 0x40 PUSH1 0x0 KECCAK256 PUSH2 0x1E4A DUP2 PUSH2 0x2744 JUMP JUMPDEST POP PUSH1 0xB SLOAD DUP2 GT ISZERO PUSH2 0x23A5 JUMP JUMPDEST CALLVALUE PUSH2 0x1DF JUMPI PUSH1 0x0 CALLDATASIZE PUSH1 0x3 NOT ADD SLT PUSH2 0x1DF JUMPI PUSH1 0x20 PUSH1 0xB SLOAD PUSH1 0x40 MLOAD SWAP1 DUP2 MSTORE RETURN JUMPDEST CALLVALUE PUSH2 0x1DF JUMPI PUSH1 0x0 CALLDATASIZE PUSH1 0x3 NOT ADD SLT PUSH2 0x1DF JUMPI PUSH1 0x20 SWAP1 PUSH1 0x5 SLOAD DUP2 MSTORE RETURN JUMPDEST SWAP2 SWAP1 DUP3 MLOAD SWAP3 DUP4 DUP3 MSTORE PUSH1 0x0 JUMPDEST DUP5 DUP2 LT PUSH2 0x2435 JUMPI POP POP DUP3 PUSH1 0x0 PUSH1 0x20 DUP1 SWAP5 SWAP6 DUP5 ADD ADD MSTORE PUSH1 0x1F DUP1 NOT SWAP2 ADD AND ADD ADD SWAP1 JUMP JUMPDEST PUSH1 0x20 DUP2 DUP4 ADD DUP2 ADD MLOAD DUP5 DUP4 ADD DUP3 ADD MSTORE ADD PUSH2 0x2414 JUMP JUMPDEST SWAP2 PUSH2 0x2472 SWAP1 PUSH2 0x2464 PUSH2 0x2480 SWAP6 SWAP4 PUSH1 0x60 DUP7 MSTORE PUSH1 0x60 DUP7 ADD SWAP1 PUSH2 0x2409 JUMP JUMPDEST SWAP1 DUP5 DUP3 SUB PUSH1 0x20 DUP7 ADD MSTORE PUSH2 0x2409 JUMP JUMPDEST SWAP2 PUSH1 0x40 DUP2 DUP5 SUB SWAP2 ADD MSTORE PUSH2 0x2409 JUMP JUMPDEST SWAP1 JUMP JUMPDEST PUSH1 0x4 CALLDATALOAD SWAP1 PUSH1 0x1 PUSH1 0x1 PUSH1 0xA0 SHL SUB DUP3 AND DUP3 SUB PUSH2 0x1DF JUMPI JUMP JUMPDEST PUSH1 0x24 CALLDATALOAD SWAP1 PUSH1 0x1 PUSH1 0x1 PUSH1 0xA0 SHL SUB DUP3 AND DUP3 SUB PUSH2 0x1DF JUMPI JUMP JUMPDEST PUSH1 0xA SLOAD DUP2 LT ISZERO PUSH2 0x24E6 JUMPI PUSH1 0xA PUSH1 0x0 MSTORE PUSH32 0xC65A7BB8D6351C1CF70C95A316CC6A92839C986682D98BC35F958F4883F9D2A8 ADD SWAP1 PUSH1 0x0 SWAP1 JUMP JUMPDEST PUSH4 0x4E487B71 PUSH1 0xE0 SHL PUSH1 0x0 MSTORE PUSH1 0x32 PUSH1 0x4 MSTORE PUSH1 0x24 PUSH1 0x0 REVERT JUMPDEST SWAP1 PUSH1 0x1 DUP3 DUP2 SHR SWAP3 AND DUP1 ISZERO PUSH2 0x252C JUMPI JUMPDEST PUSH1 0x20 DUP4 LT EQ PUSH2 0x2516 JUMPI JUMP JUMPDEST PUSH4 0x4E487B71 PUSH1 0xE0 SHL PUSH1 0x0 MSTORE PUSH1 0x22 PUSH1 0x4 MSTORE PUSH1 0x24 PUSH1 0x0 REVERT JUMPDEST SWAP2 PUSH1 0x7F AND SWAP2 PUSH2 0x250B JUMP JUMPDEST SWAP1 PUSH1 0x1F DUP1 NOT SWAP2 ADD AND DUP2 ADD SWAP1 DUP2 LT PUSH1 0x1 PUSH1 0x1 PUSH1 0x40 SHL SUB DUP3 GT OR PUSH2 0xBDE JUMPI PUSH1 0x40 MSTORE JUMP JUMPDEST PUSH1 0x40 MLOAD SWAP1 PUSH1 0x0 DUP3 PUSH1 0x3 SLOAD SWAP2 PUSH2 0x256B DUP4 PUSH2 0x24FC JUMP JUMPDEST DUP1 DUP4 MSTORE SWAP3 PUSH1 0x1 SWAP1 DUP2 DUP2 AND SWAP1 DUP2 ISZERO PUSH2 0x25F3 JUMPI POP PUSH1 0x1 EQ PUSH2 0x2594 JUMPI JUMPDEST POP PUSH2 0x2592 SWAP3 POP SUB DUP4 PUSH2 0x2536 JUMP JUMPDEST JUMP JUMPDEST PUSH1 0x3 PUSH1 0x0 SWAP1 DUP2 MSTORE SWAP2 POP PUSH32 0xC2575A0E9E593C00F959F8C92F12DB2869C3395A3B0502D05E2516446F71F85B JUMPDEST DUP5 DUP4 LT PUSH2 0x25D8 JUMPI POP PUSH2 0x2592 SWAP4 POP POP DUP2 ADD PUSH1 0x20 ADD CODESIZE PUSH2 0x2585 JUMP JUMPDEST DUP2 SWAP4 POP SWAP1 DUP2 PUSH1 0x20 SWAP3 SLOAD DUP4 DUP6 DUP11 ADD ADD MSTORE ADD SWAP2 ADD SWAP1 SWAP2 DUP6 SWAP3 PUSH2 0x25BF JUMP JUMPDEST SWAP1 POP PUSH1 0x20 SWAP3 POP PUSH2 0x2592 SWAP5 SWAP2 POP PUSH1 0xFF NOT AND DUP3 DUP5 ADD MSTORE ISZERO ISZERO PUSH1 0x5 SHL DUP3 ADD ADD CODESIZE PUSH2 0x2585 JUMP JUMPDEST PUSH1 0x40 MLOAD SWAP1 PUSH1 0x0 DUP3 PUSH1 0x2 SLOAD SWAP2 PUSH2 0x2629 DUP4 PUSH2 0x24FC JUMP JUMPDEST DUP1 DUP4 MSTORE SWAP3 PUSH1 0x1 SWAP1 DUP2 DUP2 AND SWAP1 DUP2 ISZERO PUSH2 0x25F3 JUMPI POP PUSH1 0x1 EQ PUSH2 0x264F JUMPI POP PUSH2 0x2592 SWAP3 POP SUB DUP4 PUSH2 0x2536 JUMP JUMPDEST PUSH1 0x2 PUSH1 0x0 SWAP1 DUP2 MSTORE SWAP2 POP PUSH32 0x405787FA12A823E0F2B7631CC41B3BA8828B3321CA811111FA75CD3AA3BB5ACE JUMPDEST DUP5 DUP4 LT PUSH2 0x2693 JUMPI POP PUSH2 0x2592 SWAP4 POP POP DUP2 ADD PUSH1 0x20 ADD CODESIZE PUSH2 0x2585 JUMP JUMPDEST DUP2 SWAP4 POP SWAP1 DUP2 PUSH1 0x20 SWAP3 SLOAD DUP4 DUP6 DUP11 ADD ADD MSTORE ADD SWAP2 ADD SWAP1 SWAP2 DUP6 SWAP3 PUSH2 0x267A JUMP JUMPDEST PUSH1 0x40 MLOAD SWAP1 PUSH1 0x0 DUP3 PUSH1 0x1 SWAP2 DUP3 SLOAD SWAP3 PUSH2 0x26C4 DUP5 PUSH2 0x24FC JUMP JUMPDEST DUP1 DUP5 MSTORE SWAP4 DUP2 DUP2 AND SWAP1 DUP2 ISZERO PUSH2 0x25F3 JUMPI POP PUSH1 0x1 EQ PUSH2 0x26E7 JUMPI POP PUSH2 0x2592 SWAP3 POP SUB DUP4 PUSH2 0x2536 JUMP JUMPDEST PUSH1 0x0 DUP2 DUP2 MSTORE SWAP2 POP PUSH32 0xB10E2D527612073B26EECDFD717E6A320CF44B4AFAC2B0732D9FCBE2B7FA0CF6 JUMPDEST DUP5 DUP4 LT PUSH2 0x2729 JUMPI POP PUSH2 0x2592 SWAP4 POP POP DUP2 ADD PUSH1 0x20 ADD CODESIZE PUSH2 0x2585 JUMP JUMPDEST DUP2 SWAP4 POP SWAP1 DUP2 PUSH1 0x20 SWAP3 SLOAD DUP4 DUP6 DUP11 ADD ADD MSTORE ADD SWAP2 ADD SWAP1 SWAP2 DUP6 SWAP3 PUSH2 0x2710 JUMP JUMPDEST SWAP1 PUSH1 0x40 MLOAD SWAP2 DUP3 PUSH1 0x0 DUP3 SLOAD SWAP3 PUSH2 0x2758 DUP5 PUSH2 0x24FC JUMP JUMPDEST SWAP1 DUP2 DUP5 MSTORE PUSH1 0x1 SWAP5 DUP6 DUP2 AND SWAP1 DUP2 PUSH1 0x0 EQ PUSH2 0x27C5 JUMPI POP PUSH1 0x1 EQ PUSH2 0x2782 JUMPI JUMPDEST POP POP PUSH2 0x2592 SWAP3 POP SUB DUP4 PUSH2 0x2536 JUMP JUMPDEST SWAP1 SWAP4 SWAP2 POP PUSH1 0x0 MSTORE PUSH1 0x20 SWAP1 DUP2 PUSH1 0x0 KECCAK256 SWAP4 PUSH1 0x0 SWAP2 JUMPDEST DUP2 DUP4 LT PUSH2 0x27AD JUMPI POP POP PUSH2 0x2592 SWAP4 POP DUP3 ADD ADD CODESIZE DUP1 PUSH2 0x2774 JUMP JUMPDEST DUP6 SLOAD DUP9 DUP5 ADD DUP6 ADD MSTORE SWAP5 DUP6 ADD SWAP5 DUP8 SWAP5 POP SWAP2 DUP4 ADD SWAP2 PUSH2 0x2795 JUMP JUMPDEST SWAP2 POP POP PUSH2 0x2592 SWAP5 POP PUSH1 0x20 SWAP3 POP PUSH1 0xFF NOT AND DUP3 DUP5 ADD MSTORE ISZERO ISZERO PUSH1 0x5 SHL DUP3 ADD ADD CODESIZE DUP1 PUSH2 0x2774 JUMP JUMPDEST PUSH1 0x6 DUP2 LT ISZERO PUSH2 0x851 JUMPI PUSH1 0x0 MSTORE PUSH1 0x10 PUSH1 0x20 MSTORE PUSH1 0x40 PUSH1 0x0 KECCAK256 SWAP1 JUMP JUMPDEST SWAP3 PUSH4 0xFFFFFFFF PUSH2 0x2480 SWAP6 SWAP4 PUSH2 0x282B SWAP4 ISZERO ISZERO DUP7 MSTORE AND PUSH1 0x20 DUP6 ADD MSTORE PUSH1 0x80 PUSH1 0x40 DUP6 ADD MSTORE PUSH1 0x80 DUP5 ADD SWAP1 PUSH2 0x2409 JUMP JUMPDEST SWAP2 PUSH1 0x60 DUP2 DUP5 SUB SWAP2 ADD MSTORE PUSH2 0x2409 JUMP JUMPDEST DUP2 PUSH1 0x1F DUP3 ADD SLT ISZERO PUSH2 0x1DF JUMPI DUP1 CALLDATALOAD SWAP1 PUSH1 0x1 PUSH1 0x1 PUSH1 0x40 SHL SUB DUP3 GT PUSH2 0xBDE JUMPI PUSH1 0x40 MLOAD SWAP3 PUSH2 0x286D PUSH1 0x1F DUP5 ADD PUSH1 0x1F NOT AND PUSH1 0x20 ADD DUP6 PUSH2 0x2536 JUMP JUMPDEST DUP3 DUP5 MSTORE PUSH1 0x20 DUP4 DUP4 ADD ADD GT PUSH2 0x1DF JUMPI DUP2 PUSH1 0x0 SWAP3 PUSH1 0x20 DUP1 SWAP4 ADD DUP4 DUP7 ADD CALLDATACOPY DUP4 ADD ADD MSTORE SWAP1 JUMP JUMPDEST PUSH1 0xB SLOAD DUP2 LT ISZERO PUSH2 0x24E6 JUMPI PUSH1 0x5 SWAP1 PUSH1 0xB PUSH1 0x0 MSTORE MUL PUSH32 0x175B7A638427703F0DBE7BB9BBF987A2551717B34E79F33B5B1008D1FA01DB9 ADD SWAP1 PUSH1 0x0 SWAP1 JUMP JUMPDEST SWAP1 PUSH1 0x6 DUP3 LT ISZERO PUSH2 0x851 JUMPI MSTORE JUMP JUMPDEST SWAP2 SWAP1 PUSH1 0x20 DUP4 ADD SWAP3 PUSH1 0x3 DUP3 LT ISZERO PUSH2 0x851 JUMPI MSTORE JUMP JUMPDEST PUSH1 0x0 SLOAD PUSH1 0x1 PUSH1 0x1 PUSH1 0xA0 SHL SUB AND CALLER SUB PUSH2 0x28FE JUMPI JUMP JUMPDEST PUSH1 0x40 MLOAD PUSH4 0x118CDAA7 PUSH1 0xE0 SHL DUP2 MSTORE CALLER PUSH1 0x4 DUP3 ADD MSTORE PUSH1 0x24 SWAP1 REVERT JUMPDEST ISZERO PUSH2 0x291D JUMPI JUMP JUMPDEST PUSH1 0x40 MLOAD PUSH3 0x461BCD PUSH1 0xE5 SHL DUP2 MSTORE PUSH1 0x20 PUSH1 0x4 DUP3 ADD MSTORE PUSH1 0x12 PUSH1 0x24 DUP3 ADD MSTORE PUSH18 0x4F6E6C7920626F617264206D656D62657273 PUSH1 0x70 SHL PUSH1 0x44 DUP3 ADD MSTORE PUSH1 0x64 SWAP1 REVERT JUMPDEST PUSH1 0x0 NOT DUP2 EQ PUSH2 0x867 JUMPI PUSH1 0x1 ADD SWAP1 JUMP JUMPDEST SWAP2 SWAP1 DUP3 ADD DUP1 SWAP3 GT PUSH2 0x867 JUMPI JUMP JUMPDEST ISZERO PUSH2 0x297A JUMPI JUMP JUMPDEST PUSH1 0x40 MLOAD PUSH3 0x461BCD PUSH1 0xE5 SHL DUP2 MSTORE PUSH1 0x20 PUSH1 0x4 DUP3 ADD MSTORE PUSH1 0x10 PUSH1 0x24 DUP3 ADD MSTORE PUSH16 0x125B9D985B1A59081C1C9BDC1BDCD85B PUSH1 0x82 SHL PUSH1 0x44 DUP3 ADD MSTORE PUSH1 0x64 SWAP1 REVERT JUMPDEST DUP2 ISZERO PUSH2 0x29BC JUMPI DIV SWAP1 JUMP JUMPDEST PUSH4 0x4E487B71 PUSH1 0xE0 SHL PUSH1 0x0 MSTORE PUSH1 0x12 PUSH1 0x4 MSTORE PUSH1 0x24 PUSH1 0x0 REVERT INVALID LOG2 PUSH5 0x6970667358 0x22 SLT KECCAK256 REVERT 0xBA MSTORE CALLCODE PUSH7 0xFF86D2D8C434D6 SUB DUP7 ISZERO 0xCA 0xB7 DUP11 PUSH26 0x6BF22AC05DA8ACBCF634BE2FFC64736F6C634300081400330000 "},"methodIdentifiers":{"addBoardMember(address)":"1eac03ae","boardMembers(address)":"bff13785","boardMembersList(uint256)":"5ee230b7","castVotePlain(uint256,uint8)":"d098db5a","companyName()":"f5ec2eed","createProposal(uint8,string,string,string,uint256)":"a39af88e","finalizeProposal(uint256)":"5652077c","getCompanyInfo()":"d7710d62","getDecryptedResults(uint256)":"41d14c22","getProposalBasic(uint256)":"9f83c4b2","getProposalContent(uint256)":"1de20bcf","getProposalInfo(uint256)":"bc903cb8","getProposalVotes(uint256)":"47c66140","getShareholderInfo(address)":"5e6056bb","getTotalProposals()":"1a5007dd","hasVoted(uint256,address)":"43859632","hasVotedOn(uint256,address)":"b97d3e40","initializeCompany(string,string,string,uint256)":"a759e629","isBoardMember(address)":"71942a01","isInitialized()":"392e53cd","owner()":"8da5cb5b","proposalBasics(uint256)":"7ec8f005","proposalContents(uint256)":"4ed27034","proposalVotes(uint256)":"544ffc9c","registerShareholderPlain(address,uint32,string,string)":"691e7398","registrationNumber()":"b2a1a40a","removeBoardMember(address)":"39a169f9","renounceOwnership()":"715018a6","shareholders(address)":"5c2930ad","shareholdersList(uint256)":"33bac503","stockSymbol()":"c87cbe56","thresholds(uint8)":"5a50d2f4","totalShareholders()":"0f8d4030","totalShares()":"3a98ef39","transferOwnership(address)":"f2fde38b","votes(uint256,address)":"d23254b4"}}}}}