{"contracts/CorporateGovernanceUltimate.sol":{"CorporateGovernanceUltimate":{"abi":[{"inputs":[],"stateMutability":"nonpayable","type":"constructor"},{"inputs":[{"internalType":"address","name":"owner","type":"address"}],"name":"OwnableInvalidOwner","type":"error"},{"inputs":[{"internalType":"address","name":"account","type":"address"}],"name":"OwnableUnauthorizedAccount","type":"error"},{"anonymous":false,"inputs":[{"indexed":false,"internalType":"string","name":"name","type":"string"}],"name":"CompanyInit","type":"event"},{"anonymous":false,"inputs":[{"indexed":true,"internalType":"address","name":"previousOwner","type":"address"},{"indexed":true,"internalType":"address","name":"newOwner","type":"address"}],"name":"OwnershipTransferred","type":"event"},{"anonymous":false,"inputs":[{"indexed":true,"internalType":"uint256","name":"id","type":"uint256"}],"name":"ProposalAdd","type":"event"},{"anonymous":false,"inputs":[{"indexed":true,"internalType":"address","name":"addr","type":"address"}],"name":"ShareholderAdd","type":"event"},{"anonymous":false,"inputs":[{"indexed":true,"internalType":"uint256","name":"id","type":"uint256"},{"indexed":true,"internalType":"address","name":"voter","type":"address"}],"name":"VoteAdd","type":"event"},{"inputs":[{"internalType":"address","name":"_member","type":"address"}],"name":"addBoard","outputs":[],"stateMutability":"nonpayable","type":"function"},{"inputs":[{"internalType":"address","name":"_addr","type":"address"},{"internalType":"uint32","name":"_shares","type":"uint32"},{"internalType":"string","name":"_name","type":"string"}],"name":"addShareholder","outputs":[],"stateMutability":"nonpayable","type":"function"},{"inputs":[{"internalType":"uint256","name":"","type":"uint256"}],"name":"boardList","outputs":[{"internalType":"address","name":"","type":"address"}],"stateMutability":"view","type":"function"},{"inputs":[{"internalType":"address","name":"","type":"address"}],"name":"boardMembers","outputs":[{"internalType":"bool","name":"","type":"bool"}],"stateMutability":"view","type":"function"},{"inputs":[{"internalType":"uint256","name":"_id","type":"uint256"},{"internalType":"uint8","name":"_choice","type":"uint8"}],"name":"castConfidentialVote","outputs":[],"stateMutability":"nonpayable","type":"function"},{"inputs":[{"internalType":"uint256","name":"_id","type":"uint256"},{"internalType":"uint8","name":"_choice","type":"uint8"}],"name":"castVotePlain","outputs":[],"stateMutability":"nonpayable","type":"function"},{"inputs":[],"name":"companyName","outputs":[{"internalType":"string","name":"","type":"string"}],"stateMutability":"view","type":"function"},{"inputs":[{"internalType":"uint8","name":"_type","type":"uint8"},{"internalType":"string","name":"_title","type":"string"},{"internalType":"uint256","name":"_days","type":"uint256"}],"name":"createProposal","outputs":[{"internalType":"uint256","name":"","type":"uint256"}],"stateMutability":"nonpayable","type":"function"},{"inputs":[{"internalType":"uint256","name":"_id","type":"uint256"}],"name":"finalize","outputs":[],"stateMutability":"nonpayable","type":"function"},{"inputs":[{"internalType":"uint256","name":"_id","type":"uint256"}],"name":"finalizeProposal","outputs":[],"stateMutability":"nonpayable","type":"function"},{"inputs":[],"name":"getCompanyInfo","outputs":[{"internalType":"string","name":"","type":"string"},{"internalType":"string","name":"","type":"string"},{"internalType":"string","name":"","type":"string"},{"internalType":"uint256","name":"","type":"uint256"},{"internalType":"uint256","name":"","type":"uint256"},{"internalType":"address[]","name":"","type":"address[]"}],"stateMutability":"view","type":"function"},{"inputs":[{"internalType":"uint256","name":"_id","type":"uint256"}],"name":"getDecryptedResults","outputs":[{"internalType":"uint32","name":"","type":"uint32"},{"internalType":"uint32","name":"","type":"uint32"},{"internalType":"uint32","name":"","type":"uint32"},{"internalType":"bool","name":"","type":"bool"}],"stateMutability":"view","type":"function"},{"inputs":[{"internalType":"uint256","name":"_id","type":"uint256"}],"name":"getProposalBasic","outputs":[{"internalType":"uint8","name":"","type":"uint8"},{"internalType":"string","name":"","type":"string"},{"internalType":"address","name":"","type":"address"}],"stateMutability":"view","type":"function"},{"inputs":[{"internalType":"uint256","name":"_id","type":"uint256"}],"name":"getProposalInfo","outputs":[{"internalType":"uint256","name":"","type":"uint256"},{"internalType":"uint8","name":"","type":"uint8"},{"internalType":"string","name":"","type":"string"},{"internalType":"string","name":"","type":"string"},{"internalType":"address","name":"","type":"address"},{"internalType":"uint256","name":"","type":"uint256"},{"internalType":"uint256","name":"","type":"uint256"},{"internalType":"bool","name":"","type":"bool"},{"internalType":"bool","name":"","type":"bool"},{"internalType":"uint256","name":"","type":"uint256"},{"internalType":"uint256","name":"","type":"uint256"}],"stateMutability":"view","type":"function"},{"inputs":[{"internalType":"uint256","name":"_id","type":"uint256"}],"name":"getProposalStatus","outputs":[{"internalType":"uint256","name":"","type":"uint256"},{"internalType":"bool","name":"","type":"bool"},{"internalType":"uint32","name":"","type":"uint32"}],"stateMutability":"view","type":"function"},{"inputs":[{"internalType":"uint256","name":"_id","type":"uint256"}],"name":"getResults","outputs":[{"internalType":"uint32","name":"","type":"uint32"},{"internalType":"uint32","name":"","type":"uint32"},{"internalType":"bool","name":"","type":"bool"}],"stateMutability":"view","type":"function"},{"inputs":[{"internalType":"address","name":"_addr","type":"address"}],"name":"getShareholderInfo","outputs":[{"internalType":"bool","name":"","type":"bool"},{"internalType":"uint32","name":"","type":"uint32"},{"internalType":"string","name":"","type":"string"},{"internalType":"string","name":"","type":"string"},{"internalType":"bool","name":"","type":"bool"}],"stateMutability":"view","type":"function"},{"inputs":[],"name":"getTotalProposals","outputs":[{"internalType":"uint256","name":"","type":"uint256"}],"stateMutability":"view","type":"function"},{"inputs":[{"internalType":"uint256","name":"_id","type":"uint256"},{"internalType":"address","name":"_voter","type":"address"}],"name":"hasVotedOn","outputs":[{"internalType":"bool","name":"","type":"bool"}],"stateMutability":"view","type":"function"},{"inputs":[{"internalType":"string","name":"_name","type":"string"},{"internalType":"uint256","name":"_shares","type":"uint256"}],"name":"initCompany","outputs":[],"stateMutability":"nonpayable","type":"function"},{"inputs":[],"name":"initialized","outputs":[{"internalType":"bool","name":"","type":"bool"}],"stateMutability":"view","type":"function"},{"inputs":[{"internalType":"address","name":"_member","type":"address"}],"name":"isBoardMember","outputs":[{"internalType":"bool","name":"","type":"bool"}],"stateMutability":"view","type":"function"},{"inputs":[],"name":"owner","outputs":[{"internalType":"address","name":"","type":"address"}],"stateMutability":"view","type":"function"},{"inputs":[{"internalType":"uint256","name":"","type":"uint256"}],"name":"proposals","outputs":[{"internalType":"uint8","name":"pType","type":"uint8"},{"internalType":"string","name":"title","type":"string"},{"internalType":"address","name":"proposer","type":"address"},{"internalType":"uint256","name":"deadline","type":"uint256"},{"internalType":"bool","name":"active","type":"bool"},{"internalType":"uint32","name":"forVotes","type":"uint32"},{"internalType":"uint32","name":"againstVotes","type":"uint32"},{"internalType":"uint32","name":"threshold","type":"uint32"}],"stateMutability":"view","type":"function"},{"inputs":[{"internalType":"address","name":"_addr","type":"address"},{"internalType":"uint32","name":"_shares","type":"uint32"},{"internalType":"string","name":"","type":"string"},{"internalType":"string","name":"_name","type":"string"}],"name":"registerShareholderPlain","outputs":[],"stateMutability":"nonpayable","type":"function"},{"inputs":[],"name":"renounceOwnership","outputs":[],"stateMutability":"nonpayable","type":"function"},{"inputs":[{"internalType":"address","name":"","type":"address"}],"name":"shareholders","outputs":[{"internalType":"bool","name":"active","type":"bool"},{"internalType":"uint32","name":"shares","type":"uint32"},{"internalType":"string","name":"name","type":"string"}],"stateMutability":"view","type":"function"},{"inputs":[],"name":"totalShares","outputs":[{"internalType":"uint256","name":"","type":"uint256"}],"stateMutability":"view","type":"function"},{"inputs":[{"internalType":"address","name":"newOwner","type":"address"}],"name":"transferOwnership","outputs":[],"stateMutability":"nonpayable","type":"function"},{"inputs":[{"internalType":"uint256","name":"_id","type":"uint256"},{"internalType":"uint8","name":"_choice","type":"uint8"}],"name":"vote","outputs":[],"stateMutability":"nonpayable","type":"function"},{"inputs":[{"internalType":"uint256","name":"_id","type":"uint256"},{"internalType":"uint8","name":"_choice","type":"uint8"}],"name":"voteConfidential","outputs":[],"stateMutability":"nonpayable","type":"function"},{"inputs":[{"internalType":"uint256","name":"","type":"uint256"},{"internalType":"address","name":"","type":"address"}],"name":"voted","outputs":[{"internalType":"bool","name":"","type":"bool"}],"stateMutability":"view","type":"function"}],"evm":{"bytecode":{"linkReferences":{},"object":"6080806040523461010d5733156100f757600080546001600160a01b03198082163390811784556040519391926001600160a01b03167f8be0079c531659141344cd1fd0a4f28419497f9722a3daafe3b4186f6b6457e08380a3338152600560205260408120805460ff1916600117905560085490680100000000000000008210156100e35760018201806008558210156100cf57600890527ff3f7a9fe364faab93b216da50a3214154f22a0a2b415b23a84c8169e8b636ee301805490911633179055611d6490816101138239f35b634e487b7160e01b81526032600452602490fd5b634e487b7160e01b81526041600452602490fd5b631e4fbdf760e01b815260006004820152602490fd5b600080fdfe6080604052600436101561001257600080fd5b60003560e01c8063013cf08b146114a557806305261aea14610df057806310a1c5731461142a578063158ef93e146114075780631a5007dd146113e95780633a98ef39146113cb578063401853b71461135657806341d14c221461127357806342f41d2a146105d557806344906b2314610eb85780635277b4ae146107265780635652077c14610df05780635c2930ad14610d835780635e6056bb14610ce9578063691e739814610c89578063715018a614610c3057806371942a01146105da57806372cec17b14610bee57806381a60c0d14610ac85780638da5cb5b14610a9f578063943e8216146108675780639f83c4b2146107db578063a23bf2d714610773578063a3317d91146105d5578063b97d3e4014610726578063bc903cb814610619578063bff13785146105da578063d098db5a146105d5578063d3cb331c146103b4578063d7710d6214610243578063f2fde38b146101b55763f5ec2eed1461017c57600080fd5b346101b05760003660031901126101b0576101ac61019861161c565b60405191829160208352602083019061177b565b0390f35b600080fd5b346101b05760203660031901126101b0576101ce6117bb565b6101d6611a8d565b6001600160a01b0390811690811561022a57600054826bffffffffffffffffffffffff60a01b821617600055167f8be0079c531659141344cd1fd0a4f28419497f9722a3daafe3b4186f6b6457e0600080a3005b604051631e4fbdf760e01b815260006004820152602490fd5b346101b05760003660031901126101b05760025461025f61161c565b90604051906040820182811067ffffffffffffffff82111761039e57828491604052600481526020630434f52560e41b81830152604051916102a0836115de565b60008352604051928391836008549586815201809560086000527ff3f7a9fe364faab93b216da50a3214154f22a0a2b415b23a84c8169e8b636ee39060005b81811061038157505050849261032485936103036103179b976103329503866115fa565b6040519a8b9a60c08c5260c08c019061177b565b908a8203878c015261177b565b9088820360408a015261177b565b9260608701526000608087015285830360a0870152519182815201929160005b82811061036157505050500390f35b83516001600160a01b031685528695509381019392810192600101610352565b82546001600160a01b0316845292870192600192830192016102df565b634e487b7160e01b600052604160045260246000fd5b346101b05760403660031901126101b05767ffffffffffffffff6004358181116101b0576103e69036906004016119ec565b906103ef611a8d565b60ff600354166105aa57815190811161039e5760019061040f82546115a4565b601f8111610543575b506020601f821160011461049f5791817f47e87ddfd6ce04dc99962410b21a2eb6e4a8a8e9f15ece14689b80897e714224949261048f94600091610494575b50600019600383901b1c191690821b1781555b60243560025560ff19600354161760035560405191829160208352602083019061177b565b0390a1005b905083015186610457565b601f19821690836000527fb10e2d527612073b26eecdfd717e6a320cf44b4afac2b0732d9fcbe2b7fa0cf69160005b81811061052d575092849261048f9592827f47e87ddfd6ce04dc99962410b21a2eb6e4a8a8e9f15ece14689b80897e714224989610610514575b5050811b01815561046a565b85015160001960f88460031b161c191690558680610508565b86830151845592850192602092830192016104ce565b826000527fb10e2d527612073b26eecdfd717e6a320cf44b4afac2b0732d9fcbe2b7fa0cf6601f830160051c810191602084106105a0575b601f0160051c019083905b828110610594575050610418565b60008155018390610586565b909150819061057b565b606460405162461bcd60e51b8152602060048201526004602482015263446f6e6560e01b6044820152fd5b6117f7565b346101b05760203660031901126101b0576001600160a01b036105fb6117bb565b166000526005602052602060ff604060002054166040519015158152f35b346101b05760203660031901126101b0576004358015158061071a575b61063f90611cdd565b60001981018181116107045761065490611553565b509060ff8254169163ffffffff60018060a01b03600283015416916003810154906004810154916106cf61068f600160ff86161594016116d7565b6106c16040519161069f836115de565b600083526040519a8b9a8b5260208b01526101608060408c01528a019061177b565b9088820360608a015261177b565b946080870152600060a087015260c0860152801560e0860152610100850152600061012085015260481c166101408301520390f35b634e487b7160e01b600052601160045260246000fd5b50600754811115610636565b346101b05760403660031901126101b05761073f6117d1565b600435600052600660205260406000209060018060a01b0316600052602052602060ff604060002054166040519015158152f35b346101b05760603660031901126101b05761078c6117bb565b610794611a43565b906044359167ffffffffffffffff83116101b0576107b96107d99336906004016119ec565b913360005260056020526107d460ff60406000205416611ab9565b611af2565b005b346101b05760203660031901126101b0576004358015158061085b575b61080190611cdd565b60001981019081116107045761081690611553565b5060ff8154166108346001808060a01b0360028501541693016116d7565b91610851604051938493845260606020850152606084019061177b565b9060408301520390f35b506007548111156107f8565b346101b05760403660031901126101b0576004356108836117e7565b3360005260206004815260ff6040600020541615610a685782151580610a5c575b6108ad90611cdd565b8260005260068152604060002033600052815260ff60406000205416610a28576000198301838111610704576108e290611553565b5090600482019160ff8354169081610a19575b50156109e757600490846000526006815260406000203360005281526040600020600160ff198254161790555263ffffffff60ff8160406000205460081c1693166001811460001461099957506109709261095591835460081c16611d16565b64ffffffff0082549160081b169064ffffffff001916179055565b33907f8db73a250e94e9aee36ccd128ab9f11b3ba71ce8890bc991e05d09c157169b25600080a3005b6002146109a9575b505050610970565b6109df926109bc91835460281c16611d16565b68ffffffff000000000082549160281b169068ffffffff00000000001916179055565b8180806109a1565b6064906040519062461bcd60e51b82526004820152600b60248201526a43616e6e6f7420766f746560a81b6044820152fd5b600391500154421115856108f5565b6064906040519062461bcd60e51b82526004820152600d60248201526c105b1c9958591e481d9bdd1959609a1b6044820152fd5b506007548311156108a4565b6064906040519062461bcd60e51b82526004820152601060248201526f5368617265686f6c646572206f6e6c7960801b6044820152fd5b346101b05760003660031901126101b0576000546040516001600160a01b039091168152602090f35b346101b05760203660031901126101b057600435336000526005602052610af660ff60406000205416611ab9565b80151580610be2575b610b0890611cdd565b600019810190811161070457610b1f600491611553565b50015460ff8116610bae5763ffffffff808260081c1690808360281c1681610b478285611d16565b1680159081159384610b6d575b6060868686604051928352602083015215156040820152f35b9091929350606485029281841693840361070457610b985760609560481c1691041190848080610b54565b634e487b7160e01b600052601260045260246000fd5b60405162461bcd60e51b815260206004820152600c60248201526b5374696c6c2061637469766560a01b6044820152606490fd5b50600754811115610aff565b346101b05760203660031901126101b0576004356008548110156101b057610c17602091611a56565b905460405160039290921b1c6001600160a01b03168152f35b346101b05760003660031901126101b057610c49611a8d565b600080546001600160a01b0319811682556001600160a01b03167f8be0079c531659141344cd1fd0a4f28419497f9722a3daafe3b4186f6b6457e08280a3005b346101b05760803660031901126101b057610ca26117bb565b610caa611a43565b67ffffffffffffffff91906044358381116101b057610ccd9036906004016119ec565b506064359283116101b0576107b96107d99336906004016119ec565b346101b05760203660031901126101b0576001600160a01b03610d0a6117bb565b166000526004602052610d6b60406000208054610d79610d3c600160405194610d32866115de565b60008652016116d7565b60405194859463ffffffff60ff861615159586885260081c16602087015260a0604087015260a086019061177b565b90848203606086015261177b565b9060808301520390f35b346101b05760203660031901126101b0576001600160a01b03610da46117bb565b16600052600460205263ffffffff60406000206101ac610dc86001835493016116d7565b604051938360ff8695161515855260081c16602084015260606040840152606083019061177b565b346101b05760203660031901126101b057600435336000526005602052610e1e60ff60406000205416611ab9565b80151580610eac575b610e3090611cdd565b600019810190811161070457610e4590611553565b50600481019081549060ff82169081610e9e575b5015610e675760ff19169055005b60405162461bcd60e51b815260206004820152600f60248201526e43616e6e6f742066696e616c697a6560881b6044820152606490fd5b600391500154421183610e59565b50600754811115610e27565b346101b05760603660031901126101b05760043560ff81168091036101b05760249067ffffffffffffffff82358181116101b057610efa9036906004016119ec565b60443591336000526005602052610f1860ff60406000205416611ab9565b6007549360018501851161125e576002810361124657604b935b62015180908181029181830414901517156112315742019384421161123157604051946101008601928684108585111761121c5760ff93604052865260208601948552336040870152606086015260016080860152600060a0860152600060c08601521660e0840152600160401b8410156112075760018401600755610fb784611553565b9290926111f25760ff84511660ff19845416178355519485519182116111de5750610fe560018301546115a4565b94601f8611611197575b602095508590601f831160011461112457918060e09492600494600092611119575b50508160011b916000199060031b1c19161760018201555b6002810160018060a01b036040860151166bffffffffffffffffffffffff60a01b82541617905560608401516003820155019161107860808201511515849060ff801983541691151516179055565b60a0810151835464ffffffff00191660089190911b64ffffffff00161783556110c763ffffffff60c0830151855468ffffffff00000000001916911660281b68ffffffff000000000016178455565b015163ffffffff60481b82549160481b169063ffffffff60481b19161790556001604051918181017f8c021bdf251e11af52f22f78c42b0aee9cefd4c268bf4805004fa75792448248600080a2018152f35b015190508880611011565b9060018401600052866000209160005b601f198516811061118057509260e0949260019260049583601f19811610611167575b505050811b016001820155611029565b015160001960f88460031b161c19169055888080611157565b919288600181928685015181550194019201611134565b600183016000526020600020601f830160051c8101602084106111d7575b601f880160051c820181106111cb575050610fef565b600081556001016111b5565b50806111b5565b634e487b7160e01b60009081526041600452fd5b85634e487b7160e01b60005260006004526000fd5b84634e487b7160e01b60005260416004526000fd5b88634e487b7160e01b60005260416004526000fd5b86634e487b7160e01b60005260116004526000fd5b6001810361125757603c5b93610f32565b6032611251565b85634e487b7160e01b60005260116004526000fd5b346101b05760203660031901126101b0576004353360005260056020526112a160ff60406000205416611ab9565b8015158061134a575b6112b390611cdd565b6000198101908111610704576112ca600491611553565b50015460ff8116610bae5763ffffffff808260081c1690808360281c16816112f28285611d16565b168015908115938461131f575b608086868660405192835260208301526000604083015215156060820152f35b9091929350606485029281841693840361070457610b985760809560481c16910411908480806112ff565b506007548111156112aa565b346101b05760203660031901126101b057600435801515806113bf575b61137c90611cdd565b600019810190811161070457611393606091611553565b5063ffffffff6004600383015492015460405192835260ff81161515602084015260481c166040820152f35b50600754811115611373565b346101b05760003660031901126101b0576020600254604051908152f35b346101b05760003660031901126101b0576020600754604051908152f35b346101b05760003660031901126101b057602060ff600354166040519015158152f35b346101b05760203660031901126101b0576114436117bb565b61144b611a8d565b6001600160a01b039081166000818152600560205260409020805460ff19166001179055600854600160401b81101561039e5780600161148e9201600855611a56565b909283549160031b92831b921b1916179055600080f35b346101b05760203660031901126101b0576004356007548110156101b0576114cc90611553565b5060ff8154166114de600183016116d7565b9160018060a01b03600282015416906004600382015491015490611514604051958695865261010080602088015286019061177b565b926040850152606084015260ff81161515608084015263ffffffff90818160081c1660a0850152818160281c1660c085015260481c1660e08301520390f35b60075481101561158e576005906007600052027fa66cc928b5edb82af9bd49922954155ab7b0942694bea4ce44661d9a8736c6880190600090565b634e487b7160e01b600052603260045260246000fd5b90600182811c921680156115d4575b60208310146115be57565b634e487b7160e01b600052602260045260246000fd5b91607f16916115b3565b6020810190811067ffffffffffffffff82111761039e57604052565b90601f8019910116810190811067ffffffffffffffff82111761039e57604052565b60405190600082600191825492611632846115a4565b808452938181169081156116b55750600114611658575b50611656925003836115fa565b565b600081815291507fb10e2d527612073b26eecdfd717e6a320cf44b4afac2b0732d9fcbe2b7fa0cf65b84831061169a5750611656935050810160200138611649565b81935090816020925483858a01015201910190918592611681565b90506020925061165694915060ff191682840152151560051b82010138611649565b90604051918260008254926116eb846115a4565b9081845260019485811690816000146117585750600114611715575b5050611656925003836115fa565b9093915060005260209081600020936000915b81831061174057505061165693508201013880611707565b85548884018501529485019487945091830191611728565b91505061165694506020925060ff191682840152151560051b8201013880611707565b919082519283825260005b8481106117a7575050826000602080949584010152601f8019910116010190565b602081830181015184830182015201611786565b600435906001600160a01b03821682036101b057565b602435906001600160a01b03821682036101b057565b6024359060ff821682036101b057565b346101b0576040806003193601126101b05760048035906118166117e7565b9060009333855260209180835260ff8287205416156119b857841515806119ac575b61184190611cdd565b84865260068352818620338752835260ff828720541661197b5760001985018581116119685761187090611553565b50928184019360ff8554169081611959575b501561192b57858752600681528287203388528152828720600160ff198254161790555260ff63ffffffff809287205460081c1693166001811460001461190057506118d79261095591835460081c16611d16565b33907f8db73a250e94e9aee36ccd128ab9f11b3ba71ce8890bc991e05d09c157169b258380a380f35b600214611910575b5050506118d7565b611923926109bc91835460281c16611d16565b388080611908565b606492519162461bcd60e51b8352820152600b60248201526a43616e6e6f7420766f746560a81b6044820152fd5b60039150015442111538611882565b634e487b7160e01b875260118252602487fd5b82606492519162461bcd60e51b8352820152600d60248201526c105b1c9958591e481d9bdd1959609a1b6044820152fd5b50600754851115611838565b82606492519162461bcd60e51b8352820152601060248201526f5368617265686f6c646572206f6e6c7960801b6044820152fd5b81601f820112156101b05780359067ffffffffffffffff821161039e5760405192611a21601f8401601f1916602001856115fa565b828452602083830101116101b057816000926020809301838601378301015290565b6024359063ffffffff821682036101b057565b60085481101561158e5760086000527ff3f7a9fe364faab93b216da50a3214154f22a0a2b415b23a84c8169e8b636ee30190600090565b6000546001600160a01b03163303611aa157565b60405163118cdaa760e01b8152336004820152602490fd5b15611ac057565b60405162461bcd60e51b815260206004820152600a602482015269426f617264206f6e6c7960b01b6044820152606490fd5b60405167ffffffffffffffff949390606081018681118282101761039e5760405260019081815281602091611b818382019663ffffffff80991688526040830196875260018060a01b03169760009789895260048652611b6560408a2094511515859060ff801983541691151516179055565b51835464ffffffff001916911660081b64ffffffff0016178255565b0192518051978811611cc957611b9784546115a4565b601f8111611c83575b5081601f8911600114611bff575096809281927f284f8686dfc9d4dee2b81fc540bc31170ac37171440c4b7fc29690ed5349fb0a9798998794611bf4575b50501b916000199060031b1c19161790555b80a2565b015192503880611bde565b909791601f198316988587528287209287905b8b8210611c6c575050837f284f8686dfc9d4dee2b81fc540bc31170ac37171440c4b7fc29690ed5349fb0a98999a10611c53575b505050811b019055611bf0565b015160001960f88460031b161c19169055388080611c46565b808785968294968601518155019501930190611c12565b848652828620601f8a0160051c810191848b10611cbf575b601f0160051c019084905b828110611cb4575050611ba0565b878155018490611ca6565b9091508190611c9b565b634e487b7160e01b85526041600452602485fd5b15611ce457565b60405162461bcd60e51b815260206004820152600a602482015269125b9d985b1a5908125160b21b6044820152606490fd5b91909163ffffffff808094169116019182116107045756fea2646970667358221220daea7c1a247f63ed5a71703e9dc789d43c5d777e56fe83885cf1059a1532eaf964736f6c63430008140033","opcodes":"PUSH1 0x80 DUP1 PUSH1 0x40 MSTORE CALLVALUE PUSH2 0x10D JUMPI CALLER ISZERO PUSH2 0xF7 JUMPI PUSH1 0x0 DUP1 SLOAD PUSH1 0x1 PUSH1 0x1 PUSH1 0xA0 SHL SUB NOT DUP1 DUP3 AND CALLER SWAP1 DUP2 OR DUP5 SSTORE PUSH1 0x40 MLOAD SWAP4 SWAP2 SWAP3 PUSH1 0x1 PUSH1 0x1 PUSH1 0xA0 SHL SUB AND PUSH32 0x8BE0079C531659141344CD1FD0A4F28419497F9722A3DAAFE3B4186F6B6457E0 DUP4 DUP1 LOG3 CALLER DUP2 MSTORE PUSH1 0x5 PUSH1 0x20 MSTORE PUSH1 0x40 DUP2 KECCAK256 DUP1 SLOAD PUSH1 0xFF NOT AND PUSH1 0x1 OR SWAP1 SSTORE PUSH1 0x8 SLOAD SWAP1 PUSH9 0x10000000000000000 DUP3 LT ISZERO PUSH2 0xE3 JUMPI PUSH1 0x1 DUP3 ADD DUP1 PUSH1 0x8 SSTORE DUP3 LT ISZERO PUSH2 0xCF JUMPI PUSH1 0x8 SWAP1 MSTORE PUSH32 0xF3F7A9FE364FAAB93B216DA50A3214154F22A0A2B415B23A84C8169E8B636EE3 ADD DUP1 SLOAD SWAP1 SWAP2 AND CALLER OR SWAP1 SSTORE PUSH2 0x1D64 SWAP1 DUP2 PUSH2 0x113 DUP3 CODECOPY RETURN JUMPDEST PUSH4 0x4E487B71 PUSH1 0xE0 SHL DUP2 MSTORE PUSH1 0x32 PUSH1 0x4 MSTORE PUSH1 0x24 SWAP1 REVERT JUMPDEST PUSH4 0x4E487B71 PUSH1 0xE0 SHL DUP2 MSTORE PUSH1 0x41 PUSH1 0x4 MSTORE PUSH1 0x24 SWAP1 REVERT JUMPDEST PUSH4 0x1E4FBDF7 PUSH1 0xE0 SHL DUP2 MSTORE PUSH1 0x0 PUSH1 0x4 DUP3 ADD MSTORE PUSH1 0x24 SWAP1 REVERT JUMPDEST PUSH1 0x0 DUP1 REVERT INVALID PUSH1 0x80 PUSH1 0x40 MSTORE PUSH1 0x4 CALLDATASIZE LT ISZERO PUSH2 0x12 JUMPI PUSH1 0x0 DUP1 REVERT JUMPDEST PUSH1 0x0 CALLDATALOAD PUSH1 0xE0 SHR DUP1 PUSH4 0x13CF08B EQ PUSH2 0x14A5 JUMPI DUP1 PUSH4 0x5261AEA EQ PUSH2 0xDF0 JUMPI DUP1 PUSH4 0x10A1C573 EQ PUSH2 0x142A JUMPI DUP1 PUSH4 0x158EF93E EQ PUSH2 0x1407 JUMPI DUP1 PUSH4 0x1A5007DD EQ PUSH2 0x13E9 JUMPI DUP1 PUSH4 0x3A98EF39 EQ PUSH2 0x13CB JUMPI DUP1 PUSH4 0x401853B7 EQ PUSH2 0x1356 JUMPI DUP1 PUSH4 0x41D14C22 EQ PUSH2 0x1273 JUMPI DUP1 PUSH4 0x42F41D2A EQ PUSH2 0x5D5 JUMPI DUP1 PUSH4 0x44906B23 EQ PUSH2 0xEB8 JUMPI DUP1 PUSH4 0x5277B4AE EQ PUSH2 0x726 JUMPI DUP1 PUSH4 0x5652077C EQ PUSH2 0xDF0 JUMPI DUP1 PUSH4 0x5C2930AD EQ PUSH2 0xD83 JUMPI DUP1 PUSH4 0x5E6056BB EQ PUSH2 0xCE9 JUMPI DUP1 PUSH4 0x691E7398 EQ PUSH2 0xC89 JUMPI DUP1 PUSH4 0x715018A6 EQ PUSH2 0xC30 JUMPI DUP1 PUSH4 0x71942A01 EQ PUSH2 0x5DA JUMPI DUP1 PUSH4 0x72CEC17B EQ PUSH2 0xBEE JUMPI DUP1 PUSH4 0x81A60C0D EQ PUSH2 0xAC8 JUMPI DUP1 PUSH4 0x8DA5CB5B EQ PUSH2 0xA9F JUMPI DUP1 PUSH4 0x943E8216 EQ PUSH2 0x867 JUMPI DUP1 PUSH4 0x9F83C4B2 EQ PUSH2 0x7DB JUMPI DUP1 PUSH4 0xA23BF2D7 EQ PUSH2 0x773 JUMPI DUP1 PUSH4 0xA3317D91 EQ PUSH2 0x5D5 JUMPI DUP1 PUSH4 0xB97D3E40 EQ PUSH2 0x726 JUMPI DUP1 PUSH4 0xBC903CB8 EQ PUSH2 0x619 JUMPI DUP1 PUSH4 0xBFF13785 EQ PUSH2 0x5DA JUMPI DUP1 PUSH4 0xD098DB5A EQ PUSH2 0x5D5 JUMPI DUP1 PUSH4 0xD3CB331C EQ PUSH2 0x3B4 JUMPI DUP1 PUSH4 0xD7710D62 EQ PUSH2 0x243 JUMPI DUP1 PUSH4 0xF2FDE38B EQ PUSH2 0x1B5 JUMPI PUSH4 0xF5EC2EED EQ PUSH2 0x17C JUMPI PUSH1 0x0 DUP1 REVERT JUMPDEST CALLVALUE PUSH2 0x1B0 JUMPI PUSH1 0x0 CALLDATASIZE PUSH1 0x3 NOT ADD SLT PUSH2 0x1B0 JUMPI PUSH2 0x1AC PUSH2 0x198 PUSH2 0x161C JUMP JUMPDEST PUSH1 0x40 MLOAD SWAP2 DUP3 SWAP2 PUSH1 0x20 DUP4 MSTORE PUSH1 0x20 DUP4 ADD SWAP1 PUSH2 0x177B JUMP JUMPDEST SUB SWAP1 RETURN JUMPDEST PUSH1 0x0 DUP1 REVERT JUMPDEST CALLVALUE PUSH2 0x1B0 JUMPI PUSH1 0x20 CALLDATASIZE PUSH1 0x3 NOT ADD SLT PUSH2 0x1B0 JUMPI PUSH2 0x1CE PUSH2 0x17BB JUMP JUMPDEST PUSH2 0x1D6 PUSH2 0x1A8D JUMP JUMPDEST PUSH1 0x1 PUSH1 0x1 PUSH1 0xA0 SHL SUB SWAP1 DUP2 AND SWAP1 DUP2 ISZERO PUSH2 0x22A JUMPI PUSH1 0x0 SLOAD DUP3 PUSH12 0xFFFFFFFFFFFFFFFFFFFFFFFF PUSH1 0xA0 SHL DUP3 AND OR PUSH1 0x0 SSTORE AND PUSH32 0x8BE0079C531659141344CD1FD0A4F28419497F9722A3DAAFE3B4186F6B6457E0 PUSH1 0x0 DUP1 LOG3 STOP JUMPDEST PUSH1 0x40 MLOAD PUSH4 0x1E4FBDF7 PUSH1 0xE0 SHL DUP2 MSTORE PUSH1 0x0 PUSH1 0x4 DUP3 ADD MSTORE PUSH1 0x24 SWAP1 REVERT JUMPDEST CALLVALUE PUSH2 0x1B0 JUMPI PUSH1 0x0 CALLDATASIZE PUSH1 0x3 NOT ADD SLT PUSH2 0x1B0 JUMPI PUSH1 0x2 SLOAD PUSH2 0x25F PUSH2 0x161C JUMP JUMPDEST SWAP1 PUSH1 0x40 MLOAD SWAP1 PUSH1 0x40 DUP3 ADD DUP3 DUP2 LT PUSH8 0xFFFFFFFFFFFFFFFF DUP3 GT OR PUSH2 0x39E JUMPI DUP3 DUP5 SWAP2 PUSH1 0x40 MSTORE PUSH1 0x4 DUP2 MSTORE PUSH1 0x20 PUSH4 0x434F525 PUSH1 0xE4 SHL DUP2 DUP4 ADD MSTORE PUSH1 0x40 MLOAD SWAP2 PUSH2 0x2A0 DUP4 PUSH2 0x15DE JUMP JUMPDEST PUSH1 0x0 DUP4 MSTORE PUSH1 0x40 MLOAD SWAP3 DUP4 SWAP2 DUP4 PUSH1 0x8 SLOAD SWAP6 DUP7 DUP2 MSTORE ADD DUP1 SWAP6 PUSH1 0x8 PUSH1 0x0 MSTORE PUSH32 0xF3F7A9FE364FAAB93B216DA50A3214154F22A0A2B415B23A84C8169E8B636EE3 SWAP1 PUSH1 0x0 JUMPDEST DUP2 DUP2 LT PUSH2 0x381 JUMPI POP POP POP DUP5 SWAP3 PUSH2 0x324 DUP6 SWAP4 PUSH2 0x303 PUSH2 0x317 SWAP12 SWAP8 PUSH2 0x332 SWAP6 SUB DUP7 PUSH2 0x15FA JUMP JUMPDEST PUSH1 0x40 MLOAD SWAP11 DUP12 SWAP11 PUSH1 0xC0 DUP13 MSTORE PUSH1 0xC0 DUP13 ADD SWAP1 PUSH2 0x177B JUMP JUMPDEST SWAP1 DUP11 DUP3 SUB DUP8 DUP13 ADD MSTORE PUSH2 0x177B JUMP JUMPDEST SWAP1 DUP9 DUP3 SUB PUSH1 0x40 DUP11 ADD MSTORE PUSH2 0x177B JUMP JUMPDEST SWAP3 PUSH1 0x60 DUP8 ADD MSTORE PUSH1 0x0 PUSH1 0x80 DUP8 ADD MSTORE DUP6 DUP4 SUB PUSH1 0xA0 DUP8 ADD MSTORE MLOAD SWAP2 DUP3 DUP2 MSTORE ADD SWAP3 SWAP2 PUSH1 0x0 JUMPDEST DUP3 DUP2 LT PUSH2 0x361 JUMPI POP POP POP POP SUB SWAP1 RETURN JUMPDEST DUP4 MLOAD PUSH1 0x1 PUSH1 0x1 PUSH1 0xA0 SHL SUB AND DUP6 MSTORE DUP7 SWAP6 POP SWAP4 DUP2 ADD SWAP4 SWAP3 DUP2 ADD SWAP3 PUSH1 0x1 ADD PUSH2 0x352 JUMP JUMPDEST DUP3 SLOAD PUSH1 0x1 PUSH1 0x1 PUSH1 0xA0 SHL SUB AND DUP5 MSTORE SWAP3 DUP8 ADD SWAP3 PUSH1 0x1 SWAP3 DUP4 ADD SWAP3 ADD PUSH2 0x2DF JUMP JUMPDEST PUSH4 0x4E487B71 PUSH1 0xE0 SHL PUSH1 0x0 MSTORE PUSH1 0x41 PUSH1 0x4 MSTORE PUSH1 0x24 PUSH1 0x0 REVERT JUMPDEST CALLVALUE PUSH2 0x1B0 JUMPI PUSH1 0x40 CALLDATASIZE PUSH1 0x3 NOT ADD SLT PUSH2 0x1B0 JUMPI PUSH8 0xFFFFFFFFFFFFFFFF PUSH1 0x4 CALLDATALOAD DUP2 DUP2 GT PUSH2 0x1B0 JUMPI PUSH2 0x3E6 SWAP1 CALLDATASIZE SWAP1 PUSH1 0x4 ADD PUSH2 0x19EC JUMP JUMPDEST SWAP1 PUSH2 0x3EF PUSH2 0x1A8D JUMP JUMPDEST PUSH1 0xFF PUSH1 0x3 SLOAD AND PUSH2 0x5AA JUMPI DUP2 MLOAD SWAP1 DUP2 GT PUSH2 0x39E JUMPI PUSH1 0x1 SWAP1 PUSH2 0x40F DUP3 SLOAD PUSH2 0x15A4 JUMP JUMPDEST PUSH1 0x1F DUP2 GT PUSH2 0x543 JUMPI JUMPDEST POP PUSH1 0x20 PUSH1 0x1F DUP3 GT PUSH1 0x1 EQ PUSH2 0x49F JUMPI SWAP2 DUP2 PUSH32 0x47E87DDFD6CE04DC99962410B21A2EB6E4A8A8E9F15ECE14689B80897E714224 SWAP5 SWAP3 PUSH2 0x48F SWAP5 PUSH1 0x0 SWAP2 PUSH2 0x494 JUMPI JUMPDEST POP PUSH1 0x0 NOT PUSH1 0x3 DUP4 SWAP1 SHL SHR NOT AND SWAP1 DUP3 SHL OR DUP2 SSTORE JUMPDEST PUSH1 0x24 CALLDATALOAD PUSH1 0x2 SSTORE PUSH1 0xFF NOT PUSH1 0x3 SLOAD AND OR PUSH1 0x3 SSTORE PUSH1 0x40 MLOAD SWAP2 DUP3 SWAP2 PUSH1 0x20 DUP4 MSTORE PUSH1 0x20 DUP4 ADD SWAP1 PUSH2 0x177B JUMP JUMPDEST SUB SWAP1 LOG1 STOP JUMPDEST SWAP1 POP DUP4 ADD MLOAD DUP7 PUSH2 0x457 JUMP JUMPDEST PUSH1 0x1F NOT DUP3 AND SWAP1 DUP4 PUSH1 0x0 MSTORE PUSH32 0xB10E2D527612073B26EECDFD717E6A320CF44B4AFAC2B0732D9FCBE2B7FA0CF6 SWAP2 PUSH1 0x0 JUMPDEST DUP2 DUP2 LT PUSH2 0x52D JUMPI POP SWAP3 DUP5 SWAP3 PUSH2 0x48F SWAP6 SWAP3 DUP3 PUSH32 0x47E87DDFD6CE04DC99962410B21A2EB6E4A8A8E9F15ECE14689B80897E714224 SWAP9 SWAP7 LT PUSH2 0x514 JUMPI JUMPDEST POP POP DUP2 SHL ADD DUP2 SSTORE PUSH2 0x46A JUMP JUMPDEST DUP6 ADD MLOAD PUSH1 0x0 NOT PUSH1 0xF8 DUP5 PUSH1 0x3 SHL AND SHR NOT AND SWAP1 SSTORE DUP7 DUP1 PUSH2 0x508 JUMP JUMPDEST DUP7 DUP4 ADD MLOAD DUP5 SSTORE SWAP3 DUP6 ADD SWAP3 PUSH1 0x20 SWAP3 DUP4 ADD SWAP3 ADD PUSH2 0x4CE JUMP JUMPDEST DUP3 PUSH1 0x0 MSTORE PUSH32 0xB10E2D527612073B26EECDFD717E6A320CF44B4AFAC2B0732D9FCBE2B7FA0CF6 PUSH1 0x1F DUP4 ADD PUSH1 0x5 SHR DUP2 ADD SWAP2 PUSH1 0x20 DUP5 LT PUSH2 0x5A0 JUMPI JUMPDEST PUSH1 0x1F ADD PUSH1 0x5 SHR ADD SWAP1 DUP4 SWAP1 JUMPDEST DUP3 DUP2 LT PUSH2 0x594 JUMPI POP POP PUSH2 0x418 JUMP JUMPDEST PUSH1 0x0 DUP2 SSTORE ADD DUP4 SWAP1 PUSH2 0x586 JUMP JUMPDEST SWAP1 SWAP2 POP DUP2 SWAP1 PUSH2 0x57B JUMP JUMPDEST PUSH1 0x64 PUSH1 0x40 MLOAD PUSH3 0x461BCD PUSH1 0xE5 SHL DUP2 MSTORE PUSH1 0x20 PUSH1 0x4 DUP3 ADD MSTORE PUSH1 0x4 PUSH1 0x24 DUP3 ADD MSTORE PUSH4 0x446F6E65 PUSH1 0xE0 SHL PUSH1 0x44 DUP3 ADD MSTORE REVERT JUMPDEST PUSH2 0x17F7 JUMP JUMPDEST CALLVALUE PUSH2 0x1B0 JUMPI PUSH1 0x20 CALLDATASIZE PUSH1 0x3 NOT ADD SLT PUSH2 0x1B0 JUMPI PUSH1 0x1 PUSH1 0x1 PUSH1 0xA0 SHL SUB PUSH2 0x5FB PUSH2 0x17BB JUMP JUMPDEST AND PUSH1 0x0 MSTORE PUSH1 0x5 PUSH1 0x20 MSTORE PUSH1 0x20 PUSH1 0xFF PUSH1 0x40 PUSH1 0x0 KECCAK256 SLOAD AND PUSH1 0x40 MLOAD SWAP1 ISZERO ISZERO DUP2 MSTORE RETURN JUMPDEST CALLVALUE PUSH2 0x1B0 JUMPI PUSH1 0x20 CALLDATASIZE PUSH1 0x3 NOT ADD SLT PUSH2 0x1B0 JUMPI PUSH1 0x4 CALLDATALOAD DUP1 ISZERO ISZERO DUP1 PUSH2 0x71A JUMPI JUMPDEST PUSH2 0x63F SWAP1 PUSH2 0x1CDD JUMP JUMPDEST PUSH1 0x0 NOT DUP2 ADD DUP2 DUP2 GT PUSH2 0x704 JUMPI PUSH2 0x654 SWAP1 PUSH2 0x1553 JUMP JUMPDEST POP SWAP1 PUSH1 0xFF DUP3 SLOAD AND SWAP2 PUSH4 0xFFFFFFFF PUSH1 0x1 DUP1 PUSH1 0xA0 SHL SUB PUSH1 0x2 DUP4 ADD SLOAD AND SWAP2 PUSH1 0x3 DUP2 ADD SLOAD SWAP1 PUSH1 0x4 DUP2 ADD SLOAD SWAP2 PUSH2 0x6CF PUSH2 0x68F PUSH1 0x1 PUSH1 0xFF DUP7 AND ISZERO SWAP5 ADD PUSH2 0x16D7 JUMP JUMPDEST PUSH2 0x6C1 PUSH1 0x40 MLOAD SWAP2 PUSH2 0x69F DUP4 PUSH2 0x15DE JUMP JUMPDEST PUSH1 0x0 DUP4 MSTORE PUSH1 0x40 MLOAD SWAP11 DUP12 SWAP11 DUP12 MSTORE PUSH1 0x20 DUP12 ADD MSTORE PUSH2 0x160 DUP1 PUSH1 0x40 DUP13 ADD MSTORE DUP11 ADD SWAP1 PUSH2 0x177B JUMP JUMPDEST SWAP1 DUP9 DUP3 SUB PUSH1 0x60 DUP11 ADD MSTORE PUSH2 0x177B JUMP JUMPDEST SWAP5 PUSH1 0x80 DUP8 ADD MSTORE PUSH1 0x0 PUSH1 0xA0 DUP8 ADD MSTORE PUSH1 0xC0 DUP7 ADD MSTORE DUP1 ISZERO PUSH1 0xE0 DUP7 ADD MSTORE PUSH2 0x100 DUP6 ADD MSTORE PUSH1 0x0 PUSH2 0x120 DUP6 ADD MSTORE PUSH1 0x48 SHR AND PUSH2 0x140 DUP4 ADD MSTORE SUB SWAP1 RETURN JUMPDEST PUSH4 0x4E487B71 PUSH1 0xE0 SHL PUSH1 0x0 MSTORE PUSH1 0x11 PUSH1 0x4 MSTORE PUSH1 0x24 PUSH1 0x0 REVERT JUMPDEST POP PUSH1 0x7 SLOAD DUP2 GT ISZERO PUSH2 0x636 JUMP JUMPDEST CALLVALUE PUSH2 0x1B0 JUMPI PUSH1 0x40 CALLDATASIZE PUSH1 0x3 NOT ADD SLT PUSH2 0x1B0 JUMPI PUSH2 0x73F PUSH2 0x17D1 JUMP JUMPDEST PUSH1 0x4 CALLDATALOAD PUSH1 0x0 MSTORE PUSH1 0x6 PUSH1 0x20 MSTORE PUSH1 0x40 PUSH1 0x0 KECCAK256 SWAP1 PUSH1 0x1 DUP1 PUSH1 0xA0 SHL SUB AND PUSH1 0x0 MSTORE PUSH1 0x20 MSTORE PUSH1 0x20 PUSH1 0xFF PUSH1 0x40 PUSH1 0x0 KECCAK256 SLOAD AND PUSH1 0x40 MLOAD SWAP1 ISZERO ISZERO DUP2 MSTORE RETURN JUMPDEST CALLVALUE PUSH2 0x1B0 JUMPI PUSH1 0x60 CALLDATASIZE PUSH1 0x3 NOT ADD SLT PUSH2 0x1B0 JUMPI PUSH2 0x78C PUSH2 0x17BB JUMP JUMPDEST PUSH2 0x794 PUSH2 0x1A43 JUMP JUMPDEST SWAP1 PUSH1 0x44 CALLDATALOAD SWAP2 PUSH8 0xFFFFFFFFFFFFFFFF DUP4 GT PUSH2 0x1B0 JUMPI PUSH2 0x7B9 PUSH2 0x7D9 SWAP4 CALLDATASIZE SWAP1 PUSH1 0x4 ADD PUSH2 0x19EC JUMP JUMPDEST SWAP2 CALLER PUSH1 0x0 MSTORE PUSH1 0x5 PUSH1 0x20 MSTORE PUSH2 0x7D4 PUSH1 0xFF PUSH1 0x40 PUSH1 0x0 KECCAK256 SLOAD AND PUSH2 0x1AB9 JUMP JUMPDEST PUSH2 0x1AF2 JUMP JUMPDEST STOP JUMPDEST CALLVALUE PUSH2 0x1B0 JUMPI PUSH1 0x20 CALLDATASIZE PUSH1 0x3 NOT ADD SLT PUSH2 0x1B0 JUMPI PUSH1 0x4 CALLDATALOAD DUP1 ISZERO ISZERO DUP1 PUSH2 0x85B JUMPI JUMPDEST PUSH2 0x801 SWAP1 PUSH2 0x1CDD JUMP JUMPDEST PUSH1 0x0 NOT DUP2 ADD SWAP1 DUP2 GT PUSH2 0x704 JUMPI PUSH2 0x816 SWAP1 PUSH2 0x1553 JUMP JUMPDEST POP PUSH1 0xFF DUP2 SLOAD AND PUSH2 0x834 PUSH1 0x1 DUP1 DUP1 PUSH1 0xA0 SHL SUB PUSH1 0x2 DUP6 ADD SLOAD AND SWAP4 ADD PUSH2 0x16D7 JUMP JUMPDEST SWAP2 PUSH2 0x851 PUSH1 0x40 MLOAD SWAP4 DUP5 SWAP4 DUP5 MSTORE PUSH1 0x60 PUSH1 0x20 DUP6 ADD MSTORE PUSH1 0x60 DUP5 ADD SWAP1 PUSH2 0x177B JUMP JUMPDEST SWAP1 PUSH1 0x40 DUP4 ADD MSTORE SUB SWAP1 RETURN JUMPDEST POP PUSH1 0x7 SLOAD DUP2 GT ISZERO PUSH2 0x7F8 JUMP JUMPDEST CALLVALUE PUSH2 0x1B0 JUMPI PUSH1 0x40 CALLDATASIZE PUSH1 0x3 NOT ADD SLT PUSH2 0x1B0 JUMPI PUSH1 0x4 CALLDATALOAD PUSH2 0x883 PUSH2 0x17E7 JUMP JUMPDEST CALLER PUSH1 0x0 MSTORE PUSH1 0x20 PUSH1 0x4 DUP2 MSTORE PUSH1 0xFF PUSH1 0x40 PUSH1 0x0 KECCAK256 SLOAD AND ISZERO PUSH2 0xA68 JUMPI DUP3 ISZERO ISZERO DUP1 PUSH2 0xA5C JUMPI JUMPDEST PUSH2 0x8AD SWAP1 PUSH2 0x1CDD JUMP JUMPDEST DUP3 PUSH1 0x0 MSTORE PUSH1 0x6 DUP2 MSTORE PUSH1 0x40 PUSH1 0x0 KECCAK256 CALLER PUSH1 0x0 MSTORE DUP2 MSTORE PUSH1 0xFF PUSH1 0x40 PUSH1 0x0 KECCAK256 SLOAD AND PUSH2 0xA28 JUMPI PUSH1 0x0 NOT DUP4 ADD DUP4 DUP2 GT PUSH2 0x704 JUMPI PUSH2 0x8E2 SWAP1 PUSH2 0x1553 JUMP JUMPDEST POP SWAP1 PUSH1 0x4 DUP3 ADD SWAP2 PUSH1 0xFF DUP4 SLOAD AND SWAP1 DUP2 PUSH2 0xA19 JUMPI JUMPDEST POP ISZERO PUSH2 0x9E7 JUMPI PUSH1 0x4 SWAP1 DUP5 PUSH1 0x0 MSTORE PUSH1 0x6 DUP2 MSTORE PUSH1 0x40 PUSH1 0x0 KECCAK256 CALLER PUSH1 0x0 MSTORE DUP2 MSTORE PUSH1 0x40 PUSH1 0x0 KECCAK256 PUSH1 0x1 PUSH1 0xFF NOT DUP3 SLOAD AND OR SWAP1 SSTORE MSTORE PUSH4 0xFFFFFFFF PUSH1 0xFF DUP2 PUSH1 0x40 PUSH1 0x0 KECCAK256 SLOAD PUSH1 0x8 SHR AND SWAP4 AND PUSH1 0x1 DUP2 EQ PUSH1 0x0 EQ PUSH2 0x999 JUMPI POP PUSH2 0x970 SWAP3 PUSH2 0x955 SWAP2 DUP4 SLOAD PUSH1 0x8 SHR AND PUSH2 0x1D16 JUMP JUMPDEST PUSH5 0xFFFFFFFF00 DUP3 SLOAD SWAP2 PUSH1 0x8 SHL AND SWAP1 PUSH5 0xFFFFFFFF00 NOT AND OR SWAP1 SSTORE JUMP JUMPDEST CALLER SWAP1 PUSH32 0x8DB73A250E94E9AEE36CCD128AB9F11B3BA71CE8890BC991E05D09C157169B25 PUSH1 0x0 DUP1 LOG3 STOP JUMPDEST PUSH1 0x2 EQ PUSH2 0x9A9 JUMPI JUMPDEST POP POP POP PUSH2 0x970 JUMP JUMPDEST PUSH2 0x9DF SWAP3 PUSH2 0x9BC SWAP2 DUP4 SLOAD PUSH1 0x28 SHR AND PUSH2 0x1D16 JUMP JUMPDEST PUSH9 0xFFFFFFFF0000000000 DUP3 SLOAD SWAP2 PUSH1 0x28 SHL AND SWAP1 PUSH9 0xFFFFFFFF0000000000 NOT AND OR SWAP1 SSTORE JUMP JUMPDEST DUP2 DUP1 DUP1 PUSH2 0x9A1 JUMP JUMPDEST PUSH1 0x64 SWAP1 PUSH1 0x40 MLOAD SWAP1 PUSH3 0x461BCD PUSH1 0xE5 SHL DUP3 MSTORE PUSH1 0x4 DUP3 ADD MSTORE PUSH1 0xB PUSH1 0x24 DUP3 ADD MSTORE PUSH11 0x43616E6E6F7420766F7465 PUSH1 0xA8 SHL PUSH1 0x44 DUP3 ADD MSTORE REVERT JUMPDEST PUSH1 0x3 SWAP2 POP ADD SLOAD TIMESTAMP GT ISZERO DUP6 PUSH2 0x8F5 JUMP JUMPDEST PUSH1 0x64 SWAP1 PUSH1 0x40 MLOAD SWAP1 PUSH3 0x461BCD PUSH1 0xE5 SHL DUP3 MSTORE PUSH1 0x4 DUP3 ADD MSTORE PUSH1 0xD PUSH1 0x24 DUP3 ADD MSTORE PUSH13 0x105B1C9958591E481D9BDD1959 PUSH1 0x9A SHL PUSH1 0x44 DUP3 ADD MSTORE REVERT JUMPDEST POP PUSH1 0x7 SLOAD DUP4 GT ISZERO PUSH2 0x8A4 JUMP JUMPDEST PUSH1 0x64 SWAP1 PUSH1 0x40 MLOAD SWAP1 PUSH3 0x461BCD PUSH1 0xE5 SHL DUP3 MSTORE PUSH1 0x4 DUP3 ADD MSTORE PUSH1 0x10 PUSH1 0x24 DUP3 ADD MSTORE PUSH16 0x5368617265686F6C646572206F6E6C79 PUSH1 0x80 SHL PUSH1 0x44 DUP3 ADD MSTORE REVERT JUMPDEST CALLVALUE PUSH2 0x1B0 JUMPI PUSH1 0x0 CALLDATASIZE PUSH1 0x3 NOT ADD SLT PUSH2 0x1B0 JUMPI PUSH1 0x0 SLOAD PUSH1 0x40 MLOAD PUSH1 0x1 PUSH1 0x1 PUSH1 0xA0 SHL SUB SWAP1 SWAP2 AND DUP2 MSTORE PUSH1 0x20 SWAP1 RETURN JUMPDEST CALLVALUE PUSH2 0x1B0 JUMPI PUSH1 0x20 CALLDATASIZE PUSH1 0x3 NOT ADD SLT PUSH2 0x1B0 JUMPI PUSH1 0x4 CALLDATALOAD CALLER PUSH1 0x0 MSTORE PUSH1 0x5 PUSH1 0x20 MSTORE PUSH2 0xAF6 PUSH1 0xFF PUSH1 0x40 PUSH1 0x0 KECCAK256 SLOAD AND PUSH2 0x1AB9 JUMP JUMPDEST DUP1 ISZERO ISZERO DUP1 PUSH2 0xBE2 JUMPI JUMPDEST PUSH2 0xB08 SWAP1 PUSH2 0x1CDD JUMP JUMPDEST PUSH1 0x0 NOT DUP2 ADD SWAP1 DUP2 GT PUSH2 0x704 JUMPI PUSH2 0xB1F PUSH1 0x4 SWAP2 PUSH2 0x1553 JUMP JUMPDEST POP ADD SLOAD PUSH1 0xFF DUP2 AND PUSH2 0xBAE JUMPI PUSH4 0xFFFFFFFF DUP1 DUP3 PUSH1 0x8 SHR AND SWAP1 DUP1 DUP4 PUSH1 0x28 SHR AND DUP2 PUSH2 0xB47 DUP3 DUP6 PUSH2 0x1D16 JUMP JUMPDEST AND DUP1 ISZERO SWAP1 DUP2 ISZERO SWAP4 DUP5 PUSH2 0xB6D JUMPI JUMPDEST PUSH1 0x60 DUP7 DUP7 DUP7 PUSH1 0x40 MLOAD SWAP3 DUP4 MSTORE PUSH1 0x20 DUP4 ADD MSTORE ISZERO ISZERO PUSH1 0x40 DUP3 ADD MSTORE RETURN JUMPDEST SWAP1 SWAP2 SWAP3 SWAP4 POP PUSH1 0x64 DUP6 MUL SWAP3 DUP2 DUP5 AND SWAP4 DUP5 SUB PUSH2 0x704 JUMPI PUSH2 0xB98 JUMPI PUSH1 0x60 SWAP6 PUSH1 0x48 SHR AND SWAP2 DIV GT SWAP1 DUP5 DUP1 DUP1 PUSH2 0xB54 JUMP JUMPDEST PUSH4 0x4E487B71 PUSH1 0xE0 SHL PUSH1 0x0 MSTORE PUSH1 0x12 PUSH1 0x4 MSTORE PUSH1 0x24 PUSH1 0x0 REVERT JUMPDEST PUSH1 0x40 MLOAD PUSH3 0x461BCD PUSH1 0xE5 SHL DUP2 MSTORE PUSH1 0x20 PUSH1 0x4 DUP3 ADD MSTORE PUSH1 0xC PUSH1 0x24 DUP3 ADD MSTORE PUSH12 0x5374696C6C20616374697665 PUSH1 0xA0 SHL PUSH1 0x44 DUP3 ADD MSTORE PUSH1 0x64 SWAP1 REVERT JUMPDEST POP PUSH1 0x7 SLOAD DUP2 GT ISZERO PUSH2 0xAFF JUMP JUMPDEST CALLVALUE PUSH2 0x1B0 JUMPI PUSH1 0x20 CALLDATASIZE PUSH1 0x3 NOT ADD SLT PUSH2 0x1B0 JUMPI PUSH1 0x4 CALLDATALOAD PUSH1 0x8 SLOAD DUP2 LT ISZERO PUSH2 0x1B0 JUMPI PUSH2 0xC17 PUSH1 0x20 SWAP2 PUSH2 0x1A56 JUMP JUMPDEST SWAP1 SLOAD PUSH1 0x40 MLOAD PUSH1 0x3 SWAP3 SWAP1 SWAP3 SHL SHR PUSH1 0x1 PUSH1 0x1 PUSH1 0xA0 SHL SUB AND DUP2 MSTORE RETURN JUMPDEST CALLVALUE PUSH2 0x1B0 JUMPI PUSH1 0x0 CALLDATASIZE PUSH1 0x3 NOT ADD SLT PUSH2 0x1B0 JUMPI PUSH2 0xC49 PUSH2 0x1A8D JUMP JUMPDEST PUSH1 0x0 DUP1 SLOAD PUSH1 0x1 PUSH1 0x1 PUSH1 0xA0 SHL SUB NOT DUP2 AND DUP3 SSTORE PUSH1 0x1 PUSH1 0x1 PUSH1 0xA0 SHL SUB AND PUSH32 0x8BE0079C531659141344CD1FD0A4F28419497F9722A3DAAFE3B4186F6B6457E0 DUP3 DUP1 LOG3 STOP JUMPDEST CALLVALUE PUSH2 0x1B0 JUMPI PUSH1 0x80 CALLDATASIZE PUSH1 0x3 NOT ADD SLT PUSH2 0x1B0 JUMPI PUSH2 0xCA2 PUSH2 0x17BB JUMP JUMPDEST PUSH2 0xCAA PUSH2 0x1A43 JUMP JUMPDEST PUSH8 0xFFFFFFFFFFFFFFFF SWAP2 SWAP1 PUSH1 0x44 CALLDATALOAD DUP4 DUP2 GT PUSH2 0x1B0 JUMPI PUSH2 0xCCD SWAP1 CALLDATASIZE SWAP1 PUSH1 0x4 ADD PUSH2 0x19EC JUMP JUMPDEST POP PUSH1 0x64 CALLDATALOAD SWAP3 DUP4 GT PUSH2 0x1B0 JUMPI PUSH2 0x7B9 PUSH2 0x7D9 SWAP4 CALLDATASIZE SWAP1 PUSH1 0x4 ADD PUSH2 0x19EC JUMP JUMPDEST CALLVALUE PUSH2 0x1B0 JUMPI PUSH1 0x20 CALLDATASIZE PUSH1 0x3 NOT ADD SLT PUSH2 0x1B0 JUMPI PUSH1 0x1 PUSH1 0x1 PUSH1 0xA0 SHL SUB PUSH2 0xD0A PUSH2 0x17BB JUMP JUMPDEST AND PUSH1 0x0 MSTORE PUSH1 0x4 PUSH1 0x20 MSTORE PUSH2 0xD6B PUSH1 0x40 PUSH1 0x0 KECCAK256 DUP1 SLOAD PUSH2 0xD79 PUSH2 0xD3C PUSH1 0x1 PUSH1 0x40 MLOAD SWAP5 PUSH2 0xD32 DUP7 PUSH2 0x15DE JUMP JUMPDEST PUSH1 0x0 DUP7 MSTORE ADD PUSH2 0x16D7 JUMP JUMPDEST PUSH1 0x40 MLOAD SWAP5 DUP6 SWAP5 PUSH4 0xFFFFFFFF PUSH1 0xFF DUP7 AND ISZERO ISZERO SWAP6 DUP7 DUP9 MSTORE PUSH1 0x8 SHR AND PUSH1 0x20 DUP8 ADD MSTORE PUSH1 0xA0 PUSH1 0x40 DUP8 ADD MSTORE PUSH1 0xA0 DUP7 ADD SWAP1 PUSH2 0x177B JUMP JUMPDEST SWAP1 DUP5 DUP3 SUB PUSH1 0x60 DUP7 ADD MSTORE PUSH2 0x177B JUMP JUMPDEST SWAP1 PUSH1 0x80 DUP4 ADD MSTORE SUB SWAP1 RETURN JUMPDEST CALLVALUE PUSH2 0x1B0 JUMPI PUSH1 0x20 CALLDATASIZE PUSH1 0x3 NOT ADD SLT PUSH2 0x1B0 JUMPI PUSH1 0x1 PUSH1 0x1 PUSH1 0xA0 SHL SUB PUSH2 0xDA4 PUSH2 0x17BB JUMP JUMPDEST AND PUSH1 0x0 MSTORE PUSH1 0x4 PUSH1 0x20 MSTORE PUSH4 0xFFFFFFFF PUSH1 0x40 PUSH1 0x0 KECCAK256 PUSH2 0x1AC PUSH2 0xDC8 PUSH1 0x1 DUP4 SLOAD SWAP4 ADD PUSH2 0x16D7 JUMP JUMPDEST PUSH1 0x40 MLOAD SWAP4 DUP4 PUSH1 0xFF DUP7 SWAP6 AND ISZERO ISZERO DUP6 MSTORE PUSH1 0x8 SHR AND PUSH1 0x20 DUP5 ADD MSTORE PUSH1 0x60 PUSH1 0x40 DUP5 ADD MSTORE PUSH1 0x60 DUP4 ADD SWAP1 PUSH2 0x177B JUMP JUMPDEST CALLVALUE PUSH2 0x1B0 JUMPI PUSH1 0x20 CALLDATASIZE PUSH1 0x3 NOT ADD SLT PUSH2 0x1B0 JUMPI PUSH1 0x4 CALLDATALOAD CALLER PUSH1 0x0 MSTORE PUSH1 0x5 PUSH1 0x20 MSTORE PUSH2 0xE1E PUSH1 0xFF PUSH1 0x40 PUSH1 0x0 KECCAK256 SLOAD AND PUSH2 0x1AB9 JUMP JUMPDEST DUP1 ISZERO ISZERO DUP1 PUSH2 0xEAC JUMPI JUMPDEST PUSH2 0xE30 SWAP1 PUSH2 0x1CDD JUMP JUMPDEST PUSH1 0x0 NOT DUP2 ADD SWAP1 DUP2 GT PUSH2 0x704 JUMPI PUSH2 0xE45 SWAP1 PUSH2 0x1553 JUMP JUMPDEST POP PUSH1 0x4 DUP2 ADD SWAP1 DUP2 SLOAD SWAP1 PUSH1 0xFF DUP3 AND SWAP1 DUP2 PUSH2 0xE9E JUMPI JUMPDEST POP ISZERO PUSH2 0xE67 JUMPI PUSH1 0xFF NOT AND SWAP1 SSTORE STOP JUMPDEST PUSH1 0x40 MLOAD PUSH3 0x461BCD PUSH1 0xE5 SHL DUP2 MSTORE PUSH1 0x20 PUSH1 0x4 DUP3 ADD MSTORE PUSH1 0xF PUSH1 0x24 DUP3 ADD MSTORE PUSH15 0x43616E6E6F742066696E616C697A65 PUSH1 0x88 SHL PUSH1 0x44 DUP3 ADD MSTORE PUSH1 0x64 SWAP1 REVERT JUMPDEST PUSH1 0x3 SWAP2 POP ADD SLOAD TIMESTAMP GT DUP4 PUSH2 0xE59 JUMP JUMPDEST POP PUSH1 0x7 SLOAD DUP2 GT ISZERO PUSH2 0xE27 JUMP JUMPDEST CALLVALUE PUSH2 0x1B0 JUMPI PUSH1 0x60 CALLDATASIZE PUSH1 0x3 NOT ADD SLT PUSH2 0x1B0 JUMPI PUSH1 0x4 CALLDATALOAD PUSH1 0xFF DUP2 AND DUP1 SWAP2 SUB PUSH2 0x1B0 JUMPI PUSH1 0x24 SWAP1 PUSH8 0xFFFFFFFFFFFFFFFF DUP3 CALLDATALOAD DUP2 DUP2 GT PUSH2 0x1B0 JUMPI PUSH2 0xEFA SWAP1 CALLDATASIZE SWAP1 PUSH1 0x4 ADD PUSH2 0x19EC JUMP JUMPDEST PUSH1 0x44 CALLDATALOAD SWAP2 CALLER PUSH1 0x0 MSTORE PUSH1 0x5 PUSH1 0x20 MSTORE PUSH2 0xF18 PUSH1 0xFF PUSH1 0x40 PUSH1 0x0 KECCAK256 SLOAD AND PUSH2 0x1AB9 JUMP JUMPDEST PUSH1 0x7 SLOAD SWAP4 PUSH1 0x1 DUP6 ADD DUP6 GT PUSH2 0x125E JUMPI PUSH1 0x2 DUP2 SUB PUSH2 0x1246 JUMPI PUSH1 0x4B SWAP4 JUMPDEST PUSH3 0x15180 SWAP1 DUP2 DUP2 MUL SWAP2 DUP2 DUP4 DIV EQ SWAP1 ISZERO OR ISZERO PUSH2 0x1231 JUMPI TIMESTAMP ADD SWAP4 DUP5 TIMESTAMP GT PUSH2 0x1231 JUMPI PUSH1 0x40 MLOAD SWAP5 PUSH2 0x100 DUP7 ADD SWAP3 DUP7 DUP5 LT DUP6 DUP6 GT OR PUSH2 0x121C JUMPI PUSH1 0xFF SWAP4 PUSH1 0x40 MSTORE DUP7 MSTORE PUSH1 0x20 DUP7 ADD SWAP5 DUP6 MSTORE CALLER PUSH1 0x40 DUP8 ADD MSTORE PUSH1 0x60 DUP7 ADD MSTORE PUSH1 0x1 PUSH1 0x80 DUP7 ADD MSTORE PUSH1 0x0 PUSH1 0xA0 DUP7 ADD MSTORE PUSH1 0x0 PUSH1 0xC0 DUP7 ADD MSTORE AND PUSH1 0xE0 DUP5 ADD MSTORE PUSH1 0x1 PUSH1 0x40 SHL DUP5 LT ISZERO PUSH2 0x1207 JUMPI PUSH1 0x1 DUP5 ADD PUSH1 0x7 SSTORE PUSH2 0xFB7 DUP5 PUSH2 0x1553 JUMP JUMPDEST SWAP3 SWAP1 SWAP3 PUSH2 0x11F2 JUMPI PUSH1 0xFF DUP5 MLOAD AND PUSH1 0xFF NOT DUP5 SLOAD AND OR DUP4 SSTORE MLOAD SWAP5 DUP6 MLOAD SWAP2 DUP3 GT PUSH2 0x11DE JUMPI POP PUSH2 0xFE5 PUSH1 0x1 DUP4 ADD SLOAD PUSH2 0x15A4 JUMP JUMPDEST SWAP5 PUSH1 0x1F DUP7 GT PUSH2 0x1197 JUMPI JUMPDEST PUSH1 0x20 SWAP6 POP DUP6 SWAP1 PUSH1 0x1F DUP4 GT PUSH1 0x1 EQ PUSH2 0x1124 JUMPI SWAP2 DUP1 PUSH1 0xE0 SWAP5 SWAP3 PUSH1 0x4 SWAP5 PUSH1 0x0 SWAP3 PUSH2 0x1119 JUMPI JUMPDEST POP POP DUP2 PUSH1 0x1 SHL SWAP2 PUSH1 0x0 NOT SWAP1 PUSH1 0x3 SHL SHR NOT AND OR PUSH1 0x1 DUP3 ADD SSTORE JUMPDEST PUSH1 0x2 DUP2 ADD PUSH1 0x1 DUP1 PUSH1 0xA0 SHL SUB PUSH1 0x40 DUP7 ADD MLOAD AND PUSH12 0xFFFFFFFFFFFFFFFFFFFFFFFF PUSH1 0xA0 SHL DUP3 SLOAD AND OR SWAP1 SSTORE PUSH1 0x60 DUP5 ADD MLOAD PUSH1 0x3 DUP3 ADD SSTORE ADD SWAP2 PUSH2 0x1078 PUSH1 0x80 DUP3 ADD MLOAD ISZERO ISZERO DUP5 SWAP1 PUSH1 0xFF DUP1 NOT DUP4 SLOAD AND SWAP2 ISZERO ISZERO AND OR SWAP1 SSTORE JUMP JUMPDEST PUSH1 0xA0 DUP2 ADD MLOAD DUP4 SLOAD PUSH5 0xFFFFFFFF00 NOT AND PUSH1 0x8 SWAP2 SWAP1 SWAP2 SHL PUSH5 0xFFFFFFFF00 AND OR DUP4 SSTORE PUSH2 0x10C7 PUSH4 0xFFFFFFFF PUSH1 0xC0 DUP4 ADD MLOAD DUP6 SLOAD PUSH9 0xFFFFFFFF0000000000 NOT AND SWAP2 AND PUSH1 0x28 SHL PUSH9 0xFFFFFFFF0000000000 AND OR DUP5 SSTORE JUMP JUMPDEST ADD MLOAD PUSH4 0xFFFFFFFF PUSH1 0x48 SHL DUP3 SLOAD SWAP2 PUSH1 0x48 SHL AND SWAP1 PUSH4 0xFFFFFFFF PUSH1 0x48 SHL NOT AND OR SWAP1 SSTORE PUSH1 0x1 PUSH1 0x40 MLOAD SWAP2 DUP2 DUP2 ADD PUSH32 0x8C021BDF251E11AF52F22F78C42B0AEE9CEFD4C268BF4805004FA75792448248 PUSH1 0x0 DUP1 LOG2 ADD DUP2 MSTORE RETURN JUMPDEST ADD MLOAD SWAP1 POP DUP9 DUP1 PUSH2 0x1011 JUMP JUMPDEST SWAP1 PUSH1 0x1 DUP5 ADD PUSH1 0x0 MSTORE DUP7 PUSH1 0x0 KECCAK256 SWAP2 PUSH1 0x0 JUMPDEST PUSH1 0x1F NOT DUP6 AND DUP2 LT PUSH2 0x1180 JUMPI POP SWAP3 PUSH1 0xE0 SWAP5 SWAP3 PUSH1 0x1 SWAP3 PUSH1 0x4 SWAP6 DUP4 PUSH1 0x1F NOT DUP2 AND LT PUSH2 0x1167 JUMPI JUMPDEST POP POP POP DUP2 SHL ADD PUSH1 0x1 DUP3 ADD SSTORE PUSH2 0x1029 JUMP JUMPDEST ADD MLOAD PUSH1 0x0 NOT PUSH1 0xF8 DUP5 PUSH1 0x3 SHL AND SHR NOT AND SWAP1 SSTORE DUP9 DUP1 DUP1 PUSH2 0x1157 JUMP JUMPDEST SWAP2 SWAP3 DUP9 PUSH1 0x1 DUP2 SWAP3 DUP7 DUP6 ADD MLOAD DUP2 SSTORE ADD SWAP5 ADD SWAP3 ADD PUSH2 0x1134 JUMP JUMPDEST PUSH1 0x1 DUP4 ADD PUSH1 0x0 MSTORE PUSH1 0x20 PUSH1 0x0 KECCAK256 PUSH1 0x1F DUP4 ADD PUSH1 0x5 SHR DUP2 ADD PUSH1 0x20 DUP5 LT PUSH2 0x11D7 JUMPI JUMPDEST PUSH1 0x1F DUP9 ADD PUSH1 0x5 SHR DUP3 ADD DUP2 LT PUSH2 0x11CB JUMPI POP POP PUSH2 0xFEF JUMP JUMPDEST PUSH1 0x0 DUP2 SSTORE PUSH1 0x1 ADD PUSH2 0x11B5 JUMP JUMPDEST POP DUP1 PUSH2 0x11B5 JUMP JUMPDEST PUSH4 0x4E487B71 PUSH1 0xE0 SHL PUSH1 0x0 SWAP1 DUP2 MSTORE PUSH1 0x41 PUSH1 0x4 MSTORE REVERT JUMPDEST DUP6 PUSH4 0x4E487B71 PUSH1 0xE0 SHL PUSH1 0x0 MSTORE PUSH1 0x0 PUSH1 0x4 MSTORE PUSH1 0x0 REVERT JUMPDEST DUP5 PUSH4 0x4E487B71 PUSH1 0xE0 SHL PUSH1 0x0 MSTORE PUSH1 0x41 PUSH1 0x4 MSTORE PUSH1 0x0 REVERT JUMPDEST DUP9 PUSH4 0x4E487B71 PUSH1 0xE0 SHL PUSH1 0x0 MSTORE PUSH1 0x41 PUSH1 0x4 MSTORE PUSH1 0x0 REVERT JUMPDEST DUP7 PUSH4 0x4E487B71 PUSH1 0xE0 SHL PUSH1 0x0 MSTORE PUSH1 0x11 PUSH1 0x4 MSTORE PUSH1 0x0 REVERT JUMPDEST PUSH1 0x1 DUP2 SUB PUSH2 0x1257 JUMPI PUSH1 0x3C JUMPDEST SWAP4 PUSH2 0xF32 JUMP JUMPDEST PUSH1 0x32 PUSH2 0x1251 JUMP JUMPDEST DUP6 PUSH4 0x4E487B71 PUSH1 0xE0 SHL PUSH1 0x0 MSTORE PUSH1 0x11 PUSH1 0x4 MSTORE PUSH1 0x0 REVERT JUMPDEST CALLVALUE PUSH2 0x1B0 JUMPI PUSH1 0x20 CALLDATASIZE PUSH1 0x3 NOT ADD SLT PUSH2 0x1B0 JUMPI PUSH1 0x4 CALLDATALOAD CALLER PUSH1 0x0 MSTORE PUSH1 0x5 PUSH1 0x20 MSTORE PUSH2 0x12A1 PUSH1 0xFF PUSH1 0x40 PUSH1 0x0 KECCAK256 SLOAD AND PUSH2 0x1AB9 JUMP JUMPDEST DUP1 ISZERO ISZERO DUP1 PUSH2 0x134A JUMPI JUMPDEST PUSH2 0x12B3 SWAP1 PUSH2 0x1CDD JUMP JUMPDEST PUSH1 0x0 NOT DUP2 ADD SWAP1 DUP2 GT PUSH2 0x704 JUMPI PUSH2 0x12CA PUSH1 0x4 SWAP2 PUSH2 0x1553 JUMP JUMPDEST POP ADD SLOAD PUSH1 0xFF DUP2 AND PUSH2 0xBAE JUMPI PUSH4 0xFFFFFFFF DUP1 DUP3 PUSH1 0x8 SHR AND SWAP1 DUP1 DUP4 PUSH1 0x28 SHR AND DUP2 PUSH2 0x12F2 DUP3 DUP6 PUSH2 0x1D16 JUMP JUMPDEST AND DUP1 ISZERO SWAP1 DUP2 ISZERO SWAP4 DUP5 PUSH2 0x131F JUMPI JUMPDEST PUSH1 0x80 DUP7 DUP7 DUP7 PUSH1 0x40 MLOAD SWAP3 DUP4 MSTORE PUSH1 0x20 DUP4 ADD MSTORE PUSH1 0x0 PUSH1 0x40 DUP4 ADD MSTORE ISZERO ISZERO PUSH1 0x60 DUP3 ADD MSTORE RETURN JUMPDEST SWAP1 SWAP2 SWAP3 SWAP4 POP PUSH1 0x64 DUP6 MUL SWAP3 DUP2 DUP5 AND SWAP4 DUP5 SUB PUSH2 0x704 JUMPI PUSH2 0xB98 JUMPI PUSH1 0x80 SWAP6 PUSH1 0x48 SHR AND SWAP2 DIV GT SWAP1 DUP5 DUP1 DUP1 PUSH2 0x12FF JUMP JUMPDEST POP PUSH1 0x7 SLOAD DUP2 GT ISZERO PUSH2 0x12AA JUMP JUMPDEST CALLVALUE PUSH2 0x1B0 JUMPI PUSH1 0x20 CALLDATASIZE PUSH1 0x3 NOT ADD SLT PUSH2 0x1B0 JUMPI PUSH1 0x4 CALLDATALOAD DUP1 ISZERO ISZERO DUP1 PUSH2 0x13BF JUMPI JUMPDEST PUSH2 0x137C SWAP1 PUSH2 0x1CDD JUMP JUMPDEST PUSH1 0x0 NOT DUP2 ADD SWAP1 DUP2 GT PUSH2 0x704 JUMPI PUSH2 0x1393 PUSH1 0x60 SWAP2 PUSH2 0x1553 JUMP JUMPDEST POP PUSH4 0xFFFFFFFF PUSH1 0x4 PUSH1 0x3 DUP4 ADD SLOAD SWAP3 ADD SLOAD PUSH1 0x40 MLOAD SWAP3 DUP4 MSTORE PUSH1 0xFF DUP2 AND ISZERO ISZERO PUSH1 0x20 DUP5 ADD MSTORE PUSH1 0x48 SHR AND PUSH1 0x40 DUP3 ADD MSTORE RETURN JUMPDEST POP PUSH1 0x7 SLOAD DUP2 GT ISZERO PUSH2 0x1373 JUMP JUMPDEST CALLVALUE PUSH2 0x1B0 JUMPI PUSH1 0x0 CALLDATASIZE PUSH1 0x3 NOT ADD SLT PUSH2 0x1B0 JUMPI PUSH1 0x20 PUSH1 0x2 SLOAD PUSH1 0x40 MLOAD SWAP1 DUP2 MSTORE RETURN JUMPDEST CALLVALUE PUSH2 0x1B0 JUMPI PUSH1 0x0 CALLDATASIZE PUSH1 0x3 NOT ADD SLT PUSH2 0x1B0 JUMPI PUSH1 0x20 PUSH1 0x7 SLOAD PUSH1 0x40 MLOAD SWAP1 DUP2 MSTORE RETURN JUMPDEST CALLVALUE PUSH2 0x1B0 JUMPI PUSH1 0x0 CALLDATASIZE PUSH1 0x3 NOT ADD SLT PUSH2 0x1B0 JUMPI PUSH1 0x20 PUSH1 0xFF PUSH1 0x3 SLOAD AND PUSH1 0x40 MLOAD SWAP1 ISZERO ISZERO DUP2 MSTORE RETURN JUMPDEST CALLVALUE PUSH2 0x1B0 JUMPI PUSH1 0x20 CALLDATASIZE PUSH1 0x3 NOT ADD SLT PUSH2 0x1B0 JUMPI PUSH2 0x1443 PUSH2 0x17BB JUMP JUMPDEST PUSH2 0x144B PUSH2 0x1A8D JUMP JUMPDEST PUSH1 0x1 PUSH1 0x1 PUSH1 0xA0 SHL SUB SWAP1 DUP2 AND PUSH1 0x0 DUP2 DUP2 MSTORE PUSH1 0x5 PUSH1 0x20 MSTORE PUSH1 0x40 SWAP1 KECCAK256 DUP1 SLOAD PUSH1 0xFF NOT AND PUSH1 0x1 OR SWAP1 SSTORE PUSH1 0x8 SLOAD PUSH1 0x1 PUSH1 0x40 SHL DUP2 LT ISZERO PUSH2 0x39E JUMPI DUP1 PUSH1 0x1 PUSH2 0x148E SWAP3 ADD PUSH1 0x8 SSTORE PUSH2 0x1A56 JUMP JUMPDEST SWAP1 SWAP3 DUP4 SLOAD SWAP2 PUSH1 0x3 SHL SWAP3 DUP4 SHL SWAP3 SHL NOT AND OR SWAP1 SSTORE PUSH1 0x0 DUP1 RETURN JUMPDEST CALLVALUE PUSH2 0x1B0 JUMPI PUSH1 0x20 CALLDATASIZE PUSH1 0x3 NOT ADD SLT PUSH2 0x1B0 JUMPI PUSH1 0x4 CALLDATALOAD PUSH1 0x7 SLOAD DUP2 LT ISZERO PUSH2 0x1B0 JUMPI PUSH2 0x14CC SWAP1 PUSH2 0x1553 JUMP JUMPDEST POP PUSH1 0xFF DUP2 SLOAD AND PUSH2 0x14DE PUSH1 0x1 DUP4 ADD PUSH2 0x16D7 JUMP JUMPDEST SWAP2 PUSH1 0x1 DUP1 PUSH1 0xA0 SHL SUB PUSH1 0x2 DUP3 ADD SLOAD AND SWAP1 PUSH1 0x4 PUSH1 0x3 DUP3 ADD SLOAD SWAP2 ADD SLOAD SWAP1 PUSH2 0x1514 PUSH1 0x40 MLOAD SWAP6 DUP7 SWAP6 DUP7 MSTORE PUSH2 0x100 DUP1 PUSH1 0x20 DUP9 ADD MSTORE DUP7 ADD SWAP1 PUSH2 0x177B JUMP JUMPDEST SWAP3 PUSH1 0x40 DUP6 ADD MSTORE PUSH1 0x60 DUP5 ADD MSTORE PUSH1 0xFF DUP2 AND ISZERO ISZERO PUSH1 0x80 DUP5 ADD MSTORE PUSH4 0xFFFFFFFF SWAP1 DUP2 DUP2 PUSH1 0x8 SHR AND PUSH1 0xA0 DUP6 ADD MSTORE DUP2 DUP2 PUSH1 0x28 SHR AND PUSH1 0xC0 DUP6 ADD MSTORE PUSH1 0x48 SHR AND PUSH1 0xE0 DUP4 ADD MSTORE SUB SWAP1 RETURN JUMPDEST PUSH1 0x7 SLOAD DUP2 LT ISZERO PUSH2 0x158E JUMPI PUSH1 0x5 SWAP1 PUSH1 0x7 PUSH1 0x0 MSTORE MUL PUSH32 0xA66CC928B5EDB82AF9BD49922954155AB7B0942694BEA4CE44661D9A8736C688 ADD SWAP1 PUSH1 0x0 SWAP1 JUMP JUMPDEST PUSH4 0x4E487B71 PUSH1 0xE0 SHL PUSH1 0x0 MSTORE PUSH1 0x32 PUSH1 0x4 MSTORE PUSH1 0x24 PUSH1 0x0 REVERT JUMPDEST SWAP1 PUSH1 0x1 DUP3 DUP2 SHR SWAP3 AND DUP1 ISZERO PUSH2 0x15D4 JUMPI JUMPDEST PUSH1 0x20 DUP4 LT EQ PUSH2 0x15BE JUMPI JUMP JUMPDEST PUSH4 0x4E487B71 PUSH1 0xE0 SHL PUSH1 0x0 MSTORE PUSH1 0x22 PUSH1 0x4 MSTORE PUSH1 0x24 PUSH1 0x0 REVERT JUMPDEST SWAP2 PUSH1 0x7F AND SWAP2 PUSH2 0x15B3 JUMP JUMPDEST PUSH1 0x20 DUP2 ADD SWAP1 DUP2 LT PUSH8 0xFFFFFFFFFFFFFFFF DUP3 GT OR PUSH2 0x39E JUMPI PUSH1 0x40 MSTORE JUMP JUMPDEST SWAP1 PUSH1 0x1F DUP1 NOT SWAP2 ADD AND DUP2 ADD SWAP1 DUP2 LT PUSH8 0xFFFFFFFFFFFFFFFF DUP3 GT OR PUSH2 0x39E JUMPI PUSH1 0x40 MSTORE JUMP JUMPDEST PUSH1 0x40 MLOAD SWAP1 PUSH1 0x0 DUP3 PUSH1 0x1 SWAP2 DUP3 SLOAD SWAP3 PUSH2 0x1632 DUP5 PUSH2 0x15A4 JUMP JUMPDEST DUP1 DUP5 MSTORE SWAP4 DUP2 DUP2 AND SWAP1 DUP2 ISZERO PUSH2 0x16B5 JUMPI POP PUSH1 0x1 EQ PUSH2 0x1658 JUMPI JUMPDEST POP PUSH2 0x1656 SWAP3 POP SUB DUP4 PUSH2 0x15FA JUMP JUMPDEST JUMP JUMPDEST PUSH1 0x0 DUP2 DUP2 MSTORE SWAP2 POP PUSH32 0xB10E2D527612073B26EECDFD717E6A320CF44B4AFAC2B0732D9FCBE2B7FA0CF6 JUMPDEST DUP5 DUP4 LT PUSH2 0x169A JUMPI POP PUSH2 0x1656 SWAP4 POP POP DUP2 ADD PUSH1 0x20 ADD CODESIZE PUSH2 0x1649 JUMP JUMPDEST DUP2 SWAP4 POP SWAP1 DUP2 PUSH1 0x20 SWAP3 SLOAD DUP4 DUP6 DUP11 ADD ADD MSTORE ADD SWAP2 ADD SWAP1 SWAP2 DUP6 SWAP3 PUSH2 0x1681 JUMP JUMPDEST SWAP1 POP PUSH1 0x20 SWAP3 POP PUSH2 0x1656 SWAP5 SWAP2 POP PUSH1 0xFF NOT AND DUP3 DUP5 ADD MSTORE ISZERO ISZERO PUSH1 0x5 SHL DUP3 ADD ADD CODESIZE PUSH2 0x1649 JUMP JUMPDEST SWAP1 PUSH1 0x40 MLOAD SWAP2 DUP3 PUSH1 0x0 DUP3 SLOAD SWAP3 PUSH2 0x16EB DUP5 PUSH2 0x15A4 JUMP JUMPDEST SWAP1 DUP2 DUP5 MSTORE PUSH1 0x1 SWAP5 DUP6 DUP2 AND SWAP1 DUP2 PUSH1 0x0 EQ PUSH2 0x1758 JUMPI POP PUSH1 0x1 EQ PUSH2 0x1715 JUMPI JUMPDEST POP POP PUSH2 0x1656 SWAP3 POP SUB DUP4 PUSH2 0x15FA JUMP JUMPDEST SWAP1 SWAP4 SWAP2 POP PUSH1 0x0 MSTORE PUSH1 0x20 SWAP1 DUP2 PUSH1 0x0 KECCAK256 SWAP4 PUSH1 0x0 SWAP2 JUMPDEST DUP2 DUP4 LT PUSH2 0x1740 JUMPI POP POP PUSH2 0x1656 SWAP4 POP DUP3 ADD ADD CODESIZE DUP1 PUSH2 0x1707 JUMP JUMPDEST DUP6 SLOAD DUP9 DUP5 ADD DUP6 ADD MSTORE SWAP5 DUP6 ADD SWAP5 DUP8 SWAP5 POP SWAP2 DUP4 ADD SWAP2 PUSH2 0x1728 JUMP JUMPDEST SWAP2 POP POP PUSH2 0x1656 SWAP5 POP PUSH1 0x20 SWAP3 POP PUSH1 0xFF NOT AND DUP3 DUP5 ADD MSTORE ISZERO ISZERO PUSH1 0x5 SHL DUP3 ADD ADD CODESIZE DUP1 PUSH2 0x1707 JUMP JUMPDEST SWAP2 SWAP1 DUP3 MLOAD SWAP3 DUP4 DUP3 MSTORE PUSH1 0x0 JUMPDEST DUP5 DUP2 LT PUSH2 0x17A7 JUMPI POP POP DUP3 PUSH1 0x0 PUSH1 0x20 DUP1 SWAP5 SWAP6 DUP5 ADD ADD MSTORE PUSH1 0x1F DUP1 NOT SWAP2 ADD AND ADD ADD SWAP1 JUMP JUMPDEST PUSH1 0x20 DUP2 DUP4 ADD DUP2 ADD MLOAD DUP5 DUP4 ADD DUP3 ADD MSTORE ADD PUSH2 0x1786 JUMP JUMPDEST PUSH1 0x4 CALLDATALOAD SWAP1 PUSH1 0x1 PUSH1 0x1 PUSH1 0xA0 SHL SUB DUP3 AND DUP3 SUB PUSH2 0x1B0 JUMPI JUMP JUMPDEST PUSH1 0x24 CALLDATALOAD SWAP1 PUSH1 0x1 PUSH1 0x1 PUSH1 0xA0 SHL SUB DUP3 AND DUP3 SUB PUSH2 0x1B0 JUMPI JUMP JUMPDEST PUSH1 0x24 CALLDATALOAD SWAP1 PUSH1 0xFF DUP3 AND DUP3 SUB PUSH2 0x1B0 JUMPI JUMP JUMPDEST CALLVALUE PUSH2 0x1B0 JUMPI PUSH1 0x40 DUP1 PUSH1 0x3 NOT CALLDATASIZE ADD SLT PUSH2 0x1B0 JUMPI PUSH1 0x4 DUP1 CALLDATALOAD SWAP1 PUSH2 0x1816 PUSH2 0x17E7 JUMP JUMPDEST SWAP1 PUSH1 0x0 SWAP4 CALLER DUP6 MSTORE PUSH1 0x20 SWAP2 DUP1 DUP4 MSTORE PUSH1 0xFF DUP3 DUP8 KECCAK256 SLOAD AND ISZERO PUSH2 0x19B8 JUMPI DUP5 ISZERO ISZERO DUP1 PUSH2 0x19AC JUMPI JUMPDEST PUSH2 0x1841 SWAP1 PUSH2 0x1CDD JUMP JUMPDEST DUP5 DUP7 MSTORE PUSH1 0x6 DUP4 MSTORE DUP2 DUP7 KECCAK256 CALLER DUP8 MSTORE DUP4 MSTORE PUSH1 0xFF DUP3 DUP8 KECCAK256 SLOAD AND PUSH2 0x197B JUMPI PUSH1 0x0 NOT DUP6 ADD DUP6 DUP2 GT PUSH2 0x1968 JUMPI PUSH2 0x1870 SWAP1 PUSH2 0x1553 JUMP JUMPDEST POP SWAP3 DUP2 DUP5 ADD SWAP4 PUSH1 0xFF DUP6 SLOAD AND SWAP1 DUP2 PUSH2 0x1959 JUMPI JUMPDEST POP ISZERO PUSH2 0x192B JUMPI DUP6 DUP8 MSTORE PUSH1 0x6 DUP2 MSTORE DUP3 DUP8 KECCAK256 CALLER DUP9 MSTORE DUP2 MSTORE DUP3 DUP8 KECCAK256 PUSH1 0x1 PUSH1 0xFF NOT DUP3 SLOAD AND OR SWAP1 SSTORE MSTORE PUSH1 0xFF PUSH4 0xFFFFFFFF DUP1 SWAP3 DUP8 KECCAK256 SLOAD PUSH1 0x8 SHR AND SWAP4 AND PUSH1 0x1 DUP2 EQ PUSH1 0x0 EQ PUSH2 0x1900 JUMPI POP PUSH2 0x18D7 SWAP3 PUSH2 0x955 SWAP2 DUP4 SLOAD PUSH1 0x8 SHR AND PUSH2 0x1D16 JUMP JUMPDEST CALLER SWAP1 PUSH32 0x8DB73A250E94E9AEE36CCD128AB9F11B3BA71CE8890BC991E05D09C157169B25 DUP4 DUP1 LOG3 DUP1 RETURN JUMPDEST PUSH1 0x2 EQ PUSH2 0x1910 JUMPI JUMPDEST POP POP POP PUSH2 0x18D7 JUMP JUMPDEST PUSH2 0x1923 SWAP3 PUSH2 0x9BC SWAP2 DUP4 SLOAD PUSH1 0x28 SHR AND PUSH2 0x1D16 JUMP JUMPDEST CODESIZE DUP1 DUP1 PUSH2 0x1908 JUMP JUMPDEST PUSH1 0x64 SWAP3 MLOAD SWAP2 PUSH3 0x461BCD PUSH1 0xE5 SHL DUP4 MSTORE DUP3 ADD MSTORE PUSH1 0xB PUSH1 0x24 DUP3 ADD MSTORE PUSH11 0x43616E6E6F7420766F7465 PUSH1 0xA8 SHL PUSH1 0x44 DUP3 ADD MSTORE REVERT JUMPDEST PUSH1 0x3 SWAP2 POP ADD SLOAD TIMESTAMP GT ISZERO CODESIZE PUSH2 0x1882 JUMP JUMPDEST PUSH4 0x4E487B71 PUSH1 0xE0 SHL DUP8 MSTORE PUSH1 0x11 DUP3 MSTORE PUSH1 0x24 DUP8 REVERT JUMPDEST DUP3 PUSH1 0x64 SWAP3 MLOAD SWAP2 PUSH3 0x461BCD PUSH1 0xE5 SHL DUP4 MSTORE DUP3 ADD MSTORE PUSH1 0xD PUSH1 0x24 DUP3 ADD MSTORE PUSH13 0x105B1C9958591E481D9BDD1959 PUSH1 0x9A SHL PUSH1 0x44 DUP3 ADD MSTORE REVERT JUMPDEST POP PUSH1 0x7 SLOAD DUP6 GT ISZERO PUSH2 0x1838 JUMP JUMPDEST DUP3 PUSH1 0x64 SWAP3 MLOAD SWAP2 PUSH3 0x461BCD PUSH1 0xE5 SHL DUP4 MSTORE DUP3 ADD MSTORE PUSH1 0x10 PUSH1 0x24 DUP3 ADD MSTORE PUSH16 0x5368617265686F6C646572206F6E6C79 PUSH1 0x80 SHL PUSH1 0x44 DUP3 ADD MSTORE REVERT JUMPDEST DUP2 PUSH1 0x1F DUP3 ADD SLT ISZERO PUSH2 0x1B0 JUMPI DUP1 CALLDATALOAD SWAP1 PUSH8 0xFFFFFFFFFFFFFFFF DUP3 GT PUSH2 0x39E JUMPI PUSH1 0x40 MLOAD SWAP3 PUSH2 0x1A21 PUSH1 0x1F DUP5 ADD PUSH1 0x1F NOT AND PUSH1 0x20 ADD DUP6 PUSH2 0x15FA JUMP JUMPDEST DUP3 DUP5 MSTORE PUSH1 0x20 DUP4 DUP4 ADD ADD GT PUSH2 0x1B0 JUMPI DUP2 PUSH1 0x0 SWAP3 PUSH1 0x20 DUP1 SWAP4 ADD DUP4 DUP7 ADD CALLDATACOPY DUP4 ADD ADD MSTORE SWAP1 JUMP JUMPDEST PUSH1 0x24 CALLDATALOAD SWAP1 PUSH4 0xFFFFFFFF DUP3 AND DUP3 SUB PUSH2 0x1B0 JUMPI JUMP JUMPDEST PUSH1 0x8 SLOAD DUP2 LT ISZERO PUSH2 0x158E JUMPI PUSH1 0x8 PUSH1 0x0 MSTORE PUSH32 0xF3F7A9FE364FAAB93B216DA50A3214154F22A0A2B415B23A84C8169E8B636EE3 ADD SWAP1 PUSH1 0x0 SWAP1 JUMP JUMPDEST PUSH1 0x0 SLOAD PUSH1 0x1 PUSH1 0x1 PUSH1 0xA0 SHL SUB AND CALLER SUB PUSH2 0x1AA1 JUMPI JUMP JUMPDEST PUSH1 0x40 MLOAD PUSH4 0x118CDAA7 PUSH1 0xE0 SHL DUP2 MSTORE CALLER PUSH1 0x4 DUP3 ADD MSTORE PUSH1 0x24 SWAP1 REVERT JUMPDEST ISZERO PUSH2 0x1AC0 JUMPI JUMP JUMPDEST PUSH1 0x40 MLOAD PUSH3 0x461BCD PUSH1 0xE5 SHL DUP2 MSTORE PUSH1 0x20 PUSH1 0x4 DUP3 ADD MSTORE PUSH1 0xA PUSH1 0x24 DUP3 ADD MSTORE PUSH10 0x426F617264206F6E6C79 PUSH1 0xB0 SHL PUSH1 0x44 DUP3 ADD MSTORE PUSH1 0x64 SWAP1 REVERT JUMPDEST PUSH1 0x40 MLOAD PUSH8 0xFFFFFFFFFFFFFFFF SWAP5 SWAP4 SWAP1 PUSH1 0x60 DUP2 ADD DUP7 DUP2 GT DUP3 DUP3 LT OR PUSH2 0x39E JUMPI PUSH1 0x40 MSTORE PUSH1 0x1 SWAP1 DUP2 DUP2 MSTORE DUP2 PUSH1 0x20 SWAP2 PUSH2 0x1B81 DUP4 DUP3 ADD SWAP7 PUSH4 0xFFFFFFFF DUP1 SWAP10 AND DUP9 MSTORE PUSH1 0x40 DUP4 ADD SWAP7 DUP8 MSTORE PUSH1 0x1 DUP1 PUSH1 0xA0 SHL SUB AND SWAP8 PUSH1 0x0 SWAP8 DUP10 DUP10 MSTORE PUSH1 0x4 DUP7 MSTORE PUSH2 0x1B65 PUSH1 0x40 DUP11 KECCAK256 SWAP5 MLOAD ISZERO ISZERO DUP6 SWAP1 PUSH1 0xFF DUP1 NOT DUP4 SLOAD AND SWAP2 ISZERO ISZERO AND OR SWAP1 SSTORE JUMP JUMPDEST MLOAD DUP4 SLOAD PUSH5 0xFFFFFFFF00 NOT AND SWAP2 AND PUSH1 0x8 SHL PUSH5 0xFFFFFFFF00 AND OR DUP3 SSTORE JUMP JUMPDEST ADD SWAP3 MLOAD DUP1 MLOAD SWAP8 DUP9 GT PUSH2 0x1CC9 JUMPI PUSH2 0x1B97 DUP5 SLOAD PUSH2 0x15A4 JUMP JUMPDEST PUSH1 0x1F DUP2 GT PUSH2 0x1C83 JUMPI JUMPDEST POP DUP2 PUSH1 0x1F DUP10 GT PUSH1 0x1 EQ PUSH2 0x1BFF JUMPI POP SWAP7 DUP1 SWAP3 DUP2 SWAP3 PUSH32 0x284F8686DFC9D4DEE2B81FC540BC31170AC37171440C4B7FC29690ED5349FB0A SWAP8 SWAP9 SWAP10 DUP8 SWAP5 PUSH2 0x1BF4 JUMPI JUMPDEST POP POP SHL SWAP2 PUSH1 0x0 NOT SWAP1 PUSH1 0x3 SHL SHR NOT AND OR SWAP1 SSTORE JUMPDEST DUP1 LOG2 JUMP JUMPDEST ADD MLOAD SWAP3 POP CODESIZE DUP1 PUSH2 0x1BDE JUMP JUMPDEST SWAP1 SWAP8 SWAP2 PUSH1 0x1F NOT DUP4 AND SWAP9 DUP6 DUP8 MSTORE DUP3 DUP8 KECCAK256 SWAP3 DUP8 SWAP1 JUMPDEST DUP12 DUP3 LT PUSH2 0x1C6C JUMPI POP POP DUP4 PUSH32 0x284F8686DFC9D4DEE2B81FC540BC31170AC37171440C4B7FC29690ED5349FB0A SWAP9 SWAP10 SWAP11 LT PUSH2 0x1C53 JUMPI JUMPDEST POP POP POP DUP2 SHL ADD SWAP1 SSTORE PUSH2 0x1BF0 JUMP JUMPDEST ADD MLOAD PUSH1 0x0 NOT PUSH1 0xF8 DUP5 PUSH1 0x3 SHL AND SHR NOT AND SWAP1 SSTORE CODESIZE DUP1 DUP1 PUSH2 0x1C46 JUMP JUMPDEST DUP1 DUP8 DUP6 SWAP7 DUP3 SWAP5 SWAP7 DUP7 ADD MLOAD DUP2 SSTORE ADD SWAP6 ADD SWAP4 ADD SWAP1 PUSH2 0x1C12 JUMP JUMPDEST DUP5 DUP7 MSTORE DUP3 DUP7 KECCAK256 PUSH1 0x1F DUP11 ADD PUSH1 0x5 SHR DUP2 ADD SWAP2 DUP5 DUP12 LT PUSH2 0x1CBF JUMPI JUMPDEST PUSH1 0x1F ADD PUSH1 0x5 SHR ADD SWAP1 DUP5 SWAP1 JUMPDEST DUP3 DUP2 LT PUSH2 0x1CB4 JUMPI POP POP PUSH2 0x1BA0 JUMP JUMPDEST DUP8 DUP2 SSTORE ADD DUP5 SWAP1 PUSH2 0x1CA6 JUMP JUMPDEST SWAP1 SWAP2 POP DUP2 SWAP1 PUSH2 0x1C9B JUMP JUMPDEST PUSH4 0x4E487B71 PUSH1 0xE0 SHL DUP6 MSTORE PUSH1 0x41 PUSH1 0x4 MSTORE PUSH1 0x24 DUP6 REVERT JUMPDEST ISZERO PUSH2 0x1CE4 JUMPI JUMP JUMPDEST PUSH1 0x40 MLOAD PUSH3 0x461BCD PUSH1 0xE5 SHL DUP2 MSTORE PUSH1 0x20 PUSH1 0x4 DUP3 ADD MSTORE PUSH1 0xA PUSH1 0x24 DUP3 ADD MSTORE PUSH10 0x125B9D985B1A59081251 PUSH1 0xB2 SHL PUSH1 0x44 DUP3 ADD MSTORE PUSH1 0x64 SWAP1 REVERT JUMPDEST SWAP2 SWAP1 SWAP2 PUSH4 0xFFFFFFFF DUP1 DUP1 SWAP5 AND SWAP2 AND ADD SWAP2 DUP3 GT PUSH2 0x704 JUMPI JUMP INVALID LOG2 PUSH5 0x6970667358 0x22 SLT KECCAK256 0xDA 0xEA PUSH29 0x1A247F63ED5A71703E9DC789D43C5D777E56FE83885CF1059A1532EAF9 PUSH5 0x736F6C6343 STOP ADDMOD EQ STOP CALLER "},"methodIdentifiers":{"addBoard(address)":"10a1c573","addShareholder(address,uint32,string)":"a23bf2d7","boardList(uint256)":"72cec17b","boardMembers(address)":"bff13785","castConfidentialVote(uint256,uint8)":"42f41d2a","castVotePlain(uint256,uint8)":"d098db5a","companyName()":"f5ec2eed","createProposal(uint8,string,uint256)":"44906b23","finalize(uint256)":"05261aea","finalizeProposal(uint256)":"5652077c","getCompanyInfo()":"d7710d62","getDecryptedResults(uint256)":"41d14c22","getProposalBasic(uint256)":"9f83c4b2","getProposalInfo(uint256)":"bc903cb8","getProposalStatus(uint256)":"401853b7","getResults(uint256)":"81a60c0d","getShareholderInfo(address)":"5e6056bb","getTotalProposals()":"1a5007dd","hasVotedOn(uint256,address)":"b97d3e40","initCompany(string,uint256)":"d3cb331c","initialized()":"158ef93e","isBoardMember(address)":"71942a01","owner()":"8da5cb5b","proposals(uint256)":"013cf08b","registerShareholderPlain(address,uint32,string,string)":"691e7398","renounceOwnership()":"715018a6","shareholders(address)":"5c2930ad","totalShares()":"3a98ef39","transferOwnership(address)":"f2fde38b","vote(uint256,uint8)":"943e8216","voteConfidential(uint256,uint8)":"a3317d91","voted(uint256,address)":"5277b4ae"}}}}}