{"contracts/CorporateGovernanceSimple.sol":{"CorporateGovernanceSimple":{"abi":[{"inputs":[],"stateMutability":"nonpayable","type":"constructor"},{"inputs":[{"internalType":"address","name":"owner","type":"address"}],"name":"OwnableInvalidOwner","type":"error"},{"inputs":[{"internalType":"address","name":"account","type":"address"}],"name":"OwnableUnauthorizedAccount","type":"error"},{"anonymous":false,"inputs":[{"indexed":true,"internalType":"address","name":"member","type":"address"}],"name":"BoardMemberAdded","type":"event"},{"anonymous":false,"inputs":[{"indexed":true,"internalType":"address","name":"member","type":"address"}],"name":"BoardMemberRemoved","type":"event"},{"anonymous":false,"inputs":[{"indexed":false,"internalType":"string","name":"name","type":"string"},{"indexed":false,"internalType":"string","name":"symbol","type":"string"},{"indexed":false,"internalType":"string","name":"regNumber","type":"string"},{"indexed":false,"internalType":"uint256","name":"totalShares","type":"uint256"}],"name":"CompanyInitialized","type":"event"},{"anonymous":false,"inputs":[{"indexed":true,"internalType":"address","name":"previousOwner","type":"address"},{"indexed":true,"internalType":"address","name":"newOwner","type":"address"}],"name":"OwnershipTransferred","type":"event"},{"anonymous":false,"inputs":[{"indexed":true,"internalType":"uint256","name":"proposalId","type":"uint256"},{"indexed":false,"internalType":"enum CorporateGovernanceSimple.ProposalType","name":"proposalType","type":"uint8"},{"indexed":false,"internalType":"string","name":"title","type":"string"},{"indexed":true,"internalType":"address","name":"proposer","type":"address"}],"name":"ProposalCreated","type":"event"},{"anonymous":false,"inputs":[{"indexed":true,"internalType":"uint256","name":"proposalId","type":"uint256"},{"indexed":false,"internalType":"bool","name":"passed","type":"bool"},{"indexed":false,"internalType":"uint256","name":"forVotes","type":"uint256"},{"indexed":false,"internalType":"uint256","name":"againstVotes","type":"uint256"},{"indexed":false,"internalType":"uint256","name":"abstainVotes","type":"uint256"}],"name":"ProposalFinalized","type":"event"},{"anonymous":false,"inputs":[{"indexed":true,"internalType":"address","name":"shareholder","type":"address"},{"indexed":false,"internalType":"string","name":"companyId","type":"string"},{"indexed":false,"internalType":"string","name":"name","type":"string"},{"indexed":false,"internalType":"uint32","name":"shares","type":"uint32"}],"name":"ShareholderRegistered","type":"event"},{"anonymous":false,"inputs":[{"indexed":true,"internalType":"uint256","name":"proposalId","type":"uint256"},{"indexed":true,"internalType":"address","name":"voter","type":"address"},{"indexed":false,"internalType":"enum CorporateGovernanceSimple.VoteChoice","name":"choice","type":"uint8"},{"indexed":false,"internalType":"uint32","name":"shares","type":"uint32"}],"name":"VoteCast","type":"event"},{"inputs":[{"internalType":"address","name":"_member","type":"address"}],"name":"addBoardMember","outputs":[],"stateMutability":"nonpayable","type":"function"},{"inputs":[{"internalType":"address","name":"","type":"address"}],"name":"boardMembers","outputs":[{"internalType":"bool","name":"","type":"bool"}],"stateMutability":"view","type":"function"},{"inputs":[{"internalType":"uint256","name":"","type":"uint256"}],"name":"boardMembersList","outputs":[{"internalType":"address","name":"","type":"address"}],"stateMutability":"view","type":"function"},{"inputs":[{"internalType":"uint256","name":"_proposalId","type":"uint256"},{"internalType":"uint8","name":"_choice","type":"uint8"}],"name":"castVotePlain","outputs":[],"stateMutability":"nonpayable","type":"function"},{"inputs":[],"name":"companyInfo","outputs":[{"internalType":"string","name":"name","type":"string"},{"internalType":"string","name":"stockSymbol","type":"string"},{"internalType":"string","name":"registrationNumber","type":"string"},{"internalType":"uint256","name":"totalShares","type":"uint256"},{"internalType":"uint256","name":"totalShareholders","type":"uint256"},{"internalType":"bool","name":"isInitialized","type":"bool"}],"stateMutability":"view","type":"function"},{"inputs":[{"internalType":"uint8","name":"_type","type":"uint8"},{"internalType":"string","name":"_title","type":"string"},{"internalType":"string","name":"_description","type":"string"},{"internalType":"string","name":"_attachmentHash","type":"string"},{"internalType":"uint256","name":"_durationDays","type":"uint256"}],"name":"createProposal","outputs":[{"internalType":"uint256","name":"","type":"uint256"}],"stateMutability":"nonpayable","type":"function"},{"inputs":[{"internalType":"uint256","name":"_proposalId","type":"uint256"}],"name":"finalizeProposal","outputs":[],"stateMutability":"nonpayable","type":"function"},{"inputs":[],"name":"getCompanyInfo","outputs":[{"internalType":"string","name":"name","type":"string"},{"internalType":"string","name":"stockSymbol","type":"string"},{"internalType":"string","name":"registrationNumber","type":"string"},{"internalType":"uint256","name":"totalShares","type":"uint256"},{"internalType":"uint256","name":"totalShareholders","type":"uint256"},{"internalType":"address[]","name":"boardMembers","type":"address[]"}],"stateMutability":"view","type":"function"},{"inputs":[{"internalType":"uint256","name":"_proposalId","type":"uint256"}],"name":"getDecryptedResults","outputs":[{"internalType":"uint32","name":"","type":"uint32"},{"internalType":"uint32","name":"","type":"uint32"},{"internalType":"uint32","name":"","type":"uint32"},{"internalType":"bool","name":"","type":"bool"}],"stateMutability":"view","type":"function"},{"inputs":[{"internalType":"uint256","name":"_proposalId","type":"uint256"}],"name":"getProposalInfo","outputs":[{"internalType":"uint256","name":"id","type":"uint256"},{"internalType":"uint8","name":"proposalType","type":"uint8"},{"internalType":"string","name":"title","type":"string"},{"internalType":"string","name":"description","type":"string"},{"internalType":"address","name":"proposer","type":"address"},{"internalType":"uint256","name":"creationTime","type":"uint256"},{"internalType":"uint256","name":"deadline","type":"uint256"},{"internalType":"bool","name":"isActive","type":"bool"},{"internalType":"bool","name":"isFinalized","type":"bool"},{"internalType":"uint256","name":"participationCount","type":"uint256"},{"internalType":"uint256","name":"requiredThreshold","type":"uint256"}],"stateMutability":"view","type":"function"},{"inputs":[{"internalType":"address","name":"_shareholder","type":"address"}],"name":"getShareholderInfo","outputs":[{"internalType":"bool","name":"isRegistered","type":"bool"},{"internalType":"uint32","name":"shares","type":"uint32"},{"internalType":"string","name":"companyId","type":"string"},{"internalType":"string","name":"name","type":"string"},{"internalType":"bool","name":"isActive","type":"bool"}],"stateMutability":"view","type":"function"},{"inputs":[],"name":"getTotalProposals","outputs":[{"internalType":"uint256","name":"","type":"uint256"}],"stateMutability":"view","type":"function"},{"inputs":[{"internalType":"uint256","name":"","type":"uint256"},{"internalType":"address","name":"","type":"address"}],"name":"hasVoted","outputs":[{"internalType":"bool","name":"","type":"bool"}],"stateMutability":"view","type":"function"},{"inputs":[{"internalType":"uint256","name":"_proposalId","type":"uint256"},{"internalType":"address","name":"_voter","type":"address"}],"name":"hasVotedOn","outputs":[{"internalType":"bool","name":"","type":"bool"}],"stateMutability":"view","type":"function"},{"inputs":[{"internalType":"string","name":"_name","type":"string"},{"internalType":"string","name":"_stockSymbol","type":"string"},{"internalType":"string","name":"_registrationNumber","type":"string"},{"internalType":"uint256","name":"_totalShares","type":"uint256"}],"name":"initializeCompany","outputs":[],"stateMutability":"nonpayable","type":"function"},{"inputs":[{"internalType":"address","name":"_member","type":"address"}],"name":"isBoardMember","outputs":[{"internalType":"bool","name":"","type":"bool"}],"stateMutability":"view","type":"function"},{"inputs":[],"name":"owner","outputs":[{"internalType":"address","name":"","type":"address"}],"stateMutability":"view","type":"function"},{"inputs":[{"internalType":"uint256","name":"","type":"uint256"}],"name":"proposals","outputs":[{"internalType":"uint256","name":"id","type":"uint256"},{"internalType":"enum CorporateGovernanceSimple.ProposalType","name":"proposalType","type":"uint8"},{"internalType":"string","name":"title","type":"string"},{"internalType":"string","name":"description","type":"string"},{"internalType":"address","name":"proposer","type":"address"},{"internalType":"uint256","name":"creationTime","type":"uint256"},{"internalType":"uint256","name":"deadline","type":"uint256"},{"internalType":"bool","name":"isActive","type":"bool"},{"internalType":"bool","name":"isFinalized","type":"bool"},{"internalType":"string","name":"attachmentHash","type":"string"},{"internalType":"uint256","name":"forVotes","type":"uint256"},{"internalType":"uint256","name":"againstVotes","type":"uint256"},{"internalType":"uint256","name":"abstainVotes","type":"uint256"},{"internalType":"uint256","name":"participationCount","type":"uint256"},{"internalType":"uint256","name":"requiredThreshold","type":"uint256"}],"stateMutability":"view","type":"function"},{"inputs":[{"internalType":"address","name":"_shareholder","type":"address"},{"internalType":"uint32","name":"_shares","type":"uint32"},{"internalType":"string","name":"_companyId","type":"string"},{"internalType":"string","name":"_name","type":"string"}],"name":"registerShareholderPlain","outputs":[],"stateMutability":"nonpayable","type":"function"},{"inputs":[{"internalType":"address","name":"_member","type":"address"}],"name":"removeBoardMember","outputs":[],"stateMutability":"nonpayable","type":"function"},{"inputs":[],"name":"renounceOwnership","outputs":[],"stateMutability":"nonpayable","type":"function"},{"inputs":[{"internalType":"address","name":"","type":"address"}],"name":"shareholders","outputs":[{"internalType":"bool","name":"isRegistered","type":"bool"},{"internalType":"uint32","name":"shares","type":"uint32"},{"internalType":"string","name":"companyId","type":"string"},{"internalType":"string","name":"name","type":"string"},{"internalType":"bool","name":"isActive","type":"bool"}],"stateMutability":"view","type":"function"},{"inputs":[{"internalType":"uint256","name":"","type":"uint256"}],"name":"shareholdersList","outputs":[{"internalType":"address","name":"","type":"address"}],"stateMutability":"view","type":"function"},{"inputs":[{"internalType":"enum CorporateGovernanceSimple.ProposalType","name":"","type":"uint8"}],"name":"thresholds","outputs":[{"internalType":"uint256","name":"","type":"uint256"}],"stateMutability":"view","type":"function"},{"inputs":[{"internalType":"address","name":"newOwner","type":"address"}],"name":"transferOwnership","outputs":[],"stateMutability":"nonpayable","type":"function"},{"inputs":[{"internalType":"uint256","name":"","type":"uint256"},{"internalType":"address","name":"","type":"address"}],"name":"votes","outputs":[{"internalType":"enum CorporateGovernanceSimple.VoteChoice","name":"","type":"uint8"}],"stateMutability":"view","type":"function"}],"evm":{"bytecode":{"linkReferences":{},"object":"60806040908082523461014c573315610136575060008054336001600160a01b03198083168217845592916001600160a01b03167f8be0079c531659141344cd1fd0a4f28419497f9722a3daafe3b4186f6b6457e08380a3808052600e60205260328382205560018152603c8382205560028152604b838220556003815260328382205560048152604b8382205560058152603c838220553381526008602052828120600160ff19825416179055600a549068010000000000000000821015610122576001820180600a5582101561010e57600a90527fc65a7bb8d6351c1cf70c95a316cc6a92839c986682d98bc35f958f4883f9d2a80180549091163317905551612b749081620001528239f35b634e487b7160e01b81526032600452602490fd5b634e487b7160e01b81526041600452602490fd5b631e4fbdf760e01b815260006004820152602490fd5b600080fdfe6080604052600436101561001257600080fd5b60003560e01c8063013cf08b146124435780631a5007dd146124255780631eac03ae146122fe57806333bac503146122a357806336f281a91461221b57806339a169f91461204557806341d14c2214611f175780634385963214611eca5780635652077c14611cfc5780635a50d2f414611ccb5780635c2930ad14611c5b5780635e6056bb14611be95780635ee230b714611ba7578063691e739814611642578063715018a6146115e957806371942a01146106a75780638da5cb5b146115c0578063a39af88e14610e8a578063a759e62914610889578063b97d3e401461081d578063bc903cb8146106e6578063bff13785146106a7578063d098db5a14610349578063d23254b4146102f7578063d7710d62146101c85763f2fde38b1461013a57600080fd5b346101c35760203660031901126101c3576101536128b0565b61015b6129d5565b6001600160a01b039081169081156101aa57600054826001600160601b0360a01b821617600055167f8be0079c531659141344cd1fd0a4f28419497f9722a3daafe3b4186f6b6457e0600080a3005b604051631e4fbdf760e01b815260006004820152602490fd5b600080fd5b346101c35760003660031901126101c357600454600554906101e8612608565b906101f16126b1565b926101fa612738565b91604051918290600a54948585526020809501978896600a6000527fc65a7bb8d6351c1cf70c95a316cc6a92839c986682d98bc35f958f4883f9d2a89060005b8181106102da5750505083929161027f61028d9261025e89976102729d03876125e7565b6040519b8c9b60c08d5260c08d0190612870565b908b8203888d0152612870565b9089820360408b0152612870565b936060880152608087015285830360a0870152519182815201929160005b8281106102ba57505050500390f35b83516001600160a01b0316855286955093810193928101926001016102ab565b82546001600160a01b03168c529a88019a6001928301920161023a565b346101c35760403660031901126101c3576103106128c6565b600435600052600d60205260406000209060018060a01b0316600052602052602060ff6040600020541661034760405180926129c8565bf35b346101c35760403660031901126101c35760043560249081359160ff83168093036101c3578115158061069b575b61038090612a7c565b60001982018281116106865760ff600761039983612572565b50015416156106495760066103ad82612572565b5001544211610605573360005260209160078352604060002060ff81541690816105f6575b50156105a7576002851161056e5783600052600c8352604060002033600052835260ff6040600020541661052b576003851015610517575061041863ffffffff91612572565b503360005260078352600c604060002091856000528185526040600020336000528552604060002060ff199060018282541617905586600052600d8652604060002033600052865287604060002091825416179055600187146000146104dc5783835460081c1661048e60098301918254612a6f565b90555b0161049c8154612a60565b90555460081c16906104b160405180956129c8565b8301527f8c3f654f6276b307c180d7487e3b54be4e45d934de989addd006f676c452615b60403393a3005b600287036105015783835460081c166104fa600a8301918254612a6f565b9055610491565b83835460081c166104fa600b8301918254612a6f565b634e487b7160e01b60009081526021600452fd5b82601e6064926040519262461bcd60e51b845260048401528201527f416c726561647920766f746564206f6e20746869732070726f706f73616c00006044820152fd5b8260136064926040519262461bcd60e51b8452600484015282015272496e76616c696420766f74652063686f69636560681b6044820152fd5b8260236084926040519262461bcd60e51b845260048401528201527f4f6e6c79207665726966696564207368617265686f6c646572732063616e20766044820152626f746560e81b6064820152fd5b60ff91506003015416866103d2565b60405162461bcd60e51b8152602060048201526017818401527f566f74696e6720706572696f642068617320656e6465640000000000000000006044820152606490fd5b60405162461bcd60e51b8152602060048201526016818401527550726f706f73616c206973206e6f742061637469766560501b6044820152606490fd5b50634e487b7160e01b60009081526011600452fd5b50600b54821115610377565b346101c35760203660031901126101c3576001600160a01b036106c86128b0565b166000526008602052602060ff604060002054166040519015158152f35b346101c35760203660031901126101c35760043580151580610811575b61070c90612a7c565b60001981019081116107fb5761072190612572565b50805460ff6001830154169160068310156107e55760018060a01b0360048201541690600581015460ff6006830154600784015490600c850154936107af600d870154966107a16107806003610779600285016127bf565b93016127bf565b916040519c8d9c8d5260208d015260408c61016091829101528c0190612870565b908a820360608c0152612870565b96608089015260a088015260c0870152818116151560e087015260081c1615156101008501526101208401526101408301520390f35b634e487b7160e01b600052602160045260246000fd5b634e487b7160e01b600052601160045260246000fd5b50600b54811115610703565b346101c35760403660031901126101c3576004356108396128c6565b908015158061087d575b61084c90612a7c565b600052600c60205260406000209060018060a01b0316600052602052602060ff604060002054166040519015158152f35b50600b54811115610843565b346101c35760803660031901126101c3576004356001600160401b0381116101c3576108b9903690600401612972565b6024356001600160401b0381116101c3576108d8903690600401612972565b6044356001600160401b0381116101c3576108f7903690600401612972565b906109006129d5565b60ff60065416610e455760643515610df45760405160c081018181106001600160401b03821117610c0057604052838152816020820152826040820152606435606082015260006080820152600160a082015283516001600160401b038111610c005761096e6001546125ad565b601f8111610d8b575b50806020601f8211600114610d1857600091610d0d575b508160011b916000199060031b1c1916176001555b60208101518051906001600160401b038211610c005781906109c66002546125ad565b601f8111610c99575b50602090601f8311600114610c2157600092610c16575b50508160011b916000199060031b1c1916176002555b60408101518051906001600160401b038211610c0057610a1d6003546125ad565b601f8111610b97575b50602090601f8311600114610af1579360a0610ad99484610abd9895610acb957fd26421b4fbe84c332a1b0fc6bec3a635f01fb174699925e97f6dda8f9120c86b9b99600092610ae6575b50508160011b916000199060031b1c1916176003555b606081015160045560808101516005550151151560ff801960065416911617600655604051958695608087526080870190612870565b908582036020870152612870565b908382036040850152612870565b60643560608301520390a1005b015190508b80610a71565b906003600052600080516020612aff8339815191529160005b601f1985168110610b7f5750610ad994600185610acb957fd26421b4fbe84c332a1b0fc6bec3a635f01fb174699925e97f6dda8f9120c86b9b999560a095610abd9c99601f19811610610b66575b505050811b01600355610a87565b015160001960f88460031b161c191690558b8080610b58565b91926020600181928685015181550194019201610b0a565b6003600052601f830160051c600080516020612aff8339815191520160208410610beb575b601f820160051c600080516020612aff833981519152018110610bdf5750610a26565b60008155600101610bbc565b50600080516020612aff833981519152610bbc565b634e487b7160e01b600052604160045260246000fd5b0151905086806109e6565b92506002600052600080516020612adf833981519152906000935b601f1984168510610c7e576001945083601f19811610610c65575b505050811b016002556109fc565b015160001960f88460031b161c19169055868080610c57565b81810151835560209485019460019093019290910190610c3c565b9091506002600052601f830160051c600080516020612adf8339815191520160208410610cf8575b908392915b601f820160051c600080516020612adf833981519152018110610ce957506109cf565b60008155849350600101610cc6565b50600080516020612adf833981519152610cc1565b90508501518661098e565b91506001600052600080516020612b1f8339815191526000925b601f1983168410610d73576001935082601f19811610610d5a575b5050811b016001556109a3565b87015160001960f88460031b161c191690558680610d4d565b87810151825560209384019360019092019101610d32565b6001600052601f820160051c600080516020612b1f8339815191520160208310610ddf575b601f820160051c600080516020612b1f833981519152018110610dd35750610977565b60008155600101610db0565b50600080516020612b1f833981519152610db0565b60405162461bcd60e51b815260206004820152602360248201527f546f74616c20736861726573206d75737420626520677265617465722074686160448201526206e20360ec1b6064820152608490fd5b60405162461bcd60e51b815260206004820152601b60248201527f436f6d70616e7920616c726561647920696e697469616c697a656400000000006044820152606490fd5b346101c35760a03660031901126101c35760043560ff811681036101c3576024356001600160401b0381116101c357610ec7903690600401612972565b906044356001600160401b0381116101c357610ee7903690600401612972565b916064356001600160401b0381116101c357610f07903690600401612972565b9160843592336000526008602052610f2660ff60406000205416612a01565b600560ff831611611583578251156115465783159384158061153a575b1561150257600660ff841610156107e557600b54946001860186116107fb57620151808083029283041417156107fb57610f7d9042612a6f565b90610f8a60ff8416612913565b549160405196876101e08101106001600160401b036101e08a011117610c00576101e0880160405260018701885260ff8516602089015285604089015260608801523360808801524260a088015260c0870152600160e0870152600061010087015261012086015260006101408601526000610160860152600061018086015260006101a08601526101c0850152600160401b831015610c005760018301600b5561103483612572565b6114ec5784518155602085015160068110156107e557600182019060ff8019835416911617905560408501518051906001600160401b038211610c0057819061108060028501546125ad565b601f8111611499575b50602090601f83116001146114275760009261141c575b50508160011b916000199060031b1c19161760028201555b60608501518051906001600160401b038211610c005781906110dd60038501546125ad565b601f81116113c9575b50602090601f83116001146113575760009261134c575b50508160011b916000199060031b1c19161760038201555b6004810160018060a01b036080870151166001600160601b0360a01b82541617905560a0850151600582015560c085015160068201556007810161116b60e08701511515829060ff801983541691151516179055565b610100860151151561ff0082549160081b169061ff0019161790556101208501519485516001600160401b038111610c00576111aa60088401546125ad565b96601f8811611305575b602097508790601f83116001146112895760ff969593836112349694600d946101c09460009261127e575b50508160011b916000199060031b1c19161760088501555b6101408101516009850155610160810151600a850155610180810151600b8501556101a0810151600c850155015191015560405193849116612863565b6040848301527fa57b64c524115c249ee650bea06e0b5a288b6090303a56bd74457fbe208010a833928061127060018701946040830190612870565b0390a3600160405191018152f35b015190508c806111df565b9060088501600052886000209160005b601f19851681106112ee575093600184600d946101c09460ff9b9a986112349a98601f198116106112d5575b505050811b0160088501556111f7565b015160001960f88460031b161c191690558c80806112c5565b91928a600181928685015181550194019201611299565b600884016000526020600020601f830160051c810160208410611345575b601f8a0160051c820181106113395750506111b4565b60008155600101611323565b5080611323565b0151905087806110fd565b9250600384016000526020600020906000935b601f19841685106113ae576001945083601f19811610611395575b505050811b016003820155611115565b015160001960f88460031b161c19169055878080611385565b8181015183556020948501946001909301929091019061136a565b909150600384016000526020600020601f840160051c810160208510611415575b90849392915b601f830160051c820181106114065750506110e6565b600081558594506001016113f0565b50806113ea565b0151905087806110a0565b9250600284016000526020600020906000935b601f198416851061147e576001945083601f19811610611465575b505050811b0160028201556110b8565b015160001960f88460031b161c19169055878080611455565b8181015183556020948501946001909301929091019061143a565b909150600284016000526020600020601f840160051c8101602085106114e5575b90849392915b601f830160051c820181106114d6575050611089565b600081558594506001016114c0565b50806114ba565b634e487b7160e01b600052600060045260246000fd5b60405162461bcd60e51b815260206004820152601060248201526f24b73b30b634b210323ab930ba34b7b760811b6044820152606490fd5b5061016d811115610f43565b60405162461bcd60e51b81526020600482015260156024820152745469746c652063616e6e6f7420626520656d70747960581b6044820152606490fd5b60405162461bcd60e51b8152602060048201526015602482015274496e76616c69642070726f706f73616c207479706560581b6044820152606490fd5b346101c35760003660031901126101c3576000546040516001600160a01b039091168152602090f35b346101c35760003660031901126101c3576116026129d5565b600080546001600160a01b0319811682556001600160a01b03167f8be0079c531659141344cd1fd0a4f28419497f9722a3daafe3b4186f6b6457e08280a3005b346101c35760803660031901126101c35761165b6128b0565b6024359063ffffffff821682036101c3576044356001600160401b0381116101c35761168b903690600401612972565b906064356001600160401b0381116101c3576116ab903690600401612972565b913360005260086020526116c660ff60406000205416612a01565b6001600160a01b03821615611b625763ffffffff841615611b1d576001600160a01b03821660009081526007602052604090205460ff16611ad85760405160a081018181106001600160401b03821117610c005760405260018152602081019063ffffffff86168252604081018381528560608301526001608083015260018060a01b038516600052600760205260406000209261177383511515859060ff801983541691151516179055565b5164ffffffff0084549160081b169064ffffffff001916178355518051906001600160401b038211610c005781906117ae60018601546125ad565b601f8111611a85575b50602090601f8311600114611a1357600092611a08575b50508160011b916000199060031b1c19161760018301555b60608101518051906001600160401b038211610c005761180960028501546125ad565b601f81116119c1575b50602090601f831160011461194b5792826003936080936118649796600092611940575b50508160011b9160001990861b1c19161760028501555b0151151591019060ff801983541691151516179055565b60095491600160401b831015610c0057600183018060095583101561192a5763ffffffff6119147fa49b810ba77638fcf02015bc870581d41a738aadcba590dd8f94425a46bc6b2e95610abd9560096000527f6e1540171b6c0c960b71a7020d9f60077f6af931a8bbf590da0223dacf75c7af0160018060a01b0385166001600160601b0360a01b8254161790556118fd600554612a60565b600555604051958695606087526060870190612870565b951660408301526001600160a01b0316930390a2005b634e487b7160e01b600052603260045260246000fd5b015190508b80611836565b90601f198316916002860160005260206000209260005b8181106119a95750936080936118649796936001938360039810611991575b505050811b01600285015561184d565b015160001983881b60f8161c191690558b8080611981565b92936020600181928786015181550195019301611962565b600285016000526020600020601f840160051c810160208510611a01575b601f830160051c820181106119f5575050611812565b600081556001016119df565b50806119df565b0151905088806117ce565b9250600185016000526020600020906000935b601f1984168510611a6a576001945083601f19811610611a51575b505050811b0160018301556117e6565b015160001960f88460031b161c19169055888080611a41565b81810151835560209485019460019093019290910190611a26565b909150600185016000526020600020601f840160051c810160208510611ad1575b90849392915b601f830160051c82018110611ac25750506117b7565b60008155859450600101611aac565b5080611aa6565b60405162461bcd60e51b815260206004820152601e60248201527f5368617265686f6c64657220616c7265616479207265676973746572656400006044820152606490fd5b60405162461bcd60e51b815260206004820152601d60248201527f536861726573206d7573742062652067726561746572207468616e20300000006044820152606490fd5b60405162461bcd60e51b815260206004820152601b60248201527f496e76616c6964207368617265686f6c646572206164647265737300000000006044820152606490fd5b346101c35760203660031901126101c357600435600a548110156101c357611bd06020916128dc565b905460405160039290921b1c6001600160a01b03168152f35b346101c35760203660031901126101c3576001600160a01b03611c0a6128b0565b16600052600760205260406000208054611c5760ff600384015416611c3d6002611c36600187016127bf565b95016127bf565b604051948460ff63ffffffff889760081c1691168661292c565b0390f35b346101c35760203660031901126101c3576001600160a01b03611c7c6128b0565b16600052600760205260406000208054611c57611c9b600184016127bf565b9260ff6003611cac600284016127bf565b9201541690604051948460ff63ffffffff889760081c1691168661292c565b346101c35760203660031901126101c35760043560068110156101c357611cf3602091612913565b54604051908152f35b346101c35760203660031901126101c35760043580151580611ebe575b611d2290612a7c565b336000526008602052611d3c60ff60406000205416612a01565b60001981018181116107fb57611d5190612572565b5060078101805460ff811615611e79576006830154421115611e345761ffff19166101001790556009810154600a820154611d8c8183612a6f565b9260009380611ddd575b50917f2266eb6b7205e4103d21fa718b7fc277bba709d05004fe9232c78c533966c1f79391600b6080940154916040519315158452602084015260408301526060820152a2005b935090916064810292818404606414821517156107fb57600b611e237f2266eb6b7205e4103d21fa718b7fc277bba709d05004fe9232c78c533966c1f796608096612abe565b600d85015410955050919092611d96565b60405162461bcd60e51b815260206004820152601760248201527f566f74696e6720706572696f64206e6f7420656e6465640000000000000000006044820152606490fd5b60405162461bcd60e51b815260206004820152601a60248201527f50726f706f73616c20616c72656164792066696e616c697a65640000000000006044820152606490fd5b50600b54811115611d19565b346101c35760403660031901126101c357611ee36128c6565b600435600052600c60205260406000209060018060a01b0316600052602052602060ff604060002054166040519015158152f35b346101c35760203660031901126101c35760043580151580612039575b611f3d90612a7c565b336000526008602052611f5760ff60406000205416612a01565b60001981019081116107fb57611f6c90612572565b5060ff600782015460081c1615611ffb576009810154600a820154611f918183612a6f565b9060009180611fc9575b50600b60809463ffffffff918291015416918160405195168552166020840152604083015215156060820152f35b9391506064830293838504606414841517156107fb57611fed600b91608096612abe565b600d84015410929450611f9b565b60405162461bcd60e51b8152602060048201526016602482015275141c9bdc1bdcd85b081b9bdd08199a5b985b1a5e995960521b6044820152606490fd5b50600b54811115611f34565b346101c35760203660031901126101c35761205e6128b0565b6120666129d5565b6001600160a01b0390811660008181526008602052604090205490919060ff16156121e1578060005416821461219c576000828152600860205260408120805460ff191690555b600a9081549182821015612193578392856120c7846128dc565b969054600397881b1c16146120e85750506120e3919250612a60565b6120ad565b90929160001991808301919082116107fb576121178461210a612136946128dc565b905490891b1c16916128dc565b90919082549060031b9160018060a01b03809116831b921b1916179055565b8254801561217d570192612149846128dc565b81939154921b1b19169055555b7f5059b541f12100245fc1e0afc5a897e4f2b2ac151e48752188c24421eeb9750b600080a2005b634e487b7160e01b600052603160045260246000fd5b50505050612156565b60405162461bcd60e51b815260206004820152601c60248201527f43616e6e6f742072656d6f766520636f6e7472616374206f776e6572000000006044820152606490fd5b60405162461bcd60e51b81526020600482015260126024820152712737ba1030903137b0b9321036b2b6b132b960711b6044820152606490fd5b346101c35760003660031901126101c357612271612237612608565b61223f6126b1565b612247612738565b906004549161228d6005549161227f60ff600654169460405198899860c08a5260c08a0190612870565b9088820360208a0152612870565b908682036040880152612870565b9260608501526080840152151560a08301520390f35b346101c35760203660031901126101c3576004356009548110156101c35760096000527f6e1540171b6c0c960b71a7020d9f60077f6af931a8bbf590da0223dacf75c7af01546040516001600160a01b039091168152602090f35b346101c35760203660031901126101c3576123176128b0565b61231f6129d5565b6001600160a01b0381169081156123e75781600052600860205260ff604060002054166123a9578160005260086020526040600020600160ff19825416179055600a5490600160401b821015610c00576121178260016123829401600a556128dc565b7f956f4b06f20eda3aa4f6be9e72e8fc77beb3f95f4f2a95a796b2af742583d743600080a2005b60405162461bcd60e51b815260206004820152601660248201527520b63932b0b23c9030903137b0b9321036b2b6b132b960511b6044820152606490fd5b60405162461bcd60e51b8152602060048201526016602482015275496e76616c6964206d656d626572206164647265737360501b6044820152606490fd5b346101c35760003660031901126101c3576020600b54604051908152f35b346101c35760203660031901126101c357600435600b548110156101c35761246a90612572565b508054600182015460ff1691612482600282016127bf565b61248e600383016127bf565b6004830154600584015460068501546007860154909593926001600160a01b03166124bb600886016127bf565b91600986015497600a87015494600b88015496600c89015498600d0154996040519d8e809e81526020016124ee91612863565b8c6101e06040819201528d0161250391612870565b8c810360608e015261251491612870565b9360808c015260a08b015260c08a015260ff8116151560e08a015260081c60ff16151561010089015287810361012089015261254f91612870565b946101408701526101608601526101808501526101a08401526101c08301520390f35b600b5481101561192a57600e90600b600052027f0175b7a638427703f0dbe7bb9bbf987a2551717b34e79f33b5b1008d1fa01db90190600090565b90600182811c921680156125dd575b60208310146125c757565b634e487b7160e01b600052602260045260246000fd5b91607f16916125bc565b90601f801991011681019081106001600160401b03821117610c0057604052565b6040519060008260019182549261261e846125ad565b8084529381811690811561268f5750600114612644575b50612642925003836125e7565b565b60008181529150600080516020612b1f8339815191525b8483106126745750612642935050810160200138612635565b81935090816020925483858a0101520191019091859261265b565b90506020925061264294915060ff191682840152151560051b82010138612635565b60405190600082600254916126c5836125ad565b8083529260019081811690811561268f57506001146126eb5750612642925003836125e7565b600260009081529150600080516020612adf8339815191525b84831061271d5750612642935050810160200138612635565b81935090816020925483858a01015201910190918592612704565b604051906000826003549161274c836125ad565b8083529260019081811690811561268f57506001146127725750612642925003836125e7565b600360009081529150600080516020612aff8339815191525b8483106127a45750612642935050810160200138612635565b81935090816020925483858a0101520191019091859261278b565b90604051918260008254926127d3846125ad565b90818452600194858116908160001461284057506001146127fd575b5050612642925003836125e7565b9093915060005260209081600020936000915b818310612828575050612642935082010138806127ef565b85548884018501529485019487945091830191612810565b91505061264294506020925060ff191682840152151560051b82010138806127ef565b9060068210156107e55752565b919082519283825260005b84811061289c575050826000602080949584010152601f8019910116010190565b60208183018101518483018201520161287b565b600435906001600160a01b03821682036101c357565b602435906001600160a01b03821682036101c357565b600a5481101561192a57600a6000527fc65a7bb8d6351c1cf70c95a316cc6a92839c986682d98bc35f958f4883f9d2a80190600090565b60068110156107e557600052600e602052604060002090565b939060809363ffffffff61296a9461295c939998991515885216602087015260a0604087015260a0860190612870565b908482036060860152612870565b931515910152565b81601f820112156101c3578035906001600160401b038211610c0057604051926129a6601f8401601f1916602001856125e7565b828452602083830101116101c357816000926020809301838601378301015290565b9060038210156107e55752565b6000546001600160a01b031633036129e957565b60405163118cdaa760e01b8152336004820152602490fd5b15612a0857565b60405162461bcd60e51b815260206004820152602a60248201527f4f6e6c7920626f617264206d656d626572732063616e20706572666f726d20746044820152693434b99030b1ba34b7b760b11b6064820152608490fd5b60001981146107fb5760010190565b919082018092116107fb57565b15612a8357565b60405162461bcd60e51b8152602060048201526013602482015272125b9d985b1a59081c1c9bdc1bdcd85b081251606a1b6044820152606490fd5b8115612ac8570490565b634e487b7160e01b600052601260045260246000fdfe405787fa12a823e0f2b7631cc41b3ba8828b3321ca811111fa75cd3aa3bb5acec2575a0e9e593c00f959f8c92f12db2869c3395a3b0502d05e2516446f71f85bb10e2d527612073b26eecdfd717e6a320cf44b4afac2b0732d9fcbe2b7fa0cf6a264697066735822122012bbc288094c291f10b72d2211532504a19ebffbf3823a02937e063b5b13911164736f6c63430008140033","opcodes":"PUSH1 0x80 PUSH1 0x40 SWAP1 DUP1 DUP3 MSTORE CALLVALUE PUSH2 0x14C JUMPI CALLER ISZERO PUSH2 0x136 JUMPI POP PUSH1 0x0 DUP1 SLOAD CALLER PUSH1 0x1 PUSH1 0x1 PUSH1 0xA0 SHL SUB NOT DUP1 DUP4 AND DUP3 OR DUP5 SSTORE SWAP3 SWAP2 PUSH1 0x1 PUSH1 0x1 PUSH1 0xA0 SHL SUB AND PUSH32 0x8BE0079C531659141344CD1FD0A4F28419497F9722A3DAAFE3B4186F6B6457E0 DUP4 DUP1 LOG3 DUP1 DUP1 MSTORE PUSH1 0xE PUSH1 0x20 MSTORE PUSH1 0x32 DUP4 DUP3 KECCAK256 SSTORE PUSH1 0x1 DUP2 MSTORE PUSH1 0x3C DUP4 DUP3 KECCAK256 SSTORE PUSH1 0x2 DUP2 MSTORE PUSH1 0x4B DUP4 DUP3 KECCAK256 SSTORE PUSH1 0x3 DUP2 MSTORE PUSH1 0x32 DUP4 DUP3 KECCAK256 SSTORE PUSH1 0x4 DUP2 MSTORE PUSH1 0x4B DUP4 DUP3 KECCAK256 SSTORE PUSH1 0x5 DUP2 MSTORE PUSH1 0x3C DUP4 DUP3 KECCAK256 SSTORE CALLER DUP2 MSTORE PUSH1 0x8 PUSH1 0x20 MSTORE DUP3 DUP2 KECCAK256 PUSH1 0x1 PUSH1 0xFF NOT DUP3 SLOAD AND OR SWAP1 SSTORE PUSH1 0xA SLOAD SWAP1 PUSH9 0x10000000000000000 DUP3 LT ISZERO PUSH2 0x122 JUMPI PUSH1 0x1 DUP3 ADD DUP1 PUSH1 0xA SSTORE DUP3 LT ISZERO PUSH2 0x10E JUMPI PUSH1 0xA SWAP1 MSTORE PUSH32 0xC65A7BB8D6351C1CF70C95A316CC6A92839C986682D98BC35F958F4883F9D2A8 ADD DUP1 SLOAD SWAP1 SWAP2 AND CALLER OR SWAP1 SSTORE MLOAD PUSH2 0x2B74 SWAP1 DUP2 PUSH3 0x152 DUP3 CODECOPY RETURN JUMPDEST PUSH4 0x4E487B71 PUSH1 0xE0 SHL DUP2 MSTORE PUSH1 0x32 PUSH1 0x4 MSTORE PUSH1 0x24 SWAP1 REVERT JUMPDEST PUSH4 0x4E487B71 PUSH1 0xE0 SHL DUP2 MSTORE PUSH1 0x41 PUSH1 0x4 MSTORE PUSH1 0x24 SWAP1 REVERT JUMPDEST PUSH4 0x1E4FBDF7 PUSH1 0xE0 SHL DUP2 MSTORE PUSH1 0x0 PUSH1 0x4 DUP3 ADD MSTORE PUSH1 0x24 SWAP1 REVERT JUMPDEST PUSH1 0x0 DUP1 REVERT INVALID PUSH1 0x80 PUSH1 0x40 MSTORE PUSH1 0x4 CALLDATASIZE LT ISZERO PUSH2 0x12 JUMPI PUSH1 0x0 DUP1 REVERT JUMPDEST PUSH1 0x0 CALLDATALOAD PUSH1 0xE0 SHR DUP1 PUSH4 0x13CF08B EQ PUSH2 0x2443 JUMPI DUP1 PUSH4 0x1A5007DD EQ PUSH2 0x2425 JUMPI DUP1 PUSH4 0x1EAC03AE EQ PUSH2 0x22FE JUMPI DUP1 PUSH4 0x33BAC503 EQ PUSH2 0x22A3 JUMPI DUP1 PUSH4 0x36F281A9 EQ PUSH2 0x221B JUMPI DUP1 PUSH4 0x39A169F9 EQ PUSH2 0x2045 JUMPI DUP1 PUSH4 0x41D14C22 EQ PUSH2 0x1F17 JUMPI DUP1 PUSH4 0x43859632 EQ PUSH2 0x1ECA JUMPI DUP1 PUSH4 0x5652077C EQ PUSH2 0x1CFC JUMPI DUP1 PUSH4 0x5A50D2F4 EQ PUSH2 0x1CCB JUMPI DUP1 PUSH4 0x5C2930AD EQ PUSH2 0x1C5B JUMPI DUP1 PUSH4 0x5E6056BB EQ PUSH2 0x1BE9 JUMPI DUP1 PUSH4 0x5EE230B7 EQ PUSH2 0x1BA7 JUMPI DUP1 PUSH4 0x691E7398 EQ PUSH2 0x1642 JUMPI DUP1 PUSH4 0x715018A6 EQ PUSH2 0x15E9 JUMPI DUP1 PUSH4 0x71942A01 EQ PUSH2 0x6A7 JUMPI DUP1 PUSH4 0x8DA5CB5B EQ PUSH2 0x15C0 JUMPI DUP1 PUSH4 0xA39AF88E EQ PUSH2 0xE8A JUMPI DUP1 PUSH4 0xA759E629 EQ PUSH2 0x889 JUMPI DUP1 PUSH4 0xB97D3E40 EQ PUSH2 0x81D JUMPI DUP1 PUSH4 0xBC903CB8 EQ PUSH2 0x6E6 JUMPI DUP1 PUSH4 0xBFF13785 EQ PUSH2 0x6A7 JUMPI DUP1 PUSH4 0xD098DB5A EQ PUSH2 0x349 JUMPI DUP1 PUSH4 0xD23254B4 EQ PUSH2 0x2F7 JUMPI DUP1 PUSH4 0xD7710D62 EQ PUSH2 0x1C8 JUMPI PUSH4 0xF2FDE38B EQ PUSH2 0x13A JUMPI PUSH1 0x0 DUP1 REVERT JUMPDEST CALLVALUE PUSH2 0x1C3 JUMPI PUSH1 0x20 CALLDATASIZE PUSH1 0x3 NOT ADD SLT PUSH2 0x1C3 JUMPI PUSH2 0x153 PUSH2 0x28B0 JUMP JUMPDEST PUSH2 0x15B PUSH2 0x29D5 JUMP JUMPDEST PUSH1 0x1 PUSH1 0x1 PUSH1 0xA0 SHL SUB SWAP1 DUP2 AND SWAP1 DUP2 ISZERO PUSH2 0x1AA JUMPI PUSH1 0x0 SLOAD DUP3 PUSH1 0x1 PUSH1 0x1 PUSH1 0x60 SHL SUB PUSH1 0xA0 SHL DUP3 AND OR PUSH1 0x0 SSTORE AND PUSH32 0x8BE0079C531659141344CD1FD0A4F28419497F9722A3DAAFE3B4186F6B6457E0 PUSH1 0x0 DUP1 LOG3 STOP JUMPDEST PUSH1 0x40 MLOAD PUSH4 0x1E4FBDF7 PUSH1 0xE0 SHL DUP2 MSTORE PUSH1 0x0 PUSH1 0x4 DUP3 ADD MSTORE PUSH1 0x24 SWAP1 REVERT JUMPDEST PUSH1 0x0 DUP1 REVERT JUMPDEST CALLVALUE PUSH2 0x1C3 JUMPI PUSH1 0x0 CALLDATASIZE PUSH1 0x3 NOT ADD SLT PUSH2 0x1C3 JUMPI PUSH1 0x4 SLOAD PUSH1 0x5 SLOAD SWAP1 PUSH2 0x1E8 PUSH2 0x2608 JUMP JUMPDEST SWAP1 PUSH2 0x1F1 PUSH2 0x26B1 JUMP JUMPDEST SWAP3 PUSH2 0x1FA PUSH2 0x2738 JUMP JUMPDEST SWAP2 PUSH1 0x40 MLOAD SWAP2 DUP3 SWAP1 PUSH1 0xA SLOAD SWAP5 DUP6 DUP6 MSTORE PUSH1 0x20 DUP1 SWAP6 ADD SWAP8 DUP9 SWAP7 PUSH1 0xA PUSH1 0x0 MSTORE PUSH32 0xC65A7BB8D6351C1CF70C95A316CC6A92839C986682D98BC35F958F4883F9D2A8 SWAP1 PUSH1 0x0 JUMPDEST DUP2 DUP2 LT PUSH2 0x2DA JUMPI POP POP POP DUP4 SWAP3 SWAP2 PUSH2 0x27F PUSH2 0x28D SWAP3 PUSH2 0x25E DUP10 SWAP8 PUSH2 0x272 SWAP14 SUB DUP8 PUSH2 0x25E7 JUMP JUMPDEST PUSH1 0x40 MLOAD SWAP12 DUP13 SWAP12 PUSH1 0xC0 DUP14 MSTORE PUSH1 0xC0 DUP14 ADD SWAP1 PUSH2 0x2870 JUMP JUMPDEST SWAP1 DUP12 DUP3 SUB DUP9 DUP14 ADD MSTORE PUSH2 0x2870 JUMP JUMPDEST SWAP1 DUP10 DUP3 SUB PUSH1 0x40 DUP12 ADD MSTORE PUSH2 0x2870 JUMP JUMPDEST SWAP4 PUSH1 0x60 DUP9 ADD MSTORE PUSH1 0x80 DUP8 ADD MSTORE DUP6 DUP4 SUB PUSH1 0xA0 DUP8 ADD MSTORE MLOAD SWAP2 DUP3 DUP2 MSTORE ADD SWAP3 SWAP2 PUSH1 0x0 JUMPDEST DUP3 DUP2 LT PUSH2 0x2BA JUMPI POP POP POP POP SUB SWAP1 RETURN JUMPDEST DUP4 MLOAD PUSH1 0x1 PUSH1 0x1 PUSH1 0xA0 SHL SUB AND DUP6 MSTORE DUP7 SWAP6 POP SWAP4 DUP2 ADD SWAP4 SWAP3 DUP2 ADD SWAP3 PUSH1 0x1 ADD PUSH2 0x2AB JUMP JUMPDEST DUP3 SLOAD PUSH1 0x1 PUSH1 0x1 PUSH1 0xA0 SHL SUB AND DUP13 MSTORE SWAP11 DUP9 ADD SWAP11 PUSH1 0x1 SWAP3 DUP4 ADD SWAP3 ADD PUSH2 0x23A JUMP JUMPDEST CALLVALUE PUSH2 0x1C3 JUMPI PUSH1 0x40 CALLDATASIZE PUSH1 0x3 NOT ADD SLT PUSH2 0x1C3 JUMPI PUSH2 0x310 PUSH2 0x28C6 JUMP JUMPDEST PUSH1 0x4 CALLDATALOAD PUSH1 0x0 MSTORE PUSH1 0xD PUSH1 0x20 MSTORE PUSH1 0x40 PUSH1 0x0 KECCAK256 SWAP1 PUSH1 0x1 DUP1 PUSH1 0xA0 SHL SUB AND PUSH1 0x0 MSTORE PUSH1 0x20 MSTORE PUSH1 0x20 PUSH1 0xFF PUSH1 0x40 PUSH1 0x0 KECCAK256 SLOAD AND PUSH2 0x347 PUSH1 0x40 MLOAD DUP1 SWAP3 PUSH2 0x29C8 JUMP JUMPDEST RETURN JUMPDEST CALLVALUE PUSH2 0x1C3 JUMPI PUSH1 0x40 CALLDATASIZE PUSH1 0x3 NOT ADD SLT PUSH2 0x1C3 JUMPI PUSH1 0x4 CALLDATALOAD PUSH1 0x24 SWAP1 DUP2 CALLDATALOAD SWAP2 PUSH1 0xFF DUP4 AND DUP1 SWAP4 SUB PUSH2 0x1C3 JUMPI DUP2 ISZERO ISZERO DUP1 PUSH2 0x69B JUMPI JUMPDEST PUSH2 0x380 SWAP1 PUSH2 0x2A7C JUMP JUMPDEST PUSH1 0x0 NOT DUP3 ADD DUP3 DUP2 GT PUSH2 0x686 JUMPI PUSH1 0xFF PUSH1 0x7 PUSH2 0x399 DUP4 PUSH2 0x2572 JUMP JUMPDEST POP ADD SLOAD AND ISZERO PUSH2 0x649 JUMPI PUSH1 0x6 PUSH2 0x3AD DUP3 PUSH2 0x2572 JUMP JUMPDEST POP ADD SLOAD TIMESTAMP GT PUSH2 0x605 JUMPI CALLER PUSH1 0x0 MSTORE PUSH1 0x20 SWAP2 PUSH1 0x7 DUP4 MSTORE PUSH1 0x40 PUSH1 0x0 KECCAK256 PUSH1 0xFF DUP2 SLOAD AND SWAP1 DUP2 PUSH2 0x5F6 JUMPI JUMPDEST POP ISZERO PUSH2 0x5A7 JUMPI PUSH1 0x2 DUP6 GT PUSH2 0x56E JUMPI DUP4 PUSH1 0x0 MSTORE PUSH1 0xC DUP4 MSTORE PUSH1 0x40 PUSH1 0x0 KECCAK256 CALLER PUSH1 0x0 MSTORE DUP4 MSTORE PUSH1 0xFF PUSH1 0x40 PUSH1 0x0 KECCAK256 SLOAD AND PUSH2 0x52B JUMPI PUSH1 0x3 DUP6 LT ISZERO PUSH2 0x517 JUMPI POP PUSH2 0x418 PUSH4 0xFFFFFFFF SWAP2 PUSH2 0x2572 JUMP JUMPDEST POP CALLER PUSH1 0x0 MSTORE PUSH1 0x7 DUP4 MSTORE PUSH1 0xC PUSH1 0x40 PUSH1 0x0 KECCAK256 SWAP2 DUP6 PUSH1 0x0 MSTORE DUP2 DUP6 MSTORE PUSH1 0x40 PUSH1 0x0 KECCAK256 CALLER PUSH1 0x0 MSTORE DUP6 MSTORE PUSH1 0x40 PUSH1 0x0 KECCAK256 PUSH1 0xFF NOT SWAP1 PUSH1 0x1 DUP3 DUP3 SLOAD AND OR SWAP1 SSTORE DUP7 PUSH1 0x0 MSTORE PUSH1 0xD DUP7 MSTORE PUSH1 0x40 PUSH1 0x0 KECCAK256 CALLER PUSH1 0x0 MSTORE DUP7 MSTORE DUP8 PUSH1 0x40 PUSH1 0x0 KECCAK256 SWAP2 DUP3 SLOAD AND OR SWAP1 SSTORE PUSH1 0x1 DUP8 EQ PUSH1 0x0 EQ PUSH2 0x4DC JUMPI DUP4 DUP4 SLOAD PUSH1 0x8 SHR AND PUSH2 0x48E PUSH1 0x9 DUP4 ADD SWAP2 DUP3 SLOAD PUSH2 0x2A6F JUMP JUMPDEST SWAP1 SSTORE JUMPDEST ADD PUSH2 0x49C DUP2 SLOAD PUSH2 0x2A60 JUMP JUMPDEST SWAP1 SSTORE SLOAD PUSH1 0x8 SHR AND SWAP1 PUSH2 0x4B1 PUSH1 0x40 MLOAD DUP1 SWAP6 PUSH2 0x29C8 JUMP JUMPDEST DUP4 ADD MSTORE PUSH32 0x8C3F654F6276B307C180D7487E3B54BE4E45D934DE989ADDD006F676C452615B PUSH1 0x40 CALLER SWAP4 LOG3 STOP JUMPDEST PUSH1 0x2 DUP8 SUB PUSH2 0x501 JUMPI DUP4 DUP4 SLOAD PUSH1 0x8 SHR AND PUSH2 0x4FA PUSH1 0xA DUP4 ADD SWAP2 DUP3 SLOAD PUSH2 0x2A6F JUMP JUMPDEST SWAP1 SSTORE PUSH2 0x491 JUMP JUMPDEST DUP4 DUP4 SLOAD PUSH1 0x8 SHR AND PUSH2 0x4FA PUSH1 0xB DUP4 ADD SWAP2 DUP3 SLOAD PUSH2 0x2A6F JUMP JUMPDEST PUSH4 0x4E487B71 PUSH1 0xE0 SHL PUSH1 0x0 SWAP1 DUP2 MSTORE PUSH1 0x21 PUSH1 0x4 MSTORE REVERT JUMPDEST DUP3 PUSH1 0x1E PUSH1 0x64 SWAP3 PUSH1 0x40 MLOAD SWAP3 PUSH3 0x461BCD PUSH1 0xE5 SHL DUP5 MSTORE PUSH1 0x4 DUP5 ADD MSTORE DUP3 ADD MSTORE PUSH32 0x416C726561647920766F746564206F6E20746869732070726F706F73616C0000 PUSH1 0x44 DUP3 ADD MSTORE REVERT JUMPDEST DUP3 PUSH1 0x13 PUSH1 0x64 SWAP3 PUSH1 0x40 MLOAD SWAP3 PUSH3 0x461BCD PUSH1 0xE5 SHL DUP5 MSTORE PUSH1 0x4 DUP5 ADD MSTORE DUP3 ADD MSTORE PUSH19 0x496E76616C696420766F74652063686F696365 PUSH1 0x68 SHL PUSH1 0x44 DUP3 ADD MSTORE REVERT JUMPDEST DUP3 PUSH1 0x23 PUSH1 0x84 SWAP3 PUSH1 0x40 MLOAD SWAP3 PUSH3 0x461BCD PUSH1 0xE5 SHL DUP5 MSTORE PUSH1 0x4 DUP5 ADD MSTORE DUP3 ADD MSTORE PUSH32 0x4F6E6C79207665726966696564207368617265686F6C646572732063616E2076 PUSH1 0x44 DUP3 ADD MSTORE PUSH3 0x6F7465 PUSH1 0xE8 SHL PUSH1 0x64 DUP3 ADD MSTORE REVERT JUMPDEST PUSH1 0xFF SWAP2 POP PUSH1 0x3 ADD SLOAD AND DUP7 PUSH2 0x3D2 JUMP JUMPDEST PUSH1 0x40 MLOAD PUSH3 0x461BCD PUSH1 0xE5 SHL DUP2 MSTORE PUSH1 0x20 PUSH1 0x4 DUP3 ADD MSTORE PUSH1 0x17 DUP2 DUP5 ADD MSTORE PUSH32 0x566F74696E6720706572696F642068617320656E646564000000000000000000 PUSH1 0x44 DUP3 ADD MSTORE PUSH1 0x64 SWAP1 REVERT JUMPDEST PUSH1 0x40 MLOAD PUSH3 0x461BCD PUSH1 0xE5 SHL DUP2 MSTORE PUSH1 0x20 PUSH1 0x4 DUP3 ADD MSTORE PUSH1 0x16 DUP2 DUP5 ADD MSTORE PUSH22 0x50726F706F73616C206973206E6F7420616374697665 PUSH1 0x50 SHL PUSH1 0x44 DUP3 ADD MSTORE PUSH1 0x64 SWAP1 REVERT JUMPDEST POP PUSH4 0x4E487B71 PUSH1 0xE0 SHL PUSH1 0x0 SWAP1 DUP2 MSTORE PUSH1 0x11 PUSH1 0x4 MSTORE REVERT JUMPDEST POP PUSH1 0xB SLOAD DUP3 GT ISZERO PUSH2 0x377 JUMP JUMPDEST CALLVALUE PUSH2 0x1C3 JUMPI PUSH1 0x20 CALLDATASIZE PUSH1 0x3 NOT ADD SLT PUSH2 0x1C3 JUMPI PUSH1 0x1 PUSH1 0x1 PUSH1 0xA0 SHL SUB PUSH2 0x6C8 PUSH2 0x28B0 JUMP JUMPDEST AND PUSH1 0x0 MSTORE PUSH1 0x8 PUSH1 0x20 MSTORE PUSH1 0x20 PUSH1 0xFF PUSH1 0x40 PUSH1 0x0 KECCAK256 SLOAD AND PUSH1 0x40 MLOAD SWAP1 ISZERO ISZERO DUP2 MSTORE RETURN JUMPDEST CALLVALUE PUSH2 0x1C3 JUMPI PUSH1 0x20 CALLDATASIZE PUSH1 0x3 NOT ADD SLT PUSH2 0x1C3 JUMPI PUSH1 0x4 CALLDATALOAD DUP1 ISZERO ISZERO DUP1 PUSH2 0x811 JUMPI JUMPDEST PUSH2 0x70C SWAP1 PUSH2 0x2A7C JUMP JUMPDEST PUSH1 0x0 NOT DUP2 ADD SWAP1 DUP2 GT PUSH2 0x7FB JUMPI PUSH2 0x721 SWAP1 PUSH2 0x2572 JUMP JUMPDEST POP DUP1 SLOAD PUSH1 0xFF PUSH1 0x1 DUP4 ADD SLOAD AND SWAP2 PUSH1 0x6 DUP4 LT ISZERO PUSH2 0x7E5 JUMPI PUSH1 0x1 DUP1 PUSH1 0xA0 SHL SUB PUSH1 0x4 DUP3 ADD SLOAD AND SWAP1 PUSH1 0x5 DUP2 ADD SLOAD PUSH1 0xFF PUSH1 0x6 DUP4 ADD SLOAD PUSH1 0x7 DUP5 ADD SLOAD SWAP1 PUSH1 0xC DUP6 ADD SLOAD SWAP4 PUSH2 0x7AF PUSH1 0xD DUP8 ADD SLOAD SWAP7 PUSH2 0x7A1 PUSH2 0x780 PUSH1 0x3 PUSH2 0x779 PUSH1 0x2 DUP6 ADD PUSH2 0x27BF JUMP JUMPDEST SWAP4 ADD PUSH2 0x27BF JUMP JUMPDEST SWAP2 PUSH1 0x40 MLOAD SWAP13 DUP14 SWAP13 DUP14 MSTORE PUSH1 0x20 DUP14 ADD MSTORE PUSH1 0x40 DUP13 PUSH2 0x160 SWAP2 DUP3 SWAP2 ADD MSTORE DUP13 ADD SWAP1 PUSH2 0x2870 JUMP JUMPDEST SWAP1 DUP11 DUP3 SUB PUSH1 0x60 DUP13 ADD MSTORE PUSH2 0x2870 JUMP JUMPDEST SWAP7 PUSH1 0x80 DUP10 ADD MSTORE PUSH1 0xA0 DUP9 ADD MSTORE PUSH1 0xC0 DUP8 ADD MSTORE DUP2 DUP2 AND ISZERO ISZERO PUSH1 0xE0 DUP8 ADD MSTORE PUSH1 0x8 SHR AND ISZERO ISZERO PUSH2 0x100 DUP6 ADD MSTORE PUSH2 0x120 DUP5 ADD MSTORE PUSH2 0x140 DUP4 ADD MSTORE SUB SWAP1 RETURN JUMPDEST PUSH4 0x4E487B71 PUSH1 0xE0 SHL PUSH1 0x0 MSTORE PUSH1 0x21 PUSH1 0x4 MSTORE PUSH1 0x24 PUSH1 0x0 REVERT JUMPDEST PUSH4 0x4E487B71 PUSH1 0xE0 SHL PUSH1 0x0 MSTORE PUSH1 0x11 PUSH1 0x4 MSTORE PUSH1 0x24 PUSH1 0x0 REVERT JUMPDEST POP PUSH1 0xB SLOAD DUP2 GT ISZERO PUSH2 0x703 JUMP JUMPDEST CALLVALUE PUSH2 0x1C3 JUMPI PUSH1 0x40 CALLDATASIZE PUSH1 0x3 NOT ADD SLT PUSH2 0x1C3 JUMPI PUSH1 0x4 CALLDATALOAD PUSH2 0x839 PUSH2 0x28C6 JUMP JUMPDEST SWAP1 DUP1 ISZERO ISZERO DUP1 PUSH2 0x87D JUMPI JUMPDEST PUSH2 0x84C SWAP1 PUSH2 0x2A7C JUMP JUMPDEST PUSH1 0x0 MSTORE PUSH1 0xC PUSH1 0x20 MSTORE PUSH1 0x40 PUSH1 0x0 KECCAK256 SWAP1 PUSH1 0x1 DUP1 PUSH1 0xA0 SHL SUB AND PUSH1 0x0 MSTORE PUSH1 0x20 MSTORE PUSH1 0x20 PUSH1 0xFF PUSH1 0x40 PUSH1 0x0 KECCAK256 SLOAD AND PUSH1 0x40 MLOAD SWAP1 ISZERO ISZERO DUP2 MSTORE RETURN JUMPDEST POP PUSH1 0xB SLOAD DUP2 GT ISZERO PUSH2 0x843 JUMP JUMPDEST CALLVALUE PUSH2 0x1C3 JUMPI PUSH1 0x80 CALLDATASIZE PUSH1 0x3 NOT ADD SLT PUSH2 0x1C3 JUMPI PUSH1 0x4 CALLDATALOAD PUSH1 0x1 PUSH1 0x1 PUSH1 0x40 SHL SUB DUP2 GT PUSH2 0x1C3 JUMPI PUSH2 0x8B9 SWAP1 CALLDATASIZE SWAP1 PUSH1 0x4 ADD PUSH2 0x2972 JUMP JUMPDEST PUSH1 0x24 CALLDATALOAD PUSH1 0x1 PUSH1 0x1 PUSH1 0x40 SHL SUB DUP2 GT PUSH2 0x1C3 JUMPI PUSH2 0x8D8 SWAP1 CALLDATASIZE SWAP1 PUSH1 0x4 ADD PUSH2 0x2972 JUMP JUMPDEST PUSH1 0x44 CALLDATALOAD PUSH1 0x1 PUSH1 0x1 PUSH1 0x40 SHL SUB DUP2 GT PUSH2 0x1C3 JUMPI PUSH2 0x8F7 SWAP1 CALLDATASIZE SWAP1 PUSH1 0x4 ADD PUSH2 0x2972 JUMP JUMPDEST SWAP1 PUSH2 0x900 PUSH2 0x29D5 JUMP JUMPDEST PUSH1 0xFF PUSH1 0x6 SLOAD AND PUSH2 0xE45 JUMPI PUSH1 0x64 CALLDATALOAD ISZERO PUSH2 0xDF4 JUMPI PUSH1 0x40 MLOAD PUSH1 0xC0 DUP2 ADD DUP2 DUP2 LT PUSH1 0x1 PUSH1 0x1 PUSH1 0x40 SHL SUB DUP3 GT OR PUSH2 0xC00 JUMPI PUSH1 0x40 MSTORE DUP4 DUP2 MSTORE DUP2 PUSH1 0x20 DUP3 ADD MSTORE DUP3 PUSH1 0x40 DUP3 ADD MSTORE PUSH1 0x64 CALLDATALOAD PUSH1 0x60 DUP3 ADD MSTORE PUSH1 0x0 PUSH1 0x80 DUP3 ADD MSTORE PUSH1 0x1 PUSH1 0xA0 DUP3 ADD MSTORE DUP4 MLOAD PUSH1 0x1 PUSH1 0x1 PUSH1 0x40 SHL SUB DUP2 GT PUSH2 0xC00 JUMPI PUSH2 0x96E PUSH1 0x1 SLOAD PUSH2 0x25AD JUMP JUMPDEST PUSH1 0x1F DUP2 GT PUSH2 0xD8B JUMPI JUMPDEST POP DUP1 PUSH1 0x20 PUSH1 0x1F DUP3 GT PUSH1 0x1 EQ PUSH2 0xD18 JUMPI PUSH1 0x0 SWAP2 PUSH2 0xD0D JUMPI JUMPDEST POP DUP2 PUSH1 0x1 SHL SWAP2 PUSH1 0x0 NOT SWAP1 PUSH1 0x3 SHL SHR NOT AND OR PUSH1 0x1 SSTORE JUMPDEST PUSH1 0x20 DUP2 ADD MLOAD DUP1 MLOAD SWAP1 PUSH1 0x1 PUSH1 0x1 PUSH1 0x40 SHL SUB DUP3 GT PUSH2 0xC00 JUMPI DUP2 SWAP1 PUSH2 0x9C6 PUSH1 0x2 SLOAD PUSH2 0x25AD JUMP JUMPDEST PUSH1 0x1F DUP2 GT PUSH2 0xC99 JUMPI JUMPDEST POP PUSH1 0x20 SWAP1 PUSH1 0x1F DUP4 GT PUSH1 0x1 EQ PUSH2 0xC21 JUMPI PUSH1 0x0 SWAP3 PUSH2 0xC16 JUMPI JUMPDEST POP POP DUP2 PUSH1 0x1 SHL SWAP2 PUSH1 0x0 NOT SWAP1 PUSH1 0x3 SHL SHR NOT AND OR PUSH1 0x2 SSTORE JUMPDEST PUSH1 0x40 DUP2 ADD MLOAD DUP1 MLOAD SWAP1 PUSH1 0x1 PUSH1 0x1 PUSH1 0x40 SHL SUB DUP3 GT PUSH2 0xC00 JUMPI PUSH2 0xA1D PUSH1 0x3 SLOAD PUSH2 0x25AD JUMP JUMPDEST PUSH1 0x1F DUP2 GT PUSH2 0xB97 JUMPI JUMPDEST POP PUSH1 0x20 SWAP1 PUSH1 0x1F DUP4 GT PUSH1 0x1 EQ PUSH2 0xAF1 JUMPI SWAP4 PUSH1 0xA0 PUSH2 0xAD9 SWAP5 DUP5 PUSH2 0xABD SWAP9 SWAP6 PUSH2 0xACB SWAP6 PUSH32 0xD26421B4FBE84C332A1B0FC6BEC3A635F01FB174699925E97F6DDA8F9120C86B SWAP12 SWAP10 PUSH1 0x0 SWAP3 PUSH2 0xAE6 JUMPI JUMPDEST POP POP DUP2 PUSH1 0x1 SHL SWAP2 PUSH1 0x0 NOT SWAP1 PUSH1 0x3 SHL SHR NOT AND OR PUSH1 0x3 SSTORE JUMPDEST PUSH1 0x60 DUP2 ADD MLOAD PUSH1 0x4 SSTORE PUSH1 0x80 DUP2 ADD MLOAD PUSH1 0x5 SSTORE ADD MLOAD ISZERO ISZERO PUSH1 0xFF DUP1 NOT PUSH1 0x6 SLOAD AND SWAP2 AND OR PUSH1 0x6 SSTORE PUSH1 0x40 MLOAD SWAP6 DUP7 SWAP6 PUSH1 0x80 DUP8 MSTORE PUSH1 0x80 DUP8 ADD SWAP1 PUSH2 0x2870 JUMP JUMPDEST SWAP1 DUP6 DUP3 SUB PUSH1 0x20 DUP8 ADD MSTORE PUSH2 0x2870 JUMP JUMPDEST SWAP1 DUP4 DUP3 SUB PUSH1 0x40 DUP6 ADD MSTORE PUSH2 0x2870 JUMP JUMPDEST PUSH1 0x64 CALLDATALOAD PUSH1 0x60 DUP4 ADD MSTORE SUB SWAP1 LOG1 STOP JUMPDEST ADD MLOAD SWAP1 POP DUP12 DUP1 PUSH2 0xA71 JUMP JUMPDEST SWAP1 PUSH1 0x3 PUSH1 0x0 MSTORE PUSH1 0x0 DUP1 MLOAD PUSH1 0x20 PUSH2 0x2AFF DUP4 CODECOPY DUP2 MLOAD SWAP2 MSTORE SWAP2 PUSH1 0x0 JUMPDEST PUSH1 0x1F NOT DUP6 AND DUP2 LT PUSH2 0xB7F JUMPI POP PUSH2 0xAD9 SWAP5 PUSH1 0x1 DUP6 PUSH2 0xACB SWAP6 PUSH32 0xD26421B4FBE84C332A1B0FC6BEC3A635F01FB174699925E97F6DDA8F9120C86B SWAP12 SWAP10 SWAP6 PUSH1 0xA0 SWAP6 PUSH2 0xABD SWAP13 SWAP10 PUSH1 0x1F NOT DUP2 AND LT PUSH2 0xB66 JUMPI JUMPDEST POP POP POP DUP2 SHL ADD PUSH1 0x3 SSTORE PUSH2 0xA87 JUMP JUMPDEST ADD MLOAD PUSH1 0x0 NOT PUSH1 0xF8 DUP5 PUSH1 0x3 SHL AND SHR NOT AND SWAP1 SSTORE DUP12 DUP1 DUP1 PUSH2 0xB58 JUMP JUMPDEST SWAP2 SWAP3 PUSH1 0x20 PUSH1 0x1 DUP2 SWAP3 DUP7 DUP6 ADD MLOAD DUP2 SSTORE ADD SWAP5 ADD SWAP3 ADD PUSH2 0xB0A JUMP JUMPDEST PUSH1 0x3 PUSH1 0x0 MSTORE PUSH1 0x1F DUP4 ADD PUSH1 0x5 SHR PUSH1 0x0 DUP1 MLOAD PUSH1 0x20 PUSH2 0x2AFF DUP4 CODECOPY DUP2 MLOAD SWAP2 MSTORE ADD PUSH1 0x20 DUP5 LT PUSH2 0xBEB JUMPI JUMPDEST PUSH1 0x1F DUP3 ADD PUSH1 0x5 SHR PUSH1 0x0 DUP1 MLOAD PUSH1 0x20 PUSH2 0x2AFF DUP4 CODECOPY DUP2 MLOAD SWAP2 MSTORE ADD DUP2 LT PUSH2 0xBDF JUMPI POP PUSH2 0xA26 JUMP JUMPDEST PUSH1 0x0 DUP2 SSTORE PUSH1 0x1 ADD PUSH2 0xBBC JUMP JUMPDEST POP PUSH1 0x0 DUP1 MLOAD PUSH1 0x20 PUSH2 0x2AFF DUP4 CODECOPY DUP2 MLOAD SWAP2 MSTORE PUSH2 0xBBC JUMP JUMPDEST PUSH4 0x4E487B71 PUSH1 0xE0 SHL PUSH1 0x0 MSTORE PUSH1 0x41 PUSH1 0x4 MSTORE PUSH1 0x24 PUSH1 0x0 REVERT JUMPDEST ADD MLOAD SWAP1 POP DUP7 DUP1 PUSH2 0x9E6 JUMP JUMPDEST SWAP3 POP PUSH1 0x2 PUSH1 0x0 MSTORE PUSH1 0x0 DUP1 MLOAD PUSH1 0x20 PUSH2 0x2ADF DUP4 CODECOPY DUP2 MLOAD SWAP2 MSTORE SWAP1 PUSH1 0x0 SWAP4 JUMPDEST PUSH1 0x1F NOT DUP5 AND DUP6 LT PUSH2 0xC7E JUMPI PUSH1 0x1 SWAP5 POP DUP4 PUSH1 0x1F NOT DUP2 AND LT PUSH2 0xC65 JUMPI JUMPDEST POP POP POP DUP2 SHL ADD PUSH1 0x2 SSTORE PUSH2 0x9FC JUMP JUMPDEST ADD MLOAD PUSH1 0x0 NOT PUSH1 0xF8 DUP5 PUSH1 0x3 SHL AND SHR NOT AND SWAP1 SSTORE DUP7 DUP1 DUP1 PUSH2 0xC57 JUMP JUMPDEST DUP2 DUP2 ADD MLOAD DUP4 SSTORE PUSH1 0x20 SWAP5 DUP6 ADD SWAP5 PUSH1 0x1 SWAP1 SWAP4 ADD SWAP3 SWAP1 SWAP2 ADD SWAP1 PUSH2 0xC3C JUMP JUMPDEST SWAP1 SWAP2 POP PUSH1 0x2 PUSH1 0x0 MSTORE PUSH1 0x1F DUP4 ADD PUSH1 0x5 SHR PUSH1 0x0 DUP1 MLOAD PUSH1 0x20 PUSH2 0x2ADF DUP4 CODECOPY DUP2 MLOAD SWAP2 MSTORE ADD PUSH1 0x20 DUP5 LT PUSH2 0xCF8 JUMPI JUMPDEST SWAP1 DUP4 SWAP3 SWAP2 JUMPDEST PUSH1 0x1F DUP3 ADD PUSH1 0x5 SHR PUSH1 0x0 DUP1 MLOAD PUSH1 0x20 PUSH2 0x2ADF DUP4 CODECOPY DUP2 MLOAD SWAP2 MSTORE ADD DUP2 LT PUSH2 0xCE9 JUMPI POP PUSH2 0x9CF JUMP JUMPDEST PUSH1 0x0 DUP2 SSTORE DUP5 SWAP4 POP PUSH1 0x1 ADD PUSH2 0xCC6 JUMP JUMPDEST POP PUSH1 0x0 DUP1 MLOAD PUSH1 0x20 PUSH2 0x2ADF DUP4 CODECOPY DUP2 MLOAD SWAP2 MSTORE PUSH2 0xCC1 JUMP JUMPDEST SWAP1 POP DUP6 ADD MLOAD DUP7 PUSH2 0x98E JUMP JUMPDEST SWAP2 POP PUSH1 0x1 PUSH1 0x0 MSTORE PUSH1 0x0 DUP1 MLOAD PUSH1 0x20 PUSH2 0x2B1F DUP4 CODECOPY DUP2 MLOAD SWAP2 MSTORE PUSH1 0x0 SWAP3 JUMPDEST PUSH1 0x1F NOT DUP4 AND DUP5 LT PUSH2 0xD73 JUMPI PUSH1 0x1 SWAP4 POP DUP3 PUSH1 0x1F NOT DUP2 AND LT PUSH2 0xD5A JUMPI JUMPDEST POP POP DUP2 SHL ADD PUSH1 0x1 SSTORE PUSH2 0x9A3 JUMP JUMPDEST DUP8 ADD MLOAD PUSH1 0x0 NOT PUSH1 0xF8 DUP5 PUSH1 0x3 SHL AND SHR NOT AND SWAP1 SSTORE DUP7 DUP1 PUSH2 0xD4D JUMP JUMPDEST DUP8 DUP2 ADD MLOAD DUP3 SSTORE PUSH1 0x20 SWAP4 DUP5 ADD SWAP4 PUSH1 0x1 SWAP1 SWAP3 ADD SWAP2 ADD PUSH2 0xD32 JUMP JUMPDEST PUSH1 0x1 PUSH1 0x0 MSTORE PUSH1 0x1F DUP3 ADD PUSH1 0x5 SHR PUSH1 0x0 DUP1 MLOAD PUSH1 0x20 PUSH2 0x2B1F DUP4 CODECOPY DUP2 MLOAD SWAP2 MSTORE ADD PUSH1 0x20 DUP4 LT PUSH2 0xDDF JUMPI JUMPDEST PUSH1 0x1F DUP3 ADD PUSH1 0x5 SHR PUSH1 0x0 DUP1 MLOAD PUSH1 0x20 PUSH2 0x2B1F DUP4 CODECOPY DUP2 MLOAD SWAP2 MSTORE ADD DUP2 LT PUSH2 0xDD3 JUMPI POP PUSH2 0x977 JUMP JUMPDEST PUSH1 0x0 DUP2 SSTORE PUSH1 0x1 ADD PUSH2 0xDB0 JUMP JUMPDEST POP PUSH1 0x0 DUP1 MLOAD PUSH1 0x20 PUSH2 0x2B1F DUP4 CODECOPY DUP2 MLOAD SWAP2 MSTORE PUSH2 0xDB0 JUMP JUMPDEST PUSH1 0x40 MLOAD PUSH3 0x461BCD PUSH1 0xE5 SHL DUP2 MSTORE PUSH1 0x20 PUSH1 0x4 DUP3 ADD MSTORE PUSH1 0x23 PUSH1 0x24 DUP3 ADD MSTORE PUSH32 0x546F74616C20736861726573206D757374206265206772656174657220746861 PUSH1 0x44 DUP3 ADD MSTORE PUSH3 0x6E203 PUSH1 0xEC SHL PUSH1 0x64 DUP3 ADD MSTORE PUSH1 0x84 SWAP1 REVERT JUMPDEST PUSH1 0x40 MLOAD PUSH3 0x461BCD PUSH1 0xE5 SHL DUP2 MSTORE PUSH1 0x20 PUSH1 0x4 DUP3 ADD MSTORE PUSH1 0x1B PUSH1 0x24 DUP3 ADD MSTORE PUSH32 0x436F6D70616E7920616C726561647920696E697469616C697A65640000000000 PUSH1 0x44 DUP3 ADD MSTORE PUSH1 0x64 SWAP1 REVERT JUMPDEST CALLVALUE PUSH2 0x1C3 JUMPI PUSH1 0xA0 CALLDATASIZE PUSH1 0x3 NOT ADD SLT PUSH2 0x1C3 JUMPI PUSH1 0x4 CALLDATALOAD PUSH1 0xFF DUP2 AND DUP2 SUB PUSH2 0x1C3 JUMPI PUSH1 0x24 CALLDATALOAD PUSH1 0x1 PUSH1 0x1 PUSH1 0x40 SHL SUB DUP2 GT PUSH2 0x1C3 JUMPI PUSH2 0xEC7 SWAP1 CALLDATASIZE SWAP1 PUSH1 0x4 ADD PUSH2 0x2972 JUMP JUMPDEST SWAP1 PUSH1 0x44 CALLDATALOAD PUSH1 0x1 PUSH1 0x1 PUSH1 0x40 SHL SUB DUP2 GT PUSH2 0x1C3 JUMPI PUSH2 0xEE7 SWAP1 CALLDATASIZE SWAP1 PUSH1 0x4 ADD PUSH2 0x2972 JUMP JUMPDEST SWAP2 PUSH1 0x64 CALLDATALOAD PUSH1 0x1 PUSH1 0x1 PUSH1 0x40 SHL SUB DUP2 GT PUSH2 0x1C3 JUMPI PUSH2 0xF07 SWAP1 CALLDATASIZE SWAP1 PUSH1 0x4 ADD PUSH2 0x2972 JUMP JUMPDEST SWAP2 PUSH1 0x84 CALLDATALOAD SWAP3 CALLER PUSH1 0x0 MSTORE PUSH1 0x8 PUSH1 0x20 MSTORE PUSH2 0xF26 PUSH1 0xFF PUSH1 0x40 PUSH1 0x0 KECCAK256 SLOAD AND PUSH2 0x2A01 JUMP JUMPDEST PUSH1 0x5 PUSH1 0xFF DUP4 AND GT PUSH2 0x1583 JUMPI DUP3 MLOAD ISZERO PUSH2 0x1546 JUMPI DUP4 ISZERO SWAP4 DUP5 ISZERO DUP1 PUSH2 0x153A JUMPI JUMPDEST ISZERO PUSH2 0x1502 JUMPI PUSH1 0x6 PUSH1 0xFF DUP5 AND LT ISZERO PUSH2 0x7E5 JUMPI PUSH1 0xB SLOAD SWAP5 PUSH1 0x1 DUP7 ADD DUP7 GT PUSH2 0x7FB JUMPI PUSH3 0x15180 DUP1 DUP4 MUL SWAP3 DUP4 DIV EQ OR ISZERO PUSH2 0x7FB JUMPI PUSH2 0xF7D SWAP1 TIMESTAMP PUSH2 0x2A6F JUMP JUMPDEST SWAP1 PUSH2 0xF8A PUSH1 0xFF DUP5 AND PUSH2 0x2913 JUMP JUMPDEST SLOAD SWAP2 PUSH1 0x40 MLOAD SWAP7 DUP8 PUSH2 0x1E0 DUP2 ADD LT PUSH1 0x1 PUSH1 0x1 PUSH1 0x40 SHL SUB PUSH2 0x1E0 DUP11 ADD GT OR PUSH2 0xC00 JUMPI PUSH2 0x1E0 DUP9 ADD PUSH1 0x40 MSTORE PUSH1 0x1 DUP8 ADD DUP9 MSTORE PUSH1 0xFF DUP6 AND PUSH1 0x20 DUP10 ADD MSTORE DUP6 PUSH1 0x40 DUP10 ADD MSTORE PUSH1 0x60 DUP9 ADD MSTORE CALLER PUSH1 0x80 DUP9 ADD MSTORE TIMESTAMP PUSH1 0xA0 DUP9 ADD MSTORE PUSH1 0xC0 DUP8 ADD MSTORE PUSH1 0x1 PUSH1 0xE0 DUP8 ADD MSTORE PUSH1 0x0 PUSH2 0x100 DUP8 ADD MSTORE PUSH2 0x120 DUP7 ADD MSTORE PUSH1 0x0 PUSH2 0x140 DUP7 ADD MSTORE PUSH1 0x0 PUSH2 0x160 DUP7 ADD MSTORE PUSH1 0x0 PUSH2 0x180 DUP7 ADD MSTORE PUSH1 0x0 PUSH2 0x1A0 DUP7 ADD MSTORE PUSH2 0x1C0 DUP6 ADD MSTORE PUSH1 0x1 PUSH1 0x40 SHL DUP4 LT ISZERO PUSH2 0xC00 JUMPI PUSH1 0x1 DUP4 ADD PUSH1 0xB SSTORE PUSH2 0x1034 DUP4 PUSH2 0x2572 JUMP JUMPDEST PUSH2 0x14EC JUMPI DUP5 MLOAD DUP2 SSTORE PUSH1 0x20 DUP6 ADD MLOAD PUSH1 0x6 DUP2 LT ISZERO PUSH2 0x7E5 JUMPI PUSH1 0x1 DUP3 ADD SWAP1 PUSH1 0xFF DUP1 NOT DUP4 SLOAD AND SWAP2 AND OR SWAP1 SSTORE PUSH1 0x40 DUP6 ADD MLOAD DUP1 MLOAD SWAP1 PUSH1 0x1 PUSH1 0x1 PUSH1 0x40 SHL SUB DUP3 GT PUSH2 0xC00 JUMPI DUP2 SWAP1 PUSH2 0x1080 PUSH1 0x2 DUP6 ADD SLOAD PUSH2 0x25AD JUMP JUMPDEST PUSH1 0x1F DUP2 GT PUSH2 0x1499 JUMPI JUMPDEST POP PUSH1 0x20 SWAP1 PUSH1 0x1F DUP4 GT PUSH1 0x1 EQ PUSH2 0x1427 JUMPI PUSH1 0x0 SWAP3 PUSH2 0x141C JUMPI JUMPDEST POP POP DUP2 PUSH1 0x1 SHL SWAP2 PUSH1 0x0 NOT SWAP1 PUSH1 0x3 SHL SHR NOT AND OR PUSH1 0x2 DUP3 ADD SSTORE JUMPDEST PUSH1 0x60 DUP6 ADD MLOAD DUP1 MLOAD SWAP1 PUSH1 0x1 PUSH1 0x1 PUSH1 0x40 SHL SUB DUP3 GT PUSH2 0xC00 JUMPI DUP2 SWAP1 PUSH2 0x10DD PUSH1 0x3 DUP6 ADD SLOAD PUSH2 0x25AD JUMP JUMPDEST PUSH1 0x1F DUP2 GT PUSH2 0x13C9 JUMPI JUMPDEST POP PUSH1 0x20 SWAP1 PUSH1 0x1F DUP4 GT PUSH1 0x1 EQ PUSH2 0x1357 JUMPI PUSH1 0x0 SWAP3 PUSH2 0x134C JUMPI JUMPDEST POP POP DUP2 PUSH1 0x1 SHL SWAP2 PUSH1 0x0 NOT SWAP1 PUSH1 0x3 SHL SHR NOT AND OR PUSH1 0x3 DUP3 ADD SSTORE JUMPDEST PUSH1 0x4 DUP2 ADD PUSH1 0x1 DUP1 PUSH1 0xA0 SHL SUB PUSH1 0x80 DUP8 ADD MLOAD AND PUSH1 0x1 PUSH1 0x1 PUSH1 0x60 SHL SUB PUSH1 0xA0 SHL DUP3 SLOAD AND OR SWAP1 SSTORE PUSH1 0xA0 DUP6 ADD MLOAD PUSH1 0x5 DUP3 ADD SSTORE PUSH1 0xC0 DUP6 ADD MLOAD PUSH1 0x6 DUP3 ADD SSTORE PUSH1 0x7 DUP2 ADD PUSH2 0x116B PUSH1 0xE0 DUP8 ADD MLOAD ISZERO ISZERO DUP3 SWAP1 PUSH1 0xFF DUP1 NOT DUP4 SLOAD AND SWAP2 ISZERO ISZERO AND OR SWAP1 SSTORE JUMP JUMPDEST PUSH2 0x100 DUP7 ADD MLOAD ISZERO ISZERO PUSH2 0xFF00 DUP3 SLOAD SWAP2 PUSH1 0x8 SHL AND SWAP1 PUSH2 0xFF00 NOT AND OR SWAP1 SSTORE PUSH2 0x120 DUP6 ADD MLOAD SWAP5 DUP6 MLOAD PUSH1 0x1 PUSH1 0x1 PUSH1 0x40 SHL SUB DUP2 GT PUSH2 0xC00 JUMPI PUSH2 0x11AA PUSH1 0x8 DUP5 ADD SLOAD PUSH2 0x25AD JUMP JUMPDEST SWAP7 PUSH1 0x1F DUP9 GT PUSH2 0x1305 JUMPI JUMPDEST PUSH1 0x20 SWAP8 POP DUP8 SWAP1 PUSH1 0x1F DUP4 GT PUSH1 0x1 EQ PUSH2 0x1289 JUMPI PUSH1 0xFF SWAP7 SWAP6 SWAP4 DUP4 PUSH2 0x1234 SWAP7 SWAP5 PUSH1 0xD SWAP5 PUSH2 0x1C0 SWAP5 PUSH1 0x0 SWAP3 PUSH2 0x127E JUMPI JUMPDEST POP POP DUP2 PUSH1 0x1 SHL SWAP2 PUSH1 0x0 NOT SWAP1 PUSH1 0x3 SHL SHR NOT AND OR PUSH1 0x8 DUP6 ADD SSTORE JUMPDEST PUSH2 0x140 DUP2 ADD MLOAD PUSH1 0x9 DUP6 ADD SSTORE PUSH2 0x160 DUP2 ADD MLOAD PUSH1 0xA DUP6 ADD SSTORE PUSH2 0x180 DUP2 ADD MLOAD PUSH1 0xB DUP6 ADD SSTORE PUSH2 0x1A0 DUP2 ADD MLOAD PUSH1 0xC DUP6 ADD SSTORE ADD MLOAD SWAP2 ADD SSTORE PUSH1 0x40 MLOAD SWAP4 DUP5 SWAP2 AND PUSH2 0x2863 JUMP JUMPDEST PUSH1 0x40 DUP5 DUP4 ADD MSTORE PUSH32 0xA57B64C524115C249EE650BEA06E0B5A288B6090303A56BD74457FBE208010A8 CALLER SWAP3 DUP1 PUSH2 0x1270 PUSH1 0x1 DUP8 ADD SWAP5 PUSH1 0x40 DUP4 ADD SWAP1 PUSH2 0x2870 JUMP JUMPDEST SUB SWAP1 LOG3 PUSH1 0x1 PUSH1 0x40 MLOAD SWAP2 ADD DUP2 MSTORE RETURN JUMPDEST ADD MLOAD SWAP1 POP DUP13 DUP1 PUSH2 0x11DF JUMP JUMPDEST SWAP1 PUSH1 0x8 DUP6 ADD PUSH1 0x0 MSTORE DUP9 PUSH1 0x0 KECCAK256 SWAP2 PUSH1 0x0 JUMPDEST PUSH1 0x1F NOT DUP6 AND DUP2 LT PUSH2 0x12EE JUMPI POP SWAP4 PUSH1 0x1 DUP5 PUSH1 0xD SWAP5 PUSH2 0x1C0 SWAP5 PUSH1 0xFF SWAP12 SWAP11 SWAP9 PUSH2 0x1234 SWAP11 SWAP9 PUSH1 0x1F NOT DUP2 AND LT PUSH2 0x12D5 JUMPI JUMPDEST POP POP POP DUP2 SHL ADD PUSH1 0x8 DUP6 ADD SSTORE PUSH2 0x11F7 JUMP JUMPDEST ADD MLOAD PUSH1 0x0 NOT PUSH1 0xF8 DUP5 PUSH1 0x3 SHL AND SHR NOT AND SWAP1 SSTORE DUP13 DUP1 DUP1 PUSH2 0x12C5 JUMP JUMPDEST SWAP2 SWAP3 DUP11 PUSH1 0x1 DUP2 SWAP3 DUP7 DUP6 ADD MLOAD DUP2 SSTORE ADD SWAP5 ADD SWAP3 ADD PUSH2 0x1299 JUMP JUMPDEST PUSH1 0x8 DUP5 ADD PUSH1 0x0 MSTORE PUSH1 0x20 PUSH1 0x0 KECCAK256 PUSH1 0x1F DUP4 ADD PUSH1 0x5 SHR DUP2 ADD PUSH1 0x20 DUP5 LT PUSH2 0x1345 JUMPI JUMPDEST PUSH1 0x1F DUP11 ADD PUSH1 0x5 SHR DUP3 ADD DUP2 LT PUSH2 0x1339 JUMPI POP POP PUSH2 0x11B4 JUMP JUMPDEST PUSH1 0x0 DUP2 SSTORE PUSH1 0x1 ADD PUSH2 0x1323 JUMP JUMPDEST POP DUP1 PUSH2 0x1323 JUMP JUMPDEST ADD MLOAD SWAP1 POP DUP8 DUP1 PUSH2 0x10FD JUMP JUMPDEST SWAP3 POP PUSH1 0x3 DUP5 ADD PUSH1 0x0 MSTORE PUSH1 0x20 PUSH1 0x0 KECCAK256 SWAP1 PUSH1 0x0 SWAP4 JUMPDEST PUSH1 0x1F NOT DUP5 AND DUP6 LT PUSH2 0x13AE JUMPI PUSH1 0x1 SWAP5 POP DUP4 PUSH1 0x1F NOT DUP2 AND LT PUSH2 0x1395 JUMPI JUMPDEST POP POP POP DUP2 SHL ADD PUSH1 0x3 DUP3 ADD SSTORE PUSH2 0x1115 JUMP JUMPDEST ADD MLOAD PUSH1 0x0 NOT PUSH1 0xF8 DUP5 PUSH1 0x3 SHL AND SHR NOT AND SWAP1 SSTORE DUP8 DUP1 DUP1 PUSH2 0x1385 JUMP JUMPDEST DUP2 DUP2 ADD MLOAD DUP4 SSTORE PUSH1 0x20 SWAP5 DUP6 ADD SWAP5 PUSH1 0x1 SWAP1 SWAP4 ADD SWAP3 SWAP1 SWAP2 ADD SWAP1 PUSH2 0x136A JUMP JUMPDEST SWAP1 SWAP2 POP PUSH1 0x3 DUP5 ADD PUSH1 0x0 MSTORE PUSH1 0x20 PUSH1 0x0 KECCAK256 PUSH1 0x1F DUP5 ADD PUSH1 0x5 SHR DUP2 ADD PUSH1 0x20 DUP6 LT PUSH2 0x1415 JUMPI JUMPDEST SWAP1 DUP5 SWAP4 SWAP3 SWAP2 JUMPDEST PUSH1 0x1F DUP4 ADD PUSH1 0x5 SHR DUP3 ADD DUP2 LT PUSH2 0x1406 JUMPI POP POP PUSH2 0x10E6 JUMP JUMPDEST PUSH1 0x0 DUP2 SSTORE DUP6 SWAP5 POP PUSH1 0x1 ADD PUSH2 0x13F0 JUMP JUMPDEST POP DUP1 PUSH2 0x13EA JUMP JUMPDEST ADD MLOAD SWAP1 POP DUP8 DUP1 PUSH2 0x10A0 JUMP JUMPDEST SWAP3 POP PUSH1 0x2 DUP5 ADD PUSH1 0x0 MSTORE PUSH1 0x20 PUSH1 0x0 KECCAK256 SWAP1 PUSH1 0x0 SWAP4 JUMPDEST PUSH1 0x1F NOT DUP5 AND DUP6 LT PUSH2 0x147E JUMPI PUSH1 0x1 SWAP5 POP DUP4 PUSH1 0x1F NOT DUP2 AND LT PUSH2 0x1465 JUMPI JUMPDEST POP POP POP DUP2 SHL ADD PUSH1 0x2 DUP3 ADD SSTORE PUSH2 0x10B8 JUMP JUMPDEST ADD MLOAD PUSH1 0x0 NOT PUSH1 0xF8 DUP5 PUSH1 0x3 SHL AND SHR NOT AND SWAP1 SSTORE DUP8 DUP1 DUP1 PUSH2 0x1455 JUMP JUMPDEST DUP2 DUP2 ADD MLOAD DUP4 SSTORE PUSH1 0x20 SWAP5 DUP6 ADD SWAP5 PUSH1 0x1 SWAP1 SWAP4 ADD SWAP3 SWAP1 SWAP2 ADD SWAP1 PUSH2 0x143A JUMP JUMPDEST SWAP1 SWAP2 POP PUSH1 0x2 DUP5 ADD PUSH1 0x0 MSTORE PUSH1 0x20 PUSH1 0x0 KECCAK256 PUSH1 0x1F DUP5 ADD PUSH1 0x5 SHR DUP2 ADD PUSH1 0x20 DUP6 LT PUSH2 0x14E5 JUMPI JUMPDEST SWAP1 DUP5 SWAP4 SWAP3 SWAP2 JUMPDEST PUSH1 0x1F DUP4 ADD PUSH1 0x5 SHR DUP3 ADD DUP2 LT PUSH2 0x14D6 JUMPI POP POP PUSH2 0x1089 JUMP JUMPDEST PUSH1 0x0 DUP2 SSTORE DUP6 SWAP5 POP PUSH1 0x1 ADD PUSH2 0x14C0 JUMP JUMPDEST POP DUP1 PUSH2 0x14BA JUMP JUMPDEST PUSH4 0x4E487B71 PUSH1 0xE0 SHL PUSH1 0x0 MSTORE PUSH1 0x0 PUSH1 0x4 MSTORE PUSH1 0x24 PUSH1 0x0 REVERT JUMPDEST PUSH1 0x40 MLOAD PUSH3 0x461BCD PUSH1 0xE5 SHL DUP2 MSTORE PUSH1 0x20 PUSH1 0x4 DUP3 ADD MSTORE PUSH1 0x10 PUSH1 0x24 DUP3 ADD MSTORE PUSH16 0x24B73B30B634B210323AB930BA34B7B7 PUSH1 0x81 SHL PUSH1 0x44 DUP3 ADD MSTORE PUSH1 0x64 SWAP1 REVERT JUMPDEST POP PUSH2 0x16D DUP2 GT ISZERO PUSH2 0xF43 JUMP JUMPDEST PUSH1 0x40 MLOAD PUSH3 0x461BCD PUSH1 0xE5 SHL DUP2 MSTORE PUSH1 0x20 PUSH1 0x4 DUP3 ADD MSTORE PUSH1 0x15 PUSH1 0x24 DUP3 ADD MSTORE PUSH21 0x5469746C652063616E6E6F7420626520656D707479 PUSH1 0x58 SHL PUSH1 0x44 DUP3 ADD MSTORE PUSH1 0x64 SWAP1 REVERT JUMPDEST PUSH1 0x40 MLOAD PUSH3 0x461BCD PUSH1 0xE5 SHL DUP2 MSTORE PUSH1 0x20 PUSH1 0x4 DUP3 ADD MSTORE PUSH1 0x15 PUSH1 0x24 DUP3 ADD MSTORE PUSH21 0x496E76616C69642070726F706F73616C2074797065 PUSH1 0x58 SHL PUSH1 0x44 DUP3 ADD MSTORE PUSH1 0x64 SWAP1 REVERT JUMPDEST CALLVALUE PUSH2 0x1C3 JUMPI PUSH1 0x0 CALLDATASIZE PUSH1 0x3 NOT ADD SLT PUSH2 0x1C3 JUMPI PUSH1 0x0 SLOAD PUSH1 0x40 MLOAD PUSH1 0x1 PUSH1 0x1 PUSH1 0xA0 SHL SUB SWAP1 SWAP2 AND DUP2 MSTORE PUSH1 0x20 SWAP1 RETURN JUMPDEST CALLVALUE PUSH2 0x1C3 JUMPI PUSH1 0x0 CALLDATASIZE PUSH1 0x3 NOT ADD SLT PUSH2 0x1C3 JUMPI PUSH2 0x1602 PUSH2 0x29D5 JUMP JUMPDEST PUSH1 0x0 DUP1 SLOAD PUSH1 0x1 PUSH1 0x1 PUSH1 0xA0 SHL SUB NOT DUP2 AND DUP3 SSTORE PUSH1 0x1 PUSH1 0x1 PUSH1 0xA0 SHL SUB AND PUSH32 0x8BE0079C531659141344CD1FD0A4F28419497F9722A3DAAFE3B4186F6B6457E0 DUP3 DUP1 LOG3 STOP JUMPDEST CALLVALUE PUSH2 0x1C3 JUMPI PUSH1 0x80 CALLDATASIZE PUSH1 0x3 NOT ADD SLT PUSH2 0x1C3 JUMPI PUSH2 0x165B PUSH2 0x28B0 JUMP JUMPDEST PUSH1 0x24 CALLDATALOAD SWAP1 PUSH4 0xFFFFFFFF DUP3 AND DUP3 SUB PUSH2 0x1C3 JUMPI PUSH1 0x44 CALLDATALOAD PUSH1 0x1 PUSH1 0x1 PUSH1 0x40 SHL SUB DUP2 GT PUSH2 0x1C3 JUMPI PUSH2 0x168B SWAP1 CALLDATASIZE SWAP1 PUSH1 0x4 ADD PUSH2 0x2972 JUMP JUMPDEST SWAP1 PUSH1 0x64 CALLDATALOAD PUSH1 0x1 PUSH1 0x1 PUSH1 0x40 SHL SUB DUP2 GT PUSH2 0x1C3 JUMPI PUSH2 0x16AB SWAP1 CALLDATASIZE SWAP1 PUSH1 0x4 ADD PUSH2 0x2972 JUMP JUMPDEST SWAP2 CALLER PUSH1 0x0 MSTORE PUSH1 0x8 PUSH1 0x20 MSTORE PUSH2 0x16C6 PUSH1 0xFF PUSH1 0x40 PUSH1 0x0 KECCAK256 SLOAD AND PUSH2 0x2A01 JUMP JUMPDEST PUSH1 0x1 PUSH1 0x1 PUSH1 0xA0 SHL SUB DUP3 AND ISZERO PUSH2 0x1B62 JUMPI PUSH4 0xFFFFFFFF DUP5 AND ISZERO PUSH2 0x1B1D JUMPI PUSH1 0x1 PUSH1 0x1 PUSH1 0xA0 SHL SUB DUP3 AND PUSH1 0x0 SWAP1 DUP2 MSTORE PUSH1 0x7 PUSH1 0x20 MSTORE PUSH1 0x40 SWAP1 KECCAK256 SLOAD PUSH1 0xFF AND PUSH2 0x1AD8 JUMPI PUSH1 0x40 MLOAD PUSH1 0xA0 DUP2 ADD DUP2 DUP2 LT PUSH1 0x1 PUSH1 0x1 PUSH1 0x40 SHL SUB DUP3 GT OR PUSH2 0xC00 JUMPI PUSH1 0x40 MSTORE PUSH1 0x1 DUP2 MSTORE PUSH1 0x20 DUP2 ADD SWAP1 PUSH4 0xFFFFFFFF DUP7 AND DUP3 MSTORE PUSH1 0x40 DUP2 ADD DUP4 DUP2 MSTORE DUP6 PUSH1 0x60 DUP4 ADD MSTORE PUSH1 0x1 PUSH1 0x80 DUP4 ADD MSTORE PUSH1 0x1 DUP1 PUSH1 0xA0 SHL SUB DUP6 AND PUSH1 0x0 MSTORE PUSH1 0x7 PUSH1 0x20 MSTORE PUSH1 0x40 PUSH1 0x0 KECCAK256 SWAP3 PUSH2 0x1773 DUP4 MLOAD ISZERO ISZERO DUP6 SWAP1 PUSH1 0xFF DUP1 NOT DUP4 SLOAD AND SWAP2 ISZERO ISZERO AND OR SWAP1 SSTORE JUMP JUMPDEST MLOAD PUSH5 0xFFFFFFFF00 DUP5 SLOAD SWAP2 PUSH1 0x8 SHL AND SWAP1 PUSH5 0xFFFFFFFF00 NOT AND OR DUP4 SSTORE MLOAD DUP1 MLOAD SWAP1 PUSH1 0x1 PUSH1 0x1 PUSH1 0x40 SHL SUB DUP3 GT PUSH2 0xC00 JUMPI DUP2 SWAP1 PUSH2 0x17AE PUSH1 0x1 DUP7 ADD SLOAD PUSH2 0x25AD JUMP JUMPDEST PUSH1 0x1F DUP2 GT PUSH2 0x1A85 JUMPI JUMPDEST POP PUSH1 0x20 SWAP1 PUSH1 0x1F DUP4 GT PUSH1 0x1 EQ PUSH2 0x1A13 JUMPI PUSH1 0x0 SWAP3 PUSH2 0x1A08 JUMPI JUMPDEST POP POP DUP2 PUSH1 0x1 SHL SWAP2 PUSH1 0x0 NOT SWAP1 PUSH1 0x3 SHL SHR NOT AND OR PUSH1 0x1 DUP4 ADD SSTORE JUMPDEST PUSH1 0x60 DUP2 ADD MLOAD DUP1 MLOAD SWAP1 PUSH1 0x1 PUSH1 0x1 PUSH1 0x40 SHL SUB DUP3 GT PUSH2 0xC00 JUMPI PUSH2 0x1809 PUSH1 0x2 DUP6 ADD SLOAD PUSH2 0x25AD JUMP JUMPDEST PUSH1 0x1F DUP2 GT PUSH2 0x19C1 JUMPI JUMPDEST POP PUSH1 0x20 SWAP1 PUSH1 0x1F DUP4 GT PUSH1 0x1 EQ PUSH2 0x194B JUMPI SWAP3 DUP3 PUSH1 0x3 SWAP4 PUSH1 0x80 SWAP4 PUSH2 0x1864 SWAP8 SWAP7 PUSH1 0x0 SWAP3 PUSH2 0x1940 JUMPI JUMPDEST POP POP DUP2 PUSH1 0x1 SHL SWAP2 PUSH1 0x0 NOT SWAP1 DUP7 SHL SHR NOT AND OR PUSH1 0x2 DUP6 ADD SSTORE JUMPDEST ADD MLOAD ISZERO ISZERO SWAP2 ADD SWAP1 PUSH1 0xFF DUP1 NOT DUP4 SLOAD AND SWAP2 ISZERO ISZERO AND OR SWAP1 SSTORE JUMP JUMPDEST PUSH1 0x9 SLOAD SWAP2 PUSH1 0x1 PUSH1 0x40 SHL DUP4 LT ISZERO PUSH2 0xC00 JUMPI PUSH1 0x1 DUP4 ADD DUP1 PUSH1 0x9 SSTORE DUP4 LT ISZERO PUSH2 0x192A JUMPI PUSH4 0xFFFFFFFF PUSH2 0x1914 PUSH32 0xA49B810BA77638FCF02015BC870581D41A738AADCBA590DD8F94425A46BC6B2E SWAP6 PUSH2 0xABD SWAP6 PUSH1 0x9 PUSH1 0x0 MSTORE PUSH32 0x6E1540171B6C0C960B71A7020D9F60077F6AF931A8BBF590DA0223DACF75C7AF ADD PUSH1 0x1 DUP1 PUSH1 0xA0 SHL SUB DUP6 AND PUSH1 0x1 PUSH1 0x1 PUSH1 0x60 SHL SUB PUSH1 0xA0 SHL DUP3 SLOAD AND OR SWAP1 SSTORE PUSH2 0x18FD PUSH1 0x5 SLOAD PUSH2 0x2A60 JUMP JUMPDEST PUSH1 0x5 SSTORE PUSH1 0x40 MLOAD SWAP6 DUP7 SWAP6 PUSH1 0x60 DUP8 MSTORE PUSH1 0x60 DUP8 ADD SWAP1 PUSH2 0x2870 JUMP JUMPDEST SWAP6 AND PUSH1 0x40 DUP4 ADD MSTORE PUSH1 0x1 PUSH1 0x1 PUSH1 0xA0 SHL SUB AND SWAP4 SUB SWAP1 LOG2 STOP JUMPDEST PUSH4 0x4E487B71 PUSH1 0xE0 SHL PUSH1 0x0 MSTORE PUSH1 0x32 PUSH1 0x4 MSTORE PUSH1 0x24 PUSH1 0x0 REVERT JUMPDEST ADD MLOAD SWAP1 POP DUP12 DUP1 PUSH2 0x1836 JUMP JUMPDEST SWAP1 PUSH1 0x1F NOT DUP4 AND SWAP2 PUSH1 0x2 DUP7 ADD PUSH1 0x0 MSTORE PUSH1 0x20 PUSH1 0x0 KECCAK256 SWAP3 PUSH1 0x0 JUMPDEST DUP2 DUP2 LT PUSH2 0x19A9 JUMPI POP SWAP4 PUSH1 0x80 SWAP4 PUSH2 0x1864 SWAP8 SWAP7 SWAP4 PUSH1 0x1 SWAP4 DUP4 PUSH1 0x3 SWAP9 LT PUSH2 0x1991 JUMPI JUMPDEST POP POP POP DUP2 SHL ADD PUSH1 0x2 DUP6 ADD SSTORE PUSH2 0x184D JUMP JUMPDEST ADD MLOAD PUSH1 0x0 NOT DUP4 DUP9 SHL PUSH1 0xF8 AND SHR NOT AND SWAP1 SSTORE DUP12 DUP1 DUP1 PUSH2 0x1981 JUMP JUMPDEST SWAP3 SWAP4 PUSH1 0x20 PUSH1 0x1 DUP2 SWAP3 DUP8 DUP7 ADD MLOAD DUP2 SSTORE ADD SWAP6 ADD SWAP4 ADD PUSH2 0x1962 JUMP JUMPDEST PUSH1 0x2 DUP6 ADD PUSH1 0x0 MSTORE PUSH1 0x20 PUSH1 0x0 KECCAK256 PUSH1 0x1F DUP5 ADD PUSH1 0x5 SHR DUP2 ADD PUSH1 0x20 DUP6 LT PUSH2 0x1A01 JUMPI JUMPDEST PUSH1 0x1F DUP4 ADD PUSH1 0x5 SHR DUP3 ADD DUP2 LT PUSH2 0x19F5 JUMPI POP POP PUSH2 0x1812 JUMP JUMPDEST PUSH1 0x0 DUP2 SSTORE PUSH1 0x1 ADD PUSH2 0x19DF JUMP JUMPDEST POP DUP1 PUSH2 0x19DF JUMP JUMPDEST ADD MLOAD SWAP1 POP DUP9 DUP1 PUSH2 0x17CE JUMP JUMPDEST SWAP3 POP PUSH1 0x1 DUP6 ADD PUSH1 0x0 MSTORE PUSH1 0x20 PUSH1 0x0 KECCAK256 SWAP1 PUSH1 0x0 SWAP4 JUMPDEST PUSH1 0x1F NOT DUP5 AND DUP6 LT PUSH2 0x1A6A JUMPI PUSH1 0x1 SWAP5 POP DUP4 PUSH1 0x1F NOT DUP2 AND LT PUSH2 0x1A51 JUMPI JUMPDEST POP POP POP DUP2 SHL ADD PUSH1 0x1 DUP4 ADD SSTORE PUSH2 0x17E6 JUMP JUMPDEST ADD MLOAD PUSH1 0x0 NOT PUSH1 0xF8 DUP5 PUSH1 0x3 SHL AND SHR NOT AND SWAP1 SSTORE DUP9 DUP1 DUP1 PUSH2 0x1A41 JUMP JUMPDEST DUP2 DUP2 ADD MLOAD DUP4 SSTORE PUSH1 0x20 SWAP5 DUP6 ADD SWAP5 PUSH1 0x1 SWAP1 SWAP4 ADD SWAP3 SWAP1 SWAP2 ADD SWAP1 PUSH2 0x1A26 JUMP JUMPDEST SWAP1 SWAP2 POP PUSH1 0x1 DUP6 ADD PUSH1 0x0 MSTORE PUSH1 0x20 PUSH1 0x0 KECCAK256 PUSH1 0x1F DUP5 ADD PUSH1 0x5 SHR DUP2 ADD PUSH1 0x20 DUP6 LT PUSH2 0x1AD1 JUMPI JUMPDEST SWAP1 DUP5 SWAP4 SWAP3 SWAP2 JUMPDEST PUSH1 0x1F DUP4 ADD PUSH1 0x5 SHR DUP3 ADD DUP2 LT PUSH2 0x1AC2 JUMPI POP POP PUSH2 0x17B7 JUMP JUMPDEST PUSH1 0x0 DUP2 SSTORE DUP6 SWAP5 POP PUSH1 0x1 ADD PUSH2 0x1AAC JUMP JUMPDEST POP DUP1 PUSH2 0x1AA6 JUMP JUMPDEST PUSH1 0x40 MLOAD PUSH3 0x461BCD PUSH1 0xE5 SHL DUP2 MSTORE PUSH1 0x20 PUSH1 0x4 DUP3 ADD MSTORE PUSH1 0x1E PUSH1 0x24 DUP3 ADD MSTORE PUSH32 0x5368617265686F6C64657220616C726561647920726567697374657265640000 PUSH1 0x44 DUP3 ADD MSTORE PUSH1 0x64 SWAP1 REVERT JUMPDEST PUSH1 0x40 MLOAD PUSH3 0x461BCD PUSH1 0xE5 SHL DUP2 MSTORE PUSH1 0x20 PUSH1 0x4 DUP3 ADD MSTORE PUSH1 0x1D PUSH1 0x24 DUP3 ADD MSTORE PUSH32 0x536861726573206D7573742062652067726561746572207468616E2030000000 PUSH1 0x44 DUP3 ADD MSTORE PUSH1 0x64 SWAP1 REVERT JUMPDEST PUSH1 0x40 MLOAD PUSH3 0x461BCD PUSH1 0xE5 SHL DUP2 MSTORE PUSH1 0x20 PUSH1 0x4 DUP3 ADD MSTORE PUSH1 0x1B PUSH1 0x24 DUP3 ADD MSTORE PUSH32 0x496E76616C6964207368617265686F6C64657220616464726573730000000000 PUSH1 0x44 DUP3 ADD MSTORE PUSH1 0x64 SWAP1 REVERT JUMPDEST CALLVALUE PUSH2 0x1C3 JUMPI PUSH1 0x20 CALLDATASIZE PUSH1 0x3 NOT ADD SLT PUSH2 0x1C3 JUMPI PUSH1 0x4 CALLDATALOAD PUSH1 0xA SLOAD DUP2 LT ISZERO PUSH2 0x1C3 JUMPI PUSH2 0x1BD0 PUSH1 0x20 SWAP2 PUSH2 0x28DC JUMP JUMPDEST SWAP1 SLOAD PUSH1 0x40 MLOAD PUSH1 0x3 SWAP3 SWAP1 SWAP3 SHL SHR PUSH1 0x1 PUSH1 0x1 PUSH1 0xA0 SHL SUB AND DUP2 MSTORE RETURN JUMPDEST CALLVALUE PUSH2 0x1C3 JUMPI PUSH1 0x20 CALLDATASIZE PUSH1 0x3 NOT ADD SLT PUSH2 0x1C3 JUMPI PUSH1 0x1 PUSH1 0x1 PUSH1 0xA0 SHL SUB PUSH2 0x1C0A PUSH2 0x28B0 JUMP JUMPDEST AND PUSH1 0x0 MSTORE PUSH1 0x7 PUSH1 0x20 MSTORE PUSH1 0x40 PUSH1 0x0 KECCAK256 DUP1 SLOAD PUSH2 0x1C57 PUSH1 0xFF PUSH1 0x3 DUP5 ADD SLOAD AND PUSH2 0x1C3D PUSH1 0x2 PUSH2 0x1C36 PUSH1 0x1 DUP8 ADD PUSH2 0x27BF JUMP JUMPDEST SWAP6 ADD PUSH2 0x27BF JUMP JUMPDEST PUSH1 0x40 MLOAD SWAP5 DUP5 PUSH1 0xFF PUSH4 0xFFFFFFFF DUP9 SWAP8 PUSH1 0x8 SHR AND SWAP2 AND DUP7 PUSH2 0x292C JUMP JUMPDEST SUB SWAP1 RETURN JUMPDEST CALLVALUE PUSH2 0x1C3 JUMPI PUSH1 0x20 CALLDATASIZE PUSH1 0x3 NOT ADD SLT PUSH2 0x1C3 JUMPI PUSH1 0x1 PUSH1 0x1 PUSH1 0xA0 SHL SUB PUSH2 0x1C7C PUSH2 0x28B0 JUMP JUMPDEST AND PUSH1 0x0 MSTORE PUSH1 0x7 PUSH1 0x20 MSTORE PUSH1 0x40 PUSH1 0x0 KECCAK256 DUP1 SLOAD PUSH2 0x1C57 PUSH2 0x1C9B PUSH1 0x1 DUP5 ADD PUSH2 0x27BF JUMP JUMPDEST SWAP3 PUSH1 0xFF PUSH1 0x3 PUSH2 0x1CAC PUSH1 0x2 DUP5 ADD PUSH2 0x27BF JUMP JUMPDEST SWAP3 ADD SLOAD AND SWAP1 PUSH1 0x40 MLOAD SWAP5 DUP5 PUSH1 0xFF PUSH4 0xFFFFFFFF DUP9 SWAP8 PUSH1 0x8 SHR AND SWAP2 AND DUP7 PUSH2 0x292C JUMP JUMPDEST CALLVALUE PUSH2 0x1C3 JUMPI PUSH1 0x20 CALLDATASIZE PUSH1 0x3 NOT ADD SLT PUSH2 0x1C3 JUMPI PUSH1 0x4 CALLDATALOAD PUSH1 0x6 DUP2 LT ISZERO PUSH2 0x1C3 JUMPI PUSH2 0x1CF3 PUSH1 0x20 SWAP2 PUSH2 0x2913 JUMP JUMPDEST SLOAD PUSH1 0x40 MLOAD SWAP1 DUP2 MSTORE RETURN JUMPDEST CALLVALUE PUSH2 0x1C3 JUMPI PUSH1 0x20 CALLDATASIZE PUSH1 0x3 NOT ADD SLT PUSH2 0x1C3 JUMPI PUSH1 0x4 CALLDATALOAD DUP1 ISZERO ISZERO DUP1 PUSH2 0x1EBE JUMPI JUMPDEST PUSH2 0x1D22 SWAP1 PUSH2 0x2A7C JUMP JUMPDEST CALLER PUSH1 0x0 MSTORE PUSH1 0x8 PUSH1 0x20 MSTORE PUSH2 0x1D3C PUSH1 0xFF PUSH1 0x40 PUSH1 0x0 KECCAK256 SLOAD AND PUSH2 0x2A01 JUMP JUMPDEST PUSH1 0x0 NOT DUP2 ADD DUP2 DUP2 GT PUSH2 0x7FB JUMPI PUSH2 0x1D51 SWAP1 PUSH2 0x2572 JUMP JUMPDEST POP PUSH1 0x7 DUP2 ADD DUP1 SLOAD PUSH1 0xFF DUP2 AND ISZERO PUSH2 0x1E79 JUMPI PUSH1 0x6 DUP4 ADD SLOAD TIMESTAMP GT ISZERO PUSH2 0x1E34 JUMPI PUSH2 0xFFFF NOT AND PUSH2 0x100 OR SWAP1 SSTORE PUSH1 0x9 DUP2 ADD SLOAD PUSH1 0xA DUP3 ADD SLOAD PUSH2 0x1D8C DUP2 DUP4 PUSH2 0x2A6F JUMP JUMPDEST SWAP3 PUSH1 0x0 SWAP4 DUP1 PUSH2 0x1DDD JUMPI JUMPDEST POP SWAP2 PUSH32 0x2266EB6B7205E4103D21FA718B7FC277BBA709D05004FE9232C78C533966C1F7 SWAP4 SWAP2 PUSH1 0xB PUSH1 0x80 SWAP5 ADD SLOAD SWAP2 PUSH1 0x40 MLOAD SWAP4 ISZERO ISZERO DUP5 MSTORE PUSH1 0x20 DUP5 ADD MSTORE PUSH1 0x40 DUP4 ADD MSTORE PUSH1 0x60 DUP3 ADD MSTORE LOG2 STOP JUMPDEST SWAP4 POP SWAP1 SWAP2 PUSH1 0x64 DUP2 MUL SWAP3 DUP2 DUP5 DIV PUSH1 0x64 EQ DUP3 ISZERO OR ISZERO PUSH2 0x7FB JUMPI PUSH1 0xB PUSH2 0x1E23 PUSH32 0x2266EB6B7205E4103D21FA718B7FC277BBA709D05004FE9232C78C533966C1F7 SWAP7 PUSH1 0x80 SWAP7 PUSH2 0x2ABE JUMP JUMPDEST PUSH1 0xD DUP6 ADD SLOAD LT SWAP6 POP POP SWAP2 SWAP1 SWAP3 PUSH2 0x1D96 JUMP JUMPDEST PUSH1 0x40 MLOAD PUSH3 0x461BCD PUSH1 0xE5 SHL DUP2 MSTORE PUSH1 0x20 PUSH1 0x4 DUP3 ADD MSTORE PUSH1 0x17 PUSH1 0x24 DUP3 ADD MSTORE PUSH32 0x566F74696E6720706572696F64206E6F7420656E646564000000000000000000 PUSH1 0x44 DUP3 ADD MSTORE PUSH1 0x64 SWAP1 REVERT JUMPDEST PUSH1 0x40 MLOAD PUSH3 0x461BCD PUSH1 0xE5 SHL DUP2 MSTORE PUSH1 0x20 PUSH1 0x4 DUP3 ADD MSTORE PUSH1 0x1A PUSH1 0x24 DUP3 ADD MSTORE PUSH32 0x50726F706F73616C20616C72656164792066696E616C697A6564000000000000 PUSH1 0x44 DUP3 ADD MSTORE PUSH1 0x64 SWAP1 REVERT JUMPDEST POP PUSH1 0xB SLOAD DUP2 GT ISZERO PUSH2 0x1D19 JUMP JUMPDEST CALLVALUE PUSH2 0x1C3 JUMPI PUSH1 0x40 CALLDATASIZE PUSH1 0x3 NOT ADD SLT PUSH2 0x1C3 JUMPI PUSH2 0x1EE3 PUSH2 0x28C6 JUMP JUMPDEST PUSH1 0x4 CALLDATALOAD PUSH1 0x0 MSTORE PUSH1 0xC PUSH1 0x20 MSTORE PUSH1 0x40 PUSH1 0x0 KECCAK256 SWAP1 PUSH1 0x1 DUP1 PUSH1 0xA0 SHL SUB AND PUSH1 0x0 MSTORE PUSH1 0x20 MSTORE PUSH1 0x20 PUSH1 0xFF PUSH1 0x40 PUSH1 0x0 KECCAK256 SLOAD AND PUSH1 0x40 MLOAD SWAP1 ISZERO ISZERO DUP2 MSTORE RETURN JUMPDEST CALLVALUE PUSH2 0x1C3 JUMPI PUSH1 0x20 CALLDATASIZE PUSH1 0x3 NOT ADD SLT PUSH2 0x1C3 JUMPI PUSH1 0x4 CALLDATALOAD DUP1 ISZERO ISZERO DUP1 PUSH2 0x2039 JUMPI JUMPDEST PUSH2 0x1F3D SWAP1 PUSH2 0x2A7C JUMP JUMPDEST CALLER PUSH1 0x0 MSTORE PUSH1 0x8 PUSH1 0x20 MSTORE PUSH2 0x1F57 PUSH1 0xFF PUSH1 0x40 PUSH1 0x0 KECCAK256 SLOAD AND PUSH2 0x2A01 JUMP JUMPDEST PUSH1 0x0 NOT DUP2 ADD SWAP1 DUP2 GT PUSH2 0x7FB JUMPI PUSH2 0x1F6C SWAP1 PUSH2 0x2572 JUMP JUMPDEST POP PUSH1 0xFF PUSH1 0x7 DUP3 ADD SLOAD PUSH1 0x8 SHR AND ISZERO PUSH2 0x1FFB JUMPI PUSH1 0x9 DUP2 ADD SLOAD PUSH1 0xA DUP3 ADD SLOAD PUSH2 0x1F91 DUP2 DUP4 PUSH2 0x2A6F JUMP JUMPDEST SWAP1 PUSH1 0x0 SWAP2 DUP1 PUSH2 0x1FC9 JUMPI JUMPDEST POP PUSH1 0xB PUSH1 0x80 SWAP5 PUSH4 0xFFFFFFFF SWAP2 DUP3 SWAP2 ADD SLOAD AND SWAP2 DUP2 PUSH1 0x40 MLOAD SWAP6 AND DUP6 MSTORE AND PUSH1 0x20 DUP5 ADD MSTORE PUSH1 0x40 DUP4 ADD MSTORE ISZERO ISZERO PUSH1 0x60 DUP3 ADD MSTORE RETURN JUMPDEST SWAP4 SWAP2 POP PUSH1 0x64 DUP4 MUL SWAP4 DUP4 DUP6 DIV PUSH1 0x64 EQ DUP5 ISZERO OR ISZERO PUSH2 0x7FB JUMPI PUSH2 0x1FED PUSH1 0xB SWAP2 PUSH1 0x80 SWAP7 PUSH2 0x2ABE JUMP JUMPDEST PUSH1 0xD DUP5 ADD SLOAD LT SWAP3 SWAP5 POP PUSH2 0x1F9B JUMP JUMPDEST PUSH1 0x40 MLOAD PUSH3 0x461BCD PUSH1 0xE5 SHL DUP2 MSTORE PUSH1 0x20 PUSH1 0x4 DUP3 ADD MSTORE PUSH1 0x16 PUSH1 0x24 DUP3 ADD MSTORE PUSH22 0x141C9BDC1BDCD85B081B9BDD08199A5B985B1A5E9959 PUSH1 0x52 SHL PUSH1 0x44 DUP3 ADD MSTORE PUSH1 0x64 SWAP1 REVERT JUMPDEST POP PUSH1 0xB SLOAD DUP2 GT ISZERO PUSH2 0x1F34 JUMP JUMPDEST CALLVALUE PUSH2 0x1C3 JUMPI PUSH1 0x20 CALLDATASIZE PUSH1 0x3 NOT ADD SLT PUSH2 0x1C3 JUMPI PUSH2 0x205E PUSH2 0x28B0 JUMP JUMPDEST PUSH2 0x2066 PUSH2 0x29D5 JUMP JUMPDEST PUSH1 0x1 PUSH1 0x1 PUSH1 0xA0 SHL SUB SWAP1 DUP2 AND PUSH1 0x0 DUP2 DUP2 MSTORE PUSH1 0x8 PUSH1 0x20 MSTORE PUSH1 0x40 SWAP1 KECCAK256 SLOAD SWAP1 SWAP2 SWAP1 PUSH1 0xFF AND ISZERO PUSH2 0x21E1 JUMPI DUP1 PUSH1 0x0 SLOAD AND DUP3 EQ PUSH2 0x219C JUMPI PUSH1 0x0 DUP3 DUP2 MSTORE PUSH1 0x8 PUSH1 0x20 MSTORE PUSH1 0x40 DUP2 KECCAK256 DUP1 SLOAD PUSH1 0xFF NOT AND SWAP1 SSTORE JUMPDEST PUSH1 0xA SWAP1 DUP2 SLOAD SWAP2 DUP3 DUP3 LT ISZERO PUSH2 0x2193 JUMPI DUP4 SWAP3 DUP6 PUSH2 0x20C7 DUP5 PUSH2 0x28DC JUMP JUMPDEST SWAP7 SWAP1 SLOAD PUSH1 0x3 SWAP8 DUP9 SHL SHR AND EQ PUSH2 0x20E8 JUMPI POP POP PUSH2 0x20E3 SWAP2 SWAP3 POP PUSH2 0x2A60 JUMP JUMPDEST PUSH2 0x20AD JUMP JUMPDEST SWAP1 SWAP3 SWAP2 PUSH1 0x0 NOT SWAP2 DUP1 DUP4 ADD SWAP2 SWAP1 DUP3 GT PUSH2 0x7FB JUMPI PUSH2 0x2117 DUP5 PUSH2 0x210A PUSH2 0x2136 SWAP5 PUSH2 0x28DC JUMP JUMPDEST SWAP1 SLOAD SWAP1 DUP10 SHL SHR AND SWAP2 PUSH2 0x28DC JUMP JUMPDEST SWAP1 SWAP2 SWAP1 DUP3 SLOAD SWAP1 PUSH1 0x3 SHL SWAP2 PUSH1 0x1 DUP1 PUSH1 0xA0 SHL SUB DUP1 SWAP2 AND DUP4 SHL SWAP3 SHL NOT AND OR SWAP1 SSTORE JUMP JUMPDEST DUP3 SLOAD DUP1 ISZERO PUSH2 0x217D JUMPI ADD SWAP3 PUSH2 0x2149 DUP5 PUSH2 0x28DC JUMP JUMPDEST DUP2 SWAP4 SWAP2 SLOAD SWAP3 SHL SHL NOT AND SWAP1 SSTORE SSTORE JUMPDEST PUSH32 0x5059B541F12100245FC1E0AFC5A897E4F2B2AC151E48752188C24421EEB9750B PUSH1 0x0 DUP1 LOG2 STOP JUMPDEST PUSH4 0x4E487B71 PUSH1 0xE0 SHL PUSH1 0x0 MSTORE PUSH1 0x31 PUSH1 0x4 MSTORE PUSH1 0x24 PUSH1 0x0 REVERT JUMPDEST POP POP POP POP PUSH2 0x2156 JUMP JUMPDEST PUSH1 0x40 MLOAD PUSH3 0x461BCD PUSH1 0xE5 SHL DUP2 MSTORE PUSH1 0x20 PUSH1 0x4 DUP3 ADD MSTORE PUSH1 0x1C PUSH1 0x24 DUP3 ADD MSTORE PUSH32 0x43616E6E6F742072656D6F766520636F6E7472616374206F776E657200000000 PUSH1 0x44 DUP3 ADD MSTORE PUSH1 0x64 SWAP1 REVERT JUMPDEST PUSH1 0x40 MLOAD PUSH3 0x461BCD PUSH1 0xE5 SHL DUP2 MSTORE PUSH1 0x20 PUSH1 0x4 DUP3 ADD MSTORE PUSH1 0x12 PUSH1 0x24 DUP3 ADD MSTORE PUSH18 0x2737BA1030903137B0B9321036B2B6B132B9 PUSH1 0x71 SHL PUSH1 0x44 DUP3 ADD MSTORE PUSH1 0x64 SWAP1 REVERT JUMPDEST CALLVALUE PUSH2 0x1C3 JUMPI PUSH1 0x0 CALLDATASIZE PUSH1 0x3 NOT ADD SLT PUSH2 0x1C3 JUMPI PUSH2 0x2271 PUSH2 0x2237 PUSH2 0x2608 JUMP JUMPDEST PUSH2 0x223F PUSH2 0x26B1 JUMP JUMPDEST PUSH2 0x2247 PUSH2 0x2738 JUMP JUMPDEST SWAP1 PUSH1 0x4 SLOAD SWAP2 PUSH2 0x228D PUSH1 0x5 SLOAD SWAP2 PUSH2 0x227F PUSH1 0xFF PUSH1 0x6 SLOAD AND SWAP5 PUSH1 0x40 MLOAD SWAP9 DUP10 SWAP9 PUSH1 0xC0 DUP11 MSTORE PUSH1 0xC0 DUP11 ADD SWAP1 PUSH2 0x2870 JUMP JUMPDEST SWAP1 DUP9 DUP3 SUB PUSH1 0x20 DUP11 ADD MSTORE PUSH2 0x2870 JUMP JUMPDEST SWAP1 DUP7 DUP3 SUB PUSH1 0x40 DUP9 ADD MSTORE PUSH2 0x2870 JUMP JUMPDEST SWAP3 PUSH1 0x60 DUP6 ADD MSTORE PUSH1 0x80 DUP5 ADD MSTORE ISZERO ISZERO PUSH1 0xA0 DUP4 ADD MSTORE SUB SWAP1 RETURN JUMPDEST CALLVALUE PUSH2 0x1C3 JUMPI PUSH1 0x20 CALLDATASIZE PUSH1 0x3 NOT ADD SLT PUSH2 0x1C3 JUMPI PUSH1 0x4 CALLDATALOAD PUSH1 0x9 SLOAD DUP2 LT ISZERO PUSH2 0x1C3 JUMPI PUSH1 0x9 PUSH1 0x0 MSTORE PUSH32 0x6E1540171B6C0C960B71A7020D9F60077F6AF931A8BBF590DA0223DACF75C7AF ADD SLOAD PUSH1 0x40 MLOAD PUSH1 0x1 PUSH1 0x1 PUSH1 0xA0 SHL SUB SWAP1 SWAP2 AND DUP2 MSTORE PUSH1 0x20 SWAP1 RETURN JUMPDEST CALLVALUE PUSH2 0x1C3 JUMPI PUSH1 0x20 CALLDATASIZE PUSH1 0x3 NOT ADD SLT PUSH2 0x1C3 JUMPI PUSH2 0x2317 PUSH2 0x28B0 JUMP JUMPDEST PUSH2 0x231F PUSH2 0x29D5 JUMP JUMPDEST PUSH1 0x1 PUSH1 0x1 PUSH1 0xA0 SHL SUB DUP2 AND SWAP1 DUP2 ISZERO PUSH2 0x23E7 JUMPI DUP2 PUSH1 0x0 MSTORE PUSH1 0x8 PUSH1 0x20 MSTORE PUSH1 0xFF PUSH1 0x40 PUSH1 0x0 KECCAK256 SLOAD AND PUSH2 0x23A9 JUMPI DUP2 PUSH1 0x0 MSTORE PUSH1 0x8 PUSH1 0x20 MSTORE PUSH1 0x40 PUSH1 0x0 KECCAK256 PUSH1 0x1 PUSH1 0xFF NOT DUP3 SLOAD AND OR SWAP1 SSTORE PUSH1 0xA SLOAD SWAP1 PUSH1 0x1 PUSH1 0x40 SHL DUP3 LT ISZERO PUSH2 0xC00 JUMPI PUSH2 0x2117 DUP3 PUSH1 0x1 PUSH2 0x2382 SWAP5 ADD PUSH1 0xA SSTORE PUSH2 0x28DC JUMP JUMPDEST PUSH32 0x956F4B06F20EDA3AA4F6BE9E72E8FC77BEB3F95F4F2A95A796B2AF742583D743 PUSH1 0x0 DUP1 LOG2 STOP JUMPDEST PUSH1 0x40 MLOAD PUSH3 0x461BCD PUSH1 0xE5 SHL DUP2 MSTORE PUSH1 0x20 PUSH1 0x4 DUP3 ADD MSTORE PUSH1 0x16 PUSH1 0x24 DUP3 ADD MSTORE PUSH22 0x20B63932B0B23C9030903137B0B9321036B2B6B132B9 PUSH1 0x51 SHL PUSH1 0x44 DUP3 ADD MSTORE PUSH1 0x64 SWAP1 REVERT JUMPDEST PUSH1 0x40 MLOAD PUSH3 0x461BCD PUSH1 0xE5 SHL DUP2 MSTORE PUSH1 0x20 PUSH1 0x4 DUP3 ADD MSTORE PUSH1 0x16 PUSH1 0x24 DUP3 ADD MSTORE PUSH22 0x496E76616C6964206D656D6265722061646472657373 PUSH1 0x50 SHL PUSH1 0x44 DUP3 ADD MSTORE PUSH1 0x64 SWAP1 REVERT JUMPDEST CALLVALUE PUSH2 0x1C3 JUMPI PUSH1 0x0 CALLDATASIZE PUSH1 0x3 NOT ADD SLT PUSH2 0x1C3 JUMPI PUSH1 0x20 PUSH1 0xB SLOAD PUSH1 0x40 MLOAD SWAP1 DUP2 MSTORE RETURN JUMPDEST CALLVALUE PUSH2 0x1C3 JUMPI PUSH1 0x20 CALLDATASIZE PUSH1 0x3 NOT ADD SLT PUSH2 0x1C3 JUMPI PUSH1 0x4 CALLDATALOAD PUSH1 0xB SLOAD DUP2 LT ISZERO PUSH2 0x1C3 JUMPI PUSH2 0x246A SWAP1 PUSH2 0x2572 JUMP JUMPDEST POP DUP1 SLOAD PUSH1 0x1 DUP3 ADD SLOAD PUSH1 0xFF AND SWAP2 PUSH2 0x2482 PUSH1 0x2 DUP3 ADD PUSH2 0x27BF JUMP JUMPDEST PUSH2 0x248E PUSH1 0x3 DUP4 ADD PUSH2 0x27BF JUMP JUMPDEST PUSH1 0x4 DUP4 ADD SLOAD PUSH1 0x5 DUP5 ADD SLOAD PUSH1 0x6 DUP6 ADD SLOAD PUSH1 0x7 DUP7 ADD SLOAD SWAP1 SWAP6 SWAP4 SWAP3 PUSH1 0x1 PUSH1 0x1 PUSH1 0xA0 SHL SUB AND PUSH2 0x24BB PUSH1 0x8 DUP7 ADD PUSH2 0x27BF JUMP JUMPDEST SWAP2 PUSH1 0x9 DUP7 ADD SLOAD SWAP8 PUSH1 0xA DUP8 ADD SLOAD SWAP5 PUSH1 0xB DUP9 ADD SLOAD SWAP7 PUSH1 0xC DUP10 ADD SLOAD SWAP9 PUSH1 0xD ADD SLOAD SWAP10 PUSH1 0x40 MLOAD SWAP14 DUP15 DUP1 SWAP15 DUP2 MSTORE PUSH1 0x20 ADD PUSH2 0x24EE SWAP2 PUSH2 0x2863 JUMP JUMPDEST DUP13 PUSH2 0x1E0 PUSH1 0x40 DUP2 SWAP3 ADD MSTORE DUP14 ADD PUSH2 0x2503 SWAP2 PUSH2 0x2870 JUMP JUMPDEST DUP13 DUP2 SUB PUSH1 0x60 DUP15 ADD MSTORE PUSH2 0x2514 SWAP2 PUSH2 0x2870 JUMP JUMPDEST SWAP4 PUSH1 0x80 DUP13 ADD MSTORE PUSH1 0xA0 DUP12 ADD MSTORE PUSH1 0xC0 DUP11 ADD MSTORE PUSH1 0xFF DUP2 AND ISZERO ISZERO PUSH1 0xE0 DUP11 ADD MSTORE PUSH1 0x8 SHR PUSH1 0xFF AND ISZERO ISZERO PUSH2 0x100 DUP10 ADD MSTORE DUP8 DUP2 SUB PUSH2 0x120 DUP10 ADD MSTORE PUSH2 0x254F SWAP2 PUSH2 0x2870 JUMP JUMPDEST SWAP5 PUSH2 0x140 DUP8 ADD MSTORE PUSH2 0x160 DUP7 ADD MSTORE PUSH2 0x180 DUP6 ADD MSTORE PUSH2 0x1A0 DUP5 ADD MSTORE PUSH2 0x1C0 DUP4 ADD MSTORE SUB SWAP1 RETURN JUMPDEST PUSH1 0xB SLOAD DUP2 LT ISZERO PUSH2 0x192A JUMPI PUSH1 0xE SWAP1 PUSH1 0xB PUSH1 0x0 MSTORE MUL PUSH32 0x175B7A638427703F0DBE7BB9BBF987A2551717B34E79F33B5B1008D1FA01DB9 ADD SWAP1 PUSH1 0x0 SWAP1 JUMP JUMPDEST SWAP1 PUSH1 0x1 DUP3 DUP2 SHR SWAP3 AND DUP1 ISZERO PUSH2 0x25DD JUMPI JUMPDEST PUSH1 0x20 DUP4 LT EQ PUSH2 0x25C7 JUMPI JUMP JUMPDEST PUSH4 0x4E487B71 PUSH1 0xE0 SHL PUSH1 0x0 MSTORE PUSH1 0x22 PUSH1 0x4 MSTORE PUSH1 0x24 PUSH1 0x0 REVERT JUMPDEST SWAP2 PUSH1 0x7F AND SWAP2 PUSH2 0x25BC JUMP JUMPDEST SWAP1 PUSH1 0x1F DUP1 NOT SWAP2 ADD AND DUP2 ADD SWAP1 DUP2 LT PUSH1 0x1 PUSH1 0x1 PUSH1 0x40 SHL SUB DUP3 GT OR PUSH2 0xC00 JUMPI PUSH1 0x40 MSTORE JUMP JUMPDEST PUSH1 0x40 MLOAD SWAP1 PUSH1 0x0 DUP3 PUSH1 0x1 SWAP2 DUP3 SLOAD SWAP3 PUSH2 0x261E DUP5 PUSH2 0x25AD JUMP JUMPDEST DUP1 DUP5 MSTORE SWAP4 DUP2 DUP2 AND SWAP1 DUP2 ISZERO PUSH2 0x268F JUMPI POP PUSH1 0x1 EQ PUSH2 0x2644 JUMPI JUMPDEST POP PUSH2 0x2642 SWAP3 POP SUB DUP4 PUSH2 0x25E7 JUMP JUMPDEST JUMP JUMPDEST PUSH1 0x0 DUP2 DUP2 MSTORE SWAP2 POP PUSH1 0x0 DUP1 MLOAD PUSH1 0x20 PUSH2 0x2B1F DUP4 CODECOPY DUP2 MLOAD SWAP2 MSTORE JUMPDEST DUP5 DUP4 LT PUSH2 0x2674 JUMPI POP PUSH2 0x2642 SWAP4 POP POP DUP2 ADD PUSH1 0x20 ADD CODESIZE PUSH2 0x2635 JUMP JUMPDEST DUP2 SWAP4 POP SWAP1 DUP2 PUSH1 0x20 SWAP3 SLOAD DUP4 DUP6 DUP11 ADD ADD MSTORE ADD SWAP2 ADD SWAP1 SWAP2 DUP6 SWAP3 PUSH2 0x265B JUMP JUMPDEST SWAP1 POP PUSH1 0x20 SWAP3 POP PUSH2 0x2642 SWAP5 SWAP2 POP PUSH1 0xFF NOT AND DUP3 DUP5 ADD MSTORE ISZERO ISZERO PUSH1 0x5 SHL DUP3 ADD ADD CODESIZE PUSH2 0x2635 JUMP JUMPDEST PUSH1 0x40 MLOAD SWAP1 PUSH1 0x0 DUP3 PUSH1 0x2 SLOAD SWAP2 PUSH2 0x26C5 DUP4 PUSH2 0x25AD JUMP JUMPDEST DUP1 DUP4 MSTORE SWAP3 PUSH1 0x1 SWAP1 DUP2 DUP2 AND SWAP1 DUP2 ISZERO PUSH2 0x268F JUMPI POP PUSH1 0x1 EQ PUSH2 0x26EB JUMPI POP PUSH2 0x2642 SWAP3 POP SUB DUP4 PUSH2 0x25E7 JUMP JUMPDEST PUSH1 0x2 PUSH1 0x0 SWAP1 DUP2 MSTORE SWAP2 POP PUSH1 0x0 DUP1 MLOAD PUSH1 0x20 PUSH2 0x2ADF DUP4 CODECOPY DUP2 MLOAD SWAP2 MSTORE JUMPDEST DUP5 DUP4 LT PUSH2 0x271D JUMPI POP PUSH2 0x2642 SWAP4 POP POP DUP2 ADD PUSH1 0x20 ADD CODESIZE PUSH2 0x2635 JUMP JUMPDEST DUP2 SWAP4 POP SWAP1 DUP2 PUSH1 0x20 SWAP3 SLOAD DUP4 DUP6 DUP11 ADD ADD MSTORE ADD SWAP2 ADD SWAP1 SWAP2 DUP6 SWAP3 PUSH2 0x2704 JUMP JUMPDEST PUSH1 0x40 MLOAD SWAP1 PUSH1 0x0 DUP3 PUSH1 0x3 SLOAD SWAP2 PUSH2 0x274C DUP4 PUSH2 0x25AD JUMP JUMPDEST DUP1 DUP4 MSTORE SWAP3 PUSH1 0x1 SWAP1 DUP2 DUP2 AND SWAP1 DUP2 ISZERO PUSH2 0x268F JUMPI POP PUSH1 0x1 EQ PUSH2 0x2772 JUMPI POP PUSH2 0x2642 SWAP3 POP SUB DUP4 PUSH2 0x25E7 JUMP JUMPDEST PUSH1 0x3 PUSH1 0x0 SWAP1 DUP2 MSTORE SWAP2 POP PUSH1 0x0 DUP1 MLOAD PUSH1 0x20 PUSH2 0x2AFF DUP4 CODECOPY DUP2 MLOAD SWAP2 MSTORE JUMPDEST DUP5 DUP4 LT PUSH2 0x27A4 JUMPI POP PUSH2 0x2642 SWAP4 POP POP DUP2 ADD PUSH1 0x20 ADD CODESIZE PUSH2 0x2635 JUMP JUMPDEST DUP2 SWAP4 POP SWAP1 DUP2 PUSH1 0x20 SWAP3 SLOAD DUP4 DUP6 DUP11 ADD ADD MSTORE ADD SWAP2 ADD SWAP1 SWAP2 DUP6 SWAP3 PUSH2 0x278B JUMP JUMPDEST SWAP1 PUSH1 0x40 MLOAD SWAP2 DUP3 PUSH1 0x0 DUP3 SLOAD SWAP3 PUSH2 0x27D3 DUP5 PUSH2 0x25AD JUMP JUMPDEST SWAP1 DUP2 DUP5 MSTORE PUSH1 0x1 SWAP5 DUP6 DUP2 AND SWAP1 DUP2 PUSH1 0x0 EQ PUSH2 0x2840 JUMPI POP PUSH1 0x1 EQ PUSH2 0x27FD JUMPI JUMPDEST POP POP PUSH2 0x2642 SWAP3 POP SUB DUP4 PUSH2 0x25E7 JUMP JUMPDEST SWAP1 SWAP4 SWAP2 POP PUSH1 0x0 MSTORE PUSH1 0x20 SWAP1 DUP2 PUSH1 0x0 KECCAK256 SWAP4 PUSH1 0x0 SWAP2 JUMPDEST DUP2 DUP4 LT PUSH2 0x2828 JUMPI POP POP PUSH2 0x2642 SWAP4 POP DUP3 ADD ADD CODESIZE DUP1 PUSH2 0x27EF JUMP JUMPDEST DUP6 SLOAD DUP9 DUP5 ADD DUP6 ADD MSTORE SWAP5 DUP6 ADD SWAP5 DUP8 SWAP5 POP SWAP2 DUP4 ADD SWAP2 PUSH2 0x2810 JUMP JUMPDEST SWAP2 POP POP PUSH2 0x2642 SWAP5 POP PUSH1 0x20 SWAP3 POP PUSH1 0xFF NOT AND DUP3 DUP5 ADD MSTORE ISZERO ISZERO PUSH1 0x5 SHL DUP3 ADD ADD CODESIZE DUP1 PUSH2 0x27EF JUMP JUMPDEST SWAP1 PUSH1 0x6 DUP3 LT ISZERO PUSH2 0x7E5 JUMPI MSTORE JUMP JUMPDEST SWAP2 SWAP1 DUP3 MLOAD SWAP3 DUP4 DUP3 MSTORE PUSH1 0x0 JUMPDEST DUP5 DUP2 LT PUSH2 0x289C JUMPI POP POP DUP3 PUSH1 0x0 PUSH1 0x20 DUP1 SWAP5 SWAP6 DUP5 ADD ADD MSTORE PUSH1 0x1F DUP1 NOT SWAP2 ADD AND ADD ADD SWAP1 JUMP JUMPDEST PUSH1 0x20 DUP2 DUP4 ADD DUP2 ADD MLOAD DUP5 DUP4 ADD DUP3 ADD MSTORE ADD PUSH2 0x287B JUMP JUMPDEST PUSH1 0x4 CALLDATALOAD SWAP1 PUSH1 0x1 PUSH1 0x1 PUSH1 0xA0 SHL SUB DUP3 AND DUP3 SUB PUSH2 0x1C3 JUMPI JUMP JUMPDEST PUSH1 0x24 CALLDATALOAD SWAP1 PUSH1 0x1 PUSH1 0x1 PUSH1 0xA0 SHL SUB DUP3 AND DUP3 SUB PUSH2 0x1C3 JUMPI JUMP JUMPDEST PUSH1 0xA SLOAD DUP2 LT ISZERO PUSH2 0x192A JUMPI PUSH1 0xA PUSH1 0x0 MSTORE PUSH32 0xC65A7BB8D6351C1CF70C95A316CC6A92839C986682D98BC35F958F4883F9D2A8 ADD SWAP1 PUSH1 0x0 SWAP1 JUMP JUMPDEST PUSH1 0x6 DUP2 LT ISZERO PUSH2 0x7E5 JUMPI PUSH1 0x0 MSTORE PUSH1 0xE PUSH1 0x20 MSTORE PUSH1 0x40 PUSH1 0x0 KECCAK256 SWAP1 JUMP JUMPDEST SWAP4 SWAP1 PUSH1 0x80 SWAP4 PUSH4 0xFFFFFFFF PUSH2 0x296A SWAP5 PUSH2 0x295C SWAP4 SWAP10 SWAP9 SWAP10 ISZERO ISZERO DUP9 MSTORE AND PUSH1 0x20 DUP8 ADD MSTORE PUSH1 0xA0 PUSH1 0x40 DUP8 ADD MSTORE PUSH1 0xA0 DUP7 ADD SWAP1 PUSH2 0x2870 JUMP JUMPDEST SWAP1 DUP5 DUP3 SUB PUSH1 0x60 DUP7 ADD MSTORE PUSH2 0x2870 JUMP JUMPDEST SWAP4 ISZERO ISZERO SWAP2 ADD MSTORE JUMP JUMPDEST DUP2 PUSH1 0x1F DUP3 ADD SLT ISZERO PUSH2 0x1C3 JUMPI DUP1 CALLDATALOAD SWAP1 PUSH1 0x1 PUSH1 0x1 PUSH1 0x40 SHL SUB DUP3 GT PUSH2 0xC00 JUMPI PUSH1 0x40 MLOAD SWAP3 PUSH2 0x29A6 PUSH1 0x1F DUP5 ADD PUSH1 0x1F NOT AND PUSH1 0x20 ADD DUP6 PUSH2 0x25E7 JUMP JUMPDEST DUP3 DUP5 MSTORE PUSH1 0x20 DUP4 DUP4 ADD ADD GT PUSH2 0x1C3 JUMPI DUP2 PUSH1 0x0 SWAP3 PUSH1 0x20 DUP1 SWAP4 ADD DUP4 DUP7 ADD CALLDATACOPY DUP4 ADD ADD MSTORE SWAP1 JUMP JUMPDEST SWAP1 PUSH1 0x3 DUP3 LT ISZERO PUSH2 0x7E5 JUMPI MSTORE JUMP JUMPDEST PUSH1 0x0 SLOAD PUSH1 0x1 PUSH1 0x1 PUSH1 0xA0 SHL SUB AND CALLER SUB PUSH2 0x29E9 JUMPI JUMP JUMPDEST PUSH1 0x40 MLOAD PUSH4 0x118CDAA7 PUSH1 0xE0 SHL DUP2 MSTORE CALLER PUSH1 0x4 DUP3 ADD MSTORE PUSH1 0x24 SWAP1 REVERT JUMPDEST ISZERO PUSH2 0x2A08 JUMPI JUMP JUMPDEST PUSH1 0x40 MLOAD PUSH3 0x461BCD PUSH1 0xE5 SHL DUP2 MSTORE PUSH1 0x20 PUSH1 0x4 DUP3 ADD MSTORE PUSH1 0x2A PUSH1 0x24 DUP3 ADD MSTORE PUSH32 0x4F6E6C7920626F617264206D656D626572732063616E20706572666F726D2074 PUSH1 0x44 DUP3 ADD MSTORE PUSH10 0x3434B99030B1BA34B7B7 PUSH1 0xB1 SHL PUSH1 0x64 DUP3 ADD MSTORE PUSH1 0x84 SWAP1 REVERT JUMPDEST PUSH1 0x0 NOT DUP2 EQ PUSH2 0x7FB JUMPI PUSH1 0x1 ADD SWAP1 JUMP JUMPDEST SWAP2 SWAP1 DUP3 ADD DUP1 SWAP3 GT PUSH2 0x7FB JUMPI JUMP JUMPDEST ISZERO PUSH2 0x2A83 JUMPI JUMP JUMPDEST PUSH1 0x40 MLOAD PUSH3 0x461BCD PUSH1 0xE5 SHL DUP2 MSTORE PUSH1 0x20 PUSH1 0x4 DUP3 ADD MSTORE PUSH1 0x13 PUSH1 0x24 DUP3 ADD MSTORE PUSH19 0x125B9D985B1A59081C1C9BDC1BDCD85B081251 PUSH1 0x6A SHL PUSH1 0x44 DUP3 ADD MSTORE PUSH1 0x64 SWAP1 REVERT JUMPDEST DUP2 ISZERO PUSH2 0x2AC8 JUMPI DIV SWAP1 JUMP JUMPDEST PUSH4 0x4E487B71 PUSH1 0xE0 SHL PUSH1 0x0 MSTORE PUSH1 0x12 PUSH1 0x4 MSTORE PUSH1 0x24 PUSH1 0x0 REVERT INVALID BLOCKHASH JUMPI DUP8 STATICCALL SLT 0xA8 0x23 0xE0 CALLCODE 0xB7 PUSH4 0x1CC41B3B 0xA8 DUP3 DUP12 CALLER 0x21 0xCA DUP2 GT GT STATICCALL PUSH22 0xCD3AA3BB5ACEC2575A0E9E593C00F959F8C92F12DB28 PUSH10 0xC3395A3B0502D05E2516 PREVRANDAO PUSH16 0x71F85BB10E2D527612073B26EECDFD71 PUSH31 0x6A320CF44B4AFAC2B0732D9FCBE2B7FA0CF6A264697066735822122012BBC2 DUP9 MULMOD 0x4C 0x29 0x1F LT 0xB7 0x2D 0x22 GT MSTORE8 0x25 DIV LOG1 SWAP15 0xBF 0xFB RETURN DUP3 GASPRICE MUL SWAP4 PUSH31 0x63B5B13911164736F6C634300081400330000000000000000000000000000 "},"methodIdentifiers":{"addBoardMember(address)":"1eac03ae","boardMembers(address)":"bff13785","boardMembersList(uint256)":"5ee230b7","castVotePlain(uint256,uint8)":"d098db5a","companyInfo()":"36f281a9","createProposal(uint8,string,string,string,uint256)":"a39af88e","finalizeProposal(uint256)":"5652077c","getCompanyInfo()":"d7710d62","getDecryptedResults(uint256)":"41d14c22","getProposalInfo(uint256)":"bc903cb8","getShareholderInfo(address)":"5e6056bb","getTotalProposals()":"1a5007dd","hasVoted(uint256,address)":"43859632","hasVotedOn(uint256,address)":"b97d3e40","initializeCompany(string,string,string,uint256)":"a759e629","isBoardMember(address)":"71942a01","owner()":"8da5cb5b","proposals(uint256)":"013cf08b","registerShareholderPlain(address,uint32,string,string)":"691e7398","removeBoardMember(address)":"39a169f9","renounceOwnership()":"715018a6","shareholders(address)":"5c2930ad","shareholdersList(uint256)":"33bac503","thresholds(uint8)":"5a50d2f4","transferOwnership(address)":"f2fde38b","votes(uint256,address)":"d23254b4"}}}}}