{"contracts/CorporateGovernanceMinimal.sol":{"CorporateGovernanceMinimal":{"abi":[{"inputs":[],"stateMutability":"nonpayable","type":"constructor"},{"inputs":[{"internalType":"address","name":"owner","type":"address"}],"name":"OwnableInvalidOwner","type":"error"},{"inputs":[{"internalType":"address","name":"account","type":"address"}],"name":"OwnableUnauthorizedAccount","type":"error"},{"anonymous":false,"inputs":[{"indexed":false,"internalType":"string","name":"name","type":"string"},{"indexed":false,"internalType":"string","name":"symbol","type":"string"}],"name":"CompanyInitialized","type":"event"},{"anonymous":false,"inputs":[{"indexed":true,"internalType":"address","name":"previousOwner","type":"address"},{"indexed":true,"internalType":"address","name":"newOwner","type":"address"}],"name":"OwnershipTransferred","type":"event"},{"anonymous":false,"inputs":[{"indexed":true,"internalType":"uint256","name":"proposalId","type":"uint256"},{"indexed":true,"internalType":"address","name":"proposer","type":"address"}],"name":"ProposalCreated","type":"event"},{"anonymous":false,"inputs":[{"indexed":true,"internalType":"uint256","name":"proposalId","type":"uint256"},{"indexed":false,"internalType":"bool","name":"passed","type":"bool"}],"name":"ProposalFinalized","type":"event"},{"anonymous":false,"inputs":[{"indexed":true,"internalType":"address","name":"shareholder","type":"address"},{"indexed":false,"internalType":"uint32","name":"shares","type":"uint32"}],"name":"ShareholderRegistered","type":"event"},{"anonymous":false,"inputs":[{"indexed":true,"internalType":"uint256","name":"proposalId","type":"uint256"},{"indexed":true,"internalType":"address","name":"voter","type":"address"},{"indexed":false,"internalType":"enum CorporateGovernanceMinimal.VoteChoice","name":"choice","type":"uint8"}],"name":"VoteCast","type":"event"},{"inputs":[{"internalType":"address","name":"_member","type":"address"}],"name":"addBoardMember","outputs":[],"stateMutability":"nonpayable","type":"function"},{"inputs":[{"internalType":"address","name":"","type":"address"}],"name":"boardMembers","outputs":[{"internalType":"bool","name":"","type":"bool"}],"stateMutability":"view","type":"function"},{"inputs":[{"internalType":"uint256","name":"","type":"uint256"}],"name":"boardMembersList","outputs":[{"internalType":"address","name":"","type":"address"}],"stateMutability":"view","type":"function"},{"inputs":[{"internalType":"uint256","name":"_proposalId","type":"uint256"},{"internalType":"uint8","name":"_choice","type":"uint8"}],"name":"castVotePlain","outputs":[],"stateMutability":"nonpayable","type":"function"},{"inputs":[],"name":"companyName","outputs":[{"internalType":"string","name":"","type":"string"}],"stateMutability":"view","type":"function"},{"inputs":[{"internalType":"uint8","name":"_type","type":"uint8"},{"internalType":"string","name":"_title","type":"string"},{"internalType":"string","name":"_description","type":"string"},{"internalType":"string","name":"_attachmentHash","type":"string"},{"internalType":"uint256","name":"_durationDays","type":"uint256"}],"name":"createProposal","outputs":[{"internalType":"uint256","name":"","type":"uint256"}],"stateMutability":"nonpayable","type":"function"},{"inputs":[{"internalType":"uint256","name":"_proposalId","type":"uint256"}],"name":"finalizeProposal","outputs":[],"stateMutability":"nonpayable","type":"function"},{"inputs":[],"name":"getCompanyInfo","outputs":[{"internalType":"string","name":"","type":"string"},{"internalType":"string","name":"","type":"string"},{"internalType":"string","name":"","type":"string"},{"internalType":"uint256","name":"","type":"uint256"},{"internalType":"uint256","name":"","type":"uint256"},{"internalType":"address[]","name":"","type":"address[]"}],"stateMutability":"view","type":"function"},{"inputs":[{"internalType":"uint256","name":"_proposalId","type":"uint256"}],"name":"getDecryptedResults","outputs":[{"internalType":"uint32","name":"","type":"uint32"},{"internalType":"uint32","name":"","type":"uint32"},{"internalType":"uint32","name":"","type":"uint32"},{"internalType":"bool","name":"","type":"bool"}],"stateMutability":"view","type":"function"},{"inputs":[{"internalType":"uint256","name":"_proposalId","type":"uint256"}],"name":"getProposalInfo","outputs":[{"internalType":"uint256","name":"","type":"uint256"},{"internalType":"uint8","name":"","type":"uint8"},{"internalType":"string","name":"","type":"string"},{"internalType":"string","name":"","type":"string"},{"internalType":"address","name":"","type":"address"},{"internalType":"uint256","name":"","type":"uint256"},{"internalType":"uint256","name":"","type":"uint256"},{"internalType":"bool","name":"","type":"bool"},{"internalType":"bool","name":"","type":"bool"},{"internalType":"uint256","name":"","type":"uint256"},{"internalType":"uint256","name":"","type":"uint256"}],"stateMutability":"view","type":"function"},{"inputs":[{"internalType":"address","name":"_shareholder","type":"address"}],"name":"getShareholderInfo","outputs":[{"internalType":"bool","name":"","type":"bool"},{"internalType":"uint32","name":"","type":"uint32"},{"internalType":"string","name":"","type":"string"},{"internalType":"string","name":"","type":"string"},{"internalType":"bool","name":"","type":"bool"}],"stateMutability":"view","type":"function"},{"inputs":[],"name":"getTotalProposals","outputs":[{"internalType":"uint256","name":"","type":"uint256"}],"stateMutability":"view","type":"function"},{"inputs":[{"internalType":"uint256","name":"","type":"uint256"},{"internalType":"address","name":"","type":"address"}],"name":"hasVoted","outputs":[{"internalType":"bool","name":"","type":"bool"}],"stateMutability":"view","type":"function"},{"inputs":[{"internalType":"uint256","name":"_proposalId","type":"uint256"},{"internalType":"address","name":"_voter","type":"address"}],"name":"hasVotedOn","outputs":[{"internalType":"bool","name":"","type":"bool"}],"stateMutability":"view","type":"function"},{"inputs":[{"internalType":"string","name":"_name","type":"string"},{"internalType":"string","name":"_symbol","type":"string"},{"internalType":"string","name":"_regNumber","type":"string"},{"internalType":"uint256","name":"_totalShares","type":"uint256"}],"name":"initializeCompany","outputs":[],"stateMutability":"nonpayable","type":"function"},{"inputs":[{"internalType":"address","name":"_member","type":"address"}],"name":"isBoardMember","outputs":[{"internalType":"bool","name":"","type":"bool"}],"stateMutability":"view","type":"function"},{"inputs":[],"name":"isInitialized","outputs":[{"internalType":"bool","name":"","type":"bool"}],"stateMutability":"view","type":"function"},{"inputs":[],"name":"owner","outputs":[{"internalType":"address","name":"","type":"address"}],"stateMutability":"view","type":"function"},{"inputs":[{"internalType":"uint256","name":"","type":"uint256"}],"name":"proposals","outputs":[{"internalType":"uint256","name":"id","type":"uint256"},{"internalType":"enum CorporateGovernanceMinimal.ProposalType","name":"proposalType","type":"uint8"},{"internalType":"string","name":"title","type":"string"},{"internalType":"address","name":"proposer","type":"address"},{"internalType":"uint256","name":"deadline","type":"uint256"},{"internalType":"bool","name":"isActive","type":"bool"},{"internalType":"bool","name":"isFinalized","type":"bool"},{"internalType":"uint256","name":"forVotes","type":"uint256"},{"internalType":"uint256","name":"againstVotes","type":"uint256"},{"internalType":"uint256","name":"abstainVotes","type":"uint256"},{"internalType":"uint256","name":"requiredThreshold","type":"uint256"}],"stateMutability":"view","type":"function"},{"inputs":[{"internalType":"address","name":"_shareholder","type":"address"},{"internalType":"uint32","name":"_shares","type":"uint32"},{"internalType":"string","name":"_companyId","type":"string"},{"internalType":"string","name":"_name","type":"string"}],"name":"registerShareholderPlain","outputs":[],"stateMutability":"nonpayable","type":"function"},{"inputs":[{"internalType":"address","name":"_member","type":"address"}],"name":"removeBoardMember","outputs":[],"stateMutability":"nonpayable","type":"function"},{"inputs":[],"name":"renounceOwnership","outputs":[],"stateMutability":"nonpayable","type":"function"},{"inputs":[{"internalType":"address","name":"","type":"address"}],"name":"shareholders","outputs":[{"internalType":"bool","name":"isRegistered","type":"bool"},{"internalType":"uint32","name":"shares","type":"uint32"},{"internalType":"string","name":"companyId","type":"string"},{"internalType":"string","name":"name","type":"string"}],"stateMutability":"view","type":"function"},{"inputs":[{"internalType":"uint256","name":"","type":"uint256"}],"name":"shareholdersList","outputs":[{"internalType":"address","name":"","type":"address"}],"stateMutability":"view","type":"function"},{"inputs":[],"name":"stockSymbol","outputs":[{"internalType":"string","name":"","type":"string"}],"stateMutability":"view","type":"function"},{"inputs":[{"internalType":"enum CorporateGovernanceMinimal.ProposalType","name":"","type":"uint8"}],"name":"thresholds","outputs":[{"internalType":"uint256","name":"","type":"uint256"}],"stateMutability":"view","type":"function"},{"inputs":[],"name":"totalShareholders","outputs":[{"internalType":"uint256","name":"","type":"uint256"}],"stateMutability":"view","type":"function"},{"inputs":[],"name":"totalShares","outputs":[{"internalType":"uint256","name":"","type":"uint256"}],"stateMutability":"view","type":"function"},{"inputs":[{"internalType":"address","name":"newOwner","type":"address"}],"name":"transferOwnership","outputs":[],"stateMutability":"nonpayable","type":"function"}],"evm":{"bytecode":{"linkReferences":{},"object":"60806040908082523461014b573315610135575060008054336001600160a01b03198083168217845592916001600160a01b03167f8be0079c531659141344cd1fd0a4f28419497f9722a3daafe3b4186f6b6457e08380a3808052600960205260328382205560018152603c8382205560028152604b838220556003815260328382205560048152604b8382205560058152603c838220553381526007602052828120600160ff19825416179055600c549068010000000000000000821015610121576001820180600c5582101561010d57600c90527fdf6966c971051c3d54ec59162606531493a51404a002842f56009d7e5cf4a8c701805490911633179055516120b590816101518239f35b634e487b7160e01b81526032600452602490fd5b634e487b7160e01b81526041600452602490fd5b631e4fbdf760e01b815260006004820152602490fd5b600080fdfe6080604052600436101561001257600080fd5b60003560e01c8063013cf08b14611b475780630f8d403014611b295780631a5007dd14611b0b5780631eac03ae14611a0d57806333bac503146119b2578063392e53cd1461198f57806339a169f9146118e85780633a98ef39146118ca57806341d14c22146117a457806343859632146107b85780635652077c1461163e5780635a50d2f41461160d5780635c2930ad146115965780635e6056bb146114ff5780635ee230b7146114a4578063691e739814611023578063715018a614610fca57806371942a01146106485780638da5cb5b14610fa1578063a39af88e14610bc4578063a759e62914610805578063b97d3e40146107b8578063bc903cb814610687578063bff1378514610648578063c87cbe561461062c578063d098db5a14610359578063d7710d6214610222578063f2fde38b146101945763f5ec2eed1461015b57600080fd5b3461018f57600036600319011261018f5761018b610177611d90565b604051918291602083526020830190611eca565b0390f35b600080fd5b3461018f57602036600319011261018f576101ad611f0a565b6101b5611fa6565b6001600160a01b0390811690811561020957600054826bffffffffffffffffffffffff60a01b821617600055167f8be0079c531659141344cd1fd0a4f28419497f9722a3daafe3b4186f6b6457e0600080a3005b604051631e4fbdf760e01b815260006004820152602490fd5b3461018f57600036600319011261018f5760035460045490610242611d90565b9061024b611cd2565b926040519161025983611c94565b60008352604051918290600c54948585526020809501978896600c6000527fdf6966c971051c3d54ec59162606531493a51404a002842f56009d7e5cf4a8c79060005b81811061033c575050508392916102e16102ef926102c089976102d49d0387611cb0565b6040519b8c9b60c08d5260c08d0190611eca565b908b8203888d0152611eca565b9089820360408b0152611eca565b936060880152608087015285830360a0870152519182815201929160005b82811061031c57505050500390f35b83516001600160a01b03168552869550938101939281019260010161030d565b82546001600160a01b03168c529a88019a6001928301920161029c565b3461018f57604036600319011261018f57600435602490813560ff811680910361018f5781151580610620575b61038f90612020565b336000526020906006825260ff60406000205416156105dc57600281116105a7578260005260088252604060002033600052825260ff6040600020541661057357600019830183811161055e5760ff60056103e983611c20565b500154161561052d5760046103fd82611c20565b500154421161050157836000526008835260406000203360005283526040600020600160ff1982541617905560038210156104ec5761043b90611c20565b5093336000526006835263ffffffff60406000205460081c16600095600184146000146104bb5760066104719101918254612013565b90555b604051946104a75750907feba4866100b822f0f391e610e7edfab790b9e8766c0012733c26b2f1858e8dd79184523393a3005b634e487b7160e01b60009081526021600452fd5b60009650600284036104dd5760076104d69101918254612013565b9055610474565b60086104d69101918254612013565b84634e487b7160e01b60005260216004526000fd5b60405162461bcd60e51b81526004810184905260058187015264115b99195960da1b6044820152606490fd5b60405162461bcd60e51b815260048101849052600a81870152694e6f742061637469766560b01b6044820152606490fd5b84634e487b7160e01b60005260116004526000fd5b60405162461bcd60e51b815260048101839052600d818601526c105b1c9958591e481d9bdd1959609a1b6044820152606490fd5b60405162461bcd60e51b815260048101839052600e818601526d496e76616c69642063686f69636560901b6044820152606490fd5b60405162461bcd60e51b815260048101839052601a818601527f4f6e6c79207665726966696564207368617265686f6c646572730000000000006044820152606490fd5b50600a54821115610386565b3461018f57600036600319011261018f5761018b610177611cd2565b3461018f57602036600319011261018f576001600160a01b03610669611f0a565b166000526007602052602060ff604060002054166040519015158152f35b3461018f57602036600319011261018f57600435801515806107ac575b6106ad90612020565b6000198101908111610796576106c290611c20565b50805460ff6001830154169160068310156107805760018060a01b036003820154169060ff6004820154600583015490610746610706600260098701549601611e26565b6107386040519161071683611c94565b600083526040519a8b9a8b5260208b01526101608060408c01528a0190611eca565b9088820360608a0152611eca565b946080870152600060a087015260c0860152818116151560e086015260081c16151561010084015260006101208401526101408301520390f35b634e487b7160e01b600052602160045260246000fd5b634e487b7160e01b600052601160045260246000fd5b50600a548111156106a4565b3461018f57604036600319011261018f576107d1611f20565b600435600052600860205260406000209060018060a01b0316600052602052602060ff604060002054166040519015158152f35b3461018f57608036600319011261018f5767ffffffffffffffff60043581811161018f57610837903690600401611f4f565b60243582811161018f5761084f903690600401611f4f565b60443583811161018f57610867903690600401611f4f565b50610870611fa6565b600560ff815416610b89578251848111610a88576001906108918254611c5a565b90601f91828111610b27575b50806020838211600114610aa957600091610a9e575b50600019600383901b1c191690831b1782555b8351958611610a88576108da600254611c5a565b818111610a25575b50602090861160011461097a579161095c949391867f9f2b0152a49dba19e307c8e31a1c32a54f6dbd3318d3165028e7b602a85eedcf9761096a9560009161096f575b50600019600383901b1c191690821b176002555b60643560035560ff19825416179055604051938493604085526040850190611eca565b908382036020850152611eca565b0390a1005b905084015189610925565b601f1986169060026000527f405787fa12a823e0f2b7631cc41b3ba8828b3321ca811111fa75cd3aa3bb5ace9160005b818110610a0f5750928761096a959382937f9f2b0152a49dba19e307c8e31a1c32a54f6dbd3318d3165028e7b602a85eedcf9a61095c9a9997106109f6575b5050811b01600255610939565b86015160001960f88460031b161c1916905589806109e9565b86830151845592840192602092830192016109aa565b60026000527f405787fa12a823e0f2b7631cc41b3ba8828b3321ca811111fa75cd3aa3bb5ace82808901861c82019260208a10610a7f575b01851c019083905b828110610a735750506108e2565b60008155018390610a65565b92508192610a5d565b634e487b7160e01b600052604160045260246000fd5b9050860151886108b3565b849250601f19821690836000527fb10e2d527612073b26eecdfd717e6a320cf44b4afac2b0732d9fcbe2b7fa0cf69160005b818110610b0f57508311610af6575b5050811b0182556108c6565b88015160001960f88460031b161c191690558880610aea565b8a830151845587959093019260209283019201610adb565b836000527fb10e2d527612073b26eecdfd717e6a320cf44b4afac2b0732d9fcbe2b7fa0cf683808401871c82019260208510610b80575b01861c019084905b828110610b7457505061089d565b60008155018490610b66565b92508192610b5e565b60405162461bcd60e51b8152602060048201526013602482015272105b1c9958591e481a5b9a5d1a585b1a5e9959606a1b6044820152606490fd5b3461018f5760a036600319011261018f5760043560ff811680910361018f5760243567ffffffffffffffff811161018f57610c03903690600401611f4f565b60443567ffffffffffffffff811161018f57610c23903690600401611f4f565b5060643567ffffffffffffffff811161018f57610c44903690600401611f4f565b5060843590336000526007602052610c6360ff60406000205416611fd2565b600583111580610f97575b15610f6257600a549160018301831161079657600684101561078057620151809081810291818304149015171561079657610ca99042612013565b610cb284611f36565b549160405194610160860186811067ffffffffffffffff821117610a8857604052600185018652602086015260408501523360608501526080840152600160a0840152600060c0840152600060e084015260006101008401526000610120840152610140830152600160401b811015610a885760018101600a55610d3581611c20565b610f4c578251815560018101602084015160068110156107805760ff80198354169116179055604083015192835167ffffffffffffffff8111610a8857610d7f6002840154611c5a565b94601f8611610f05575b602095508590601f8311600114610e935791806009949261014094600092610e88575b50508160011b916000199060031b1c19161760028501555b6003840160018060a01b036060830151166bffffffffffffffffffffffff60a01b8254161790556080810151600485015560058401610e1560a08301511515829060ff801983541691151516179055565b60c0820151151561ff0082549160081b169061ff00191617905560e08101516006850155610100810151600785015561012081015160088501550151910155600160405191338282017fcd423cc1203c0af96b9b3d68d73b3064a69de2d14450bb7181c5e5df2132b358600080a3018152f35b015190508880610dac565b90601f1983169160028601600052876000209260005b818110610eee5750926001928592610140966009989610610ed5575b505050811b016002850155610dc4565b015160001960f88460031b161c19169055888080610ec5565b929389600181928786015181550195019301610ea9565b600284016000526020600020601f830160051c810160208410610f45575b601f880160051c82018110610f39575050610d89565b60008155600101610f23565b5080610f23565b634e487b7160e01b600052600060045260246000fd5b60405162461bcd60e51b815260206004820152600d60248201526c125b9d985b1a59081a5b9c1d5d609a1b6044820152606490fd5b5080511515610c6e565b3461018f57600036600319011261018f576000546040516001600160a01b039091168152602090f35b3461018f57600036600319011261018f57610fe3611fa6565b600080546001600160a01b0319811682556001600160a01b03167f8be0079c531659141344cd1fd0a4f28419497f9722a3daafe3b4186f6b6457e08280a3005b3461018f57608036600319011261018f5761103c611f0a565b60249081359063ffffffff821680920361018f5767ffffffffffffffff9160443583811161018f57611072903690600401611f4f565b60643584811161018f5761108a903690600401611f4f565b33600052602093600785526110a660ff60406000205416611fd2565b6001600160a01b0316600081815260068652604090205490959060ff1661146b576040519160808301838110838211176114565760405260019384845286840191868352604085019182526060850152876000526006875260406000209161111d85511515849060ff801983541691151516179055565b51825464ffffffff00191660089190911b64ffffffff001617825551805185830191848211611441576111508354611c5a565b601f81116113f8575b508890601f831160011461138a579180600294926060969460009261137f575b5050600019600383901b1c191690881b1790555b01920151805191821161136a5781906111a68454611c5a565b601f8111611317575b508690601f83116001146112b4576000926112a9575b5050600019600383901b1c191690831b1790555b600b54600160401b8110156112945781810180600b5581101561127f57600b6000527f0175b7a638427703f0dbe7bb9bbf987a2551717b34e79f33b5b1008d1fa01db90180546001600160a01b03191685179055600454600019811461126a577fde21d560f37149b87d711f68dd9f1ed9a63123ae2df83cdac230e105a09895e694955001600455604051908152a2005b85634e487b7160e01b60005260116004526000fd5b85634e487b7160e01b60005260326004526000fd5b85634e487b7160e01b60005260416004526000fd5b0151905088806111c5565b90859350601f1983169185600052886000209260005b8a82821061130157505084116112e8575b505050811b0190556111d9565b015160001960f88460031b161c191690558880806112db565b83850151865589979095019493840193016112ca565b9091508360005286600020601f840160051c810191888510611360575b84939291601f88920160051c01915b8281106113515750506111af565b60008155859450879101611343565b9091508190611334565b87634e487b7160e01b60005260416004526000fd5b015190508d80611179565b879291601f19831691856000528b6000209260005b8d8282106113e257505091606097959391856002989694106113c9575b505050811b01905561118d565b015160001960f88460031b161c191690558d80806113bc565b8385015186558c9790950194938401930161139f565b8360005289600020601f840160051c8101918b8510611437575b601f0160051c019088905b82811061142b575050611159565b6000815501889061141d565b9091508190611412565b8a634e487b7160e01b60005260416004526000fd5b88634e487b7160e01b60005260416004526000fd5b60405162461bcd60e51b81526004810186905260128189015271105b1c9958591e481c9959da5cdd195c995960721b6044820152606490fd5b3461018f57602036600319011261018f57600435600c5481101561018f57600c6000527fdf6966c971051c3d54ec59162606531493a51404a002842f56009d7e5cf4a8c701546040516001600160a01b039091168152602090f35b3461018f57602036600319011261018f576001600160a01b03611520611f0a565b16600052600660205263ffffffff604060002061158b81549161157d611554600261154d60018501611e26565b9301611e26565b91604051958560ff8897161515875260081c16602086015260a0604086015260a0850190611eca565b908382036060850152611eca565b600160808301520390f35b3461018f57602036600319011261018f576001600160a01b036115b7611f0a565b16600052600660205263ffffffff604060002061018b81549161157d6115e4600261154d60018501611e26565b91604051958560ff8897161515875260081c166020860152608060408601526080850190611eca565b3461018f57602036600319011261018f57600435600681101561018f57611635602091611f36565b54604051908152f35b3461018f57602036600319011261018f5760043580151580611798575b61166490612020565b33600052600760205261167e60ff60406000205416611fd2565b60001981018181116107965761169390611c20565b5060058101805460ff81168061178b575b156117545761ffff1916610100179055600681015460078201546116c89082612013565b908115159283611703575b847fb5ac567fcf1b069e0235e4f16734625c6cf54c1b40517fd9eb85517f6e1265a76020866040519015158152a2005b909192506064820291808304606414901517156107965760096117497fb5ac567fcf1b069e0235e4f16734625c6cf54c1b40517fd9eb85517f6e1265a79460209461205f565b9101541091846116d3565b60405162461bcd60e51b815260206004820152600f60248201526e43616e6e6f742066696e616c697a6560881b6044820152606490fd5b50600483015442116116a4565b50600a5481111561165b565b3461018f57602036600319011261018f57600435801515806118be575b6117ca90612020565b3360005260076020526117e460ff60406000205416611fd2565b6000198101908111610796576117f990611c20565b5060ff600582015460081c1615611889576006810154600782015461181e8183612013565b908115159182611857575b50600860809463ffffffff918291015416918160405195168552166020840152604083015215156060820152f35b9391506064830293838504606414841517156107965761187b60089160809661205f565b600984015410929450611829565b60405162461bcd60e51b815260206004820152600d60248201526c139bdd08199a5b985b1a5e9959609a1b6044820152606490fd5b50600a548111156117c1565b3461018f57600036600319011261018f576020600354604051908152f35b3461018f57602036600319011261018f57611901611f0a565b611909611fa6565b60018060a01b038091169081600052600760205260ff604060002054169081611980575b501561194b576000908152600760205260409020805460ff19169055005b60405162461bcd60e51b815260206004820152600d60248201526c43616e6e6f742072656d6f766560981b6044820152606490fd5b9050600054168114158261192d565b3461018f57600036600319011261018f57602060ff600554166040519015158152f35b3461018f57602036600319011261018f57600435600b5481101561018f57600b6000527f0175b7a638427703f0dbe7bb9bbf987a2551717b34e79f33b5b1008d1fa01db901546040516001600160a01b039091168152602090f35b3461018f57602036600319011261018f57611a26611f0a565b611a2e611fa6565b6001600160a01b031660008181526007602052604090205460ff16611acf578060005260076020526040600020600160ff19825416179055600c54600160401b811015610a88576001810180600c55811015611ab9577fdf6966c971051c3d54ec59162606531493a51404a002842f56009d7e5cf4a8c70180546001600160a01b0319169091179055005b634e487b7160e01b600052603260045260246000fd5b60405162461bcd60e51b815260206004820152601460248201527320b63932b0b23c903137b0b9321036b2b6b132b960611b6044820152606490fd5b3461018f57600036600319011261018f576020600a54604051908152f35b3461018f57600036600319011261018f576020600454604051908152f35b3461018f57602036600319011261018f57600435600a5481101561018f57611b6e90611c20565b5080549060ff60018201541690611b8760028201611e26565b60018060a01b03600383015416916004810154916005820154906006830154906007840154926009600886015495015495604051998a52600689101561078057611be560ff938b9a60208c01526101608060408d01528b0190611eca565b9760608a01526080890152818116151560a089015260081c16151560c087015260e08601526101008501526101208401526101408301520390f35b600a54811015611ab957600a9081600052027fc65a7bb8d6351c1cf70c95a316cc6a92839c986682d98bc35f958f4883f9d2a80190600090565b90600182811c92168015611c8a575b6020831014611c7457565b634e487b7160e01b600052602260045260246000fd5b91607f1691611c69565b6020810190811067ffffffffffffffff821117610a8857604052565b90601f8019910116810190811067ffffffffffffffff821117610a8857604052565b6040519060008260025491611ce683611c5a565b80835292600190818116908115611d6e5750600114611d0f575b50611d0d92500383611cb0565b565b6002600090815291507f405787fa12a823e0f2b7631cc41b3ba8828b3321ca811111fa75cd3aa3bb5ace5b848310611d535750611d0d935050810160200138611d00565b81935090816020925483858a01015201910190918592611d3a565b905060209250611d0d94915060ff191682840152151560051b82010138611d00565b60405190600082600191825492611da684611c5a565b80845293818116908115611d6e5750600114611dc95750611d0d92500383611cb0565b600081815291507fb10e2d527612073b26eecdfd717e6a320cf44b4afac2b0732d9fcbe2b7fa0cf65b848310611e0b5750611d0d935050810160200138611d00565b81935090816020925483858a01015201910190918592611df2565b9060405191826000825492611e3a84611c5a565b908184526001948581169081600014611ea75750600114611e64575b5050611d0d92500383611cb0565b9093915060005260209081600020936000915b818310611e8f575050611d0d93508201013880611e56565b85548884018501529485019487945091830191611e77565b915050611d0d94506020925060ff191682840152151560051b8201013880611e56565b919082519283825260005b848110611ef6575050826000602080949584010152601f8019910116010190565b602081830181015184830182015201611ed5565b600435906001600160a01b038216820361018f57565b602435906001600160a01b038216820361018f57565b6006811015610780576000526009602052604060002090565b81601f8201121561018f5780359067ffffffffffffffff8211610a885760405192611f84601f8401601f191660200185611cb0565b8284526020838301011161018f57816000926020809301838601378301015290565b6000546001600160a01b03163303611fba57565b60405163118cdaa760e01b8152336004820152602490fd5b15611fd957565b60405162461bcd60e51b81526020600482015260126024820152714f6e6c7920626f617264206d656d6265727360701b6044820152606490fd5b9190820180921161079657565b1561202757565b60405162461bcd60e51b815260206004820152601060248201526f125b9d985b1a59081c1c9bdc1bdcd85b60821b6044820152606490fd5b8115612069570490565b634e487b7160e01b600052601260045260246000fdfea26469706673582212204bdf3ccb316ad427c85a8ed4ce10aa03c68da84e9f77799961b8930a626448ea64736f6c63430008140033","opcodes":"PUSH1 0x80 PUSH1 0x40 SWAP1 DUP1 DUP3 MSTORE CALLVALUE PUSH2 0x14B JUMPI CALLER ISZERO PUSH2 0x135 JUMPI POP PUSH1 0x0 DUP1 SLOAD CALLER PUSH1 0x1 PUSH1 0x1 PUSH1 0xA0 SHL SUB NOT DUP1 DUP4 AND DUP3 OR DUP5 SSTORE SWAP3 SWAP2 PUSH1 0x1 PUSH1 0x1 PUSH1 0xA0 SHL SUB AND PUSH32 0x8BE0079C531659141344CD1FD0A4F28419497F9722A3DAAFE3B4186F6B6457E0 DUP4 DUP1 LOG3 DUP1 DUP1 MSTORE PUSH1 0x9 PUSH1 0x20 MSTORE PUSH1 0x32 DUP4 DUP3 KECCAK256 SSTORE PUSH1 0x1 DUP2 MSTORE PUSH1 0x3C DUP4 DUP3 KECCAK256 SSTORE PUSH1 0x2 DUP2 MSTORE PUSH1 0x4B DUP4 DUP3 KECCAK256 SSTORE PUSH1 0x3 DUP2 MSTORE PUSH1 0x32 DUP4 DUP3 KECCAK256 SSTORE PUSH1 0x4 DUP2 MSTORE PUSH1 0x4B DUP4 DUP3 KECCAK256 SSTORE PUSH1 0x5 DUP2 MSTORE PUSH1 0x3C DUP4 DUP3 KECCAK256 SSTORE CALLER DUP2 MSTORE PUSH1 0x7 PUSH1 0x20 MSTORE DUP3 DUP2 KECCAK256 PUSH1 0x1 PUSH1 0xFF NOT DUP3 SLOAD AND OR SWAP1 SSTORE PUSH1 0xC SLOAD SWAP1 PUSH9 0x10000000000000000 DUP3 LT ISZERO PUSH2 0x121 JUMPI PUSH1 0x1 DUP3 ADD DUP1 PUSH1 0xC SSTORE DUP3 LT ISZERO PUSH2 0x10D JUMPI PUSH1 0xC SWAP1 MSTORE PUSH32 0xDF6966C971051C3D54EC59162606531493A51404A002842F56009D7E5CF4A8C7 ADD DUP1 SLOAD SWAP1 SWAP2 AND CALLER OR SWAP1 SSTORE MLOAD PUSH2 0x20B5 SWAP1 DUP2 PUSH2 0x151 DUP3 CODECOPY RETURN JUMPDEST PUSH4 0x4E487B71 PUSH1 0xE0 SHL DUP2 MSTORE PUSH1 0x32 PUSH1 0x4 MSTORE PUSH1 0x24 SWAP1 REVERT JUMPDEST PUSH4 0x4E487B71 PUSH1 0xE0 SHL DUP2 MSTORE PUSH1 0x41 PUSH1 0x4 MSTORE PUSH1 0x24 SWAP1 REVERT JUMPDEST PUSH4 0x1E4FBDF7 PUSH1 0xE0 SHL DUP2 MSTORE PUSH1 0x0 PUSH1 0x4 DUP3 ADD MSTORE PUSH1 0x24 SWAP1 REVERT JUMPDEST PUSH1 0x0 DUP1 REVERT INVALID PUSH1 0x80 PUSH1 0x40 MSTORE PUSH1 0x4 CALLDATASIZE LT ISZERO PUSH2 0x12 JUMPI PUSH1 0x0 DUP1 REVERT JUMPDEST PUSH1 0x0 CALLDATALOAD PUSH1 0xE0 SHR DUP1 PUSH4 0x13CF08B EQ PUSH2 0x1B47 JUMPI DUP1 PUSH4 0xF8D4030 EQ PUSH2 0x1B29 JUMPI DUP1 PUSH4 0x1A5007DD EQ PUSH2 0x1B0B JUMPI DUP1 PUSH4 0x1EAC03AE EQ PUSH2 0x1A0D JUMPI DUP1 PUSH4 0x33BAC503 EQ PUSH2 0x19B2 JUMPI DUP1 PUSH4 0x392E53CD EQ PUSH2 0x198F JUMPI DUP1 PUSH4 0x39A169F9 EQ PUSH2 0x18E8 JUMPI DUP1 PUSH4 0x3A98EF39 EQ PUSH2 0x18CA JUMPI DUP1 PUSH4 0x41D14C22 EQ PUSH2 0x17A4 JUMPI DUP1 PUSH4 0x43859632 EQ PUSH2 0x7B8 JUMPI DUP1 PUSH4 0x5652077C EQ PUSH2 0x163E JUMPI DUP1 PUSH4 0x5A50D2F4 EQ PUSH2 0x160D JUMPI DUP1 PUSH4 0x5C2930AD EQ PUSH2 0x1596 JUMPI DUP1 PUSH4 0x5E6056BB EQ PUSH2 0x14FF JUMPI DUP1 PUSH4 0x5EE230B7 EQ PUSH2 0x14A4 JUMPI DUP1 PUSH4 0x691E7398 EQ PUSH2 0x1023 JUMPI DUP1 PUSH4 0x715018A6 EQ PUSH2 0xFCA JUMPI DUP1 PUSH4 0x71942A01 EQ PUSH2 0x648 JUMPI DUP1 PUSH4 0x8DA5CB5B EQ PUSH2 0xFA1 JUMPI DUP1 PUSH4 0xA39AF88E EQ PUSH2 0xBC4 JUMPI DUP1 PUSH4 0xA759E629 EQ PUSH2 0x805 JUMPI DUP1 PUSH4 0xB97D3E40 EQ PUSH2 0x7B8 JUMPI DUP1 PUSH4 0xBC903CB8 EQ PUSH2 0x687 JUMPI DUP1 PUSH4 0xBFF13785 EQ PUSH2 0x648 JUMPI DUP1 PUSH4 0xC87CBE56 EQ PUSH2 0x62C JUMPI DUP1 PUSH4 0xD098DB5A EQ PUSH2 0x359 JUMPI DUP1 PUSH4 0xD7710D62 EQ PUSH2 0x222 JUMPI DUP1 PUSH4 0xF2FDE38B EQ PUSH2 0x194 JUMPI PUSH4 0xF5EC2EED EQ PUSH2 0x15B JUMPI PUSH1 0x0 DUP1 REVERT JUMPDEST CALLVALUE PUSH2 0x18F JUMPI PUSH1 0x0 CALLDATASIZE PUSH1 0x3 NOT ADD SLT PUSH2 0x18F JUMPI PUSH2 0x18B PUSH2 0x177 PUSH2 0x1D90 JUMP JUMPDEST PUSH1 0x40 MLOAD SWAP2 DUP3 SWAP2 PUSH1 0x20 DUP4 MSTORE PUSH1 0x20 DUP4 ADD SWAP1 PUSH2 0x1ECA JUMP JUMPDEST SUB SWAP1 RETURN JUMPDEST PUSH1 0x0 DUP1 REVERT JUMPDEST CALLVALUE PUSH2 0x18F JUMPI PUSH1 0x20 CALLDATASIZE PUSH1 0x3 NOT ADD SLT PUSH2 0x18F JUMPI PUSH2 0x1AD PUSH2 0x1F0A JUMP JUMPDEST PUSH2 0x1B5 PUSH2 0x1FA6 JUMP JUMPDEST PUSH1 0x1 PUSH1 0x1 PUSH1 0xA0 SHL SUB SWAP1 DUP2 AND SWAP1 DUP2 ISZERO PUSH2 0x209 JUMPI PUSH1 0x0 SLOAD DUP3 PUSH12 0xFFFFFFFFFFFFFFFFFFFFFFFF PUSH1 0xA0 SHL DUP3 AND OR PUSH1 0x0 SSTORE AND PUSH32 0x8BE0079C531659141344CD1FD0A4F28419497F9722A3DAAFE3B4186F6B6457E0 PUSH1 0x0 DUP1 LOG3 STOP JUMPDEST PUSH1 0x40 MLOAD PUSH4 0x1E4FBDF7 PUSH1 0xE0 SHL DUP2 MSTORE PUSH1 0x0 PUSH1 0x4 DUP3 ADD MSTORE PUSH1 0x24 SWAP1 REVERT JUMPDEST CALLVALUE PUSH2 0x18F JUMPI PUSH1 0x0 CALLDATASIZE PUSH1 0x3 NOT ADD SLT PUSH2 0x18F JUMPI PUSH1 0x3 SLOAD PUSH1 0x4 SLOAD SWAP1 PUSH2 0x242 PUSH2 0x1D90 JUMP JUMPDEST SWAP1 PUSH2 0x24B PUSH2 0x1CD2 JUMP JUMPDEST SWAP3 PUSH1 0x40 MLOAD SWAP2 PUSH2 0x259 DUP4 PUSH2 0x1C94 JUMP JUMPDEST PUSH1 0x0 DUP4 MSTORE PUSH1 0x40 MLOAD SWAP2 DUP3 SWAP1 PUSH1 0xC SLOAD SWAP5 DUP6 DUP6 MSTORE PUSH1 0x20 DUP1 SWAP6 ADD SWAP8 DUP9 SWAP7 PUSH1 0xC PUSH1 0x0 MSTORE PUSH32 0xDF6966C971051C3D54EC59162606531493A51404A002842F56009D7E5CF4A8C7 SWAP1 PUSH1 0x0 JUMPDEST DUP2 DUP2 LT PUSH2 0x33C JUMPI POP POP POP DUP4 SWAP3 SWAP2 PUSH2 0x2E1 PUSH2 0x2EF SWAP3 PUSH2 0x2C0 DUP10 SWAP8 PUSH2 0x2D4 SWAP14 SUB DUP8 PUSH2 0x1CB0 JUMP JUMPDEST PUSH1 0x40 MLOAD SWAP12 DUP13 SWAP12 PUSH1 0xC0 DUP14 MSTORE PUSH1 0xC0 DUP14 ADD SWAP1 PUSH2 0x1ECA JUMP JUMPDEST SWAP1 DUP12 DUP3 SUB DUP9 DUP14 ADD MSTORE PUSH2 0x1ECA JUMP JUMPDEST SWAP1 DUP10 DUP3 SUB PUSH1 0x40 DUP12 ADD MSTORE PUSH2 0x1ECA JUMP JUMPDEST SWAP4 PUSH1 0x60 DUP9 ADD MSTORE PUSH1 0x80 DUP8 ADD MSTORE DUP6 DUP4 SUB PUSH1 0xA0 DUP8 ADD MSTORE MLOAD SWAP2 DUP3 DUP2 MSTORE ADD SWAP3 SWAP2 PUSH1 0x0 JUMPDEST DUP3 DUP2 LT PUSH2 0x31C JUMPI POP POP POP POP SUB SWAP1 RETURN JUMPDEST DUP4 MLOAD PUSH1 0x1 PUSH1 0x1 PUSH1 0xA0 SHL SUB AND DUP6 MSTORE DUP7 SWAP6 POP SWAP4 DUP2 ADD SWAP4 SWAP3 DUP2 ADD SWAP3 PUSH1 0x1 ADD PUSH2 0x30D JUMP JUMPDEST DUP3 SLOAD PUSH1 0x1 PUSH1 0x1 PUSH1 0xA0 SHL SUB AND DUP13 MSTORE SWAP11 DUP9 ADD SWAP11 PUSH1 0x1 SWAP3 DUP4 ADD SWAP3 ADD PUSH2 0x29C JUMP JUMPDEST CALLVALUE PUSH2 0x18F JUMPI PUSH1 0x40 CALLDATASIZE PUSH1 0x3 NOT ADD SLT PUSH2 0x18F JUMPI PUSH1 0x4 CALLDATALOAD PUSH1 0x24 SWAP1 DUP2 CALLDATALOAD PUSH1 0xFF DUP2 AND DUP1 SWAP2 SUB PUSH2 0x18F JUMPI DUP2 ISZERO ISZERO DUP1 PUSH2 0x620 JUMPI JUMPDEST PUSH2 0x38F SWAP1 PUSH2 0x2020 JUMP JUMPDEST CALLER PUSH1 0x0 MSTORE PUSH1 0x20 SWAP1 PUSH1 0x6 DUP3 MSTORE PUSH1 0xFF PUSH1 0x40 PUSH1 0x0 KECCAK256 SLOAD AND ISZERO PUSH2 0x5DC JUMPI PUSH1 0x2 DUP2 GT PUSH2 0x5A7 JUMPI DUP3 PUSH1 0x0 MSTORE PUSH1 0x8 DUP3 MSTORE PUSH1 0x40 PUSH1 0x0 KECCAK256 CALLER PUSH1 0x0 MSTORE DUP3 MSTORE PUSH1 0xFF PUSH1 0x40 PUSH1 0x0 KECCAK256 SLOAD AND PUSH2 0x573 JUMPI PUSH1 0x0 NOT DUP4 ADD DUP4 DUP2 GT PUSH2 0x55E JUMPI PUSH1 0xFF PUSH1 0x5 PUSH2 0x3E9 DUP4 PUSH2 0x1C20 JUMP JUMPDEST POP ADD SLOAD AND ISZERO PUSH2 0x52D JUMPI PUSH1 0x4 PUSH2 0x3FD DUP3 PUSH2 0x1C20 JUMP JUMPDEST POP ADD SLOAD TIMESTAMP GT PUSH2 0x501 JUMPI DUP4 PUSH1 0x0 MSTORE PUSH1 0x8 DUP4 MSTORE PUSH1 0x40 PUSH1 0x0 KECCAK256 CALLER PUSH1 0x0 MSTORE DUP4 MSTORE PUSH1 0x40 PUSH1 0x0 KECCAK256 PUSH1 0x1 PUSH1 0xFF NOT DUP3 SLOAD AND OR SWAP1 SSTORE PUSH1 0x3 DUP3 LT ISZERO PUSH2 0x4EC JUMPI PUSH2 0x43B SWAP1 PUSH2 0x1C20 JUMP JUMPDEST POP SWAP4 CALLER PUSH1 0x0 MSTORE PUSH1 0x6 DUP4 MSTORE PUSH4 0xFFFFFFFF PUSH1 0x40 PUSH1 0x0 KECCAK256 SLOAD PUSH1 0x8 SHR AND PUSH1 0x0 SWAP6 PUSH1 0x1 DUP5 EQ PUSH1 0x0 EQ PUSH2 0x4BB JUMPI PUSH1 0x6 PUSH2 0x471 SWAP2 ADD SWAP2 DUP3 SLOAD PUSH2 0x2013 JUMP JUMPDEST SWAP1 SSTORE JUMPDEST PUSH1 0x40 MLOAD SWAP5 PUSH2 0x4A7 JUMPI POP SWAP1 PUSH32 0xEBA4866100B822F0F391E610E7EDFAB790B9E8766C0012733C26B2F1858E8DD7 SWAP2 DUP5 MSTORE CALLER SWAP4 LOG3 STOP JUMPDEST PUSH4 0x4E487B71 PUSH1 0xE0 SHL PUSH1 0x0 SWAP1 DUP2 MSTORE PUSH1 0x21 PUSH1 0x4 MSTORE REVERT JUMPDEST PUSH1 0x0 SWAP7 POP PUSH1 0x2 DUP5 SUB PUSH2 0x4DD JUMPI PUSH1 0x7 PUSH2 0x4D6 SWAP2 ADD SWAP2 DUP3 SLOAD PUSH2 0x2013 JUMP JUMPDEST SWAP1 SSTORE PUSH2 0x474 JUMP JUMPDEST PUSH1 0x8 PUSH2 0x4D6 SWAP2 ADD SWAP2 DUP3 SLOAD PUSH2 0x2013 JUMP JUMPDEST DUP5 PUSH4 0x4E487B71 PUSH1 0xE0 SHL PUSH1 0x0 MSTORE PUSH1 0x21 PUSH1 0x4 MSTORE PUSH1 0x0 REVERT JUMPDEST PUSH1 0x40 MLOAD PUSH3 0x461BCD PUSH1 0xE5 SHL DUP2 MSTORE PUSH1 0x4 DUP2 ADD DUP5 SWAP1 MSTORE PUSH1 0x5 DUP2 DUP8 ADD MSTORE PUSH5 0x115B991959 PUSH1 0xDA SHL PUSH1 0x44 DUP3 ADD MSTORE PUSH1 0x64 SWAP1 REVERT JUMPDEST PUSH1 0x40 MLOAD PUSH3 0x461BCD PUSH1 0xE5 SHL DUP2 MSTORE PUSH1 0x4 DUP2 ADD DUP5 SWAP1 MSTORE PUSH1 0xA DUP2 DUP8 ADD MSTORE PUSH10 0x4E6F7420616374697665 PUSH1 0xB0 SHL PUSH1 0x44 DUP3 ADD MSTORE PUSH1 0x64 SWAP1 REVERT JUMPDEST DUP5 PUSH4 0x4E487B71 PUSH1 0xE0 SHL PUSH1 0x0 MSTORE PUSH1 0x11 PUSH1 0x4 MSTORE PUSH1 0x0 REVERT JUMPDEST PUSH1 0x40 MLOAD PUSH3 0x461BCD PUSH1 0xE5 SHL DUP2 MSTORE PUSH1 0x4 DUP2 ADD DUP4 SWAP1 MSTORE PUSH1 0xD DUP2 DUP7 ADD MSTORE PUSH13 0x105B1C9958591E481D9BDD1959 PUSH1 0x9A SHL PUSH1 0x44 DUP3 ADD MSTORE PUSH1 0x64 SWAP1 REVERT JUMPDEST PUSH1 0x40 MLOAD PUSH3 0x461BCD PUSH1 0xE5 SHL DUP2 MSTORE PUSH1 0x4 DUP2 ADD DUP4 SWAP1 MSTORE PUSH1 0xE DUP2 DUP7 ADD MSTORE PUSH14 0x496E76616C69642063686F696365 PUSH1 0x90 SHL PUSH1 0x44 DUP3 ADD MSTORE PUSH1 0x64 SWAP1 REVERT JUMPDEST PUSH1 0x40 MLOAD PUSH3 0x461BCD PUSH1 0xE5 SHL DUP2 MSTORE PUSH1 0x4 DUP2 ADD DUP4 SWAP1 MSTORE PUSH1 0x1A DUP2 DUP7 ADD MSTORE PUSH32 0x4F6E6C79207665726966696564207368617265686F6C64657273000000000000 PUSH1 0x44 DUP3 ADD MSTORE PUSH1 0x64 SWAP1 REVERT JUMPDEST POP PUSH1 0xA SLOAD DUP3 GT ISZERO PUSH2 0x386 JUMP JUMPDEST CALLVALUE PUSH2 0x18F JUMPI PUSH1 0x0 CALLDATASIZE PUSH1 0x3 NOT ADD SLT PUSH2 0x18F JUMPI PUSH2 0x18B PUSH2 0x177 PUSH2 0x1CD2 JUMP JUMPDEST CALLVALUE PUSH2 0x18F JUMPI PUSH1 0x20 CALLDATASIZE PUSH1 0x3 NOT ADD SLT PUSH2 0x18F JUMPI PUSH1 0x1 PUSH1 0x1 PUSH1 0xA0 SHL SUB PUSH2 0x669 PUSH2 0x1F0A JUMP JUMPDEST AND PUSH1 0x0 MSTORE PUSH1 0x7 PUSH1 0x20 MSTORE PUSH1 0x20 PUSH1 0xFF PUSH1 0x40 PUSH1 0x0 KECCAK256 SLOAD AND PUSH1 0x40 MLOAD SWAP1 ISZERO ISZERO DUP2 MSTORE RETURN JUMPDEST CALLVALUE PUSH2 0x18F JUMPI PUSH1 0x20 CALLDATASIZE PUSH1 0x3 NOT ADD SLT PUSH2 0x18F JUMPI PUSH1 0x4 CALLDATALOAD DUP1 ISZERO ISZERO DUP1 PUSH2 0x7AC JUMPI JUMPDEST PUSH2 0x6AD SWAP1 PUSH2 0x2020 JUMP JUMPDEST PUSH1 0x0 NOT DUP2 ADD SWAP1 DUP2 GT PUSH2 0x796 JUMPI PUSH2 0x6C2 SWAP1 PUSH2 0x1C20 JUMP JUMPDEST POP DUP1 SLOAD PUSH1 0xFF PUSH1 0x1 DUP4 ADD SLOAD AND SWAP2 PUSH1 0x6 DUP4 LT ISZERO PUSH2 0x780 JUMPI PUSH1 0x1 DUP1 PUSH1 0xA0 SHL SUB PUSH1 0x3 DUP3 ADD SLOAD AND SWAP1 PUSH1 0xFF PUSH1 0x4 DUP3 ADD SLOAD PUSH1 0x5 DUP4 ADD SLOAD SWAP1 PUSH2 0x746 PUSH2 0x706 PUSH1 0x2 PUSH1 0x9 DUP8 ADD SLOAD SWAP7 ADD PUSH2 0x1E26 JUMP JUMPDEST PUSH2 0x738 PUSH1 0x40 MLOAD SWAP2 PUSH2 0x716 DUP4 PUSH2 0x1C94 JUMP JUMPDEST PUSH1 0x0 DUP4 MSTORE PUSH1 0x40 MLOAD SWAP11 DUP12 SWAP11 DUP12 MSTORE PUSH1 0x20 DUP12 ADD MSTORE PUSH2 0x160 DUP1 PUSH1 0x40 DUP13 ADD MSTORE DUP11 ADD SWAP1 PUSH2 0x1ECA JUMP JUMPDEST SWAP1 DUP9 DUP3 SUB PUSH1 0x60 DUP11 ADD MSTORE PUSH2 0x1ECA JUMP JUMPDEST SWAP5 PUSH1 0x80 DUP8 ADD MSTORE PUSH1 0x0 PUSH1 0xA0 DUP8 ADD MSTORE PUSH1 0xC0 DUP7 ADD MSTORE DUP2 DUP2 AND ISZERO ISZERO PUSH1 0xE0 DUP7 ADD MSTORE PUSH1 0x8 SHR AND ISZERO ISZERO PUSH2 0x100 DUP5 ADD MSTORE PUSH1 0x0 PUSH2 0x120 DUP5 ADD MSTORE PUSH2 0x140 DUP4 ADD MSTORE SUB SWAP1 RETURN JUMPDEST PUSH4 0x4E487B71 PUSH1 0xE0 SHL PUSH1 0x0 MSTORE PUSH1 0x21 PUSH1 0x4 MSTORE PUSH1 0x24 PUSH1 0x0 REVERT JUMPDEST PUSH4 0x4E487B71 PUSH1 0xE0 SHL PUSH1 0x0 MSTORE PUSH1 0x11 PUSH1 0x4 MSTORE PUSH1 0x24 PUSH1 0x0 REVERT JUMPDEST POP PUSH1 0xA SLOAD DUP2 GT ISZERO PUSH2 0x6A4 JUMP JUMPDEST CALLVALUE PUSH2 0x18F JUMPI PUSH1 0x40 CALLDATASIZE PUSH1 0x3 NOT ADD SLT PUSH2 0x18F JUMPI PUSH2 0x7D1 PUSH2 0x1F20 JUMP JUMPDEST PUSH1 0x4 CALLDATALOAD PUSH1 0x0 MSTORE PUSH1 0x8 PUSH1 0x20 MSTORE PUSH1 0x40 PUSH1 0x0 KECCAK256 SWAP1 PUSH1 0x1 DUP1 PUSH1 0xA0 SHL SUB AND PUSH1 0x0 MSTORE PUSH1 0x20 MSTORE PUSH1 0x20 PUSH1 0xFF PUSH1 0x40 PUSH1 0x0 KECCAK256 SLOAD AND PUSH1 0x40 MLOAD SWAP1 ISZERO ISZERO DUP2 MSTORE RETURN JUMPDEST CALLVALUE PUSH2 0x18F JUMPI PUSH1 0x80 CALLDATASIZE PUSH1 0x3 NOT ADD SLT PUSH2 0x18F JUMPI PUSH8 0xFFFFFFFFFFFFFFFF PUSH1 0x4 CALLDATALOAD DUP2 DUP2 GT PUSH2 0x18F JUMPI PUSH2 0x837 SWAP1 CALLDATASIZE SWAP1 PUSH1 0x4 ADD PUSH2 0x1F4F JUMP JUMPDEST PUSH1 0x24 CALLDATALOAD DUP3 DUP2 GT PUSH2 0x18F JUMPI PUSH2 0x84F SWAP1 CALLDATASIZE SWAP1 PUSH1 0x4 ADD PUSH2 0x1F4F JUMP JUMPDEST PUSH1 0x44 CALLDATALOAD DUP4 DUP2 GT PUSH2 0x18F JUMPI PUSH2 0x867 SWAP1 CALLDATASIZE SWAP1 PUSH1 0x4 ADD PUSH2 0x1F4F JUMP JUMPDEST POP PUSH2 0x870 PUSH2 0x1FA6 JUMP JUMPDEST PUSH1 0x5 PUSH1 0xFF DUP2 SLOAD AND PUSH2 0xB89 JUMPI DUP3 MLOAD DUP5 DUP2 GT PUSH2 0xA88 JUMPI PUSH1 0x1 SWAP1 PUSH2 0x891 DUP3 SLOAD PUSH2 0x1C5A JUMP JUMPDEST SWAP1 PUSH1 0x1F SWAP2 DUP3 DUP2 GT PUSH2 0xB27 JUMPI JUMPDEST POP DUP1 PUSH1 0x20 DUP4 DUP3 GT PUSH1 0x1 EQ PUSH2 0xAA9 JUMPI PUSH1 0x0 SWAP2 PUSH2 0xA9E JUMPI JUMPDEST POP PUSH1 0x0 NOT PUSH1 0x3 DUP4 SWAP1 SHL SHR NOT AND SWAP1 DUP4 SHL OR DUP3 SSTORE JUMPDEST DUP4 MLOAD SWAP6 DUP7 GT PUSH2 0xA88 JUMPI PUSH2 0x8DA PUSH1 0x2 SLOAD PUSH2 0x1C5A JUMP JUMPDEST DUP2 DUP2 GT PUSH2 0xA25 JUMPI JUMPDEST POP PUSH1 0x20 SWAP1 DUP7 GT PUSH1 0x1 EQ PUSH2 0x97A JUMPI SWAP2 PUSH2 0x95C SWAP5 SWAP4 SWAP2 DUP7 PUSH32 0x9F2B0152A49DBA19E307C8E31A1C32A54F6DBD3318D3165028E7B602A85EEDCF SWAP8 PUSH2 0x96A SWAP6 PUSH1 0x0 SWAP2 PUSH2 0x96F JUMPI JUMPDEST POP PUSH1 0x0 NOT PUSH1 0x3 DUP4 SWAP1 SHL SHR NOT AND SWAP1 DUP3 SHL OR PUSH1 0x2 SSTORE JUMPDEST PUSH1 0x64 CALLDATALOAD PUSH1 0x3 SSTORE PUSH1 0xFF NOT DUP3 SLOAD AND OR SWAP1 SSTORE PUSH1 0x40 MLOAD SWAP4 DUP5 SWAP4 PUSH1 0x40 DUP6 MSTORE PUSH1 0x40 DUP6 ADD SWAP1 PUSH2 0x1ECA JUMP JUMPDEST SWAP1 DUP4 DUP3 SUB PUSH1 0x20 DUP6 ADD MSTORE PUSH2 0x1ECA JUMP JUMPDEST SUB SWAP1 LOG1 STOP JUMPDEST SWAP1 POP DUP5 ADD MLOAD DUP10 PUSH2 0x925 JUMP JUMPDEST PUSH1 0x1F NOT DUP7 AND SWAP1 PUSH1 0x2 PUSH1 0x0 MSTORE PUSH32 0x405787FA12A823E0F2B7631CC41B3BA8828B3321CA811111FA75CD3AA3BB5ACE SWAP2 PUSH1 0x0 JUMPDEST DUP2 DUP2 LT PUSH2 0xA0F JUMPI POP SWAP3 DUP8 PUSH2 0x96A SWAP6 SWAP4 DUP3 SWAP4 PUSH32 0x9F2B0152A49DBA19E307C8E31A1C32A54F6DBD3318D3165028E7B602A85EEDCF SWAP11 PUSH2 0x95C SWAP11 SWAP10 SWAP8 LT PUSH2 0x9F6 JUMPI JUMPDEST POP POP DUP2 SHL ADD PUSH1 0x2 SSTORE PUSH2 0x939 JUMP JUMPDEST DUP7 ADD MLOAD PUSH1 0x0 NOT PUSH1 0xF8 DUP5 PUSH1 0x3 SHL AND SHR NOT AND SWAP1 SSTORE DUP10 DUP1 PUSH2 0x9E9 JUMP JUMPDEST DUP7 DUP4 ADD MLOAD DUP5 SSTORE SWAP3 DUP5 ADD SWAP3 PUSH1 0x20 SWAP3 DUP4 ADD SWAP3 ADD PUSH2 0x9AA JUMP JUMPDEST PUSH1 0x2 PUSH1 0x0 MSTORE PUSH32 0x405787FA12A823E0F2B7631CC41B3BA8828B3321CA811111FA75CD3AA3BB5ACE DUP3 DUP1 DUP10 ADD DUP7 SHR DUP3 ADD SWAP3 PUSH1 0x20 DUP11 LT PUSH2 0xA7F JUMPI JUMPDEST ADD DUP6 SHR ADD SWAP1 DUP4 SWAP1 JUMPDEST DUP3 DUP2 LT PUSH2 0xA73 JUMPI POP POP PUSH2 0x8E2 JUMP JUMPDEST PUSH1 0x0 DUP2 SSTORE ADD DUP4 SWAP1 PUSH2 0xA65 JUMP JUMPDEST SWAP3 POP DUP2 SWAP3 PUSH2 0xA5D JUMP JUMPDEST PUSH4 0x4E487B71 PUSH1 0xE0 SHL PUSH1 0x0 MSTORE PUSH1 0x41 PUSH1 0x4 MSTORE PUSH1 0x24 PUSH1 0x0 REVERT JUMPDEST SWAP1 POP DUP7 ADD MLOAD DUP9 PUSH2 0x8B3 JUMP JUMPDEST DUP5 SWAP3 POP PUSH1 0x1F NOT DUP3 AND SWAP1 DUP4 PUSH1 0x0 MSTORE PUSH32 0xB10E2D527612073B26EECDFD717E6A320CF44B4AFAC2B0732D9FCBE2B7FA0CF6 SWAP2 PUSH1 0x0 JUMPDEST DUP2 DUP2 LT PUSH2 0xB0F JUMPI POP DUP4 GT PUSH2 0xAF6 JUMPI JUMPDEST POP POP DUP2 SHL ADD DUP3 SSTORE PUSH2 0x8C6 JUMP JUMPDEST DUP9 ADD MLOAD PUSH1 0x0 NOT PUSH1 0xF8 DUP5 PUSH1 0x3 SHL AND SHR NOT AND SWAP1 SSTORE DUP9 DUP1 PUSH2 0xAEA JUMP JUMPDEST DUP11 DUP4 ADD MLOAD DUP5 SSTORE DUP8 SWAP6 SWAP1 SWAP4 ADD SWAP3 PUSH1 0x20 SWAP3 DUP4 ADD SWAP3 ADD PUSH2 0xADB JUMP JUMPDEST DUP4 PUSH1 0x0 MSTORE PUSH32 0xB10E2D527612073B26EECDFD717E6A320CF44B4AFAC2B0732D9FCBE2B7FA0CF6 DUP4 DUP1 DUP5 ADD DUP8 SHR DUP3 ADD SWAP3 PUSH1 0x20 DUP6 LT PUSH2 0xB80 JUMPI JUMPDEST ADD DUP7 SHR ADD SWAP1 DUP5 SWAP1 JUMPDEST DUP3 DUP2 LT PUSH2 0xB74 JUMPI POP POP PUSH2 0x89D JUMP JUMPDEST PUSH1 0x0 DUP2 SSTORE ADD DUP5 SWAP1 PUSH2 0xB66 JUMP JUMPDEST SWAP3 POP DUP2 SWAP3 PUSH2 0xB5E JUMP JUMPDEST PUSH1 0x40 MLOAD PUSH3 0x461BCD PUSH1 0xE5 SHL DUP2 MSTORE PUSH1 0x20 PUSH1 0x4 DUP3 ADD MSTORE PUSH1 0x13 PUSH1 0x24 DUP3 ADD MSTORE PUSH19 0x105B1C9958591E481A5B9A5D1A585B1A5E9959 PUSH1 0x6A SHL PUSH1 0x44 DUP3 ADD MSTORE PUSH1 0x64 SWAP1 REVERT JUMPDEST CALLVALUE PUSH2 0x18F JUMPI PUSH1 0xA0 CALLDATASIZE PUSH1 0x3 NOT ADD SLT PUSH2 0x18F JUMPI PUSH1 0x4 CALLDATALOAD PUSH1 0xFF DUP2 AND DUP1 SWAP2 SUB PUSH2 0x18F JUMPI PUSH1 0x24 CALLDATALOAD PUSH8 0xFFFFFFFFFFFFFFFF DUP2 GT PUSH2 0x18F JUMPI PUSH2 0xC03 SWAP1 CALLDATASIZE SWAP1 PUSH1 0x4 ADD PUSH2 0x1F4F JUMP JUMPDEST PUSH1 0x44 CALLDATALOAD PUSH8 0xFFFFFFFFFFFFFFFF DUP2 GT PUSH2 0x18F JUMPI PUSH2 0xC23 SWAP1 CALLDATASIZE SWAP1 PUSH1 0x4 ADD PUSH2 0x1F4F JUMP JUMPDEST POP PUSH1 0x64 CALLDATALOAD PUSH8 0xFFFFFFFFFFFFFFFF DUP2 GT PUSH2 0x18F JUMPI PUSH2 0xC44 SWAP1 CALLDATASIZE SWAP1 PUSH1 0x4 ADD PUSH2 0x1F4F JUMP JUMPDEST POP PUSH1 0x84 CALLDATALOAD SWAP1 CALLER PUSH1 0x0 MSTORE PUSH1 0x7 PUSH1 0x20 MSTORE PUSH2 0xC63 PUSH1 0xFF PUSH1 0x40 PUSH1 0x0 KECCAK256 SLOAD AND PUSH2 0x1FD2 JUMP JUMPDEST PUSH1 0x5 DUP4 GT ISZERO DUP1 PUSH2 0xF97 JUMPI JUMPDEST ISZERO PUSH2 0xF62 JUMPI PUSH1 0xA SLOAD SWAP2 PUSH1 0x1 DUP4 ADD DUP4 GT PUSH2 0x796 JUMPI PUSH1 0x6 DUP5 LT ISZERO PUSH2 0x780 JUMPI PUSH3 0x15180 SWAP1 DUP2 DUP2 MUL SWAP2 DUP2 DUP4 DIV EQ SWAP1 ISZERO OR ISZERO PUSH2 0x796 JUMPI PUSH2 0xCA9 SWAP1 TIMESTAMP PUSH2 0x2013 JUMP JUMPDEST PUSH2 0xCB2 DUP5 PUSH2 0x1F36 JUMP JUMPDEST SLOAD SWAP2 PUSH1 0x40 MLOAD SWAP5 PUSH2 0x160 DUP7 ADD DUP7 DUP2 LT PUSH8 0xFFFFFFFFFFFFFFFF DUP3 GT OR PUSH2 0xA88 JUMPI PUSH1 0x40 MSTORE PUSH1 0x1 DUP6 ADD DUP7 MSTORE PUSH1 0x20 DUP7 ADD MSTORE PUSH1 0x40 DUP6 ADD MSTORE CALLER PUSH1 0x60 DUP6 ADD MSTORE PUSH1 0x80 DUP5 ADD MSTORE PUSH1 0x1 PUSH1 0xA0 DUP5 ADD MSTORE PUSH1 0x0 PUSH1 0xC0 DUP5 ADD MSTORE PUSH1 0x0 PUSH1 0xE0 DUP5 ADD MSTORE PUSH1 0x0 PUSH2 0x100 DUP5 ADD MSTORE PUSH1 0x0 PUSH2 0x120 DUP5 ADD MSTORE PUSH2 0x140 DUP4 ADD MSTORE PUSH1 0x1 PUSH1 0x40 SHL DUP2 LT ISZERO PUSH2 0xA88 JUMPI PUSH1 0x1 DUP2 ADD PUSH1 0xA SSTORE PUSH2 0xD35 DUP2 PUSH2 0x1C20 JUMP JUMPDEST PUSH2 0xF4C JUMPI DUP3 MLOAD DUP2 SSTORE PUSH1 0x1 DUP2 ADD PUSH1 0x20 DUP5 ADD MLOAD PUSH1 0x6 DUP2 LT ISZERO PUSH2 0x780 JUMPI PUSH1 0xFF DUP1 NOT DUP4 SLOAD AND SWAP2 AND OR SWAP1 SSTORE PUSH1 0x40 DUP4 ADD MLOAD SWAP3 DUP4 MLOAD PUSH8 0xFFFFFFFFFFFFFFFF DUP2 GT PUSH2 0xA88 JUMPI PUSH2 0xD7F PUSH1 0x2 DUP5 ADD SLOAD PUSH2 0x1C5A JUMP JUMPDEST SWAP5 PUSH1 0x1F DUP7 GT PUSH2 0xF05 JUMPI JUMPDEST PUSH1 0x20 SWAP6 POP DUP6 SWAP1 PUSH1 0x1F DUP4 GT PUSH1 0x1 EQ PUSH2 0xE93 JUMPI SWAP2 DUP1 PUSH1 0x9 SWAP5 SWAP3 PUSH2 0x140 SWAP5 PUSH1 0x0 SWAP3 PUSH2 0xE88 JUMPI JUMPDEST POP POP DUP2 PUSH1 0x1 SHL SWAP2 PUSH1 0x0 NOT SWAP1 PUSH1 0x3 SHL SHR NOT AND OR PUSH1 0x2 DUP6 ADD SSTORE JUMPDEST PUSH1 0x3 DUP5 ADD PUSH1 0x1 DUP1 PUSH1 0xA0 SHL SUB PUSH1 0x60 DUP4 ADD MLOAD AND PUSH12 0xFFFFFFFFFFFFFFFFFFFFFFFF PUSH1 0xA0 SHL DUP3 SLOAD AND OR SWAP1 SSTORE PUSH1 0x80 DUP2 ADD MLOAD PUSH1 0x4 DUP6 ADD SSTORE PUSH1 0x5 DUP5 ADD PUSH2 0xE15 PUSH1 0xA0 DUP4 ADD MLOAD ISZERO ISZERO DUP3 SWAP1 PUSH1 0xFF DUP1 NOT DUP4 SLOAD AND SWAP2 ISZERO ISZERO AND OR SWAP1 SSTORE JUMP JUMPDEST PUSH1 0xC0 DUP3 ADD MLOAD ISZERO ISZERO PUSH2 0xFF00 DUP3 SLOAD SWAP2 PUSH1 0x8 SHL AND SWAP1 PUSH2 0xFF00 NOT AND OR SWAP1 SSTORE PUSH1 0xE0 DUP2 ADD MLOAD PUSH1 0x6 DUP6 ADD SSTORE PUSH2 0x100 DUP2 ADD MLOAD PUSH1 0x7 DUP6 ADD SSTORE PUSH2 0x120 DUP2 ADD MLOAD PUSH1 0x8 DUP6 ADD SSTORE ADD MLOAD SWAP2 ADD SSTORE PUSH1 0x1 PUSH1 0x40 MLOAD SWAP2 CALLER DUP3 DUP3 ADD PUSH32 0xCD423CC1203C0AF96B9B3D68D73B3064A69DE2D14450BB7181C5E5DF2132B358 PUSH1 0x0 DUP1 LOG3 ADD DUP2 MSTORE RETURN JUMPDEST ADD MLOAD SWAP1 POP DUP9 DUP1 PUSH2 0xDAC JUMP JUMPDEST SWAP1 PUSH1 0x1F NOT DUP4 AND SWAP2 PUSH1 0x2 DUP7 ADD PUSH1 0x0 MSTORE DUP8 PUSH1 0x0 KECCAK256 SWAP3 PUSH1 0x0 JUMPDEST DUP2 DUP2 LT PUSH2 0xEEE JUMPI POP SWAP3 PUSH1 0x1 SWAP3 DUP6 SWAP3 PUSH2 0x140 SWAP7 PUSH1 0x9 SWAP9 SWAP7 LT PUSH2 0xED5 JUMPI JUMPDEST POP POP POP DUP2 SHL ADD PUSH1 0x2 DUP6 ADD SSTORE PUSH2 0xDC4 JUMP JUMPDEST ADD MLOAD PUSH1 0x0 NOT PUSH1 0xF8 DUP5 PUSH1 0x3 SHL AND SHR NOT AND SWAP1 SSTORE DUP9 DUP1 DUP1 PUSH2 0xEC5 JUMP JUMPDEST SWAP3 SWAP4 DUP10 PUSH1 0x1 DUP2 SWAP3 DUP8 DUP7 ADD MLOAD DUP2 SSTORE ADD SWAP6 ADD SWAP4 ADD PUSH2 0xEA9 JUMP JUMPDEST PUSH1 0x2 DUP5 ADD PUSH1 0x0 MSTORE PUSH1 0x20 PUSH1 0x0 KECCAK256 PUSH1 0x1F DUP4 ADD PUSH1 0x5 SHR DUP2 ADD PUSH1 0x20 DUP5 LT PUSH2 0xF45 JUMPI JUMPDEST PUSH1 0x1F DUP9 ADD PUSH1 0x5 SHR DUP3 ADD DUP2 LT PUSH2 0xF39 JUMPI POP POP PUSH2 0xD89 JUMP JUMPDEST PUSH1 0x0 DUP2 SSTORE PUSH1 0x1 ADD PUSH2 0xF23 JUMP JUMPDEST POP DUP1 PUSH2 0xF23 JUMP JUMPDEST PUSH4 0x4E487B71 PUSH1 0xE0 SHL PUSH1 0x0 MSTORE PUSH1 0x0 PUSH1 0x4 MSTORE PUSH1 0x24 PUSH1 0x0 REVERT JUMPDEST PUSH1 0x40 MLOAD PUSH3 0x461BCD PUSH1 0xE5 SHL DUP2 MSTORE PUSH1 0x20 PUSH1 0x4 DUP3 ADD MSTORE PUSH1 0xD PUSH1 0x24 DUP3 ADD MSTORE PUSH13 0x125B9D985B1A59081A5B9C1D5D PUSH1 0x9A SHL PUSH1 0x44 DUP3 ADD MSTORE PUSH1 0x64 SWAP1 REVERT JUMPDEST POP DUP1 MLOAD ISZERO ISZERO PUSH2 0xC6E JUMP JUMPDEST CALLVALUE PUSH2 0x18F JUMPI PUSH1 0x0 CALLDATASIZE PUSH1 0x3 NOT ADD SLT PUSH2 0x18F JUMPI PUSH1 0x0 SLOAD PUSH1 0x40 MLOAD PUSH1 0x1 PUSH1 0x1 PUSH1 0xA0 SHL SUB SWAP1 SWAP2 AND DUP2 MSTORE PUSH1 0x20 SWAP1 RETURN JUMPDEST CALLVALUE PUSH2 0x18F JUMPI PUSH1 0x0 CALLDATASIZE PUSH1 0x3 NOT ADD SLT PUSH2 0x18F JUMPI PUSH2 0xFE3 PUSH2 0x1FA6 JUMP JUMPDEST PUSH1 0x0 DUP1 SLOAD PUSH1 0x1 PUSH1 0x1 PUSH1 0xA0 SHL SUB NOT DUP2 AND DUP3 SSTORE PUSH1 0x1 PUSH1 0x1 PUSH1 0xA0 SHL SUB AND PUSH32 0x8BE0079C531659141344CD1FD0A4F28419497F9722A3DAAFE3B4186F6B6457E0 DUP3 DUP1 LOG3 STOP JUMPDEST CALLVALUE PUSH2 0x18F JUMPI PUSH1 0x80 CALLDATASIZE PUSH1 0x3 NOT ADD SLT PUSH2 0x18F JUMPI PUSH2 0x103C PUSH2 0x1F0A JUMP JUMPDEST PUSH1 0x24 SWAP1 DUP2 CALLDATALOAD SWAP1 PUSH4 0xFFFFFFFF DUP3 AND DUP1 SWAP3 SUB PUSH2 0x18F JUMPI PUSH8 0xFFFFFFFFFFFFFFFF SWAP2 PUSH1 0x44 CALLDATALOAD DUP4 DUP2 GT PUSH2 0x18F JUMPI PUSH2 0x1072 SWAP1 CALLDATASIZE SWAP1 PUSH1 0x4 ADD PUSH2 0x1F4F JUMP JUMPDEST PUSH1 0x64 CALLDATALOAD DUP5 DUP2 GT PUSH2 0x18F JUMPI PUSH2 0x108A SWAP1 CALLDATASIZE SWAP1 PUSH1 0x4 ADD PUSH2 0x1F4F JUMP JUMPDEST CALLER PUSH1 0x0 MSTORE PUSH1 0x20 SWAP4 PUSH1 0x7 DUP6 MSTORE PUSH2 0x10A6 PUSH1 0xFF PUSH1 0x40 PUSH1 0x0 KECCAK256 SLOAD AND PUSH2 0x1FD2 JUMP JUMPDEST PUSH1 0x1 PUSH1 0x1 PUSH1 0xA0 SHL SUB AND PUSH1 0x0 DUP2 DUP2 MSTORE PUSH1 0x6 DUP7 MSTORE PUSH1 0x40 SWAP1 KECCAK256 SLOAD SWAP1 SWAP6 SWAP1 PUSH1 0xFF AND PUSH2 0x146B JUMPI PUSH1 0x40 MLOAD SWAP2 PUSH1 0x80 DUP4 ADD DUP4 DUP2 LT DUP4 DUP3 GT OR PUSH2 0x1456 JUMPI PUSH1 0x40 MSTORE PUSH1 0x1 SWAP4 DUP5 DUP5 MSTORE DUP7 DUP5 ADD SWAP2 DUP7 DUP4 MSTORE PUSH1 0x40 DUP6 ADD SWAP2 DUP3 MSTORE PUSH1 0x60 DUP6 ADD MSTORE DUP8 PUSH1 0x0 MSTORE PUSH1 0x6 DUP8 MSTORE PUSH1 0x40 PUSH1 0x0 KECCAK256 SWAP2 PUSH2 0x111D DUP6 MLOAD ISZERO ISZERO DUP5 SWAP1 PUSH1 0xFF DUP1 NOT DUP4 SLOAD AND SWAP2 ISZERO ISZERO AND OR SWAP1 SSTORE JUMP JUMPDEST MLOAD DUP3 SLOAD PUSH5 0xFFFFFFFF00 NOT AND PUSH1 0x8 SWAP2 SWAP1 SWAP2 SHL PUSH5 0xFFFFFFFF00 AND OR DUP3 SSTORE MLOAD DUP1 MLOAD DUP6 DUP4 ADD SWAP2 DUP5 DUP3 GT PUSH2 0x1441 JUMPI PUSH2 0x1150 DUP4 SLOAD PUSH2 0x1C5A JUMP JUMPDEST PUSH1 0x1F DUP2 GT PUSH2 0x13F8 JUMPI JUMPDEST POP DUP9 SWAP1 PUSH1 0x1F DUP4 GT PUSH1 0x1 EQ PUSH2 0x138A JUMPI SWAP2 DUP1 PUSH1 0x2 SWAP5 SWAP3 PUSH1 0x60 SWAP7 SWAP5 PUSH1 0x0 SWAP3 PUSH2 0x137F JUMPI JUMPDEST POP POP PUSH1 0x0 NOT PUSH1 0x3 DUP4 SWAP1 SHL SHR NOT AND SWAP1 DUP9 SHL OR SWAP1 SSTORE JUMPDEST ADD SWAP3 ADD MLOAD DUP1 MLOAD SWAP2 DUP3 GT PUSH2 0x136A JUMPI DUP2 SWAP1 PUSH2 0x11A6 DUP5 SLOAD PUSH2 0x1C5A JUMP JUMPDEST PUSH1 0x1F DUP2 GT PUSH2 0x1317 JUMPI JUMPDEST POP DUP7 SWAP1 PUSH1 0x1F DUP4 GT PUSH1 0x1 EQ PUSH2 0x12B4 JUMPI PUSH1 0x0 SWAP3 PUSH2 0x12A9 JUMPI JUMPDEST POP POP PUSH1 0x0 NOT PUSH1 0x3 DUP4 SWAP1 SHL SHR NOT AND SWAP1 DUP4 SHL OR SWAP1 SSTORE JUMPDEST PUSH1 0xB SLOAD PUSH1 0x1 PUSH1 0x40 SHL DUP2 LT ISZERO PUSH2 0x1294 JUMPI DUP2 DUP2 ADD DUP1 PUSH1 0xB SSTORE DUP2 LT ISZERO PUSH2 0x127F JUMPI PUSH1 0xB PUSH1 0x0 MSTORE PUSH32 0x175B7A638427703F0DBE7BB9BBF987A2551717B34E79F33B5B1008D1FA01DB9 ADD DUP1 SLOAD PUSH1 0x1 PUSH1 0x1 PUSH1 0xA0 SHL SUB NOT AND DUP6 OR SWAP1 SSTORE PUSH1 0x4 SLOAD PUSH1 0x0 NOT DUP2 EQ PUSH2 0x126A JUMPI PUSH32 0xDE21D560F37149B87D711F68DD9F1ED9A63123AE2DF83CDAC230E105A09895E6 SWAP5 SWAP6 POP ADD PUSH1 0x4 SSTORE PUSH1 0x40 MLOAD SWAP1 DUP2 MSTORE LOG2 STOP JUMPDEST DUP6 PUSH4 0x4E487B71 PUSH1 0xE0 SHL PUSH1 0x0 MSTORE PUSH1 0x11 PUSH1 0x4 MSTORE PUSH1 0x0 REVERT JUMPDEST DUP6 PUSH4 0x4E487B71 PUSH1 0xE0 SHL PUSH1 0x0 MSTORE PUSH1 0x32 PUSH1 0x4 MSTORE PUSH1 0x0 REVERT JUMPDEST DUP6 PUSH4 0x4E487B71 PUSH1 0xE0 SHL PUSH1 0x0 MSTORE PUSH1 0x41 PUSH1 0x4 MSTORE PUSH1 0x0 REVERT JUMPDEST ADD MLOAD SWAP1 POP DUP9 DUP1 PUSH2 0x11C5 JUMP JUMPDEST SWAP1 DUP6 SWAP4 POP PUSH1 0x1F NOT DUP4 AND SWAP2 DUP6 PUSH1 0x0 MSTORE DUP9 PUSH1 0x0 KECCAK256 SWAP3 PUSH1 0x0 JUMPDEST DUP11 DUP3 DUP3 LT PUSH2 0x1301 JUMPI POP POP DUP5 GT PUSH2 0x12E8 JUMPI JUMPDEST POP POP POP DUP2 SHL ADD SWAP1 SSTORE PUSH2 0x11D9 JUMP JUMPDEST ADD MLOAD PUSH1 0x0 NOT PUSH1 0xF8 DUP5 PUSH1 0x3 SHL AND SHR NOT AND SWAP1 SSTORE DUP9 DUP1 DUP1 PUSH2 0x12DB JUMP JUMPDEST DUP4 DUP6 ADD MLOAD DUP7 SSTORE DUP10 SWAP8 SWAP1 SWAP6 ADD SWAP5 SWAP4 DUP5 ADD SWAP4 ADD PUSH2 0x12CA JUMP JUMPDEST SWAP1 SWAP2 POP DUP4 PUSH1 0x0 MSTORE DUP7 PUSH1 0x0 KECCAK256 PUSH1 0x1F DUP5 ADD PUSH1 0x5 SHR DUP2 ADD SWAP2 DUP9 DUP6 LT PUSH2 0x1360 JUMPI JUMPDEST DUP5 SWAP4 SWAP3 SWAP2 PUSH1 0x1F DUP9 SWAP3 ADD PUSH1 0x5 SHR ADD SWAP2 JUMPDEST DUP3 DUP2 LT PUSH2 0x1351 JUMPI POP POP PUSH2 0x11AF JUMP JUMPDEST PUSH1 0x0 DUP2 SSTORE DUP6 SWAP5 POP DUP8 SWAP2 ADD PUSH2 0x1343 JUMP JUMPDEST SWAP1 SWAP2 POP DUP2 SWAP1 PUSH2 0x1334 JUMP JUMPDEST DUP8 PUSH4 0x4E487B71 PUSH1 0xE0 SHL PUSH1 0x0 MSTORE PUSH1 0x41 PUSH1 0x4 MSTORE PUSH1 0x0 REVERT JUMPDEST ADD MLOAD SWAP1 POP DUP14 DUP1 PUSH2 0x1179 JUMP JUMPDEST DUP8 SWAP3 SWAP2 PUSH1 0x1F NOT DUP4 AND SWAP2 DUP6 PUSH1 0x0 MSTORE DUP12 PUSH1 0x0 KECCAK256 SWAP3 PUSH1 0x0 JUMPDEST DUP14 DUP3 DUP3 LT PUSH2 0x13E2 JUMPI POP POP SWAP2 PUSH1 0x60 SWAP8 SWAP6 SWAP4 SWAP2 DUP6 PUSH1 0x2 SWAP9 SWAP7 SWAP5 LT PUSH2 0x13C9 JUMPI JUMPDEST POP POP POP DUP2 SHL ADD SWAP1 SSTORE PUSH2 0x118D JUMP JUMPDEST ADD MLOAD PUSH1 0x0 NOT PUSH1 0xF8 DUP5 PUSH1 0x3 SHL AND SHR NOT AND SWAP1 SSTORE DUP14 DUP1 DUP1 PUSH2 0x13BC JUMP JUMPDEST DUP4 DUP6 ADD MLOAD DUP7 SSTORE DUP13 SWAP8 SWAP1 SWAP6 ADD SWAP5 SWAP4 DUP5 ADD SWAP4 ADD PUSH2 0x139F JUMP JUMPDEST DUP4 PUSH1 0x0 MSTORE DUP10 PUSH1 0x0 KECCAK256 PUSH1 0x1F DUP5 ADD PUSH1 0x5 SHR DUP2 ADD SWAP2 DUP12 DUP6 LT PUSH2 0x1437 JUMPI JUMPDEST PUSH1 0x1F ADD PUSH1 0x5 SHR ADD SWAP1 DUP9 SWAP1 JUMPDEST DUP3 DUP2 LT PUSH2 0x142B JUMPI POP POP PUSH2 0x1159 JUMP JUMPDEST PUSH1 0x0 DUP2 SSTORE ADD DUP9 SWAP1 PUSH2 0x141D JUMP JUMPDEST SWAP1 SWAP2 POP DUP2 SWAP1 PUSH2 0x1412 JUMP JUMPDEST DUP11 PUSH4 0x4E487B71 PUSH1 0xE0 SHL PUSH1 0x0 MSTORE PUSH1 0x41 PUSH1 0x4 MSTORE PUSH1 0x0 REVERT JUMPDEST DUP9 PUSH4 0x4E487B71 PUSH1 0xE0 SHL PUSH1 0x0 MSTORE PUSH1 0x41 PUSH1 0x4 MSTORE PUSH1 0x0 REVERT JUMPDEST PUSH1 0x40 MLOAD PUSH3 0x461BCD PUSH1 0xE5 SHL DUP2 MSTORE PUSH1 0x4 DUP2 ADD DUP7 SWAP1 MSTORE PUSH1 0x12 DUP2 DUP10 ADD MSTORE PUSH18 0x105B1C9958591E481C9959DA5CDD195C9959 PUSH1 0x72 SHL PUSH1 0x44 DUP3 ADD MSTORE PUSH1 0x64 SWAP1 REVERT JUMPDEST CALLVALUE PUSH2 0x18F JUMPI PUSH1 0x20 CALLDATASIZE PUSH1 0x3 NOT ADD SLT PUSH2 0x18F JUMPI PUSH1 0x4 CALLDATALOAD PUSH1 0xC SLOAD DUP2 LT ISZERO PUSH2 0x18F JUMPI PUSH1 0xC PUSH1 0x0 MSTORE PUSH32 0xDF6966C971051C3D54EC59162606531493A51404A002842F56009D7E5CF4A8C7 ADD SLOAD PUSH1 0x40 MLOAD PUSH1 0x1 PUSH1 0x1 PUSH1 0xA0 SHL SUB SWAP1 SWAP2 AND DUP2 MSTORE PUSH1 0x20 SWAP1 RETURN JUMPDEST CALLVALUE PUSH2 0x18F JUMPI PUSH1 0x20 CALLDATASIZE PUSH1 0x3 NOT ADD SLT PUSH2 0x18F JUMPI PUSH1 0x1 PUSH1 0x1 PUSH1 0xA0 SHL SUB PUSH2 0x1520 PUSH2 0x1F0A JUMP JUMPDEST AND PUSH1 0x0 MSTORE PUSH1 0x6 PUSH1 0x20 MSTORE PUSH4 0xFFFFFFFF PUSH1 0x40 PUSH1 0x0 KECCAK256 PUSH2 0x158B DUP2 SLOAD SWAP2 PUSH2 0x157D PUSH2 0x1554 PUSH1 0x2 PUSH2 0x154D PUSH1 0x1 DUP6 ADD PUSH2 0x1E26 JUMP JUMPDEST SWAP4 ADD PUSH2 0x1E26 JUMP JUMPDEST SWAP2 PUSH1 0x40 MLOAD SWAP6 DUP6 PUSH1 0xFF DUP9 SWAP8 AND ISZERO ISZERO DUP8 MSTORE PUSH1 0x8 SHR AND PUSH1 0x20 DUP7 ADD MSTORE PUSH1 0xA0 PUSH1 0x40 DUP7 ADD MSTORE PUSH1 0xA0 DUP6 ADD SWAP1 PUSH2 0x1ECA JUMP JUMPDEST SWAP1 DUP4 DUP3 SUB PUSH1 0x60 DUP6 ADD MSTORE PUSH2 0x1ECA JUMP JUMPDEST PUSH1 0x1 PUSH1 0x80 DUP4 ADD MSTORE SUB SWAP1 RETURN JUMPDEST CALLVALUE PUSH2 0x18F JUMPI PUSH1 0x20 CALLDATASIZE PUSH1 0x3 NOT ADD SLT PUSH2 0x18F JUMPI PUSH1 0x1 PUSH1 0x1 PUSH1 0xA0 SHL SUB PUSH2 0x15B7 PUSH2 0x1F0A JUMP JUMPDEST AND PUSH1 0x0 MSTORE PUSH1 0x6 PUSH1 0x20 MSTORE PUSH4 0xFFFFFFFF PUSH1 0x40 PUSH1 0x0 KECCAK256 PUSH2 0x18B DUP2 SLOAD SWAP2 PUSH2 0x157D PUSH2 0x15E4 PUSH1 0x2 PUSH2 0x154D PUSH1 0x1 DUP6 ADD PUSH2 0x1E26 JUMP JUMPDEST SWAP2 PUSH1 0x40 MLOAD SWAP6 DUP6 PUSH1 0xFF DUP9 SWAP8 AND ISZERO ISZERO DUP8 MSTORE PUSH1 0x8 SHR AND PUSH1 0x20 DUP7 ADD MSTORE PUSH1 0x80 PUSH1 0x40 DUP7 ADD MSTORE PUSH1 0x80 DUP6 ADD SWAP1 PUSH2 0x1ECA JUMP JUMPDEST CALLVALUE PUSH2 0x18F JUMPI PUSH1 0x20 CALLDATASIZE PUSH1 0x3 NOT ADD SLT PUSH2 0x18F JUMPI PUSH1 0x4 CALLDATALOAD PUSH1 0x6 DUP2 LT ISZERO PUSH2 0x18F JUMPI PUSH2 0x1635 PUSH1 0x20 SWAP2 PUSH2 0x1F36 JUMP JUMPDEST SLOAD PUSH1 0x40 MLOAD SWAP1 DUP2 MSTORE RETURN JUMPDEST CALLVALUE PUSH2 0x18F JUMPI PUSH1 0x20 CALLDATASIZE PUSH1 0x3 NOT ADD SLT PUSH2 0x18F JUMPI PUSH1 0x4 CALLDATALOAD DUP1 ISZERO ISZERO DUP1 PUSH2 0x1798 JUMPI JUMPDEST PUSH2 0x1664 SWAP1 PUSH2 0x2020 JUMP JUMPDEST CALLER PUSH1 0x0 MSTORE PUSH1 0x7 PUSH1 0x20 MSTORE PUSH2 0x167E PUSH1 0xFF PUSH1 0x40 PUSH1 0x0 KECCAK256 SLOAD AND PUSH2 0x1FD2 JUMP JUMPDEST PUSH1 0x0 NOT DUP2 ADD DUP2 DUP2 GT PUSH2 0x796 JUMPI PUSH2 0x1693 SWAP1 PUSH2 0x1C20 JUMP JUMPDEST POP PUSH1 0x5 DUP2 ADD DUP1 SLOAD PUSH1 0xFF DUP2 AND DUP1 PUSH2 0x178B JUMPI JUMPDEST ISZERO PUSH2 0x1754 JUMPI PUSH2 0xFFFF NOT AND PUSH2 0x100 OR SWAP1 SSTORE PUSH1 0x6 DUP2 ADD SLOAD PUSH1 0x7 DUP3 ADD SLOAD PUSH2 0x16C8 SWAP1 DUP3 PUSH2 0x2013 JUMP JUMPDEST SWAP1 DUP2 ISZERO ISZERO SWAP3 DUP4 PUSH2 0x1703 JUMPI JUMPDEST DUP5 PUSH32 0xB5AC567FCF1B069E0235E4F16734625C6CF54C1B40517FD9EB85517F6E1265A7 PUSH1 0x20 DUP7 PUSH1 0x40 MLOAD SWAP1 ISZERO ISZERO DUP2 MSTORE LOG2 STOP JUMPDEST SWAP1 SWAP2 SWAP3 POP PUSH1 0x64 DUP3 MUL SWAP2 DUP1 DUP4 DIV PUSH1 0x64 EQ SWAP1 ISZERO OR ISZERO PUSH2 0x796 JUMPI PUSH1 0x9 PUSH2 0x1749 PUSH32 0xB5AC567FCF1B069E0235E4F16734625C6CF54C1B40517FD9EB85517F6E1265A7 SWAP5 PUSH1 0x20 SWAP5 PUSH2 0x205F JUMP JUMPDEST SWAP2 ADD SLOAD LT SWAP2 DUP5 PUSH2 0x16D3 JUMP JUMPDEST PUSH1 0x40 MLOAD PUSH3 0x461BCD PUSH1 0xE5 SHL DUP2 MSTORE PUSH1 0x20 PUSH1 0x4 DUP3 ADD MSTORE PUSH1 0xF PUSH1 0x24 DUP3 ADD MSTORE PUSH15 0x43616E6E6F742066696E616C697A65 PUSH1 0x88 SHL PUSH1 0x44 DUP3 ADD MSTORE PUSH1 0x64 SWAP1 REVERT JUMPDEST POP PUSH1 0x4 DUP4 ADD SLOAD TIMESTAMP GT PUSH2 0x16A4 JUMP JUMPDEST POP PUSH1 0xA SLOAD DUP2 GT ISZERO PUSH2 0x165B JUMP JUMPDEST CALLVALUE PUSH2 0x18F JUMPI PUSH1 0x20 CALLDATASIZE PUSH1 0x3 NOT ADD SLT PUSH2 0x18F JUMPI PUSH1 0x4 CALLDATALOAD DUP1 ISZERO ISZERO DUP1 PUSH2 0x18BE JUMPI JUMPDEST PUSH2 0x17CA SWAP1 PUSH2 0x2020 JUMP JUMPDEST CALLER PUSH1 0x0 MSTORE PUSH1 0x7 PUSH1 0x20 MSTORE PUSH2 0x17E4 PUSH1 0xFF PUSH1 0x40 PUSH1 0x0 KECCAK256 SLOAD AND PUSH2 0x1FD2 JUMP JUMPDEST PUSH1 0x0 NOT DUP2 ADD SWAP1 DUP2 GT PUSH2 0x796 JUMPI PUSH2 0x17F9 SWAP1 PUSH2 0x1C20 JUMP JUMPDEST POP PUSH1 0xFF PUSH1 0x5 DUP3 ADD SLOAD PUSH1 0x8 SHR AND ISZERO PUSH2 0x1889 JUMPI PUSH1 0x6 DUP2 ADD SLOAD PUSH1 0x7 DUP3 ADD SLOAD PUSH2 0x181E DUP2 DUP4 PUSH2 0x2013 JUMP JUMPDEST SWAP1 DUP2 ISZERO ISZERO SWAP2 DUP3 PUSH2 0x1857 JUMPI JUMPDEST POP PUSH1 0x8 PUSH1 0x80 SWAP5 PUSH4 0xFFFFFFFF SWAP2 DUP3 SWAP2 ADD SLOAD AND SWAP2 DUP2 PUSH1 0x40 MLOAD SWAP6 AND DUP6 MSTORE AND PUSH1 0x20 DUP5 ADD MSTORE PUSH1 0x40 DUP4 ADD MSTORE ISZERO ISZERO PUSH1 0x60 DUP3 ADD MSTORE RETURN JUMPDEST SWAP4 SWAP2 POP PUSH1 0x64 DUP4 MUL SWAP4 DUP4 DUP6 DIV PUSH1 0x64 EQ DUP5 ISZERO OR ISZERO PUSH2 0x796 JUMPI PUSH2 0x187B PUSH1 0x8 SWAP2 PUSH1 0x80 SWAP7 PUSH2 0x205F JUMP JUMPDEST PUSH1 0x9 DUP5 ADD SLOAD LT SWAP3 SWAP5 POP PUSH2 0x1829 JUMP JUMPDEST PUSH1 0x40 MLOAD PUSH3 0x461BCD PUSH1 0xE5 SHL DUP2 MSTORE PUSH1 0x20 PUSH1 0x4 DUP3 ADD MSTORE PUSH1 0xD PUSH1 0x24 DUP3 ADD MSTORE PUSH13 0x139BDD08199A5B985B1A5E9959 PUSH1 0x9A SHL PUSH1 0x44 DUP3 ADD MSTORE PUSH1 0x64 SWAP1 REVERT JUMPDEST POP PUSH1 0xA SLOAD DUP2 GT ISZERO PUSH2 0x17C1 JUMP JUMPDEST CALLVALUE PUSH2 0x18F JUMPI PUSH1 0x0 CALLDATASIZE PUSH1 0x3 NOT ADD SLT PUSH2 0x18F JUMPI PUSH1 0x20 PUSH1 0x3 SLOAD PUSH1 0x40 MLOAD SWAP1 DUP2 MSTORE RETURN JUMPDEST CALLVALUE PUSH2 0x18F JUMPI PUSH1 0x20 CALLDATASIZE PUSH1 0x3 NOT ADD SLT PUSH2 0x18F JUMPI PUSH2 0x1901 PUSH2 0x1F0A JUMP JUMPDEST PUSH2 0x1909 PUSH2 0x1FA6 JUMP JUMPDEST PUSH1 0x1 DUP1 PUSH1 0xA0 SHL SUB DUP1 SWAP2 AND SWAP1 DUP2 PUSH1 0x0 MSTORE PUSH1 0x7 PUSH1 0x20 MSTORE PUSH1 0xFF PUSH1 0x40 PUSH1 0x0 KECCAK256 SLOAD AND SWAP1 DUP2 PUSH2 0x1980 JUMPI JUMPDEST POP ISZERO PUSH2 0x194B JUMPI PUSH1 0x0 SWAP1 DUP2 MSTORE PUSH1 0x7 PUSH1 0x20 MSTORE PUSH1 0x40 SWAP1 KECCAK256 DUP1 SLOAD PUSH1 0xFF NOT AND SWAP1 SSTORE STOP JUMPDEST PUSH1 0x40 MLOAD PUSH3 0x461BCD PUSH1 0xE5 SHL DUP2 MSTORE PUSH1 0x20 PUSH1 0x4 DUP3 ADD MSTORE PUSH1 0xD PUSH1 0x24 DUP3 ADD MSTORE PUSH13 0x43616E6E6F742072656D6F7665 PUSH1 0x98 SHL PUSH1 0x44 DUP3 ADD MSTORE PUSH1 0x64 SWAP1 REVERT JUMPDEST SWAP1 POP PUSH1 0x0 SLOAD AND DUP2 EQ ISZERO DUP3 PUSH2 0x192D JUMP JUMPDEST CALLVALUE PUSH2 0x18F JUMPI PUSH1 0x0 CALLDATASIZE PUSH1 0x3 NOT ADD SLT PUSH2 0x18F JUMPI PUSH1 0x20 PUSH1 0xFF PUSH1 0x5 SLOAD AND PUSH1 0x40 MLOAD SWAP1 ISZERO ISZERO DUP2 MSTORE RETURN JUMPDEST CALLVALUE PUSH2 0x18F JUMPI PUSH1 0x20 CALLDATASIZE PUSH1 0x3 NOT ADD SLT PUSH2 0x18F JUMPI PUSH1 0x4 CALLDATALOAD PUSH1 0xB SLOAD DUP2 LT ISZERO PUSH2 0x18F JUMPI PUSH1 0xB PUSH1 0x0 MSTORE PUSH32 0x175B7A638427703F0DBE7BB9BBF987A2551717B34E79F33B5B1008D1FA01DB9 ADD SLOAD PUSH1 0x40 MLOAD PUSH1 0x1 PUSH1 0x1 PUSH1 0xA0 SHL SUB SWAP1 SWAP2 AND DUP2 MSTORE PUSH1 0x20 SWAP1 RETURN JUMPDEST CALLVALUE PUSH2 0x18F JUMPI PUSH1 0x20 CALLDATASIZE PUSH1 0x3 NOT ADD SLT PUSH2 0x18F JUMPI PUSH2 0x1A26 PUSH2 0x1F0A JUMP JUMPDEST PUSH2 0x1A2E PUSH2 0x1FA6 JUMP JUMPDEST PUSH1 0x1 PUSH1 0x1 PUSH1 0xA0 SHL SUB AND PUSH1 0x0 DUP2 DUP2 MSTORE PUSH1 0x7 PUSH1 0x20 MSTORE PUSH1 0x40 SWAP1 KECCAK256 SLOAD PUSH1 0xFF AND PUSH2 0x1ACF JUMPI DUP1 PUSH1 0x0 MSTORE PUSH1 0x7 PUSH1 0x20 MSTORE PUSH1 0x40 PUSH1 0x0 KECCAK256 PUSH1 0x1 PUSH1 0xFF NOT DUP3 SLOAD AND OR SWAP1 SSTORE PUSH1 0xC SLOAD PUSH1 0x1 PUSH1 0x40 SHL DUP2 LT ISZERO PUSH2 0xA88 JUMPI PUSH1 0x1 DUP2 ADD DUP1 PUSH1 0xC SSTORE DUP2 LT ISZERO PUSH2 0x1AB9 JUMPI PUSH32 0xDF6966C971051C3D54EC59162606531493A51404A002842F56009D7E5CF4A8C7 ADD DUP1 SLOAD PUSH1 0x1 PUSH1 0x1 PUSH1 0xA0 SHL SUB NOT AND SWAP1 SWAP2 OR SWAP1 SSTORE STOP JUMPDEST PUSH4 0x4E487B71 PUSH1 0xE0 SHL PUSH1 0x0 MSTORE PUSH1 0x32 PUSH1 0x4 MSTORE PUSH1 0x24 PUSH1 0x0 REVERT JUMPDEST PUSH1 0x40 MLOAD PUSH3 0x461BCD PUSH1 0xE5 SHL DUP2 MSTORE PUSH1 0x20 PUSH1 0x4 DUP3 ADD MSTORE PUSH1 0x14 PUSH1 0x24 DUP3 ADD MSTORE PUSH20 0x20B63932B0B23C903137B0B9321036B2B6B132B9 PUSH1 0x61 SHL PUSH1 0x44 DUP3 ADD MSTORE PUSH1 0x64 SWAP1 REVERT JUMPDEST CALLVALUE PUSH2 0x18F JUMPI PUSH1 0x0 CALLDATASIZE PUSH1 0x3 NOT ADD SLT PUSH2 0x18F JUMPI PUSH1 0x20 PUSH1 0xA SLOAD PUSH1 0x40 MLOAD SWAP1 DUP2 MSTORE RETURN JUMPDEST CALLVALUE PUSH2 0x18F JUMPI PUSH1 0x0 CALLDATASIZE PUSH1 0x3 NOT ADD SLT PUSH2 0x18F JUMPI PUSH1 0x20 PUSH1 0x4 SLOAD PUSH1 0x40 MLOAD SWAP1 DUP2 MSTORE RETURN JUMPDEST CALLVALUE PUSH2 0x18F JUMPI PUSH1 0x20 CALLDATASIZE PUSH1 0x3 NOT ADD SLT PUSH2 0x18F JUMPI PUSH1 0x4 CALLDATALOAD PUSH1 0xA SLOAD DUP2 LT ISZERO PUSH2 0x18F JUMPI PUSH2 0x1B6E SWAP1 PUSH2 0x1C20 JUMP JUMPDEST POP DUP1 SLOAD SWAP1 PUSH1 0xFF PUSH1 0x1 DUP3 ADD SLOAD AND SWAP1 PUSH2 0x1B87 PUSH1 0x2 DUP3 ADD PUSH2 0x1E26 JUMP JUMPDEST PUSH1 0x1 DUP1 PUSH1 0xA0 SHL SUB PUSH1 0x3 DUP4 ADD SLOAD AND SWAP2 PUSH1 0x4 DUP2 ADD SLOAD SWAP2 PUSH1 0x5 DUP3 ADD SLOAD SWAP1 PUSH1 0x6 DUP4 ADD SLOAD SWAP1 PUSH1 0x7 DUP5 ADD SLOAD SWAP3 PUSH1 0x9 PUSH1 0x8 DUP7 ADD SLOAD SWAP6 ADD SLOAD SWAP6 PUSH1 0x40 MLOAD SWAP10 DUP11 MSTORE PUSH1 0x6 DUP10 LT ISZERO PUSH2 0x780 JUMPI PUSH2 0x1BE5 PUSH1 0xFF SWAP4 DUP12 SWAP11 PUSH1 0x20 DUP13 ADD MSTORE PUSH2 0x160 DUP1 PUSH1 0x40 DUP14 ADD MSTORE DUP12 ADD SWAP1 PUSH2 0x1ECA JUMP JUMPDEST SWAP8 PUSH1 0x60 DUP11 ADD MSTORE PUSH1 0x80 DUP10 ADD MSTORE DUP2 DUP2 AND ISZERO ISZERO PUSH1 0xA0 DUP10 ADD MSTORE PUSH1 0x8 SHR AND ISZERO ISZERO PUSH1 0xC0 DUP8 ADD MSTORE PUSH1 0xE0 DUP7 ADD MSTORE PUSH2 0x100 DUP6 ADD MSTORE PUSH2 0x120 DUP5 ADD MSTORE PUSH2 0x140 DUP4 ADD MSTORE SUB SWAP1 RETURN JUMPDEST PUSH1 0xA SLOAD DUP2 LT ISZERO PUSH2 0x1AB9 JUMPI PUSH1 0xA SWAP1 DUP2 PUSH1 0x0 MSTORE MUL PUSH32 0xC65A7BB8D6351C1CF70C95A316CC6A92839C986682D98BC35F958F4883F9D2A8 ADD SWAP1 PUSH1 0x0 SWAP1 JUMP JUMPDEST SWAP1 PUSH1 0x1 DUP3 DUP2 SHR SWAP3 AND DUP1 ISZERO PUSH2 0x1C8A JUMPI JUMPDEST PUSH1 0x20 DUP4 LT EQ PUSH2 0x1C74 JUMPI JUMP JUMPDEST PUSH4 0x4E487B71 PUSH1 0xE0 SHL PUSH1 0x0 MSTORE PUSH1 0x22 PUSH1 0x4 MSTORE PUSH1 0x24 PUSH1 0x0 REVERT JUMPDEST SWAP2 PUSH1 0x7F AND SWAP2 PUSH2 0x1C69 JUMP JUMPDEST PUSH1 0x20 DUP2 ADD SWAP1 DUP2 LT PUSH8 0xFFFFFFFFFFFFFFFF DUP3 GT OR PUSH2 0xA88 JUMPI PUSH1 0x40 MSTORE JUMP JUMPDEST SWAP1 PUSH1 0x1F DUP1 NOT SWAP2 ADD AND DUP2 ADD SWAP1 DUP2 LT PUSH8 0xFFFFFFFFFFFFFFFF DUP3 GT OR PUSH2 0xA88 JUMPI PUSH1 0x40 MSTORE JUMP JUMPDEST PUSH1 0x40 MLOAD SWAP1 PUSH1 0x0 DUP3 PUSH1 0x2 SLOAD SWAP2 PUSH2 0x1CE6 DUP4 PUSH2 0x1C5A JUMP JUMPDEST DUP1 DUP4 MSTORE SWAP3 PUSH1 0x1 SWAP1 DUP2 DUP2 AND SWAP1 DUP2 ISZERO PUSH2 0x1D6E JUMPI POP PUSH1 0x1 EQ PUSH2 0x1D0F JUMPI JUMPDEST POP PUSH2 0x1D0D SWAP3 POP SUB DUP4 PUSH2 0x1CB0 JUMP JUMPDEST JUMP JUMPDEST PUSH1 0x2 PUSH1 0x0 SWAP1 DUP2 MSTORE SWAP2 POP PUSH32 0x405787FA12A823E0F2B7631CC41B3BA8828B3321CA811111FA75CD3AA3BB5ACE JUMPDEST DUP5 DUP4 LT PUSH2 0x1D53 JUMPI POP PUSH2 0x1D0D SWAP4 POP POP DUP2 ADD PUSH1 0x20 ADD CODESIZE PUSH2 0x1D00 JUMP JUMPDEST DUP2 SWAP4 POP SWAP1 DUP2 PUSH1 0x20 SWAP3 SLOAD DUP4 DUP6 DUP11 ADD ADD MSTORE ADD SWAP2 ADD SWAP1 SWAP2 DUP6 SWAP3 PUSH2 0x1D3A JUMP JUMPDEST SWAP1 POP PUSH1 0x20 SWAP3 POP PUSH2 0x1D0D SWAP5 SWAP2 POP PUSH1 0xFF NOT AND DUP3 DUP5 ADD MSTORE ISZERO ISZERO PUSH1 0x5 SHL DUP3 ADD ADD CODESIZE PUSH2 0x1D00 JUMP JUMPDEST PUSH1 0x40 MLOAD SWAP1 PUSH1 0x0 DUP3 PUSH1 0x1 SWAP2 DUP3 SLOAD SWAP3 PUSH2 0x1DA6 DUP5 PUSH2 0x1C5A JUMP JUMPDEST DUP1 DUP5 MSTORE SWAP4 DUP2 DUP2 AND SWAP1 DUP2 ISZERO PUSH2 0x1D6E JUMPI POP PUSH1 0x1 EQ PUSH2 0x1DC9 JUMPI POP PUSH2 0x1D0D SWAP3 POP SUB DUP4 PUSH2 0x1CB0 JUMP JUMPDEST PUSH1 0x0 DUP2 DUP2 MSTORE SWAP2 POP PUSH32 0xB10E2D527612073B26EECDFD717E6A320CF44B4AFAC2B0732D9FCBE2B7FA0CF6 JUMPDEST DUP5 DUP4 LT PUSH2 0x1E0B JUMPI POP PUSH2 0x1D0D SWAP4 POP POP DUP2 ADD PUSH1 0x20 ADD CODESIZE PUSH2 0x1D00 JUMP JUMPDEST DUP2 SWAP4 POP SWAP1 DUP2 PUSH1 0x20 SWAP3 SLOAD DUP4 DUP6 DUP11 ADD ADD MSTORE ADD SWAP2 ADD SWAP1 SWAP2 DUP6 SWAP3 PUSH2 0x1DF2 JUMP JUMPDEST SWAP1 PUSH1 0x40 MLOAD SWAP2 DUP3 PUSH1 0x0 DUP3 SLOAD SWAP3 PUSH2 0x1E3A DUP5 PUSH2 0x1C5A JUMP JUMPDEST SWAP1 DUP2 DUP5 MSTORE PUSH1 0x1 SWAP5 DUP6 DUP2 AND SWAP1 DUP2 PUSH1 0x0 EQ PUSH2 0x1EA7 JUMPI POP PUSH1 0x1 EQ PUSH2 0x1E64 JUMPI JUMPDEST POP POP PUSH2 0x1D0D SWAP3 POP SUB DUP4 PUSH2 0x1CB0 JUMP JUMPDEST SWAP1 SWAP4 SWAP2 POP PUSH1 0x0 MSTORE PUSH1 0x20 SWAP1 DUP2 PUSH1 0x0 KECCAK256 SWAP4 PUSH1 0x0 SWAP2 JUMPDEST DUP2 DUP4 LT PUSH2 0x1E8F JUMPI POP POP PUSH2 0x1D0D SWAP4 POP DUP3 ADD ADD CODESIZE DUP1 PUSH2 0x1E56 JUMP JUMPDEST DUP6 SLOAD DUP9 DUP5 ADD DUP6 ADD MSTORE SWAP5 DUP6 ADD SWAP5 DUP8 SWAP5 POP SWAP2 DUP4 ADD SWAP2 PUSH2 0x1E77 JUMP JUMPDEST SWAP2 POP POP PUSH2 0x1D0D SWAP5 POP PUSH1 0x20 SWAP3 POP PUSH1 0xFF NOT AND DUP3 DUP5 ADD MSTORE ISZERO ISZERO PUSH1 0x5 SHL DUP3 ADD ADD CODESIZE DUP1 PUSH2 0x1E56 JUMP JUMPDEST SWAP2 SWAP1 DUP3 MLOAD SWAP3 DUP4 DUP3 MSTORE PUSH1 0x0 JUMPDEST DUP5 DUP2 LT PUSH2 0x1EF6 JUMPI POP POP DUP3 PUSH1 0x0 PUSH1 0x20 DUP1 SWAP5 SWAP6 DUP5 ADD ADD MSTORE PUSH1 0x1F DUP1 NOT SWAP2 ADD AND ADD ADD SWAP1 JUMP JUMPDEST PUSH1 0x20 DUP2 DUP4 ADD DUP2 ADD MLOAD DUP5 DUP4 ADD DUP3 ADD MSTORE ADD PUSH2 0x1ED5 JUMP JUMPDEST PUSH1 0x4 CALLDATALOAD SWAP1 PUSH1 0x1 PUSH1 0x1 PUSH1 0xA0 SHL SUB DUP3 AND DUP3 SUB PUSH2 0x18F JUMPI JUMP JUMPDEST PUSH1 0x24 CALLDATALOAD SWAP1 PUSH1 0x1 PUSH1 0x1 PUSH1 0xA0 SHL SUB DUP3 AND DUP3 SUB PUSH2 0x18F JUMPI JUMP JUMPDEST PUSH1 0x6 DUP2 LT ISZERO PUSH2 0x780 JUMPI PUSH1 0x0 MSTORE PUSH1 0x9 PUSH1 0x20 MSTORE PUSH1 0x40 PUSH1 0x0 KECCAK256 SWAP1 JUMP JUMPDEST DUP2 PUSH1 0x1F DUP3 ADD SLT ISZERO PUSH2 0x18F JUMPI DUP1 CALLDATALOAD SWAP1 PUSH8 0xFFFFFFFFFFFFFFFF DUP3 GT PUSH2 0xA88 JUMPI PUSH1 0x40 MLOAD SWAP3 PUSH2 0x1F84 PUSH1 0x1F DUP5 ADD PUSH1 0x1F NOT AND PUSH1 0x20 ADD DUP6 PUSH2 0x1CB0 JUMP JUMPDEST DUP3 DUP5 MSTORE PUSH1 0x20 DUP4 DUP4 ADD ADD GT PUSH2 0x18F JUMPI DUP2 PUSH1 0x0 SWAP3 PUSH1 0x20 DUP1 SWAP4 ADD DUP4 DUP7 ADD CALLDATACOPY DUP4 ADD ADD MSTORE SWAP1 JUMP JUMPDEST PUSH1 0x0 SLOAD PUSH1 0x1 PUSH1 0x1 PUSH1 0xA0 SHL SUB AND CALLER SUB PUSH2 0x1FBA JUMPI JUMP JUMPDEST PUSH1 0x40 MLOAD PUSH4 0x118CDAA7 PUSH1 0xE0 SHL DUP2 MSTORE CALLER PUSH1 0x4 DUP3 ADD MSTORE PUSH1 0x24 SWAP1 REVERT JUMPDEST ISZERO PUSH2 0x1FD9 JUMPI JUMP JUMPDEST PUSH1 0x40 MLOAD PUSH3 0x461BCD PUSH1 0xE5 SHL DUP2 MSTORE PUSH1 0x20 PUSH1 0x4 DUP3 ADD MSTORE PUSH1 0x12 PUSH1 0x24 DUP3 ADD MSTORE PUSH18 0x4F6E6C7920626F617264206D656D62657273 PUSH1 0x70 SHL PUSH1 0x44 DUP3 ADD MSTORE PUSH1 0x64 SWAP1 REVERT JUMPDEST SWAP2 SWAP1 DUP3 ADD DUP1 SWAP3 GT PUSH2 0x796 JUMPI JUMP JUMPDEST ISZERO PUSH2 0x2027 JUMPI JUMP JUMPDEST PUSH1 0x40 MLOAD PUSH3 0x461BCD PUSH1 0xE5 SHL DUP2 MSTORE PUSH1 0x20 PUSH1 0x4 DUP3 ADD MSTORE PUSH1 0x10 PUSH1 0x24 DUP3 ADD MSTORE PUSH16 0x125B9D985B1A59081C1C9BDC1BDCD85B PUSH1 0x82 SHL PUSH1 0x44 DUP3 ADD MSTORE PUSH1 0x64 SWAP1 REVERT JUMPDEST DUP2 ISZERO PUSH2 0x2069 JUMPI DIV SWAP1 JUMP JUMPDEST PUSH4 0x4E487B71 PUSH1 0xE0 SHL PUSH1 0x0 MSTORE PUSH1 0x12 PUSH1 0x4 MSTORE PUSH1 0x24 PUSH1 0x0 REVERT INVALID LOG2 PUSH5 0x6970667358 0x22 SLT KECCAK256 0x4B 0xDF EXTCODECOPY 0xCB BALANCE PUSH11 0xD427C85A8ED4CE10AA03C6 DUP14 0xA8 0x4E SWAP16 PUSH24 0x799961B8930A626448EA64736F6C63430008140033000000 "},"methodIdentifiers":{"addBoardMember(address)":"1eac03ae","boardMembers(address)":"bff13785","boardMembersList(uint256)":"5ee230b7","castVotePlain(uint256,uint8)":"d098db5a","companyName()":"f5ec2eed","createProposal(uint8,string,string,string,uint256)":"a39af88e","finalizeProposal(uint256)":"5652077c","getCompanyInfo()":"d7710d62","getDecryptedResults(uint256)":"41d14c22","getProposalInfo(uint256)":"bc903cb8","getShareholderInfo(address)":"5e6056bb","getTotalProposals()":"1a5007dd","hasVoted(uint256,address)":"43859632","hasVotedOn(uint256,address)":"b97d3e40","initializeCompany(string,string,string,uint256)":"a759e629","isBoardMember(address)":"71942a01","isInitialized()":"392e53cd","owner()":"8da5cb5b","proposals(uint256)":"013cf08b","registerShareholderPlain(address,uint32,string,string)":"691e7398","removeBoardMember(address)":"39a169f9","renounceOwnership()":"715018a6","shareholders(address)":"5c2930ad","shareholdersList(uint256)":"33bac503","stockSymbol()":"c87cbe56","thresholds(uint8)":"5a50d2f4","totalShareholders()":"0f8d4030","totalShares()":"3a98ef39","transferOwnership(address)":"f2fde38b"}}}}}