{
  "_format": "hh-sol-artifact-1",
  "contractName": "BasicVoting",
  "sourceName": "contracts/BasicVoting.sol",
  "abi": [
    {
      "inputs": [],
      "stateMutability": "nonpayable",
      "type": "constructor"
    },
    {
      "anonymous": false,
      "inputs": [
        {
          "indexed": true,
          "internalType": "uint256",
          "name": "proposalId",
          "type": "uint256"
        },
        {
          "indexed": false,
          "internalType": "string",
          "name": "title",
          "type": "string"
        },
        {
          "indexed": false,
          "internalType": "address",
          "name": "proposer",
          "type": "address"
        }
      ],
      "name": "ProposalCreated",
      "type": "event"
    },
    {
      "anonymous": false,
      "inputs": [
        {
          "indexed": true,
          "internalType": "uint256",
          "name": "proposalId",
          "type": "uint256"
        }
      ],
      "name": "ProposalFinalized",
      "type": "event"
    },
    {
      "anonymous": false,
      "inputs": [
        {
          "indexed": true,
          "internalType": "uint256",
          "name": "proposalId",
          "type": "uint256"
        },
        {
          "indexed": false,
          "internalType": "address",
          "name": "voter",
          "type": "address"
        },
        {
          "indexed": false,
          "internalType": "uint8",
          "name": "choice",
          "type": "uint8"
        }
      ],
      "name": "VoteCast",
      "type": "event"
    },
    {
      "anonymous": false,
      "inputs": [
        {
          "indexed": true,
          "internalType": "address",
          "name": "voter",
          "type": "address"
        },
        {
          "indexed": false,
          "internalType": "uint256",
          "name": "weight",
          "type": "uint256"
        }
      ],
      "name": "VoterAuthorized",
      "type": "event"
    },
    {
      "inputs": [
        {
          "internalType": "address",
          "name": "_voter",
          "type": "address"
        },
        {
          "internalType": "uint256",
          "name": "_weight",
          "type": "uint256"
        }
      ],
      "name": "authorizeVoter",
      "outputs": [],
      "stateMutability": "nonpayable",
      "type": "function"
    },
    {
      "inputs": [
        {
          "internalType": "uint256",
          "name": "_proposalId",
          "type": "uint256"
        },
        {
          "internalType": "uint8",
          "name": "_choice",
          "type": "uint8"
        }
      ],
      "name": "castVote",
      "outputs": [],
      "stateMutability": "nonpayable",
      "type": "function"
    },
    {
      "inputs": [
        {
          "internalType": "address",
          "name": "_voter",
          "type": "address"
        }
      ],
      "name": "checkAuthorization",
      "outputs": [
        {
          "internalType": "bool",
          "name": "",
          "type": "bool"
        }
      ],
      "stateMutability": "view",
      "type": "function"
    },
    {
      "inputs": [
        {
          "internalType": "string",
          "name": "_title",
          "type": "string"
        },
        {
          "internalType": "string",
          "name": "_description",
          "type": "string"
        },
        {
          "internalType": "uint256",
          "name": "_durationDays",
          "type": "uint256"
        }
      ],
      "name": "createProposal",
      "outputs": [
        {
          "internalType": "uint256",
          "name": "",
          "type": "uint256"
        }
      ],
      "stateMutability": "nonpayable",
      "type": "function"
    },
    {
      "inputs": [
        {
          "internalType": "uint256",
          "name": "_proposalId",
          "type": "uint256"
        }
      ],
      "name": "finalizeProposal",
      "outputs": [],
      "stateMutability": "nonpayable",
      "type": "function"
    },
    {
      "inputs": [
        {
          "internalType": "uint256",
          "name": "_proposalId",
          "type": "uint256"
        }
      ],
      "name": "getProposal",
      "outputs": [
        {
          "internalType": "uint256",
          "name": "id",
          "type": "uint256"
        },
        {
          "internalType": "string",
          "name": "title",
          "type": "string"
        },
        {
          "internalType": "string",
          "name": "description",
          "type": "string"
        },
        {
          "internalType": "uint256",
          "name": "forVotes",
          "type": "uint256"
        },
        {
          "internalType": "uint256",
          "name": "againstVotes",
          "type": "uint256"
        },
        {
          "internalType": "uint256",
          "name": "abstainVotes",
          "type": "uint256"
        },
        {
          "internalType": "uint256",
          "name": "deadline",
          "type": "uint256"
        },
        {
          "internalType": "bool",
          "name": "active",
          "type": "bool"
        },
        {
          "internalType": "address",
          "name": "proposer",
          "type": "address"
        },
        {
          "internalType": "bool",
          "name": "finalized",
          "type": "bool"
        }
      ],
      "stateMutability": "view",
      "type": "function"
    },
    {
      "inputs": [],
      "name": "getTotalProposals",
      "outputs": [
        {
          "internalType": "uint256",
          "name": "",
          "type": "uint256"
        }
      ],
      "stateMutability": "view",
      "type": "function"
    },
    {
      "inputs": [
        {
          "internalType": "address",
          "name": "_voter",
          "type": "address"
        }
      ],
      "name": "getVoterWeight",
      "outputs": [
        {
          "internalType": "uint256",
          "name": "",
          "type": "uint256"
        }
      ],
      "stateMutability": "view",
      "type": "function"
    },
    {
      "inputs": [
        {
          "internalType": "uint256",
          "name": "",
          "type": "uint256"
        },
        {
          "internalType": "address",
          "name": "",
          "type": "address"
        }
      ],
      "name": "hasVoted",
      "outputs": [
        {
          "internalType": "bool",
          "name": "",
          "type": "bool"
        }
      ],
      "stateMutability": "view",
      "type": "function"
    },
    {
      "inputs": [
        {
          "internalType": "uint256",
          "name": "_proposalId",
          "type": "uint256"
        },
        {
          "internalType": "address",
          "name": "_voter",
          "type": "address"
        }
      ],
      "name": "hasVotedOn",
      "outputs": [
        {
          "internalType": "bool",
          "name": "",
          "type": "bool"
        }
      ],
      "stateMutability": "view",
      "type": "function"
    },
    {
      "inputs": [
        {
          "internalType": "address",
          "name": "",
          "type": "address"
        }
      ],
      "name": "isAuthorized",
      "outputs": [
        {
          "internalType": "bool",
          "name": "",
          "type": "bool"
        }
      ],
      "stateMutability": "view",
      "type": "function"
    },
    {
      "inputs": [],
      "name": "owner",
      "outputs": [
        {
          "internalType": "address",
          "name": "",
          "type": "address"
        }
      ],
      "stateMutability": "view",
      "type": "function"
    },
    {
      "inputs": [],
      "name": "proposalCount",
      "outputs": [
        {
          "internalType": "uint256",
          "name": "",
          "type": "uint256"
        }
      ],
      "stateMutability": "view",
      "type": "function"
    },
    {
      "inputs": [
        {
          "internalType": "uint256",
          "name": "",
          "type": "uint256"
        }
      ],
      "name": "proposals",
      "outputs": [
        {
          "internalType": "uint256",
          "name": "id",
          "type": "uint256"
        },
        {
          "internalType": "string",
          "name": "title",
          "type": "string"
        },
        {
          "internalType": "string",
          "name": "description",
          "type": "string"
        },
        {
          "internalType": "uint256",
          "name": "forVotes",
          "type": "uint256"
        },
        {
          "internalType": "uint256",
          "name": "againstVotes",
          "type": "uint256"
        },
        {
          "internalType": "uint256",
          "name": "abstainVotes",
          "type": "uint256"
        },
        {
          "internalType": "uint256",
          "name": "deadline",
          "type": "uint256"
        },
        {
          "internalType": "bool",
          "name": "active",
          "type": "bool"
        },
        {
          "internalType": "address",
          "name": "proposer",
          "type": "address"
        },
        {
          "internalType": "bool",
          "name": "finalized",
          "type": "bool"
        }
      ],
      "stateMutability": "view",
      "type": "function"
    },
    {
      "inputs": [
        {
          "internalType": "address",
          "name": "_newOwner",
          "type": "address"
        }
      ],
      "name": "transferOwnership",
      "outputs": [],
      "stateMutability": "nonpayable",
      "type": "function"
    },
    {
      "inputs": [
        {
          "internalType": "address",
          "name": "",
          "type": "address"
        }
      ],
      "name": "voters",
      "outputs": [
        {
          "internalType": "address",
          "name": "wallet",
          "type": "address"
        },
        {
          "internalType": "uint256",
          "name": "weight",
          "type": "uint256"
        },
        {
          "internalType": "bool",
          "name": "authorized",
          "type": "bool"
        }
      ],
      "stateMutability": "view",
      "type": "function"
    }
  ],
  "bytecode": "0x6080346100c25760058054336001600160a01b031991821681179092556000918252600360205260408220805460ff19908116600117909155919290606082018281106001600160401b038211176100ae579160029160ff936040523382526020820190600182526040808401976001895233815285602052209260018060a01b039051169083541617825551600182015501925115159183541691161790556040516111d190816100c88239f35b634e487b7160e01b85526041600452602485fd5b600080fdfe6080604052600436101561001257600080fd5b60003560e01c8063013cf08b14610da75780630ce0ebf4146108c45780631a5007dd1461016057806343859632146108775780635652077c1461071a57806356781388146104f857806389f4dd47146100cc5780638da5cb5b146104cf578063a3ec138d14610476578063b97d3e401461040a578063be82ae061461025e578063c7f758a8146101bb578063d85c91ae1461017e578063da35c66414610160578063f2fde38b146101105763fe9fbb80146100cc57600080fd5b3461010b57602036600319011261010b576001600160a01b036100ed611043565b166000526003602052602060ff604060002054166040519015158152f35b600080fd5b3461010b57602036600319011261010b57610129611043565b600554906001600160a01b03906101433383851614611059565b1690610150821515611092565b6001600160a01b03191617600555005b3461010b57600036600319011261010b576020600454604051908152f35b3461010b57602036600319011261010b576001600160a01b0361019f611043565b1660005260026020526020600160406000200154604051908152f35b3461010b57602036600319011261010b5760043580151580610252575b6101e19061111a565b60005260006020526040600020805461024e6003830154926004810154926005820154906006830154600784015492610228600261022160018801610e84565b9601610e84565b9660405198899860ff8760a81c169760ff60018060a01b038960081c169816968b610f6a565b0390f35b506004548111156101d8565b3461010b57604036600319011261010b57610277611043565b6024359060018060a01b03809161029382600554163314611059565b16916102a0831515611092565b826000526020906003825260ff604060002054166103d057801561038b5760405192606084019380851067ffffffffffffffff861117610375576002610358927f56c86175da3d490e6d0f6fd255af2be41b60a3d681c17e4ae0ec9b1b9aa53ce3966040528783528583018581526040840191600183528960005283885260406000209451166bffffffffffffffffffffffff60a01b85541617845551600184015551151591019060ff801983541691151516179055565b600382526040600020600160ff19825416179055604051908152a2005b634e487b7160e01b600052604160045260246000fd5b60405162461bcd60e51b815260048101839052601760248201527f576569676874206d75737420626520706f7369746976650000000000000000006044820152606490fd5b60405162461bcd60e51b8152600481018390526012602482015271105b1c9958591e48185d5d1a1bdc9a5e995960721b6044820152606490fd5b3461010b57604036600319011261010b5760043561042661102d565b908015158061046a575b6104399061111a565b600052600160205260406000209060018060a01b0316600052602052602060ff604060002054166040519015158152f35b50600454811115610430565b3461010b57602036600319011261010b5760606001600160a01b038061049a611043565b1660005260026020526040600020908154169060ff600260018301549201541690604051928352602083015215156040820152f35b3461010b57600036600319011261010b576005546040516001600160a01b039091168152602090f35b3461010b57604036600319011261010b5760043560243560ff811680910361010b578115158061070e575b61052c9061111a565b336000526020906003825261054860ff604060002054166110d0565b8260005260018252604060002033600052825260ff604060002054166106d957826000526000825261058460ff60076040600020015416611159565b82600052600082526006604060002001544210156106a5576002811161066f577feba4866100b822f0f391e610e7edfab790b9e8766c0012733c26b2f1858e8dd79160409133600052600282526001836000200154811560001461062c5785600052600083526105fc6005856000200191825461110d565b90555b84600052600182528260002033600052825282600020600160ff19825416179055825191338352820152a2005b6001820361065557856000526000835261064e6003856000200191825461110d565b90556105ff565b856000526000835261064e6004856000200191825461110d565b60405162461bcd60e51b815260048101839052600e60248201526d496e76616c69642063686f69636560901b6044820152606490fd5b60405162461bcd60e51b815260048101839052600c60248201526b159bdd1a5b99c8195b99195960a21b6044820152606490fd5b60405162461bcd60e51b815260048101839052600d60248201526c105b1c9958591e481d9bdd1959609a1b6044820152606490fd5b50600454821115610523565b3461010b5760208060031936011261010b57600435908115158061086b575b6107429061111a565b61075760018060a01b03600554163314611059565b816000526000815261077360ff60076040600020015416611159565b8160005260008152600660406000200154421061082757816000526000815260ff60076040600020015460a81c166107ef5760008281529081905260408120600701805460ff60ff60a81b011916600160a81b1790557fe1f88450adc0106842577be8461a06e8d81ccd807a16165d60b56cca3197c5ba9080a2005b6064906040519062461bcd60e51b825260048201526011602482015270105b1c9958591e48199a5b985b1a5e9959607a1b6044820152fd5b6064906040519062461bcd60e51b82526004820152601760248201527f566f74696e6720706572696f64206e6f7420656e6465640000000000000000006044820152fd5b50600454821115610739565b3461010b57604036600319011261010b5761089061102d565b600435600052600160205260406000209060018060a01b0316600052602052602060ff604060002054166040519015158152f35b3461010b57606036600319011261010b5760043567ffffffffffffffff811161010b576108f5903690600401610fd6565b60243567ffffffffffffffff811161010b57610915903690600401610fd6565b6044359033600052600360205261093360ff604060002054166110d0565b825115610d6a57600182101580610d5f575b15610d2757600454916000198314610d1157600183016004556201518090818102918183041490151715610d115761097d904261110d565b916040519261014084019284841067ffffffffffffffff85111761037557600193604052838301855285602086015260408501526000606085015260006080850152600060a085015260c08401528160e0840152336101008401526000610120840152016000526000602052604060002081518155602082015192835167ffffffffffffffff811161037557610a166001840154610e28565b601f8111610cca575b506020601f8211600114610c5b578192939495600092610c50575b50508160011b916000199060031b1c19161760018301555b604083015192835167ffffffffffffffff811161037557610a766002850154610e28565b94601f8611610c09575b602095508590601f8311600114610b95579180610b7a9692600794600092610b8a575b50508160011b916000199060031b1c19161760028201555b606083015160038201556080830151600482015560a0830151600582015560c083015160068201550190610b0160e08201511515839060ff801983541691151516179055565b610100810151825461012090920151610100600160b01b031990921660089190911b610100600160a81b03161790151560a81b60ff60a81b1617905560045460408051818152919384937fc8c078bfee58e5822588f08b4509ed1eb5058e03f666cca84dd2d44bf5c288a8939283929190830190610f2a565b33878301520390a2604051908152f35b015190508880610aa3565b9060028601600052866000209160005b601f1985168110610bf2575092610b7a969260019260079583601f19811610610bd9575b505050811b016002820155610abb565b015160001960f88460031b161c19169055888080610bc9565b919288600181928685015181550194019201610ba5565b600285016000526020600020601f830160051c810160208410610c49575b601f880160051c82018110610c3d575050610a80565b60008155600101610c27565b5080610c27565b015190508580610a3a565b6001840160005260206000209060005b601f1984168110610cb2575060019394959683601f19811610610c99575b505050811b016001830155610a52565b015160001960f88460031b161c19169055858080610c89565b9091602060018192858b015181550193019101610c6b565b600184016000526020600020601f830160051c810160208410610d0a575b601f830160051c82018110610cfe575050610a1f565b60008155600101610ce8565b5080610ce8565b634e487b7160e01b600052601160045260246000fd5b60405162461bcd60e51b815260206004820152601060248201526f24b73b30b634b210323ab930ba34b7b760811b6044820152606490fd5b50601e821115610945565b60405162461bcd60e51b81526020600482015260156024820152745469746c652063616e6e6f7420626520656d70747960581b6044820152606490fd5b3461010b57602036600319011261010b576004356000526000602052604060002080549061024e610dda60018301610e84565b610de660028401610e84565b926003810154946004820154916005810154600760068301549201549360405198899860ff8760a81c169760ff60018060a01b038960081c169816968b610f6a565b90600182811c92168015610e58575b6020831014610e4257565b634e487b7160e01b600052602260045260246000fd5b91607f1691610e37565b90601f8019910116810190811067ffffffffffffffff82111761037557604052565b9060405191826000825492610e9884610e28565b908184526001948581169081600014610f075750600114610ec4575b5050610ec292500383610e62565b565b9093915060005260209081600020936000915b818310610eef575050610ec293508201013880610eb4565b85548884018501529485019487945091830191610ed7565b915050610ec294506020925060ff191682840152151560051b8201013880610eb4565b919082519283825260005b848110610f56575050826000602080949584010152601f8019910116010190565b602081830181015184830182015201610f35565b989592610f94610120999693610fa2939d9c99969d8c5260208c61014091829101528c0190610f2a565b908a820360408c0152610f2a565b606089019a909a52608088015260a087015260c0860152151560e08501526001600160a01b03166101008401521515910152565b81601f8201121561010b5780359067ffffffffffffffff8211610375576040519261100b601f8401601f191660200185610e62565b8284526020838301011161010b57816000926020809301838601378301015290565b602435906001600160a01b038216820361010b57565b600435906001600160a01b038216820361010b57565b1561106057565b60405162461bcd60e51b815260206004820152600a60248201526927b7363c9037bbb732b960b11b6044820152606490fd5b1561109957565b60405162461bcd60e51b815260206004820152600f60248201526e496e76616c6964206164647265737360881b6044820152606490fd5b156110d757565b60405162461bcd60e51b815260206004820152600e60248201526d139bdd08185d5d1a1bdc9a5e995960921b6044820152606490fd5b91908201809211610d1157565b1561112157565b60405162461bcd60e51b815260206004820152601060248201526f125b9d985b1a59081c1c9bdc1bdcd85b60821b6044820152606490fd5b1561116057565b60405162461bcd60e51b815260206004820152601360248201527250726f706f73616c206e6f742061637469766560681b6044820152606490fdfea26469706673582212207e73ef5f671890957b299954afde13ea84b63d2367dcc2b3351a038d0519c93664736f6c63430008140033",
  "linkReferences": {},
  "deployedLinkReferences": {}
}