{
  "_format": "hh-sol-artifact-1",
  "contractName": "CorporateGovernanceOptimized",
  "sourceName": "contracts/CorporateGovernanceOptimized.sol",
  "abi": [
    {
      "inputs": [],
      "stateMutability": "nonpayable",
      "type": "constructor"
    },
    {
      "inputs": [
        {
          "internalType": "address",
          "name": "owner",
          "type": "address"
        }
      ],
      "name": "OwnableInvalidOwner",
      "type": "error"
    },
    {
      "inputs": [
        {
          "internalType": "address",
          "name": "account",
          "type": "address"
        }
      ],
      "name": "OwnableUnauthorizedAccount",
      "type": "error"
    },
    {
      "anonymous": false,
      "inputs": [
        {
          "indexed": true,
          "internalType": "address",
          "name": "member",
          "type": "address"
        }
      ],
      "name": "BoardMemberAdded",
      "type": "event"
    },
    {
      "anonymous": false,
      "inputs": [
        {
          "indexed": false,
          "internalType": "string",
          "name": "name",
          "type": "string"
        },
        {
          "indexed": false,
          "internalType": "string",
          "name": "symbol",
          "type": "string"
        }
      ],
      "name": "CompanyInitialized",
      "type": "event"
    },
    {
      "anonymous": false,
      "inputs": [
        {
          "indexed": true,
          "internalType": "address",
          "name": "previousOwner",
          "type": "address"
        },
        {
          "indexed": true,
          "internalType": "address",
          "name": "newOwner",
          "type": "address"
        }
      ],
      "name": "OwnershipTransferred",
      "type": "event"
    },
    {
      "anonymous": false,
      "inputs": [
        {
          "indexed": true,
          "internalType": "uint256",
          "name": "proposalId",
          "type": "uint256"
        },
        {
          "indexed": false,
          "internalType": "enum CorporateGovernanceOptimized.ProposalType",
          "name": "proposalType",
          "type": "uint8"
        },
        {
          "indexed": true,
          "internalType": "address",
          "name": "proposer",
          "type": "address"
        }
      ],
      "name": "ProposalCreated",
      "type": "event"
    },
    {
      "anonymous": false,
      "inputs": [
        {
          "indexed": true,
          "internalType": "uint256",
          "name": "proposalId",
          "type": "uint256"
        },
        {
          "indexed": false,
          "internalType": "bool",
          "name": "passed",
          "type": "bool"
        }
      ],
      "name": "ProposalFinalized",
      "type": "event"
    },
    {
      "anonymous": false,
      "inputs": [
        {
          "indexed": true,
          "internalType": "address",
          "name": "shareholder",
          "type": "address"
        },
        {
          "indexed": false,
          "internalType": "string",
          "name": "companyId",
          "type": "string"
        },
        {
          "indexed": false,
          "internalType": "uint32",
          "name": "shares",
          "type": "uint32"
        }
      ],
      "name": "ShareholderRegistered",
      "type": "event"
    },
    {
      "anonymous": false,
      "inputs": [
        {
          "indexed": true,
          "internalType": "uint256",
          "name": "proposalId",
          "type": "uint256"
        },
        {
          "indexed": true,
          "internalType": "address",
          "name": "voter",
          "type": "address"
        },
        {
          "indexed": false,
          "internalType": "enum CorporateGovernanceOptimized.VoteChoice",
          "name": "choice",
          "type": "uint8"
        }
      ],
      "name": "VoteCast",
      "type": "event"
    },
    {
      "inputs": [
        {
          "internalType": "address",
          "name": "_member",
          "type": "address"
        }
      ],
      "name": "addBoardMember",
      "outputs": [],
      "stateMutability": "nonpayable",
      "type": "function"
    },
    {
      "inputs": [
        {
          "internalType": "address",
          "name": "",
          "type": "address"
        }
      ],
      "name": "boardMembers",
      "outputs": [
        {
          "internalType": "bool",
          "name": "",
          "type": "bool"
        }
      ],
      "stateMutability": "view",
      "type": "function"
    },
    {
      "inputs": [
        {
          "internalType": "uint256",
          "name": "",
          "type": "uint256"
        }
      ],
      "name": "boardMembersList",
      "outputs": [
        {
          "internalType": "address",
          "name": "",
          "type": "address"
        }
      ],
      "stateMutability": "view",
      "type": "function"
    },
    {
      "inputs": [
        {
          "internalType": "uint256",
          "name": "_proposalId",
          "type": "uint256"
        },
        {
          "internalType": "uint8",
          "name": "_choice",
          "type": "uint8"
        }
      ],
      "name": "castVotePlain",
      "outputs": [],
      "stateMutability": "nonpayable",
      "type": "function"
    },
    {
      "inputs": [],
      "name": "companyName",
      "outputs": [
        {
          "internalType": "string",
          "name": "",
          "type": "string"
        }
      ],
      "stateMutability": "view",
      "type": "function"
    },
    {
      "inputs": [
        {
          "internalType": "uint8",
          "name": "_type",
          "type": "uint8"
        },
        {
          "internalType": "string",
          "name": "_title",
          "type": "string"
        },
        {
          "internalType": "string",
          "name": "_description",
          "type": "string"
        },
        {
          "internalType": "string",
          "name": "_attachmentHash",
          "type": "string"
        },
        {
          "internalType": "uint256",
          "name": "_durationDays",
          "type": "uint256"
        }
      ],
      "name": "createProposal",
      "outputs": [
        {
          "internalType": "uint256",
          "name": "",
          "type": "uint256"
        }
      ],
      "stateMutability": "nonpayable",
      "type": "function"
    },
    {
      "inputs": [
        {
          "internalType": "uint256",
          "name": "_proposalId",
          "type": "uint256"
        }
      ],
      "name": "finalizeProposal",
      "outputs": [],
      "stateMutability": "nonpayable",
      "type": "function"
    },
    {
      "inputs": [],
      "name": "getCompanyInfo",
      "outputs": [
        {
          "internalType": "string",
          "name": "",
          "type": "string"
        },
        {
          "internalType": "string",
          "name": "",
          "type": "string"
        },
        {
          "internalType": "string",
          "name": "",
          "type": "string"
        },
        {
          "internalType": "uint256",
          "name": "",
          "type": "uint256"
        },
        {
          "internalType": "uint256",
          "name": "",
          "type": "uint256"
        },
        {
          "internalType": "address[]",
          "name": "",
          "type": "address[]"
        }
      ],
      "stateMutability": "view",
      "type": "function"
    },
    {
      "inputs": [
        {
          "internalType": "uint256",
          "name": "_proposalId",
          "type": "uint256"
        }
      ],
      "name": "getDecryptedResults",
      "outputs": [
        {
          "internalType": "uint32",
          "name": "",
          "type": "uint32"
        },
        {
          "internalType": "uint32",
          "name": "",
          "type": "uint32"
        },
        {
          "internalType": "uint32",
          "name": "",
          "type": "uint32"
        },
        {
          "internalType": "bool",
          "name": "",
          "type": "bool"
        }
      ],
      "stateMutability": "view",
      "type": "function"
    },
    {
      "inputs": [
        {
          "internalType": "uint256",
          "name": "_proposalId",
          "type": "uint256"
        }
      ],
      "name": "getProposalBasic",
      "outputs": [
        {
          "internalType": "uint256",
          "name": "",
          "type": "uint256"
        },
        {
          "internalType": "uint8",
          "name": "",
          "type": "uint8"
        },
        {
          "internalType": "address",
          "name": "",
          "type": "address"
        },
        {
          "internalType": "uint256",
          "name": "",
          "type": "uint256"
        },
        {
          "internalType": "uint256",
          "name": "",
          "type": "uint256"
        },
        {
          "internalType": "bool",
          "name": "",
          "type": "bool"
        },
        {
          "internalType": "bool",
          "name": "",
          "type": "bool"
        }
      ],
      "stateMutability": "view",
      "type": "function"
    },
    {
      "inputs": [
        {
          "internalType": "uint256",
          "name": "_proposalId",
          "type": "uint256"
        }
      ],
      "name": "getProposalContent",
      "outputs": [
        {
          "internalType": "string",
          "name": "",
          "type": "string"
        },
        {
          "internalType": "string",
          "name": "",
          "type": "string"
        },
        {
          "internalType": "string",
          "name": "",
          "type": "string"
        }
      ],
      "stateMutability": "view",
      "type": "function"
    },
    {
      "inputs": [
        {
          "internalType": "uint256",
          "name": "_proposalId",
          "type": "uint256"
        }
      ],
      "name": "getProposalInfo",
      "outputs": [
        {
          "internalType": "uint256",
          "name": "id",
          "type": "uint256"
        },
        {
          "internalType": "uint8",
          "name": "proposalType",
          "type": "uint8"
        },
        {
          "internalType": "string",
          "name": "title",
          "type": "string"
        },
        {
          "internalType": "string",
          "name": "description",
          "type": "string"
        },
        {
          "internalType": "address",
          "name": "proposer",
          "type": "address"
        },
        {
          "internalType": "uint256",
          "name": "creationTime",
          "type": "uint256"
        },
        {
          "internalType": "uint256",
          "name": "deadline",
          "type": "uint256"
        },
        {
          "internalType": "bool",
          "name": "isActive",
          "type": "bool"
        },
        {
          "internalType": "bool",
          "name": "isFinalized",
          "type": "bool"
        },
        {
          "internalType": "uint256",
          "name": "participationCount",
          "type": "uint256"
        },
        {
          "internalType": "uint256",
          "name": "requiredThreshold",
          "type": "uint256"
        }
      ],
      "stateMutability": "view",
      "type": "function"
    },
    {
      "inputs": [
        {
          "internalType": "uint256",
          "name": "_proposalId",
          "type": "uint256"
        }
      ],
      "name": "getProposalVotes",
      "outputs": [
        {
          "internalType": "uint256",
          "name": "",
          "type": "uint256"
        },
        {
          "internalType": "uint256",
          "name": "",
          "type": "uint256"
        },
        {
          "internalType": "uint256",
          "name": "",
          "type": "uint256"
        },
        {
          "internalType": "uint256",
          "name": "",
          "type": "uint256"
        },
        {
          "internalType": "uint256",
          "name": "",
          "type": "uint256"
        }
      ],
      "stateMutability": "view",
      "type": "function"
    },
    {
      "inputs": [
        {
          "internalType": "address",
          "name": "_shareholder",
          "type": "address"
        }
      ],
      "name": "getShareholderInfo",
      "outputs": [
        {
          "internalType": "bool",
          "name": "",
          "type": "bool"
        },
        {
          "internalType": "uint32",
          "name": "",
          "type": "uint32"
        },
        {
          "internalType": "string",
          "name": "",
          "type": "string"
        },
        {
          "internalType": "string",
          "name": "",
          "type": "string"
        }
      ],
      "stateMutability": "view",
      "type": "function"
    },
    {
      "inputs": [],
      "name": "getTotalProposals",
      "outputs": [
        {
          "internalType": "uint256",
          "name": "",
          "type": "uint256"
        }
      ],
      "stateMutability": "view",
      "type": "function"
    },
    {
      "inputs": [
        {
          "internalType": "uint256",
          "name": "",
          "type": "uint256"
        },
        {
          "internalType": "address",
          "name": "",
          "type": "address"
        }
      ],
      "name": "hasVoted",
      "outputs": [
        {
          "internalType": "bool",
          "name": "",
          "type": "bool"
        }
      ],
      "stateMutability": "view",
      "type": "function"
    },
    {
      "inputs": [
        {
          "internalType": "uint256",
          "name": "_proposalId",
          "type": "uint256"
        },
        {
          "internalType": "address",
          "name": "_voter",
          "type": "address"
        }
      ],
      "name": "hasVotedOn",
      "outputs": [
        {
          "internalType": "bool",
          "name": "",
          "type": "bool"
        }
      ],
      "stateMutability": "view",
      "type": "function"
    },
    {
      "inputs": [
        {
          "internalType": "string",
          "name": "_name",
          "type": "string"
        },
        {
          "internalType": "string",
          "name": "_symbol",
          "type": "string"
        },
        {
          "internalType": "string",
          "name": "_regNumber",
          "type": "string"
        },
        {
          "internalType": "uint256",
          "name": "_totalShares",
          "type": "uint256"
        }
      ],
      "name": "initializeCompany",
      "outputs": [],
      "stateMutability": "nonpayable",
      "type": "function"
    },
    {
      "inputs": [
        {
          "internalType": "address",
          "name": "_member",
          "type": "address"
        }
      ],
      "name": "isBoardMember",
      "outputs": [
        {
          "internalType": "bool",
          "name": "",
          "type": "bool"
        }
      ],
      "stateMutability": "view",
      "type": "function"
    },
    {
      "inputs": [],
      "name": "isInitialized",
      "outputs": [
        {
          "internalType": "bool",
          "name": "",
          "type": "bool"
        }
      ],
      "stateMutability": "view",
      "type": "function"
    },
    {
      "inputs": [],
      "name": "owner",
      "outputs": [
        {
          "internalType": "address",
          "name": "",
          "type": "address"
        }
      ],
      "stateMutability": "view",
      "type": "function"
    },
    {
      "inputs": [
        {
          "internalType": "uint256",
          "name": "",
          "type": "uint256"
        }
      ],
      "name": "proposalBasics",
      "outputs": [
        {
          "internalType": "uint256",
          "name": "id",
          "type": "uint256"
        },
        {
          "internalType": "enum CorporateGovernanceOptimized.ProposalType",
          "name": "proposalType",
          "type": "uint8"
        },
        {
          "internalType": "address",
          "name": "proposer",
          "type": "address"
        },
        {
          "internalType": "uint256",
          "name": "creationTime",
          "type": "uint256"
        },
        {
          "internalType": "uint256",
          "name": "deadline",
          "type": "uint256"
        },
        {
          "internalType": "bool",
          "name": "isActive",
          "type": "bool"
        },
        {
          "internalType": "bool",
          "name": "isFinalized",
          "type": "bool"
        }
      ],
      "stateMutability": "view",
      "type": "function"
    },
    {
      "inputs": [
        {
          "internalType": "uint256",
          "name": "",
          "type": "uint256"
        }
      ],
      "name": "proposalContents",
      "outputs": [
        {
          "internalType": "string",
          "name": "title",
          "type": "string"
        },
        {
          "internalType": "string",
          "name": "description",
          "type": "string"
        },
        {
          "internalType": "string",
          "name": "attachmentHash",
          "type": "string"
        }
      ],
      "stateMutability": "view",
      "type": "function"
    },
    {
      "inputs": [
        {
          "internalType": "uint256",
          "name": "",
          "type": "uint256"
        }
      ],
      "name": "proposalVotes",
      "outputs": [
        {
          "internalType": "uint256",
          "name": "forVotes",
          "type": "uint256"
        },
        {
          "internalType": "uint256",
          "name": "againstVotes",
          "type": "uint256"
        },
        {
          "internalType": "uint256",
          "name": "abstainVotes",
          "type": "uint256"
        },
        {
          "internalType": "uint256",
          "name": "participationCount",
          "type": "uint256"
        },
        {
          "internalType": "uint256",
          "name": "requiredThreshold",
          "type": "uint256"
        }
      ],
      "stateMutability": "view",
      "type": "function"
    },
    {
      "inputs": [
        {
          "internalType": "address",
          "name": "_shareholder",
          "type": "address"
        },
        {
          "internalType": "uint32",
          "name": "_shares",
          "type": "uint32"
        },
        {
          "internalType": "string",
          "name": "_companyId",
          "type": "string"
        },
        {
          "internalType": "string",
          "name": "_name",
          "type": "string"
        }
      ],
      "name": "registerShareholderPlain",
      "outputs": [],
      "stateMutability": "nonpayable",
      "type": "function"
    },
    {
      "inputs": [],
      "name": "registrationNumber",
      "outputs": [
        {
          "internalType": "string",
          "name": "",
          "type": "string"
        }
      ],
      "stateMutability": "view",
      "type": "function"
    },
    {
      "inputs": [
        {
          "internalType": "address",
          "name": "_member",
          "type": "address"
        }
      ],
      "name": "removeBoardMember",
      "outputs": [],
      "stateMutability": "nonpayable",
      "type": "function"
    },
    {
      "inputs": [],
      "name": "renounceOwnership",
      "outputs": [],
      "stateMutability": "nonpayable",
      "type": "function"
    },
    {
      "inputs": [
        {
          "internalType": "address",
          "name": "",
          "type": "address"
        }
      ],
      "name": "shareholders",
      "outputs": [
        {
          "internalType": "bool",
          "name": "isRegistered",
          "type": "bool"
        },
        {
          "internalType": "uint32",
          "name": "shares",
          "type": "uint32"
        },
        {
          "internalType": "string",
          "name": "companyId",
          "type": "string"
        },
        {
          "internalType": "string",
          "name": "name",
          "type": "string"
        }
      ],
      "stateMutability": "view",
      "type": "function"
    },
    {
      "inputs": [
        {
          "internalType": "uint256",
          "name": "",
          "type": "uint256"
        }
      ],
      "name": "shareholdersList",
      "outputs": [
        {
          "internalType": "address",
          "name": "",
          "type": "address"
        }
      ],
      "stateMutability": "view",
      "type": "function"
    },
    {
      "inputs": [],
      "name": "stockSymbol",
      "outputs": [
        {
          "internalType": "string",
          "name": "",
          "type": "string"
        }
      ],
      "stateMutability": "view",
      "type": "function"
    },
    {
      "inputs": [
        {
          "internalType": "enum CorporateGovernanceOptimized.ProposalType",
          "name": "",
          "type": "uint8"
        }
      ],
      "name": "thresholds",
      "outputs": [
        {
          "internalType": "uint256",
          "name": "",
          "type": "uint256"
        }
      ],
      "stateMutability": "view",
      "type": "function"
    },
    {
      "inputs": [],
      "name": "totalShareholders",
      "outputs": [
        {
          "internalType": "uint256",
          "name": "",
          "type": "uint256"
        }
      ],
      "stateMutability": "view",
      "type": "function"
    },
    {
      "inputs": [],
      "name": "totalShares",
      "outputs": [
        {
          "internalType": "uint256",
          "name": "",
          "type": "uint256"
        }
      ],
      "stateMutability": "view",
      "type": "function"
    },
    {
      "inputs": [
        {
          "internalType": "address",
          "name": "newOwner",
          "type": "address"
        }
      ],
      "name": "transferOwnership",
      "outputs": [],
      "stateMutability": "nonpayable",
      "type": "function"
    },
    {
      "inputs": [
        {
          "internalType": "uint256",
          "name": "",
          "type": "uint256"
        },
        {
          "internalType": "address",
          "name": "",
          "type": "address"
        }
      ],
      "name": "votes",
      "outputs": [
        {
          "internalType": "enum CorporateGovernanceOptimized.VoteChoice",
          "name": "",
          "type": "uint8"
        }
      ],
      "stateMutability": "view",
      "type": "function"
    }
  ],
  "bytecode": "0x60806040908082523461014b573315610135575060008054336001600160a01b03198083168217845592916001600160a01b03167f8be0079c531659141344cd1fd0a4f28419497f9722a3daafe3b4186f6b6457e08380a3808052601060205260328382205560018152603c8382205560028152604b838220556003815260328382205560048152604b8382205560058152603c838220553381526008602052828120600160ff19825416179055600a549068010000000000000000821015610121576001820180600a5582101561010d57600a90527fc65a7bb8d6351c1cf70c95a316cc6a92839c986682d98bc35f958f4883f9d2a80180549091163317905551612a0890816101518239f35b634e487b7160e01b81526032600452602490fd5b634e487b7160e01b81526041600452602490fd5b631e4fbdf760e01b815260006004820152602490fd5b600080fdfe608080604052600436101561001357600080fd5b60003560e01c9081630f8d4030146123ee575080631a5007dd146123d05780631de20bcf146123885780631eac03ae146122a557806333bac5031461224a578063392e53cd1461222757806339a169f9146120895780633a98ef391461206b57806341d14c2214611f3d5780634385963214611ef057806347c6614014611e6a5780634ed2703414611e20578063544ffc9c14611db85780635652077c14611c1c5780635a50d2f414611beb5780635c2930ad14611b855780635e6056bb14611b855780635ee230b714611b43578063691e739814611689578063715018a61461163057806371942a01146106fc5780637ec8f005146115a45780638da5cb5b1461157b5780639f83c4b2146114cb578063a39af88e14610e0d578063a759e62914610911578063b2a1a40a146108f5578063b97d3e4014610889578063bc903cb81461073b578063bff13785146106fc578063c87cbe56146106e0578063d098db5a146103f1578063d23254b4146103a1578063d7710d6214610272578063f2fde38b146101e45763f5ec2eed146101ab57600080fd5b346101df5760003660031901126101df576101db6101c76126ae565b604051918291602083526020830190612409565b0390f35b600080fd5b346101df5760203660031901126101df576101fd612483565b6102056128ea565b6001600160a01b0390811690811561025957600054826bffffffffffffffffffffffff60a01b821617600055167f8be0079c531659141344cd1fd0a4f28419497f9722a3daafe3b4186f6b6457e0600080a3005b604051631e4fbdf760e01b815260006004820152602490fd5b346101df5760003660031901126101df57600454600554906102926126ae565b9061029b612615565b926102a4612557565b91604051918290600a54948585526020809501978896600a6000527fc65a7bb8d6351c1cf70c95a316cc6a92839c986682d98bc35f958f4883f9d2a89060005b8181106103845750505083929161032961033792610308899761031c9d0387612536565b6040519b8c9b60c08d5260c08d0190612409565b908b8203888d0152612409565b9089820360408b0152612409565b936060880152608087015285830360a0870152519182815201929160005b82811061036457505050500390f35b83516001600160a01b031685528695509381019392810192600101610355565b82546001600160a01b03168c529a88019a600192830192016102e4565b346101df5760403660031901126101df576103ba612499565b600435600052600f60205260406000209060018060a01b03166000526020526101db60ff60406000205416604051918291826128d7565b346101df5760403660031901126101df5760043560249081359160ff83168093036101df57811515806106d4575b61042890612973565b60001982018281116106bf5761043d9061288f565b5060ff600482015416156106855760030154421161065257336000526020906007825260ff604060002054161561060f57600284116105db5782600052600e8252604060002033600052825260ff604060002054166105a8576003841015610594575060039082600052600e81526040600020336000528152604060002060ff199060018282541617905583600052600f825260406000203360005282528460406000209182541617905582600052600d81526007604060002091336000525263ffffffff60406000205460081c166001851460001461056757610522908254612966565b81555b016105308154612957565b90557feba4866100b822f0f391e610e7edfab790b9e8766c0012733c26b2f1858e8dd7604051806105623395826128d7565b0390a3005b600285036105855761057e60018301918254612966565b9055610525565b61057e60028301918254612966565b634e487b7160e01b60009081526021600452fd5b90600d6064926040519262461bcd60e51b845260048401528201526c105b1c9958591e481d9bdd1959609a1b6044820152fd5b90600e6064926040519262461bcd60e51b845260048401528201526d496e76616c69642063686f69636560901b6044820152fd5b90601a6064926040519262461bcd60e51b845260048401528201527f4f6e6c79207665726966696564207368617265686f6c646572730000000000006044820152fd5b606490600c6040519162461bcd60e51b8352602060048401528201526b159bdd1a5b99c8195b99195960a21b6044820152fd5b60405162461bcd60e51b8152602060048201526013818401527250726f706f73616c206e6f742061637469766560681b6044820152606490fd5b50634e487b7160e01b60009081526011600452fd5b50600b5482111561041f565b346101df5760003660031901126101df576101db6101c7612615565b346101df5760203660031901126101df576001600160a01b0361071d612483565b166000526008602052602060ff604060002054166040519015158152f35b346101df5760203660031901126101df576004358015158061087d575b61076190612973565b6000198101818111610867576107769061288f565b5090600052600c6020526040600020600d602052604060002082549160018401549160ff83169460068610156108515780600260ff92015490600460038201549101549161080f60046003870154960154966108016107e060016107d984612744565b9301612744565b916040519c8d9c8d5260208d015260408c61016091829101528c0190612409565b908a820360608c0152612409565b9660018060a01b039060081c16608089015260a088015260c0870152818116151560e087015260081c1615156101008501526101208401526101408301520390f35b634e487b7160e01b600052602160045260246000fd5b634e487b7160e01b600052601160045260246000fd5b50600b54811115610758565b346101df5760403660031901126101df576004356108a5612499565b90801515806108e9575b6108b890612973565b600052600e60205260406000209060018060a01b0316600052602052602060ff604060002054166040519015158152f35b50600b548111156108af565b346101df5760003660031901126101df576101db6101c7612557565b346101df5760803660031901126101df576001600160401b036004358181116101df57610942903690600401612839565b906024358181116101df5761095b903690600401612839565b906044358181116101df57610974903690600401612839565b61097c6128ea565b60ff60065416610dd257835191808311610bde5760019261099d84546124fc565b90601f91828111610d6e575b50806020838211600114610cef57600091610ce4575b50600019600383901b1c191690851b1784555b8451828111610bde576109e66002546124fc565b828111610c7f575b50806020838211600114610bff57600091610bf4575b50600019600383901b1c191690851b176002555b8251918211610bde57600392610a2e84546124fc565b828111610b7a575b506020918311600114610acf579282610ab196937f9f2b0152a49dba19e307c8e31a1c32a54f6dbd3318d3165028e7b602a85eedcf989693610abf96600092610ac4575b505060001982841b1c191690831b1790555b60643560045560ff196006541617600655604051938493604085526040850190612409565b908382036020850152612409565b0390a1005b015190508980610a7a565b90601f19831691846000527fc2575a0e9e593c00f959f8c92f12db2869c3395a3b0502d05e2516446f71f85b9260005b818110610b645750938693610abf96937f9f2b0152a49dba19e307c8e31a1c32a54f6dbd3318d3165028e7b602a85eedcf9a989383610ab19b9810610b4c575b505050811b019055610a8c565b015160001983861b60f8161c19169055898080610b3f565b8284015185559387019360209384019301610aff565b846000527fc2575a0e9e593c00f959f8c92f12db2869c3395a3b0502d05e2516446f71f85b8380860160051c82019260208710610bd5575b0160051c019086905b828110610bc9575050610a36565b60008155018690610bbb565b92508192610bb2565b634e487b7160e01b600052604160045260246000fd5b905086015188610a04565b869250601f1982169060026000527f405787fa12a823e0f2b7631cc41b3ba8828b3321ca811111fa75cd3aa3bb5ace9160005b818110610c6757508311610c4e575b5050811b01600255610a18565b88015160001960f88460031b161c191690558880610c41565b8a830151845589959093019260209283019201610c32565b60026000527f405787fa12a823e0f2b7631cc41b3ba8828b3321ca811111fa75cd3aa3bb5ace8380840160051c82019260208510610cdb575b0160051c019086905b828110610ccf5750506109ee565b60008155018690610cc1565b92508192610cb8565b9050870151886109bf565b869250601f19821690836000527fb10e2d527612073b26eecdfd717e6a320cf44b4afac2b0732d9fcbe2b7fa0cf69160005b8b828210610d575750508311610d3e575b5050811b0184556109d2565b89015160001960f88460031b161c191690558880610d32565b830151845589959093019260209283019201610d21565b856000527fb10e2d527612073b26eecdfd717e6a320cf44b4afac2b0732d9fcbe2b7fa0cf68380840160051c82019260208510610dc9575b0160051c019086905b828110610dbd5750506109a9565b60008155018690610daf565b92508192610da6565b60405162461bcd60e51b8152602060048201526013602482015272105b1c9958591e481a5b9a5d1a585b1a5e9959606a1b6044820152606490fd5b346101df5760a03660031901126101df5760043560ff811681036101df576024356001600160401b0381116101df57610e4a903690600401612839565b6044356001600160401b0381116101df57610e69903690600401612839565b906064356001600160401b0381116101df57610e89903690600401612839565b60843592336000526008602052610ea760ff60406000205416612916565b600560ff8616116114975782511561146457600b549360018501851161086757600660ff8716101561085157620151809081810291818304149015171561086757610ef29042612966565b604051908160e08101106001600160401b0360e084011117610bde5760e0820160405260018601825260ff871660208301523360408301524260608301526080820152600160a0820152600060c0820152600160401b851015610bde5760018501600b55610f5f8561288f565b61144e5781518155602082015160018201916006821015610851578260049260c0945460ff610100600160a81b03604089015160081b169216906affffffffffffffffffffff60a81b161717905560608401516002820155608084015160038201550191610fdf60a08201511515849060ff801983541691151516179055565b0151815461ff00191690151560081b61ff001617905560405192606084016001600160401b03811185821017610bde5760405283526020830152604082015260018201600052600c60205260406000209080518051906001600160401b038211610bde57819061104f85546124fc565b601f81116113fe575b50602090601f83116001146113985760009261138d575b50508160011b916000199060031b1c19161782555b60208101518051906001600160401b038211610bde576110a760018501546124fc565b601f8111611346575b50602090601f83116001146112d5576040939291600091836112ca575b50508160011b916000199060031b1c19161760018401555b01518051906001600160401b038211610bde5761110560028401546124fc565b601f811161127f575b50602090601f8311600114611211576002929160009183611206575b50508160011b916000199060031b1c1916179101555b61114c60ff83166127e8565b54916040519260a08401918483106001600160401b03841117610bde5760209460046111d19360ff95604052600083528783016000815260408401600081526060850191600083526080860193845260018a01600052600d8b5260406000209551865551600186015551600285015551600384015551910155604051928391166128ca565b33907f3263432a41f78a4701cc9465f62411ed717ade32290c084135a3dd6b29f4bf28846001850192a3600160405191018152f35b01519050868061112a565b90601f198316916002850160005260206000209260005b8181106112675750916001939185600296941061124e575b505050811b01910155611140565b015160001960f88460031b161c19169055868080611240565b92936020600181928786015181550195019301611228565b600284016000526020600020601f840160051c810191602085106112c0575b601f0160051c01905b8181106112b4575061110e565b600081556001016112a7565b909150819061129e565b0151905087806110cd565b90601f198316916001860160005260206000209260005b81811061132e5750916001939185604097969410611315575b505050811b0160018401556110e5565b015160001960f88460031b161c19169055878080611305565b929360206001819287860151815501950193016112ec565b600185016000526020600020601f840160051c810160208510611386575b601f830160051c8201811061137a5750506110b0565b60008155600101611364565b5080611364565b01519050868061106f565b6000868152602081209350601f198516905b8181106113e657509084600195949392106113cd575b505050811b018255611084565b015160001960f88460031b161c191690558680806113c0565b929360206001819287860151815501950193016113aa565b909150846000526020600020601f840160051c810160208510611447575b90849392915b601f830160051c82018110611438575050611058565b60008155859450600101611422565b508061141c565b634e487b7160e01b600052600060045260246000fd5b60405162461bcd60e51b815260206004820152600b60248201526a456d707479207469746c6560a81b6044820152606490fd5b60405162461bcd60e51b815260206004820152600c60248201526b496e76616c6964207479706560a01b6044820152606490fd5b346101df5760203660031901126101df576004358015158061156f575b6114f190612973565b6000198101908111610867576115069061288f565b508054600182015460ff81166006811015610851578360ff92600260e0960154906004600384015493015493604051968752602087015260018060a01b039060081c16604086015260608501526080840152818116151560a084015260081c16151560c0820152f35b50600b548111156114e8565b346101df5760003660031901126101df576000546040516001600160a01b039091168152602090f35b346101df5760203660031901126101df57600435600b548110156101df576115cd60e09161288f565b5060ff815491600181015490600281015460046003830154920154926040519586526115fe602087018683166128ca565b60018060a01b039060081c16604086015260608501526080840152818116151560a084015260081c16151560c0820152f35b346101df5760003660031901126101df576116496128ea565b600080546001600160a01b0319811682556001600160a01b03167f8be0079c531659141344cd1fd0a4f28419497f9722a3daafe3b4186f6b6457e08280a3005b346101df5760803660031901126101df576116a2612483565b602480359163ffffffff831683036101df576044356001600160401b0381116101df576116d3903690600401612839565b916064356001600160401b0381116101df576116f3903690600401612839565b33600052600860205261170d60ff60406000205416612916565b6001600160a01b03831660009081526007602052604090205460ff16611b0a5760405190608082018281106001600160401b03821117611a1b5760405260018252602082019063ffffffff871682526040830190868252606084015260018060a01b038516600052600760205260406000209161179984511515849060ff801983541691151516179055565b5164ffffffff0083549160081b169064ffffffff001916178255518051906001600160401b038211611af5576117d260018401546124fc565b601f8111611aae575b50602090601f8311600114611a3b57918060609492600294600092611a30575b50508160011b916000199060031b1c19161760018201555b019101518051906001600160401b038211611a1b57819061183484546124fc565b601f81116119c8575b50602090601f831160011461196257600092611957575b50508160011b916000199060031b1c19161790555b60095490600160401b82101561194357600182018060095582101561192f575060096000527f6e1540171b6c0c960b71a7020d9f60077f6af931a8bbf590da0223dacf75c7af0180546001600160a01b0319166001600160a01b0383161790556005547f5e54c52a11762ea9e0832cafb00c2ace0c9171b00ae4d1b17cc7f8175fbbe754926119199290916118fd90612957565b60055563ffffffff604051938493604085526040850190612409565b951660208301526001600160a01b0316930390a2005b634e487b7160e01b60009081526032600452fd5b634e487b7160e01b60009081526041600452fd5b015190508780611854565b6000858152602081209350601f198516905b8181106119b05750908460019594939210611997575b505050811b019055611869565b015160001960f88460031b161c1916905587808061198a565b92936020600181928786015181550195019301611974565b909150836000526020600020601f840160051c81019160208510611a11575b90601f859493920160051c01905b818110611a02575061183d565b600081558493506001016119f5565b90915081906119e7565b83634e487b7160e01b60005260416004526000fd5b015190508a806117fb565b90601f198316916001850160005260206000209260005b818110611a9657509260019285926002966060989610611a7d575b505050811b016001820155611813565b015160001960f88460031b161c191690558a8080611a6d565b92936020600181928786015181550195019301611a52565b600184016000526020600020601f840160051c810160208510611aee575b601f830160051c82018110611ae25750506117db565b60008155600101611acc565b5080611acc565b84634e487b7160e01b60005260416004526000fd5b60405162461bcd60e51b81526020600482015260128184015271105b1c9958591e481c9959da5cdd195c995960721b6044820152606490fd5b346101df5760203660031901126101df57600435600a548110156101df57611b6c6020916124af565b905460405160039290921b1c6001600160a01b03168152f35b346101df5760203660031901126101df576001600160a01b03611ba6612483565b166000526007602052604060002080546101db611bd16002611bca60018601612744565b9401612744565b604051938360ff63ffffffff879660081c16911685612801565b346101df5760203660031901126101df5760043560068110156101df57611c136020916127e8565b54604051908152f35b346101df576020806003193601126101df576004359081151580611dac575b611c4490612973565b3360005260088152611c5d60ff60406000205416612916565b600019820182811161086757611c729061288f565b50600481019081549060ff821615611d735760030154421115611d42576101009061ffff191617905581600052600d8152604060002090815491611cba600182015484612966565b9060009180611cf4575b50507fb5ac567fcf1b069e0235e4f16734625c6cf54c1b40517fd9eb85517f6e1265a792506040519015158152a2005b90915060648402938085046064149015171561086757611d376004917fb5ac567fcf1b069e0235e4f16734625c6cf54c1b40517fd9eb85517f6e1265a7956129b2565b910154108480611cc4565b60405162461bcd60e51b8152600481018490526009602482015268139bdd08195b99195960ba1b6044820152606490fd5b60405162461bcd60e51b8152600481018590526011602482015270105b1c9958591e48199a5b985b1a5e9959607a1b6044820152606490fd5b50600b54821115611c3b565b346101df5760203660031901126101df57600435600052600d602052604060002080546101db6001830154926002810154906004600382015491015491604051958695869192608093969594919660a084019784526020840152604083015260608201520152565b346101df5760203660031901126101df57600435600052600c6020526040600020611e4a81612744565b6101db611e5e6002611bca60018601612744565b60405193849384612449565b346101df5760203660031901126101df5760043580151580611ee4575b611e9090612973565b600052600d602052604060002080546101db6001830154926002810154906004600382015491015491604051958695869192608093969594919660a084019784526020840152604083015260608201520152565b50600b54811115611e87565b346101df5760403660031901126101df57611f09612499565b600435600052600e60205260406000209060018060a01b0316600052602052602060ff604060002054166040519015158152f35b346101df5760203660031901126101df576004358015158061205f575b611f6390612973565b336000526008602052611f7d60ff60406000205416612916565b6000198101818111610867576004611f9660ff9261288f565b50015460081c161561202a57600052600d602052604060002080546001820154611fc08183612966565b9060009180611ff8575b50600260809463ffffffff918291015416918160405195168552166020840152604083015215156060820152f35b9391506064830293838504606414841517156108675761201c6002916080966129b2565b600484015410929450611fca565b60405162461bcd60e51b815260206004820152600d60248201526c139bdd08199a5b985b1a5e9959609a1b6044820152606490fd5b50600b54811115611f5a565b346101df5760003660031901126101df576020600454604051908152f35b346101df5760203660031901126101df576120a2612483565b6120aa6128ea565b6001600160a01b0390811660008181526008602052604090205460ff16156121ef57816000541681146121b4576000818152600860205260408120805460ff19169055905b600a91825492838210156121b257849383612109846124af565b979054600398891b1c161461212c57505061212691929350612957565b906120ef565b90939250600019918282019182116108675761215b8461214e61217a946124af565b905490891b1c16916124af565b90919082549060031b9160018060a01b03809116831b921b1916179055565b8254801561219c57019261218d846124af565b8154921b9290921b1916905555005b634e487b7160e01b600052603160045260246000fd5b005b60405162461bcd60e51b815260206004820152601360248201527221b0b73737ba103932b6b7bb329037bbb732b960691b6044820152606490fd5b60405162461bcd60e51b815260206004820152601060248201526f2737ba103137b0b9321036b2b6b132b960811b6044820152606490fd5b346101df5760003660031901126101df57602060ff600654166040519015158152f35b346101df5760203660031901126101df576004356009548110156101df5760096000527f6e1540171b6c0c960b71a7020d9f60077f6af931a8bbf590da0223dacf75c7af01546040516001600160a01b039091168152602090f35b346101df5760203660031901126101df576122be612483565b6122c66128ea565b6001600160a01b03811660008181526008602052604090205490919060ff1661234c578160005260086020526040600020600160ff19825416179055600a5490600160401b821015610bde5761215b8260016123259401600a556124af565b7f956f4b06f20eda3aa4f6be9e72e8fc77beb3f95f4f2a95a796b2af742583d743600080a2005b60405162461bcd60e51b815260206004820152601460248201527320b63932b0b23c903137b0b9321036b2b6b132b960611b6044820152606490fd5b346101df5760203660031901126101df57600435801515806123c4575b6123ae90612973565b600052600c6020526040600020611e4a81612744565b50600b548111156123a5565b346101df5760003660031901126101df576020600b54604051908152f35b346101df5760003660031901126101df576020906005548152f35b919082519283825260005b848110612435575050826000602080949584010152601f8019910116010190565b602081830181015184830182015201612414565b91612472906124646124809593606086526060860190612409565b908482036020860152612409565b916040818403910152612409565b90565b600435906001600160a01b03821682036101df57565b602435906001600160a01b03821682036101df57565b600a548110156124e657600a6000527fc65a7bb8d6351c1cf70c95a316cc6a92839c986682d98bc35f958f4883f9d2a80190600090565b634e487b7160e01b600052603260045260246000fd5b90600182811c9216801561252c575b602083101461251657565b634e487b7160e01b600052602260045260246000fd5b91607f169161250b565b90601f801991011681019081106001600160401b03821117610bde57604052565b604051906000826003549161256b836124fc565b808352926001908181169081156125f35750600114612594575b5061259292500383612536565b565b6003600090815291507fc2575a0e9e593c00f959f8c92f12db2869c3395a3b0502d05e2516446f71f85b5b8483106125d85750612592935050810160200138612585565b81935090816020925483858a010152019101909185926125bf565b90506020925061259294915060ff191682840152151560051b82010138612585565b6040519060008260025491612629836124fc565b808352926001908181169081156125f3575060011461264f575061259292500383612536565b6002600090815291507f405787fa12a823e0f2b7631cc41b3ba8828b3321ca811111fa75cd3aa3bb5ace5b8483106126935750612592935050810160200138612585565b81935090816020925483858a0101520191019091859261267a565b604051906000826001918254926126c4846124fc565b808452938181169081156125f357506001146126e7575061259292500383612536565b600081815291507fb10e2d527612073b26eecdfd717e6a320cf44b4afac2b0732d9fcbe2b7fa0cf65b8483106127295750612592935050810160200138612585565b81935090816020925483858a01015201910190918592612710565b9060405191826000825492612758846124fc565b9081845260019485811690816000146127c55750600114612782575b505061259292500383612536565b9093915060005260209081600020936000915b8183106127ad57505061259293508201013880612774565b85548884018501529485019487945091830191612795565b91505061259294506020925060ff191682840152151560051b8201013880612774565b6006811015610851576000526010602052604060002090565b9263ffffffff612480959361282b9315158652166020850152608060408501526080840190612409565b916060818403910152612409565b81601f820112156101df578035906001600160401b038211610bde576040519261286d601f8401601f191660200185612536565b828452602083830101116101df57816000926020809301838601378301015290565b600b548110156124e657600590600b600052027f0175b7a638427703f0dbe7bb9bbf987a2551717b34e79f33b5b1008d1fa01db90190600090565b9060068210156108515752565b9190602083019260038210156108515752565b6000546001600160a01b031633036128fe57565b60405163118cdaa760e01b8152336004820152602490fd5b1561291d57565b60405162461bcd60e51b81526020600482015260126024820152714f6e6c7920626f617264206d656d6265727360701b6044820152606490fd5b60001981146108675760010190565b9190820180921161086757565b1561297a57565b60405162461bcd60e51b815260206004820152601060248201526f125b9d985b1a59081c1c9bdc1bdcd85b60821b6044820152606490fd5b81156129bc570490565b634e487b7160e01b600052601260045260246000fdfea2646970667358221220fdba52f266ff86d2d8c434d6038615cab78a796bf22ac05da8acbcf634be2ffc64736f6c63430008140033",
  "linkReferences": {},
  "deployedLinkReferences": {}
}