{
  "_format": "hh-sol-artifact-1",
  "contractName": "CorporateGovernanceUltimate",
  "sourceName": "contracts/CorporateGovernanceUltimate.sol",
  "abi": [
    {
      "inputs": [],
      "stateMutability": "nonpayable",
      "type": "constructor"
    },
    {
      "inputs": [
        {
          "internalType": "address",
          "name": "owner",
          "type": "address"
        }
      ],
      "name": "OwnableInvalidOwner",
      "type": "error"
    },
    {
      "inputs": [
        {
          "internalType": "address",
          "name": "account",
          "type": "address"
        }
      ],
      "name": "OwnableUnauthorizedAccount",
      "type": "error"
    },
    {
      "anonymous": false,
      "inputs": [
        {
          "indexed": false,
          "internalType": "string",
          "name": "name",
          "type": "string"
        }
      ],
      "name": "CompanyInit",
      "type": "event"
    },
    {
      "anonymous": false,
      "inputs": [
        {
          "indexed": true,
          "internalType": "address",
          "name": "previousOwner",
          "type": "address"
        },
        {
          "indexed": true,
          "internalType": "address",
          "name": "newOwner",
          "type": "address"
        }
      ],
      "name": "OwnershipTransferred",
      "type": "event"
    },
    {
      "anonymous": false,
      "inputs": [
        {
          "indexed": true,
          "internalType": "uint256",
          "name": "id",
          "type": "uint256"
        }
      ],
      "name": "ProposalAdd",
      "type": "event"
    },
    {
      "anonymous": false,
      "inputs": [
        {
          "indexed": true,
          "internalType": "address",
          "name": "addr",
          "type": "address"
        }
      ],
      "name": "ShareholderAdd",
      "type": "event"
    },
    {
      "anonymous": false,
      "inputs": [
        {
          "indexed": true,
          "internalType": "uint256",
          "name": "id",
          "type": "uint256"
        },
        {
          "indexed": true,
          "internalType": "address",
          "name": "voter",
          "type": "address"
        }
      ],
      "name": "VoteAdd",
      "type": "event"
    },
    {
      "inputs": [
        {
          "internalType": "address",
          "name": "_member",
          "type": "address"
        }
      ],
      "name": "addBoard",
      "outputs": [],
      "stateMutability": "nonpayable",
      "type": "function"
    },
    {
      "inputs": [
        {
          "internalType": "address",
          "name": "_addr",
          "type": "address"
        },
        {
          "internalType": "uint32",
          "name": "_shares",
          "type": "uint32"
        },
        {
          "internalType": "string",
          "name": "_name",
          "type": "string"
        }
      ],
      "name": "addShareholder",
      "outputs": [],
      "stateMutability": "nonpayable",
      "type": "function"
    },
    {
      "inputs": [
        {
          "internalType": "uint256",
          "name": "",
          "type": "uint256"
        }
      ],
      "name": "boardList",
      "outputs": [
        {
          "internalType": "address",
          "name": "",
          "type": "address"
        }
      ],
      "stateMutability": "view",
      "type": "function"
    },
    {
      "inputs": [
        {
          "internalType": "address",
          "name": "",
          "type": "address"
        }
      ],
      "name": "boardMembers",
      "outputs": [
        {
          "internalType": "bool",
          "name": "",
          "type": "bool"
        }
      ],
      "stateMutability": "view",
      "type": "function"
    },
    {
      "inputs": [
        {
          "internalType": "uint256",
          "name": "_id",
          "type": "uint256"
        },
        {
          "internalType": "uint8",
          "name": "_choice",
          "type": "uint8"
        }
      ],
      "name": "castConfidentialVote",
      "outputs": [],
      "stateMutability": "nonpayable",
      "type": "function"
    },
    {
      "inputs": [
        {
          "internalType": "uint256",
          "name": "_id",
          "type": "uint256"
        },
        {
          "internalType": "uint8",
          "name": "_choice",
          "type": "uint8"
        }
      ],
      "name": "castVotePlain",
      "outputs": [],
      "stateMutability": "nonpayable",
      "type": "function"
    },
    {
      "inputs": [],
      "name": "companyName",
      "outputs": [
        {
          "internalType": "string",
          "name": "",
          "type": "string"
        }
      ],
      "stateMutability": "view",
      "type": "function"
    },
    {
      "inputs": [
        {
          "internalType": "uint8",
          "name": "_type",
          "type": "uint8"
        },
        {
          "internalType": "string",
          "name": "_title",
          "type": "string"
        },
        {
          "internalType": "uint256",
          "name": "_days",
          "type": "uint256"
        }
      ],
      "name": "createProposal",
      "outputs": [
        {
          "internalType": "uint256",
          "name": "",
          "type": "uint256"
        }
      ],
      "stateMutability": "nonpayable",
      "type": "function"
    },
    {
      "inputs": [
        {
          "internalType": "uint256",
          "name": "_id",
          "type": "uint256"
        }
      ],
      "name": "finalize",
      "outputs": [],
      "stateMutability": "nonpayable",
      "type": "function"
    },
    {
      "inputs": [
        {
          "internalType": "uint256",
          "name": "_id",
          "type": "uint256"
        }
      ],
      "name": "finalizeProposal",
      "outputs": [],
      "stateMutability": "nonpayable",
      "type": "function"
    },
    {
      "inputs": [],
      "name": "getCompanyInfo",
      "outputs": [
        {
          "internalType": "string",
          "name": "",
          "type": "string"
        },
        {
          "internalType": "string",
          "name": "",
          "type": "string"
        },
        {
          "internalType": "string",
          "name": "",
          "type": "string"
        },
        {
          "internalType": "uint256",
          "name": "",
          "type": "uint256"
        },
        {
          "internalType": "uint256",
          "name": "",
          "type": "uint256"
        },
        {
          "internalType": "address[]",
          "name": "",
          "type": "address[]"
        }
      ],
      "stateMutability": "view",
      "type": "function"
    },
    {
      "inputs": [
        {
          "internalType": "uint256",
          "name": "_id",
          "type": "uint256"
        }
      ],
      "name": "getDecryptedResults",
      "outputs": [
        {
          "internalType": "uint32",
          "name": "",
          "type": "uint32"
        },
        {
          "internalType": "uint32",
          "name": "",
          "type": "uint32"
        },
        {
          "internalType": "uint32",
          "name": "",
          "type": "uint32"
        },
        {
          "internalType": "bool",
          "name": "",
          "type": "bool"
        }
      ],
      "stateMutability": "view",
      "type": "function"
    },
    {
      "inputs": [
        {
          "internalType": "uint256",
          "name": "_id",
          "type": "uint256"
        }
      ],
      "name": "getProposalBasic",
      "outputs": [
        {
          "internalType": "uint8",
          "name": "",
          "type": "uint8"
        },
        {
          "internalType": "string",
          "name": "",
          "type": "string"
        },
        {
          "internalType": "address",
          "name": "",
          "type": "address"
        }
      ],
      "stateMutability": "view",
      "type": "function"
    },
    {
      "inputs": [
        {
          "internalType": "uint256",
          "name": "_id",
          "type": "uint256"
        }
      ],
      "name": "getProposalInfo",
      "outputs": [
        {
          "internalType": "uint256",
          "name": "",
          "type": "uint256"
        },
        {
          "internalType": "uint8",
          "name": "",
          "type": "uint8"
        },
        {
          "internalType": "string",
          "name": "",
          "type": "string"
        },
        {
          "internalType": "string",
          "name": "",
          "type": "string"
        },
        {
          "internalType": "address",
          "name": "",
          "type": "address"
        },
        {
          "internalType": "uint256",
          "name": "",
          "type": "uint256"
        },
        {
          "internalType": "uint256",
          "name": "",
          "type": "uint256"
        },
        {
          "internalType": "bool",
          "name": "",
          "type": "bool"
        },
        {
          "internalType": "bool",
          "name": "",
          "type": "bool"
        },
        {
          "internalType": "uint256",
          "name": "",
          "type": "uint256"
        },
        {
          "internalType": "uint256",
          "name": "",
          "type": "uint256"
        }
      ],
      "stateMutability": "view",
      "type": "function"
    },
    {
      "inputs": [
        {
          "internalType": "uint256",
          "name": "_id",
          "type": "uint256"
        }
      ],
      "name": "getProposalStatus",
      "outputs": [
        {
          "internalType": "uint256",
          "name": "",
          "type": "uint256"
        },
        {
          "internalType": "bool",
          "name": "",
          "type": "bool"
        },
        {
          "internalType": "uint32",
          "name": "",
          "type": "uint32"
        }
      ],
      "stateMutability": "view",
      "type": "function"
    },
    {
      "inputs": [
        {
          "internalType": "uint256",
          "name": "_id",
          "type": "uint256"
        }
      ],
      "name": "getResults",
      "outputs": [
        {
          "internalType": "uint32",
          "name": "",
          "type": "uint32"
        },
        {
          "internalType": "uint32",
          "name": "",
          "type": "uint32"
        },
        {
          "internalType": "bool",
          "name": "",
          "type": "bool"
        }
      ],
      "stateMutability": "view",
      "type": "function"
    },
    {
      "inputs": [
        {
          "internalType": "address",
          "name": "_addr",
          "type": "address"
        }
      ],
      "name": "getShareholderInfo",
      "outputs": [
        {
          "internalType": "bool",
          "name": "",
          "type": "bool"
        },
        {
          "internalType": "uint32",
          "name": "",
          "type": "uint32"
        },
        {
          "internalType": "string",
          "name": "",
          "type": "string"
        },
        {
          "internalType": "string",
          "name": "",
          "type": "string"
        },
        {
          "internalType": "bool",
          "name": "",
          "type": "bool"
        }
      ],
      "stateMutability": "view",
      "type": "function"
    },
    {
      "inputs": [],
      "name": "getTotalProposals",
      "outputs": [
        {
          "internalType": "uint256",
          "name": "",
          "type": "uint256"
        }
      ],
      "stateMutability": "view",
      "type": "function"
    },
    {
      "inputs": [
        {
          "internalType": "uint256",
          "name": "_id",
          "type": "uint256"
        },
        {
          "internalType": "address",
          "name": "_voter",
          "type": "address"
        }
      ],
      "name": "hasVotedOn",
      "outputs": [
        {
          "internalType": "bool",
          "name": "",
          "type": "bool"
        }
      ],
      "stateMutability": "view",
      "type": "function"
    },
    {
      "inputs": [
        {
          "internalType": "string",
          "name": "_name",
          "type": "string"
        },
        {
          "internalType": "uint256",
          "name": "_shares",
          "type": "uint256"
        }
      ],
      "name": "initCompany",
      "outputs": [],
      "stateMutability": "nonpayable",
      "type": "function"
    },
    {
      "inputs": [],
      "name": "initialized",
      "outputs": [
        {
          "internalType": "bool",
          "name": "",
          "type": "bool"
        }
      ],
      "stateMutability": "view",
      "type": "function"
    },
    {
      "inputs": [
        {
          "internalType": "address",
          "name": "_member",
          "type": "address"
        }
      ],
      "name": "isBoardMember",
      "outputs": [
        {
          "internalType": "bool",
          "name": "",
          "type": "bool"
        }
      ],
      "stateMutability": "view",
      "type": "function"
    },
    {
      "inputs": [],
      "name": "owner",
      "outputs": [
        {
          "internalType": "address",
          "name": "",
          "type": "address"
        }
      ],
      "stateMutability": "view",
      "type": "function"
    },
    {
      "inputs": [
        {
          "internalType": "uint256",
          "name": "",
          "type": "uint256"
        }
      ],
      "name": "proposals",
      "outputs": [
        {
          "internalType": "uint8",
          "name": "pType",
          "type": "uint8"
        },
        {
          "internalType": "string",
          "name": "title",
          "type": "string"
        },
        {
          "internalType": "address",
          "name": "proposer",
          "type": "address"
        },
        {
          "internalType": "uint256",
          "name": "deadline",
          "type": "uint256"
        },
        {
          "internalType": "bool",
          "name": "active",
          "type": "bool"
        },
        {
          "internalType": "uint32",
          "name": "forVotes",
          "type": "uint32"
        },
        {
          "internalType": "uint32",
          "name": "againstVotes",
          "type": "uint32"
        },
        {
          "internalType": "uint32",
          "name": "threshold",
          "type": "uint32"
        }
      ],
      "stateMutability": "view",
      "type": "function"
    },
    {
      "inputs": [
        {
          "internalType": "address",
          "name": "_addr",
          "type": "address"
        },
        {
          "internalType": "uint32",
          "name": "_shares",
          "type": "uint32"
        },
        {
          "internalType": "string",
          "name": "",
          "type": "string"
        },
        {
          "internalType": "string",
          "name": "_name",
          "type": "string"
        }
      ],
      "name": "registerShareholderPlain",
      "outputs": [],
      "stateMutability": "nonpayable",
      "type": "function"
    },
    {
      "inputs": [],
      "name": "renounceOwnership",
      "outputs": [],
      "stateMutability": "nonpayable",
      "type": "function"
    },
    {
      "inputs": [
        {
          "internalType": "address",
          "name": "",
          "type": "address"
        }
      ],
      "name": "shareholders",
      "outputs": [
        {
          "internalType": "bool",
          "name": "active",
          "type": "bool"
        },
        {
          "internalType": "uint32",
          "name": "shares",
          "type": "uint32"
        },
        {
          "internalType": "string",
          "name": "name",
          "type": "string"
        }
      ],
      "stateMutability": "view",
      "type": "function"
    },
    {
      "inputs": [],
      "name": "totalShares",
      "outputs": [
        {
          "internalType": "uint256",
          "name": "",
          "type": "uint256"
        }
      ],
      "stateMutability": "view",
      "type": "function"
    },
    {
      "inputs": [
        {
          "internalType": "address",
          "name": "newOwner",
          "type": "address"
        }
      ],
      "name": "transferOwnership",
      "outputs": [],
      "stateMutability": "nonpayable",
      "type": "function"
    },
    {
      "inputs": [
        {
          "internalType": "uint256",
          "name": "_id",
          "type": "uint256"
        },
        {
          "internalType": "uint8",
          "name": "_choice",
          "type": "uint8"
        }
      ],
      "name": "vote",
      "outputs": [],
      "stateMutability": "nonpayable",
      "type": "function"
    },
    {
      "inputs": [
        {
          "internalType": "uint256",
          "name": "_id",
          "type": "uint256"
        },
        {
          "internalType": "uint8",
          "name": "_choice",
          "type": "uint8"
        }
      ],
      "name": "voteConfidential",
      "outputs": [],
      "stateMutability": "nonpayable",
      "type": "function"
    },
    {
      "inputs": [
        {
          "internalType": "uint256",
          "name": "",
          "type": "uint256"
        },
        {
          "internalType": "address",
          "name": "",
          "type": "address"
        }
      ],
      "name": "voted",
      "outputs": [
        {
          "internalType": "bool",
          "name": "",
          "type": "bool"
        }
      ],
      "stateMutability": "view",
      "type": "function"
    }
  ],
  "bytecode": "0x6080806040523461010d5733156100f757600080546001600160a01b03198082163390811784556040519391926001600160a01b03167f8be0079c531659141344cd1fd0a4f28419497f9722a3daafe3b4186f6b6457e08380a3338152600560205260408120805460ff1916600117905560085490680100000000000000008210156100e35760018201806008558210156100cf57600890527ff3f7a9fe364faab93b216da50a3214154f22a0a2b415b23a84c8169e8b636ee301805490911633179055611d6490816101138239f35b634e487b7160e01b81526032600452602490fd5b634e487b7160e01b81526041600452602490fd5b631e4fbdf760e01b815260006004820152602490fd5b600080fdfe6080604052600436101561001257600080fd5b60003560e01c8063013cf08b146114a557806305261aea14610df057806310a1c5731461142a578063158ef93e146114075780631a5007dd146113e95780633a98ef39146113cb578063401853b71461135657806341d14c221461127357806342f41d2a146105d557806344906b2314610eb85780635277b4ae146107265780635652077c14610df05780635c2930ad14610d835780635e6056bb14610ce9578063691e739814610c89578063715018a614610c3057806371942a01146105da57806372cec17b14610bee57806381a60c0d14610ac85780638da5cb5b14610a9f578063943e8216146108675780639f83c4b2146107db578063a23bf2d714610773578063a3317d91146105d5578063b97d3e4014610726578063bc903cb814610619578063bff13785146105da578063d098db5a146105d5578063d3cb331c146103b4578063d7710d6214610243578063f2fde38b146101b55763f5ec2eed1461017c57600080fd5b346101b05760003660031901126101b0576101ac61019861161c565b60405191829160208352602083019061177b565b0390f35b600080fd5b346101b05760203660031901126101b0576101ce6117bb565b6101d6611a8d565b6001600160a01b0390811690811561022a57600054826bffffffffffffffffffffffff60a01b821617600055167f8be0079c531659141344cd1fd0a4f28419497f9722a3daafe3b4186f6b6457e0600080a3005b604051631e4fbdf760e01b815260006004820152602490fd5b346101b05760003660031901126101b05760025461025f61161c565b90604051906040820182811067ffffffffffffffff82111761039e57828491604052600481526020630434f52560e41b81830152604051916102a0836115de565b60008352604051928391836008549586815201809560086000527ff3f7a9fe364faab93b216da50a3214154f22a0a2b415b23a84c8169e8b636ee39060005b81811061038157505050849261032485936103036103179b976103329503866115fa565b6040519a8b9a60c08c5260c08c019061177b565b908a8203878c015261177b565b9088820360408a015261177b565b9260608701526000608087015285830360a0870152519182815201929160005b82811061036157505050500390f35b83516001600160a01b031685528695509381019392810192600101610352565b82546001600160a01b0316845292870192600192830192016102df565b634e487b7160e01b600052604160045260246000fd5b346101b05760403660031901126101b05767ffffffffffffffff6004358181116101b0576103e69036906004016119ec565b906103ef611a8d565b60ff600354166105aa57815190811161039e5760019061040f82546115a4565b601f8111610543575b506020601f821160011461049f5791817f47e87ddfd6ce04dc99962410b21a2eb6e4a8a8e9f15ece14689b80897e714224949261048f94600091610494575b50600019600383901b1c191690821b1781555b60243560025560ff19600354161760035560405191829160208352602083019061177b565b0390a1005b905083015186610457565b601f19821690836000527fb10e2d527612073b26eecdfd717e6a320cf44b4afac2b0732d9fcbe2b7fa0cf69160005b81811061052d575092849261048f9592827f47e87ddfd6ce04dc99962410b21a2eb6e4a8a8e9f15ece14689b80897e714224989610610514575b5050811b01815561046a565b85015160001960f88460031b161c191690558680610508565b86830151845592850192602092830192016104ce565b826000527fb10e2d527612073b26eecdfd717e6a320cf44b4afac2b0732d9fcbe2b7fa0cf6601f830160051c810191602084106105a0575b601f0160051c019083905b828110610594575050610418565b60008155018390610586565b909150819061057b565b606460405162461bcd60e51b8152602060048201526004602482015263446f6e6560e01b6044820152fd5b6117f7565b346101b05760203660031901126101b0576001600160a01b036105fb6117bb565b166000526005602052602060ff604060002054166040519015158152f35b346101b05760203660031901126101b0576004358015158061071a575b61063f90611cdd565b60001981018181116107045761065490611553565b509060ff8254169163ffffffff60018060a01b03600283015416916003810154906004810154916106cf61068f600160ff86161594016116d7565b6106c16040519161069f836115de565b600083526040519a8b9a8b5260208b01526101608060408c01528a019061177b565b9088820360608a015261177b565b946080870152600060a087015260c0860152801560e0860152610100850152600061012085015260481c166101408301520390f35b634e487b7160e01b600052601160045260246000fd5b50600754811115610636565b346101b05760403660031901126101b05761073f6117d1565b600435600052600660205260406000209060018060a01b0316600052602052602060ff604060002054166040519015158152f35b346101b05760603660031901126101b05761078c6117bb565b610794611a43565b906044359167ffffffffffffffff83116101b0576107b96107d99336906004016119ec565b913360005260056020526107d460ff60406000205416611ab9565b611af2565b005b346101b05760203660031901126101b0576004358015158061085b575b61080190611cdd565b60001981019081116107045761081690611553565b5060ff8154166108346001808060a01b0360028501541693016116d7565b91610851604051938493845260606020850152606084019061177b565b9060408301520390f35b506007548111156107f8565b346101b05760403660031901126101b0576004356108836117e7565b3360005260206004815260ff6040600020541615610a685782151580610a5c575b6108ad90611cdd565b8260005260068152604060002033600052815260ff60406000205416610a28576000198301838111610704576108e290611553565b5090600482019160ff8354169081610a19575b50156109e757600490846000526006815260406000203360005281526040600020600160ff198254161790555263ffffffff60ff8160406000205460081c1693166001811460001461099957506109709261095591835460081c16611d16565b64ffffffff0082549160081b169064ffffffff001916179055565b33907f8db73a250e94e9aee36ccd128ab9f11b3ba71ce8890bc991e05d09c157169b25600080a3005b6002146109a9575b505050610970565b6109df926109bc91835460281c16611d16565b68ffffffff000000000082549160281b169068ffffffff00000000001916179055565b8180806109a1565b6064906040519062461bcd60e51b82526004820152600b60248201526a43616e6e6f7420766f746560a81b6044820152fd5b600391500154421115856108f5565b6064906040519062461bcd60e51b82526004820152600d60248201526c105b1c9958591e481d9bdd1959609a1b6044820152fd5b506007548311156108a4565b6064906040519062461bcd60e51b82526004820152601060248201526f5368617265686f6c646572206f6e6c7960801b6044820152fd5b346101b05760003660031901126101b0576000546040516001600160a01b039091168152602090f35b346101b05760203660031901126101b057600435336000526005602052610af660ff60406000205416611ab9565b80151580610be2575b610b0890611cdd565b600019810190811161070457610b1f600491611553565b50015460ff8116610bae5763ffffffff808260081c1690808360281c1681610b478285611d16565b1680159081159384610b6d575b6060868686604051928352602083015215156040820152f35b9091929350606485029281841693840361070457610b985760609560481c1691041190848080610b54565b634e487b7160e01b600052601260045260246000fd5b60405162461bcd60e51b815260206004820152600c60248201526b5374696c6c2061637469766560a01b6044820152606490fd5b50600754811115610aff565b346101b05760203660031901126101b0576004356008548110156101b057610c17602091611a56565b905460405160039290921b1c6001600160a01b03168152f35b346101b05760003660031901126101b057610c49611a8d565b600080546001600160a01b0319811682556001600160a01b03167f8be0079c531659141344cd1fd0a4f28419497f9722a3daafe3b4186f6b6457e08280a3005b346101b05760803660031901126101b057610ca26117bb565b610caa611a43565b67ffffffffffffffff91906044358381116101b057610ccd9036906004016119ec565b506064359283116101b0576107b96107d99336906004016119ec565b346101b05760203660031901126101b0576001600160a01b03610d0a6117bb565b166000526004602052610d6b60406000208054610d79610d3c600160405194610d32866115de565b60008652016116d7565b60405194859463ffffffff60ff861615159586885260081c16602087015260a0604087015260a086019061177b565b90848203606086015261177b565b9060808301520390f35b346101b05760203660031901126101b0576001600160a01b03610da46117bb565b16600052600460205263ffffffff60406000206101ac610dc86001835493016116d7565b604051938360ff8695161515855260081c16602084015260606040840152606083019061177b565b346101b05760203660031901126101b057600435336000526005602052610e1e60ff60406000205416611ab9565b80151580610eac575b610e3090611cdd565b600019810190811161070457610e4590611553565b50600481019081549060ff82169081610e9e575b5015610e675760ff19169055005b60405162461bcd60e51b815260206004820152600f60248201526e43616e6e6f742066696e616c697a6560881b6044820152606490fd5b600391500154421183610e59565b50600754811115610e27565b346101b05760603660031901126101b05760043560ff81168091036101b05760249067ffffffffffffffff82358181116101b057610efa9036906004016119ec565b60443591336000526005602052610f1860ff60406000205416611ab9565b6007549360018501851161125e576002810361124657604b935b62015180908181029181830414901517156112315742019384421161123157604051946101008601928684108585111761121c5760ff93604052865260208601948552336040870152606086015260016080860152600060a0860152600060c08601521660e0840152600160401b8410156112075760018401600755610fb784611553565b9290926111f25760ff84511660ff19845416178355519485519182116111de5750610fe560018301546115a4565b94601f8611611197575b602095508590601f831160011461112457918060e09492600494600092611119575b50508160011b916000199060031b1c19161760018201555b6002810160018060a01b036040860151166bffffffffffffffffffffffff60a01b82541617905560608401516003820155019161107860808201511515849060ff801983541691151516179055565b60a0810151835464ffffffff00191660089190911b64ffffffff00161783556110c763ffffffff60c0830151855468ffffffff00000000001916911660281b68ffffffff000000000016178455565b015163ffffffff60481b82549160481b169063ffffffff60481b19161790556001604051918181017f8c021bdf251e11af52f22f78c42b0aee9cefd4c268bf4805004fa75792448248600080a2018152f35b015190508880611011565b9060018401600052866000209160005b601f198516811061118057509260e0949260019260049583601f19811610611167575b505050811b016001820155611029565b015160001960f88460031b161c19169055888080611157565b919288600181928685015181550194019201611134565b600183016000526020600020601f830160051c8101602084106111d7575b601f880160051c820181106111cb575050610fef565b600081556001016111b5565b50806111b5565b634e487b7160e01b60009081526041600452fd5b85634e487b7160e01b60005260006004526000fd5b84634e487b7160e01b60005260416004526000fd5b88634e487b7160e01b60005260416004526000fd5b86634e487b7160e01b60005260116004526000fd5b6001810361125757603c5b93610f32565b6032611251565b85634e487b7160e01b60005260116004526000fd5b346101b05760203660031901126101b0576004353360005260056020526112a160ff60406000205416611ab9565b8015158061134a575b6112b390611cdd565b6000198101908111610704576112ca600491611553565b50015460ff8116610bae5763ffffffff808260081c1690808360281c16816112f28285611d16565b168015908115938461131f575b608086868660405192835260208301526000604083015215156060820152f35b9091929350606485029281841693840361070457610b985760809560481c16910411908480806112ff565b506007548111156112aa565b346101b05760203660031901126101b057600435801515806113bf575b61137c90611cdd565b600019810190811161070457611393606091611553565b5063ffffffff6004600383015492015460405192835260ff81161515602084015260481c166040820152f35b50600754811115611373565b346101b05760003660031901126101b0576020600254604051908152f35b346101b05760003660031901126101b0576020600754604051908152f35b346101b05760003660031901126101b057602060ff600354166040519015158152f35b346101b05760203660031901126101b0576114436117bb565b61144b611a8d565b6001600160a01b039081166000818152600560205260409020805460ff19166001179055600854600160401b81101561039e5780600161148e9201600855611a56565b909283549160031b92831b921b1916179055600080f35b346101b05760203660031901126101b0576004356007548110156101b0576114cc90611553565b5060ff8154166114de600183016116d7565b9160018060a01b03600282015416906004600382015491015490611514604051958695865261010080602088015286019061177b565b926040850152606084015260ff81161515608084015263ffffffff90818160081c1660a0850152818160281c1660c085015260481c1660e08301520390f35b60075481101561158e576005906007600052027fa66cc928b5edb82af9bd49922954155ab7b0942694bea4ce44661d9a8736c6880190600090565b634e487b7160e01b600052603260045260246000fd5b90600182811c921680156115d4575b60208310146115be57565b634e487b7160e01b600052602260045260246000fd5b91607f16916115b3565b6020810190811067ffffffffffffffff82111761039e57604052565b90601f8019910116810190811067ffffffffffffffff82111761039e57604052565b60405190600082600191825492611632846115a4565b808452938181169081156116b55750600114611658575b50611656925003836115fa565b565b600081815291507fb10e2d527612073b26eecdfd717e6a320cf44b4afac2b0732d9fcbe2b7fa0cf65b84831061169a5750611656935050810160200138611649565b81935090816020925483858a01015201910190918592611681565b90506020925061165694915060ff191682840152151560051b82010138611649565b90604051918260008254926116eb846115a4565b9081845260019485811690816000146117585750600114611715575b5050611656925003836115fa565b9093915060005260209081600020936000915b81831061174057505061165693508201013880611707565b85548884018501529485019487945091830191611728565b91505061165694506020925060ff191682840152151560051b8201013880611707565b919082519283825260005b8481106117a7575050826000602080949584010152601f8019910116010190565b602081830181015184830182015201611786565b600435906001600160a01b03821682036101b057565b602435906001600160a01b03821682036101b057565b6024359060ff821682036101b057565b346101b0576040806003193601126101b05760048035906118166117e7565b9060009333855260209180835260ff8287205416156119b857841515806119ac575b61184190611cdd565b84865260068352818620338752835260ff828720541661197b5760001985018581116119685761187090611553565b50928184019360ff8554169081611959575b501561192b57858752600681528287203388528152828720600160ff198254161790555260ff63ffffffff809287205460081c1693166001811460001461190057506118d79261095591835460081c16611d16565b33907f8db73a250e94e9aee36ccd128ab9f11b3ba71ce8890bc991e05d09c157169b258380a380f35b600214611910575b5050506118d7565b611923926109bc91835460281c16611d16565b388080611908565b606492519162461bcd60e51b8352820152600b60248201526a43616e6e6f7420766f746560a81b6044820152fd5b60039150015442111538611882565b634e487b7160e01b875260118252602487fd5b82606492519162461bcd60e51b8352820152600d60248201526c105b1c9958591e481d9bdd1959609a1b6044820152fd5b50600754851115611838565b82606492519162461bcd60e51b8352820152601060248201526f5368617265686f6c646572206f6e6c7960801b6044820152fd5b81601f820112156101b05780359067ffffffffffffffff821161039e5760405192611a21601f8401601f1916602001856115fa565b828452602083830101116101b057816000926020809301838601378301015290565b6024359063ffffffff821682036101b057565b60085481101561158e5760086000527ff3f7a9fe364faab93b216da50a3214154f22a0a2b415b23a84c8169e8b636ee30190600090565b6000546001600160a01b03163303611aa157565b60405163118cdaa760e01b8152336004820152602490fd5b15611ac057565b60405162461bcd60e51b815260206004820152600a602482015269426f617264206f6e6c7960b01b6044820152606490fd5b60405167ffffffffffffffff949390606081018681118282101761039e5760405260019081815281602091611b818382019663ffffffff80991688526040830196875260018060a01b03169760009789895260048652611b6560408a2094511515859060ff801983541691151516179055565b51835464ffffffff001916911660081b64ffffffff0016178255565b0192518051978811611cc957611b9784546115a4565b601f8111611c83575b5081601f8911600114611bff575096809281927f284f8686dfc9d4dee2b81fc540bc31170ac37171440c4b7fc29690ed5349fb0a9798998794611bf4575b50501b916000199060031b1c19161790555b80a2565b015192503880611bde565b909791601f198316988587528287209287905b8b8210611c6c575050837f284f8686dfc9d4dee2b81fc540bc31170ac37171440c4b7fc29690ed5349fb0a98999a10611c53575b505050811b019055611bf0565b015160001960f88460031b161c19169055388080611c46565b808785968294968601518155019501930190611c12565b848652828620601f8a0160051c810191848b10611cbf575b601f0160051c019084905b828110611cb4575050611ba0565b878155018490611ca6565b9091508190611c9b565b634e487b7160e01b85526041600452602485fd5b15611ce457565b60405162461bcd60e51b815260206004820152600a602482015269125b9d985b1a5908125160b21b6044820152606490fd5b91909163ffffffff808094169116019182116107045756fea2646970667358221220daea7c1a247f63ed5a71703e9dc789d43c5d777e56fe83885cf1059a1532eaf964736f6c63430008140033",
  "linkReferences": {},
  "deployedLinkReferences": {}
}