{
  "_format": "hh-sol-artifact-1",
  "contractName": "CorporateGovernanceMinimal",
  "sourceName": "contracts/CorporateGovernanceMinimal.sol",
  "abi": [
    {
      "inputs": [],
      "stateMutability": "nonpayable",
      "type": "constructor"
    },
    {
      "inputs": [
        {
          "internalType": "address",
          "name": "owner",
          "type": "address"
        }
      ],
      "name": "OwnableInvalidOwner",
      "type": "error"
    },
    {
      "inputs": [
        {
          "internalType": "address",
          "name": "account",
          "type": "address"
        }
      ],
      "name": "OwnableUnauthorizedAccount",
      "type": "error"
    },
    {
      "anonymous": false,
      "inputs": [
        {
          "indexed": false,
          "internalType": "string",
          "name": "name",
          "type": "string"
        },
        {
          "indexed": false,
          "internalType": "string",
          "name": "symbol",
          "type": "string"
        }
      ],
      "name": "CompanyInitialized",
      "type": "event"
    },
    {
      "anonymous": false,
      "inputs": [
        {
          "indexed": true,
          "internalType": "address",
          "name": "previousOwner",
          "type": "address"
        },
        {
          "indexed": true,
          "internalType": "address",
          "name": "newOwner",
          "type": "address"
        }
      ],
      "name": "OwnershipTransferred",
      "type": "event"
    },
    {
      "anonymous": false,
      "inputs": [
        {
          "indexed": true,
          "internalType": "uint256",
          "name": "proposalId",
          "type": "uint256"
        },
        {
          "indexed": true,
          "internalType": "address",
          "name": "proposer",
          "type": "address"
        }
      ],
      "name": "ProposalCreated",
      "type": "event"
    },
    {
      "anonymous": false,
      "inputs": [
        {
          "indexed": true,
          "internalType": "uint256",
          "name": "proposalId",
          "type": "uint256"
        },
        {
          "indexed": false,
          "internalType": "bool",
          "name": "passed",
          "type": "bool"
        }
      ],
      "name": "ProposalFinalized",
      "type": "event"
    },
    {
      "anonymous": false,
      "inputs": [
        {
          "indexed": true,
          "internalType": "address",
          "name": "shareholder",
          "type": "address"
        },
        {
          "indexed": false,
          "internalType": "uint32",
          "name": "shares",
          "type": "uint32"
        }
      ],
      "name": "ShareholderRegistered",
      "type": "event"
    },
    {
      "anonymous": false,
      "inputs": [
        {
          "indexed": true,
          "internalType": "uint256",
          "name": "proposalId",
          "type": "uint256"
        },
        {
          "indexed": true,
          "internalType": "address",
          "name": "voter",
          "type": "address"
        },
        {
          "indexed": false,
          "internalType": "enum CorporateGovernanceMinimal.VoteChoice",
          "name": "choice",
          "type": "uint8"
        }
      ],
      "name": "VoteCast",
      "type": "event"
    },
    {
      "inputs": [
        {
          "internalType": "address",
          "name": "_member",
          "type": "address"
        }
      ],
      "name": "addBoardMember",
      "outputs": [],
      "stateMutability": "nonpayable",
      "type": "function"
    },
    {
      "inputs": [
        {
          "internalType": "address",
          "name": "",
          "type": "address"
        }
      ],
      "name": "boardMembers",
      "outputs": [
        {
          "internalType": "bool",
          "name": "",
          "type": "bool"
        }
      ],
      "stateMutability": "view",
      "type": "function"
    },
    {
      "inputs": [
        {
          "internalType": "uint256",
          "name": "",
          "type": "uint256"
        }
      ],
      "name": "boardMembersList",
      "outputs": [
        {
          "internalType": "address",
          "name": "",
          "type": "address"
        }
      ],
      "stateMutability": "view",
      "type": "function"
    },
    {
      "inputs": [
        {
          "internalType": "uint256",
          "name": "_proposalId",
          "type": "uint256"
        },
        {
          "internalType": "uint8",
          "name": "_choice",
          "type": "uint8"
        }
      ],
      "name": "castVotePlain",
      "outputs": [],
      "stateMutability": "nonpayable",
      "type": "function"
    },
    {
      "inputs": [],
      "name": "companyName",
      "outputs": [
        {
          "internalType": "string",
          "name": "",
          "type": "string"
        }
      ],
      "stateMutability": "view",
      "type": "function"
    },
    {
      "inputs": [
        {
          "internalType": "uint8",
          "name": "_type",
          "type": "uint8"
        },
        {
          "internalType": "string",
          "name": "_title",
          "type": "string"
        },
        {
          "internalType": "string",
          "name": "_description",
          "type": "string"
        },
        {
          "internalType": "string",
          "name": "_attachmentHash",
          "type": "string"
        },
        {
          "internalType": "uint256",
          "name": "_durationDays",
          "type": "uint256"
        }
      ],
      "name": "createProposal",
      "outputs": [
        {
          "internalType": "uint256",
          "name": "",
          "type": "uint256"
        }
      ],
      "stateMutability": "nonpayable",
      "type": "function"
    },
    {
      "inputs": [
        {
          "internalType": "uint256",
          "name": "_proposalId",
          "type": "uint256"
        }
      ],
      "name": "finalizeProposal",
      "outputs": [],
      "stateMutability": "nonpayable",
      "type": "function"
    },
    {
      "inputs": [],
      "name": "getCompanyInfo",
      "outputs": [
        {
          "internalType": "string",
          "name": "",
          "type": "string"
        },
        {
          "internalType": "string",
          "name": "",
          "type": "string"
        },
        {
          "internalType": "string",
          "name": "",
          "type": "string"
        },
        {
          "internalType": "uint256",
          "name": "",
          "type": "uint256"
        },
        {
          "internalType": "uint256",
          "name": "",
          "type": "uint256"
        },
        {
          "internalType": "address[]",
          "name": "",
          "type": "address[]"
        }
      ],
      "stateMutability": "view",
      "type": "function"
    },
    {
      "inputs": [
        {
          "internalType": "uint256",
          "name": "_proposalId",
          "type": "uint256"
        }
      ],
      "name": "getDecryptedResults",
      "outputs": [
        {
          "internalType": "uint32",
          "name": "",
          "type": "uint32"
        },
        {
          "internalType": "uint32",
          "name": "",
          "type": "uint32"
        },
        {
          "internalType": "uint32",
          "name": "",
          "type": "uint32"
        },
        {
          "internalType": "bool",
          "name": "",
          "type": "bool"
        }
      ],
      "stateMutability": "view",
      "type": "function"
    },
    {
      "inputs": [
        {
          "internalType": "uint256",
          "name": "_proposalId",
          "type": "uint256"
        }
      ],
      "name": "getProposalInfo",
      "outputs": [
        {
          "internalType": "uint256",
          "name": "",
          "type": "uint256"
        },
        {
          "internalType": "uint8",
          "name": "",
          "type": "uint8"
        },
        {
          "internalType": "string",
          "name": "",
          "type": "string"
        },
        {
          "internalType": "string",
          "name": "",
          "type": "string"
        },
        {
          "internalType": "address",
          "name": "",
          "type": "address"
        },
        {
          "internalType": "uint256",
          "name": "",
          "type": "uint256"
        },
        {
          "internalType": "uint256",
          "name": "",
          "type": "uint256"
        },
        {
          "internalType": "bool",
          "name": "",
          "type": "bool"
        },
        {
          "internalType": "bool",
          "name": "",
          "type": "bool"
        },
        {
          "internalType": "uint256",
          "name": "",
          "type": "uint256"
        },
        {
          "internalType": "uint256",
          "name": "",
          "type": "uint256"
        }
      ],
      "stateMutability": "view",
      "type": "function"
    },
    {
      "inputs": [
        {
          "internalType": "address",
          "name": "_shareholder",
          "type": "address"
        }
      ],
      "name": "getShareholderInfo",
      "outputs": [
        {
          "internalType": "bool",
          "name": "",
          "type": "bool"
        },
        {
          "internalType": "uint32",
          "name": "",
          "type": "uint32"
        },
        {
          "internalType": "string",
          "name": "",
          "type": "string"
        },
        {
          "internalType": "string",
          "name": "",
          "type": "string"
        },
        {
          "internalType": "bool",
          "name": "",
          "type": "bool"
        }
      ],
      "stateMutability": "view",
      "type": "function"
    },
    {
      "inputs": [],
      "name": "getTotalProposals",
      "outputs": [
        {
          "internalType": "uint256",
          "name": "",
          "type": "uint256"
        }
      ],
      "stateMutability": "view",
      "type": "function"
    },
    {
      "inputs": [
        {
          "internalType": "uint256",
          "name": "",
          "type": "uint256"
        },
        {
          "internalType": "address",
          "name": "",
          "type": "address"
        }
      ],
      "name": "hasVoted",
      "outputs": [
        {
          "internalType": "bool",
          "name": "",
          "type": "bool"
        }
      ],
      "stateMutability": "view",
      "type": "function"
    },
    {
      "inputs": [
        {
          "internalType": "uint256",
          "name": "_proposalId",
          "type": "uint256"
        },
        {
          "internalType": "address",
          "name": "_voter",
          "type": "address"
        }
      ],
      "name": "hasVotedOn",
      "outputs": [
        {
          "internalType": "bool",
          "name": "",
          "type": "bool"
        }
      ],
      "stateMutability": "view",
      "type": "function"
    },
    {
      "inputs": [
        {
          "internalType": "string",
          "name": "_name",
          "type": "string"
        },
        {
          "internalType": "string",
          "name": "_symbol",
          "type": "string"
        },
        {
          "internalType": "string",
          "name": "_regNumber",
          "type": "string"
        },
        {
          "internalType": "uint256",
          "name": "_totalShares",
          "type": "uint256"
        }
      ],
      "name": "initializeCompany",
      "outputs": [],
      "stateMutability": "nonpayable",
      "type": "function"
    },
    {
      "inputs": [
        {
          "internalType": "address",
          "name": "_member",
          "type": "address"
        }
      ],
      "name": "isBoardMember",
      "outputs": [
        {
          "internalType": "bool",
          "name": "",
          "type": "bool"
        }
      ],
      "stateMutability": "view",
      "type": "function"
    },
    {
      "inputs": [],
      "name": "isInitialized",
      "outputs": [
        {
          "internalType": "bool",
          "name": "",
          "type": "bool"
        }
      ],
      "stateMutability": "view",
      "type": "function"
    },
    {
      "inputs": [],
      "name": "owner",
      "outputs": [
        {
          "internalType": "address",
          "name": "",
          "type": "address"
        }
      ],
      "stateMutability": "view",
      "type": "function"
    },
    {
      "inputs": [
        {
          "internalType": "uint256",
          "name": "",
          "type": "uint256"
        }
      ],
      "name": "proposals",
      "outputs": [
        {
          "internalType": "uint256",
          "name": "id",
          "type": "uint256"
        },
        {
          "internalType": "enum CorporateGovernanceMinimal.ProposalType",
          "name": "proposalType",
          "type": "uint8"
        },
        {
          "internalType": "string",
          "name": "title",
          "type": "string"
        },
        {
          "internalType": "address",
          "name": "proposer",
          "type": "address"
        },
        {
          "internalType": "uint256",
          "name": "deadline",
          "type": "uint256"
        },
        {
          "internalType": "bool",
          "name": "isActive",
          "type": "bool"
        },
        {
          "internalType": "bool",
          "name": "isFinalized",
          "type": "bool"
        },
        {
          "internalType": "uint256",
          "name": "forVotes",
          "type": "uint256"
        },
        {
          "internalType": "uint256",
          "name": "againstVotes",
          "type": "uint256"
        },
        {
          "internalType": "uint256",
          "name": "abstainVotes",
          "type": "uint256"
        },
        {
          "internalType": "uint256",
          "name": "requiredThreshold",
          "type": "uint256"
        }
      ],
      "stateMutability": "view",
      "type": "function"
    },
    {
      "inputs": [
        {
          "internalType": "address",
          "name": "_shareholder",
          "type": "address"
        },
        {
          "internalType": "uint32",
          "name": "_shares",
          "type": "uint32"
        },
        {
          "internalType": "string",
          "name": "_companyId",
          "type": "string"
        },
        {
          "internalType": "string",
          "name": "_name",
          "type": "string"
        }
      ],
      "name": "registerShareholderPlain",
      "outputs": [],
      "stateMutability": "nonpayable",
      "type": "function"
    },
    {
      "inputs": [
        {
          "internalType": "address",
          "name": "_member",
          "type": "address"
        }
      ],
      "name": "removeBoardMember",
      "outputs": [],
      "stateMutability": "nonpayable",
      "type": "function"
    },
    {
      "inputs": [],
      "name": "renounceOwnership",
      "outputs": [],
      "stateMutability": "nonpayable",
      "type": "function"
    },
    {
      "inputs": [
        {
          "internalType": "address",
          "name": "",
          "type": "address"
        }
      ],
      "name": "shareholders",
      "outputs": [
        {
          "internalType": "bool",
          "name": "isRegistered",
          "type": "bool"
        },
        {
          "internalType": "uint32",
          "name": "shares",
          "type": "uint32"
        },
        {
          "internalType": "string",
          "name": "companyId",
          "type": "string"
        },
        {
          "internalType": "string",
          "name": "name",
          "type": "string"
        }
      ],
      "stateMutability": "view",
      "type": "function"
    },
    {
      "inputs": [
        {
          "internalType": "uint256",
          "name": "",
          "type": "uint256"
        }
      ],
      "name": "shareholdersList",
      "outputs": [
        {
          "internalType": "address",
          "name": "",
          "type": "address"
        }
      ],
      "stateMutability": "view",
      "type": "function"
    },
    {
      "inputs": [],
      "name": "stockSymbol",
      "outputs": [
        {
          "internalType": "string",
          "name": "",
          "type": "string"
        }
      ],
      "stateMutability": "view",
      "type": "function"
    },
    {
      "inputs": [
        {
          "internalType": "enum CorporateGovernanceMinimal.ProposalType",
          "name": "",
          "type": "uint8"
        }
      ],
      "name": "thresholds",
      "outputs": [
        {
          "internalType": "uint256",
          "name": "",
          "type": "uint256"
        }
      ],
      "stateMutability": "view",
      "type": "function"
    },
    {
      "inputs": [],
      "name": "totalShareholders",
      "outputs": [
        {
          "internalType": "uint256",
          "name": "",
          "type": "uint256"
        }
      ],
      "stateMutability": "view",
      "type": "function"
    },
    {
      "inputs": [],
      "name": "totalShares",
      "outputs": [
        {
          "internalType": "uint256",
          "name": "",
          "type": "uint256"
        }
      ],
      "stateMutability": "view",
      "type": "function"
    },
    {
      "inputs": [
        {
          "internalType": "address",
          "name": "newOwner",
          "type": "address"
        }
      ],
      "name": "transferOwnership",
      "outputs": [],
      "stateMutability": "nonpayable",
      "type": "function"
    }
  ],
  "bytecode": "0x60806040908082523461014b573315610135575060008054336001600160a01b03198083168217845592916001600160a01b03167f8be0079c531659141344cd1fd0a4f28419497f9722a3daafe3b4186f6b6457e08380a3808052600960205260328382205560018152603c8382205560028152604b838220556003815260328382205560048152604b8382205560058152603c838220553381526007602052828120600160ff19825416179055600c549068010000000000000000821015610121576001820180600c5582101561010d57600c90527fdf6966c971051c3d54ec59162606531493a51404a002842f56009d7e5cf4a8c701805490911633179055516120b590816101518239f35b634e487b7160e01b81526032600452602490fd5b634e487b7160e01b81526041600452602490fd5b631e4fbdf760e01b815260006004820152602490fd5b600080fdfe6080604052600436101561001257600080fd5b60003560e01c8063013cf08b14611b475780630f8d403014611b295780631a5007dd14611b0b5780631eac03ae14611a0d57806333bac503146119b2578063392e53cd1461198f57806339a169f9146118e85780633a98ef39146118ca57806341d14c22146117a457806343859632146107b85780635652077c1461163e5780635a50d2f41461160d5780635c2930ad146115965780635e6056bb146114ff5780635ee230b7146114a4578063691e739814611023578063715018a614610fca57806371942a01146106485780638da5cb5b14610fa1578063a39af88e14610bc4578063a759e62914610805578063b97d3e40146107b8578063bc903cb814610687578063bff1378514610648578063c87cbe561461062c578063d098db5a14610359578063d7710d6214610222578063f2fde38b146101945763f5ec2eed1461015b57600080fd5b3461018f57600036600319011261018f5761018b610177611d90565b604051918291602083526020830190611eca565b0390f35b600080fd5b3461018f57602036600319011261018f576101ad611f0a565b6101b5611fa6565b6001600160a01b0390811690811561020957600054826bffffffffffffffffffffffff60a01b821617600055167f8be0079c531659141344cd1fd0a4f28419497f9722a3daafe3b4186f6b6457e0600080a3005b604051631e4fbdf760e01b815260006004820152602490fd5b3461018f57600036600319011261018f5760035460045490610242611d90565b9061024b611cd2565b926040519161025983611c94565b60008352604051918290600c54948585526020809501978896600c6000527fdf6966c971051c3d54ec59162606531493a51404a002842f56009d7e5cf4a8c79060005b81811061033c575050508392916102e16102ef926102c089976102d49d0387611cb0565b6040519b8c9b60c08d5260c08d0190611eca565b908b8203888d0152611eca565b9089820360408b0152611eca565b936060880152608087015285830360a0870152519182815201929160005b82811061031c57505050500390f35b83516001600160a01b03168552869550938101939281019260010161030d565b82546001600160a01b03168c529a88019a6001928301920161029c565b3461018f57604036600319011261018f57600435602490813560ff811680910361018f5781151580610620575b61038f90612020565b336000526020906006825260ff60406000205416156105dc57600281116105a7578260005260088252604060002033600052825260ff6040600020541661057357600019830183811161055e5760ff60056103e983611c20565b500154161561052d5760046103fd82611c20565b500154421161050157836000526008835260406000203360005283526040600020600160ff1982541617905560038210156104ec5761043b90611c20565b5093336000526006835263ffffffff60406000205460081c16600095600184146000146104bb5760066104719101918254612013565b90555b604051946104a75750907feba4866100b822f0f391e610e7edfab790b9e8766c0012733c26b2f1858e8dd79184523393a3005b634e487b7160e01b60009081526021600452fd5b60009650600284036104dd5760076104d69101918254612013565b9055610474565b60086104d69101918254612013565b84634e487b7160e01b60005260216004526000fd5b60405162461bcd60e51b81526004810184905260058187015264115b99195960da1b6044820152606490fd5b60405162461bcd60e51b815260048101849052600a81870152694e6f742061637469766560b01b6044820152606490fd5b84634e487b7160e01b60005260116004526000fd5b60405162461bcd60e51b815260048101839052600d818601526c105b1c9958591e481d9bdd1959609a1b6044820152606490fd5b60405162461bcd60e51b815260048101839052600e818601526d496e76616c69642063686f69636560901b6044820152606490fd5b60405162461bcd60e51b815260048101839052601a818601527f4f6e6c79207665726966696564207368617265686f6c646572730000000000006044820152606490fd5b50600a54821115610386565b3461018f57600036600319011261018f5761018b610177611cd2565b3461018f57602036600319011261018f576001600160a01b03610669611f0a565b166000526007602052602060ff604060002054166040519015158152f35b3461018f57602036600319011261018f57600435801515806107ac575b6106ad90612020565b6000198101908111610796576106c290611c20565b50805460ff6001830154169160068310156107805760018060a01b036003820154169060ff6004820154600583015490610746610706600260098701549601611e26565b6107386040519161071683611c94565b600083526040519a8b9a8b5260208b01526101608060408c01528a0190611eca565b9088820360608a0152611eca565b946080870152600060a087015260c0860152818116151560e086015260081c16151561010084015260006101208401526101408301520390f35b634e487b7160e01b600052602160045260246000fd5b634e487b7160e01b600052601160045260246000fd5b50600a548111156106a4565b3461018f57604036600319011261018f576107d1611f20565b600435600052600860205260406000209060018060a01b0316600052602052602060ff604060002054166040519015158152f35b3461018f57608036600319011261018f5767ffffffffffffffff60043581811161018f57610837903690600401611f4f565b60243582811161018f5761084f903690600401611f4f565b60443583811161018f57610867903690600401611f4f565b50610870611fa6565b600560ff815416610b89578251848111610a88576001906108918254611c5a565b90601f91828111610b27575b50806020838211600114610aa957600091610a9e575b50600019600383901b1c191690831b1782555b8351958611610a88576108da600254611c5a565b818111610a25575b50602090861160011461097a579161095c949391867f9f2b0152a49dba19e307c8e31a1c32a54f6dbd3318d3165028e7b602a85eedcf9761096a9560009161096f575b50600019600383901b1c191690821b176002555b60643560035560ff19825416179055604051938493604085526040850190611eca565b908382036020850152611eca565b0390a1005b905084015189610925565b601f1986169060026000527f405787fa12a823e0f2b7631cc41b3ba8828b3321ca811111fa75cd3aa3bb5ace9160005b818110610a0f5750928761096a959382937f9f2b0152a49dba19e307c8e31a1c32a54f6dbd3318d3165028e7b602a85eedcf9a61095c9a9997106109f6575b5050811b01600255610939565b86015160001960f88460031b161c1916905589806109e9565b86830151845592840192602092830192016109aa565b60026000527f405787fa12a823e0f2b7631cc41b3ba8828b3321ca811111fa75cd3aa3bb5ace82808901861c82019260208a10610a7f575b01851c019083905b828110610a735750506108e2565b60008155018390610a65565b92508192610a5d565b634e487b7160e01b600052604160045260246000fd5b9050860151886108b3565b849250601f19821690836000527fb10e2d527612073b26eecdfd717e6a320cf44b4afac2b0732d9fcbe2b7fa0cf69160005b818110610b0f57508311610af6575b5050811b0182556108c6565b88015160001960f88460031b161c191690558880610aea565b8a830151845587959093019260209283019201610adb565b836000527fb10e2d527612073b26eecdfd717e6a320cf44b4afac2b0732d9fcbe2b7fa0cf683808401871c82019260208510610b80575b01861c019084905b828110610b7457505061089d565b60008155018490610b66565b92508192610b5e565b60405162461bcd60e51b8152602060048201526013602482015272105b1c9958591e481a5b9a5d1a585b1a5e9959606a1b6044820152606490fd5b3461018f5760a036600319011261018f5760043560ff811680910361018f5760243567ffffffffffffffff811161018f57610c03903690600401611f4f565b60443567ffffffffffffffff811161018f57610c23903690600401611f4f565b5060643567ffffffffffffffff811161018f57610c44903690600401611f4f565b5060843590336000526007602052610c6360ff60406000205416611fd2565b600583111580610f97575b15610f6257600a549160018301831161079657600684101561078057620151809081810291818304149015171561079657610ca99042612013565b610cb284611f36565b549160405194610160860186811067ffffffffffffffff821117610a8857604052600185018652602086015260408501523360608501526080840152600160a0840152600060c0840152600060e084015260006101008401526000610120840152610140830152600160401b811015610a885760018101600a55610d3581611c20565b610f4c578251815560018101602084015160068110156107805760ff80198354169116179055604083015192835167ffffffffffffffff8111610a8857610d7f6002840154611c5a565b94601f8611610f05575b602095508590601f8311600114610e935791806009949261014094600092610e88575b50508160011b916000199060031b1c19161760028501555b6003840160018060a01b036060830151166bffffffffffffffffffffffff60a01b8254161790556080810151600485015560058401610e1560a08301511515829060ff801983541691151516179055565b60c0820151151561ff0082549160081b169061ff00191617905560e08101516006850155610100810151600785015561012081015160088501550151910155600160405191338282017fcd423cc1203c0af96b9b3d68d73b3064a69de2d14450bb7181c5e5df2132b358600080a3018152f35b015190508880610dac565b90601f1983169160028601600052876000209260005b818110610eee5750926001928592610140966009989610610ed5575b505050811b016002850155610dc4565b015160001960f88460031b161c19169055888080610ec5565b929389600181928786015181550195019301610ea9565b600284016000526020600020601f830160051c810160208410610f45575b601f880160051c82018110610f39575050610d89565b60008155600101610f23565b5080610f23565b634e487b7160e01b600052600060045260246000fd5b60405162461bcd60e51b815260206004820152600d60248201526c125b9d985b1a59081a5b9c1d5d609a1b6044820152606490fd5b5080511515610c6e565b3461018f57600036600319011261018f576000546040516001600160a01b039091168152602090f35b3461018f57600036600319011261018f57610fe3611fa6565b600080546001600160a01b0319811682556001600160a01b03167f8be0079c531659141344cd1fd0a4f28419497f9722a3daafe3b4186f6b6457e08280a3005b3461018f57608036600319011261018f5761103c611f0a565b60249081359063ffffffff821680920361018f5767ffffffffffffffff9160443583811161018f57611072903690600401611f4f565b60643584811161018f5761108a903690600401611f4f565b33600052602093600785526110a660ff60406000205416611fd2565b6001600160a01b0316600081815260068652604090205490959060ff1661146b576040519160808301838110838211176114565760405260019384845286840191868352604085019182526060850152876000526006875260406000209161111d85511515849060ff801983541691151516179055565b51825464ffffffff00191660089190911b64ffffffff001617825551805185830191848211611441576111508354611c5a565b601f81116113f8575b508890601f831160011461138a579180600294926060969460009261137f575b5050600019600383901b1c191690881b1790555b01920151805191821161136a5781906111a68454611c5a565b601f8111611317575b508690601f83116001146112b4576000926112a9575b5050600019600383901b1c191690831b1790555b600b54600160401b8110156112945781810180600b5581101561127f57600b6000527f0175b7a638427703f0dbe7bb9bbf987a2551717b34e79f33b5b1008d1fa01db90180546001600160a01b03191685179055600454600019811461126a577fde21d560f37149b87d711f68dd9f1ed9a63123ae2df83cdac230e105a09895e694955001600455604051908152a2005b85634e487b7160e01b60005260116004526000fd5b85634e487b7160e01b60005260326004526000fd5b85634e487b7160e01b60005260416004526000fd5b0151905088806111c5565b90859350601f1983169185600052886000209260005b8a82821061130157505084116112e8575b505050811b0190556111d9565b015160001960f88460031b161c191690558880806112db565b83850151865589979095019493840193016112ca565b9091508360005286600020601f840160051c810191888510611360575b84939291601f88920160051c01915b8281106113515750506111af565b60008155859450879101611343565b9091508190611334565b87634e487b7160e01b60005260416004526000fd5b015190508d80611179565b879291601f19831691856000528b6000209260005b8d8282106113e257505091606097959391856002989694106113c9575b505050811b01905561118d565b015160001960f88460031b161c191690558d80806113bc565b8385015186558c9790950194938401930161139f565b8360005289600020601f840160051c8101918b8510611437575b601f0160051c019088905b82811061142b575050611159565b6000815501889061141d565b9091508190611412565b8a634e487b7160e01b60005260416004526000fd5b88634e487b7160e01b60005260416004526000fd5b60405162461bcd60e51b81526004810186905260128189015271105b1c9958591e481c9959da5cdd195c995960721b6044820152606490fd5b3461018f57602036600319011261018f57600435600c5481101561018f57600c6000527fdf6966c971051c3d54ec59162606531493a51404a002842f56009d7e5cf4a8c701546040516001600160a01b039091168152602090f35b3461018f57602036600319011261018f576001600160a01b03611520611f0a565b16600052600660205263ffffffff604060002061158b81549161157d611554600261154d60018501611e26565b9301611e26565b91604051958560ff8897161515875260081c16602086015260a0604086015260a0850190611eca565b908382036060850152611eca565b600160808301520390f35b3461018f57602036600319011261018f576001600160a01b036115b7611f0a565b16600052600660205263ffffffff604060002061018b81549161157d6115e4600261154d60018501611e26565b91604051958560ff8897161515875260081c166020860152608060408601526080850190611eca565b3461018f57602036600319011261018f57600435600681101561018f57611635602091611f36565b54604051908152f35b3461018f57602036600319011261018f5760043580151580611798575b61166490612020565b33600052600760205261167e60ff60406000205416611fd2565b60001981018181116107965761169390611c20565b5060058101805460ff81168061178b575b156117545761ffff1916610100179055600681015460078201546116c89082612013565b908115159283611703575b847fb5ac567fcf1b069e0235e4f16734625c6cf54c1b40517fd9eb85517f6e1265a76020866040519015158152a2005b909192506064820291808304606414901517156107965760096117497fb5ac567fcf1b069e0235e4f16734625c6cf54c1b40517fd9eb85517f6e1265a79460209461205f565b9101541091846116d3565b60405162461bcd60e51b815260206004820152600f60248201526e43616e6e6f742066696e616c697a6560881b6044820152606490fd5b50600483015442116116a4565b50600a5481111561165b565b3461018f57602036600319011261018f57600435801515806118be575b6117ca90612020565b3360005260076020526117e460ff60406000205416611fd2565b6000198101908111610796576117f990611c20565b5060ff600582015460081c1615611889576006810154600782015461181e8183612013565b908115159182611857575b50600860809463ffffffff918291015416918160405195168552166020840152604083015215156060820152f35b9391506064830293838504606414841517156107965761187b60089160809661205f565b600984015410929450611829565b60405162461bcd60e51b815260206004820152600d60248201526c139bdd08199a5b985b1a5e9959609a1b6044820152606490fd5b50600a548111156117c1565b3461018f57600036600319011261018f576020600354604051908152f35b3461018f57602036600319011261018f57611901611f0a565b611909611fa6565b60018060a01b038091169081600052600760205260ff604060002054169081611980575b501561194b576000908152600760205260409020805460ff19169055005b60405162461bcd60e51b815260206004820152600d60248201526c43616e6e6f742072656d6f766560981b6044820152606490fd5b9050600054168114158261192d565b3461018f57600036600319011261018f57602060ff600554166040519015158152f35b3461018f57602036600319011261018f57600435600b5481101561018f57600b6000527f0175b7a638427703f0dbe7bb9bbf987a2551717b34e79f33b5b1008d1fa01db901546040516001600160a01b039091168152602090f35b3461018f57602036600319011261018f57611a26611f0a565b611a2e611fa6565b6001600160a01b031660008181526007602052604090205460ff16611acf578060005260076020526040600020600160ff19825416179055600c54600160401b811015610a88576001810180600c55811015611ab9577fdf6966c971051c3d54ec59162606531493a51404a002842f56009d7e5cf4a8c70180546001600160a01b0319169091179055005b634e487b7160e01b600052603260045260246000fd5b60405162461bcd60e51b815260206004820152601460248201527320b63932b0b23c903137b0b9321036b2b6b132b960611b6044820152606490fd5b3461018f57600036600319011261018f576020600a54604051908152f35b3461018f57600036600319011261018f576020600454604051908152f35b3461018f57602036600319011261018f57600435600a5481101561018f57611b6e90611c20565b5080549060ff60018201541690611b8760028201611e26565b60018060a01b03600383015416916004810154916005820154906006830154906007840154926009600886015495015495604051998a52600689101561078057611be560ff938b9a60208c01526101608060408d01528b0190611eca565b9760608a01526080890152818116151560a089015260081c16151560c087015260e08601526101008501526101208401526101408301520390f35b600a54811015611ab957600a9081600052027fc65a7bb8d6351c1cf70c95a316cc6a92839c986682d98bc35f958f4883f9d2a80190600090565b90600182811c92168015611c8a575b6020831014611c7457565b634e487b7160e01b600052602260045260246000fd5b91607f1691611c69565b6020810190811067ffffffffffffffff821117610a8857604052565b90601f8019910116810190811067ffffffffffffffff821117610a8857604052565b6040519060008260025491611ce683611c5a565b80835292600190818116908115611d6e5750600114611d0f575b50611d0d92500383611cb0565b565b6002600090815291507f405787fa12a823e0f2b7631cc41b3ba8828b3321ca811111fa75cd3aa3bb5ace5b848310611d535750611d0d935050810160200138611d00565b81935090816020925483858a01015201910190918592611d3a565b905060209250611d0d94915060ff191682840152151560051b82010138611d00565b60405190600082600191825492611da684611c5a565b80845293818116908115611d6e5750600114611dc95750611d0d92500383611cb0565b600081815291507fb10e2d527612073b26eecdfd717e6a320cf44b4afac2b0732d9fcbe2b7fa0cf65b848310611e0b5750611d0d935050810160200138611d00565b81935090816020925483858a01015201910190918592611df2565b9060405191826000825492611e3a84611c5a565b908184526001948581169081600014611ea75750600114611e64575b5050611d0d92500383611cb0565b9093915060005260209081600020936000915b818310611e8f575050611d0d93508201013880611e56565b85548884018501529485019487945091830191611e77565b915050611d0d94506020925060ff191682840152151560051b8201013880611e56565b919082519283825260005b848110611ef6575050826000602080949584010152601f8019910116010190565b602081830181015184830182015201611ed5565b600435906001600160a01b038216820361018f57565b602435906001600160a01b038216820361018f57565b6006811015610780576000526009602052604060002090565b81601f8201121561018f5780359067ffffffffffffffff8211610a885760405192611f84601f8401601f191660200185611cb0565b8284526020838301011161018f57816000926020809301838601378301015290565b6000546001600160a01b03163303611fba57565b60405163118cdaa760e01b8152336004820152602490fd5b15611fd957565b60405162461bcd60e51b81526020600482015260126024820152714f6e6c7920626f617264206d656d6265727360701b6044820152606490fd5b9190820180921161079657565b1561202757565b60405162461bcd60e51b815260206004820152601060248201526f125b9d985b1a59081c1c9bdc1bdcd85b60821b6044820152606490fd5b8115612069570490565b634e487b7160e01b600052601260045260246000fdfea26469706673582212204bdf3ccb316ad427c85a8ed4ce10aa03c68da84e9f77799961b8930a626448ea64736f6c63430008140033",
  "linkReferences": {},
  "deployedLinkReferences": {}
}