{
  "_format": "hh-sol-artifact-1",
  "contractName": "SimpleVoting",
  "sourceName": "contracts/SimpleVoting.sol",
  "abi": [
    {
      "inputs": [],
      "stateMutability": "nonpayable",
      "type": "constructor"
    },
    {
      "anonymous": false,
      "inputs": [
        {
          "indexed": true,
          "internalType": "uint256",
          "name": "proposalId",
          "type": "uint256"
        },
        {
          "indexed": false,
          "internalType": "string",
          "name": "title",
          "type": "string"
        },
        {
          "indexed": false,
          "internalType": "address",
          "name": "proposer",
          "type": "address"
        }
      ],
      "name": "ProposalCreated",
      "type": "event"
    },
    {
      "anonymous": false,
      "inputs": [
        {
          "indexed": true,
          "internalType": "uint256",
          "name": "proposalId",
          "type": "uint256"
        },
        {
          "indexed": false,
          "internalType": "address",
          "name": "voter",
          "type": "address"
        },
        {
          "indexed": false,
          "internalType": "uint8",
          "name": "choice",
          "type": "uint8"
        }
      ],
      "name": "VoteCast",
      "type": "event"
    },
    {
      "inputs": [
        {
          "internalType": "address",
          "name": "user",
          "type": "address"
        }
      ],
      "name": "authorize",
      "outputs": [],
      "stateMutability": "nonpayable",
      "type": "function"
    },
    {
      "inputs": [
        {
          "internalType": "address",
          "name": "",
          "type": "address"
        }
      ],
      "name": "authorized",
      "outputs": [
        {
          "internalType": "bool",
          "name": "",
          "type": "bool"
        }
      ],
      "stateMutability": "view",
      "type": "function"
    },
    {
      "inputs": [
        {
          "internalType": "string",
          "name": "_title",
          "type": "string"
        },
        {
          "internalType": "string",
          "name": "_description",
          "type": "string"
        },
        {
          "internalType": "uint256",
          "name": "_durationDays",
          "type": "uint256"
        }
      ],
      "name": "createProposal",
      "outputs": [
        {
          "internalType": "uint256",
          "name": "",
          "type": "uint256"
        }
      ],
      "stateMutability": "nonpayable",
      "type": "function"
    },
    {
      "inputs": [
        {
          "internalType": "uint256",
          "name": "_proposalId",
          "type": "uint256"
        }
      ],
      "name": "getProposal",
      "outputs": [
        {
          "internalType": "uint256",
          "name": "id",
          "type": "uint256"
        },
        {
          "internalType": "string",
          "name": "title",
          "type": "string"
        },
        {
          "internalType": "string",
          "name": "description",
          "type": "string"
        },
        {
          "internalType": "uint256",
          "name": "forVotes",
          "type": "uint256"
        },
        {
          "internalType": "uint256",
          "name": "againstVotes",
          "type": "uint256"
        },
        {
          "internalType": "uint256",
          "name": "abstainVotes",
          "type": "uint256"
        },
        {
          "internalType": "uint256",
          "name": "deadline",
          "type": "uint256"
        },
        {
          "internalType": "bool",
          "name": "active",
          "type": "bool"
        },
        {
          "internalType": "address",
          "name": "proposer",
          "type": "address"
        }
      ],
      "stateMutability": "view",
      "type": "function"
    },
    {
      "inputs": [],
      "name": "getTotalProposals",
      "outputs": [
        {
          "internalType": "uint256",
          "name": "",
          "type": "uint256"
        }
      ],
      "stateMutability": "view",
      "type": "function"
    },
    {
      "inputs": [
        {
          "internalType": "uint256",
          "name": "",
          "type": "uint256"
        },
        {
          "internalType": "address",
          "name": "",
          "type": "address"
        }
      ],
      "name": "hasVoted",
      "outputs": [
        {
          "internalType": "bool",
          "name": "",
          "type": "bool"
        }
      ],
      "stateMutability": "view",
      "type": "function"
    },
    {
      "inputs": [],
      "name": "owner",
      "outputs": [
        {
          "internalType": "address",
          "name": "",
          "type": "address"
        }
      ],
      "stateMutability": "view",
      "type": "function"
    },
    {
      "inputs": [],
      "name": "proposalCount",
      "outputs": [
        {
          "internalType": "uint256",
          "name": "",
          "type": "uint256"
        }
      ],
      "stateMutability": "view",
      "type": "function"
    },
    {
      "inputs": [
        {
          "internalType": "uint256",
          "name": "",
          "type": "uint256"
        }
      ],
      "name": "proposals",
      "outputs": [
        {
          "internalType": "uint256",
          "name": "id",
          "type": "uint256"
        },
        {
          "internalType": "string",
          "name": "title",
          "type": "string"
        },
        {
          "internalType": "string",
          "name": "description",
          "type": "string"
        },
        {
          "internalType": "uint256",
          "name": "forVotes",
          "type": "uint256"
        },
        {
          "internalType": "uint256",
          "name": "againstVotes",
          "type": "uint256"
        },
        {
          "internalType": "uint256",
          "name": "abstainVotes",
          "type": "uint256"
        },
        {
          "internalType": "uint256",
          "name": "deadline",
          "type": "uint256"
        },
        {
          "internalType": "bool",
          "name": "active",
          "type": "bool"
        },
        {
          "internalType": "address",
          "name": "proposer",
          "type": "address"
        }
      ],
      "stateMutability": "view",
      "type": "function"
    },
    {
      "inputs": [
        {
          "internalType": "uint256",
          "name": "_proposalId",
          "type": "uint256"
        },
        {
          "internalType": "uint8",
          "name": "_choice",
          "type": "uint8"
        }
      ],
      "name": "vote",
      "outputs": [],
      "stateMutability": "nonpayable",
      "type": "function"
    }
  ],
  "bytecode": "0x6080806040523461004457600480546001600160a01b031916339081179091556000908152600260205260409020805460ff19166001179055610c84908161004a8239f35b600080fdfe6080604052600436101561001257600080fd5b60003560e01c8063013cf08b146109595780630ce0ebf4146104f35780631a5007dd1461008a57806343859632146104a15780638da5cb5b14610478578063943e82161461024a578063b6a5d7de146101ce578063b91816111461018f578063c7f758a8146100ad5763da35c6641461008a57600080fd5b346100a85760003660031901126100a8576020600354604051908152f35b600080fd5b346100a85760203660031901126100a85760043580151580610183575b6100d390610c0f565b600052600060205260406000206040516100ec81610a0d565b8154815261017f6100ff60018401610a4c565b916020810192835261011360028501610a4c565b9384604083015260038101549081606084015260048101548060808501526005820154908160a086015260076006840154938460c088015201549360ff85161515948560e088015260018060a01b039060081c16958661010082015251975198604051998a998a610b32565b0390f35b506003548111156100ca565b346100a85760203660031901126100a8576001600160a01b036101b0610bea565b166000526002602052602060ff604060002054166040519015158152f35b346100a85760203660031901126100a8576101e7610bea565b6004546001600160a01b0391908216330361021857166000908152600260205260409020805460ff19166001179055005b60405162461bcd60e51b815260206004820152600a60248201526927b7363c9037bbb732b960b11b6044820152606490fd5b346100a85760403660031901126100a85760043560243560ff81168091036100a8578115158061046c575b61027e90610c0f565b8160005260209060018252604060002033600052825260ff6040600020541661043757826000526000825260ff60076040600020015416156103fc5782600052600082526006604060002001544210156103c85760028111610392577feba4866100b822f0f391e610e7edfab790b9e8766c0012733c26b2f1858e8dd79160409184600052600182528260002033600052825282600020600160ff198254161790558015600014610351578460005260008252600583600020016103428154610c00565b90555b825191338352820152a2005b60018103610379578460005260008252600383600020016103728154610c00565b9055610345565b8460005260008252600483600020016103728154610c00565b60405162461bcd60e51b815260048101839052600e60248201526d496e76616c69642063686f69636560901b6044820152606490fd5b60405162461bcd60e51b815260048101839052600c60248201526b159bdd1a5b99c8195b99195960a21b6044820152606490fd5b60405162461bcd60e51b815260048101839052601360248201527250726f706f73616c206e6f742061637469766560681b6044820152606490fd5b60405162461bcd60e51b815260048101839052600d60248201526c105b1c9958591e481d9bdd1959609a1b6044820152606490fd5b50600354821115610275565b346100a85760003660031901126100a8576004546040516001600160a01b039091168152602090f35b346100a85760403660031901126100a8576024356001600160a01b038116908190036100a8576004356000526001602052604060002090600052602052602060ff604060002054166040519015158152f35b346100a85760603660031901126100a85760043567ffffffffffffffff81116100a857610524903690600401610b93565b60243567ffffffffffffffff81116100a857610544903690600401610b93565b60443533600052600260205260ff604060002054168015610945575b1561090f57610570600354610c00565b908160035562015180908181029181830414901517156108f95780420142116108f957604051926105a084610a0d565b82845284602085015260408401526000606084015260006080840152600060a0840152420160c0830152600160e0830152336101008301526000526000602052604060002081518155602082015192835167ffffffffffffffff81116108225761060d60018401546109d3565b601f81116108b2575b506020601f8211600114610843578192939495600092610838575b50508160011b916000199060031b1c19161760018301555b604083015192835167ffffffffffffffff81116108225761066d60028501546109d3565b94601f86116107db575b602095508590601f831160011461076757918061074c969260079460009261075c575b50508160011b916000199060031b1c19161760028201555b606083015160038201556080830151600482015560a0830151600582015560c08301516006820155019060e081015115159060ff83549161010080600160a81b0391015160081b169216906affffffffffffffffffffff60a81b16171790557fc8c078bfee58e5822588f08b4509ed1eb5058e03f666cca84dd2d44bf5c288a8600354928392604051918291604083526040830190610af2565b33878301520390a2604051908152f35b01519050888061069a565b9060028601600052866000209160005b601f19851681106107c457509261074c969260019260079583601f198116106107ab575b505050811b0160028201556106b2565b015160001960f88460031b161c1916905588808061079b565b919288600181928685015181550194019201610777565b600285016000526020600020601f830160051c81016020841061081b575b601f880160051c8201811061080f575050610677565b600081556001016107f9565b50806107f9565b634e487b7160e01b600052604160045260246000fd5b015190508580610631565b6001840160005260206000209060005b601f198416811061089a575060019394959683601f19811610610881575b505050811b016001830155610649565b015160001960f88460031b161c19169055858080610871565b9091602060018192858b015181550193019101610853565b600184016000526020600020601f830160051c8101602084106108f2575b601f830160051c820181106108e6575050610616565b600081556001016108d0565b50806108d0565b634e487b7160e01b600052601160045260246000fd5b60405162461bcd60e51b815260206004820152600e60248201526d139bdd08185d5d1a1bdc9a5e995960921b6044820152606490fd5b506004546001600160a01b03163314610560565b346100a85760203660031901126100a8576004356000526000602052604060002080549061017f61098c60018301610a4c565b9161099960028201610a4c565b936003820154916004810154600582015490600760068401549301549460405198899860ff60018060a01b038960081c169816968a610b32565b90600182811c92168015610a03575b60208310146109ed57565b634e487b7160e01b600052602260045260246000fd5b91607f16916109e2565b610120810190811067ffffffffffffffff82111761082257604052565b90601f8019910116810190811067ffffffffffffffff82111761082257604052565b9060405191826000825492610a60846109d3565b908184526001948581169081600014610acf5750600114610a8c575b5050610a8a92500383610a2a565b565b9093915060005260209081600020936000915b818310610ab7575050610a8a93508201013880610a7c565b85548884018501529485019487945091830191610a9f565b915050610a8a94506020925060ff191682840152151560051b8201013880610a7c565b919082519283825260005b848110610b1e575050826000602080949584010152601f8019910116010190565b602081830181015184830182015201610afd565b97949192610b5961010098959b9a9794610b67938b526101208060208d01528b0190610af2565b9089820360408b0152610af2565b6060880199909952608087015260a086015260c0850152151560e08401526001600160a01b0316910152565b81601f820112156100a85780359067ffffffffffffffff82116108225760405192610bc8601f8401601f191660200185610a2a565b828452602083830101116100a857816000926020809301838601378301015290565b600435906001600160a01b03821682036100a857565b60001981146108f95760010190565b15610c1657565b60405162461bcd60e51b815260206004820152601060248201526f125b9d985b1a59081c1c9bdc1bdcd85b60821b6044820152606490fdfea26469706673582212203352354b01b17264d478f84ae6fea816496193d90fa5da91f3ceb048d0e05eaa64736f6c63430008140033",
  "linkReferences": {},
  "deployedLinkReferences": {}
}